:04000005080081E48A
:020000040800F2
:1080000000000120D1F30008F1BB0008F5BB000817
:1080100001BC00080DBC000819BC000800000000ED
:1080200000000000000000000000000025BC000867
:1080300029BC0008000000002DBC000831BC00086D
:1080400019F4000819F4000819F4000819F40008DC
:1080500019F4000819F4000819F4000819F40008CC
:1080600019F4000819F4000819F4000819F40008BC
:1080700019F4000819F4000819F4000819F40008AC
:1080800019F4000819F4000819F4000835BC0008B8
:1080900041BC00084DBC000859BC000819F4000898
:1080A00019F4000819F4000819F4000819F400087C
:1080B00019F4000819F4000819F4000819F400086C
:1080C00019F4000819F4000819F4000819F400085C
:1080D00019F4000819F4000819F4000819F400084C
:1080E00019F4000819F4000819F400080000000051
:1080F0000000000000000000000000000000000080
:10810000000000000000000019F4000819F4000845
:1081100019F4000819F4000819F4000819F400080B
:1081200019F4000819F4000819F4000819F40008FB
:1081300019F40008000000000000000065BC000801
:1081400071BC00087DBC000889BC000895BC000813
:10815000000000000000000000000000000000001F
:10816000000000000000000000000000000000000F
:1081700000000000000000000000000000000000FF
:1081800000000000000000000000000000000000EF
:1081900000000000000000000000000000000000DF
:1081A00000000000000000000000000000000000CF
:1081B00000000000000000000000000000000000BF
:1081C00000000000000000000000000000000000AF
:1081D000000000000000000000000000000000009F
:1081E0005FF8E0F153B94AB9002908BF00281CBF65
:1081F0004FF0FF314FF0FF3000F00CB8ADF1080C3C
:108200006DE904CE07F00AF9DDF804E0DDE90223A8
:1082100004B07047704700BF034613F8012B002AD3
:10822000FBD1181A013870470348044B834202D02F
:10823000034B03B1184770479001002090010020C4
:10824000000000000548064B1B1AD90F01EBA301E3
:10825000491002D0034B03B118477047900100202A
:10826000900100200000000010B5064C237843B9AF
:10827000FFF7DAFF044B13B10448AFF3008001238A
:10828000237010BD9001002000000000C8F7000816
:1082900008B5054B1BB105490548AFF30080BDE8A3
:1082A0000840FFF7CFBF00BF00000000940100208E
:1082B000C8F700080849094A914238BF084603D365
:1082C00008E00430904203D20368B3F1C53FF8D010
:1082D000401A70470020704754ED00200000012034
:1082E000F0B59FB003F008FD6B46A948A3F140022A
:1082F000824207D91A1A413A22F00302C5210432F8
:1083000007F028FAA34BA449DA69A44C42F0805242
:10831000DA61DA69A24802F080520092009ADA69C2
:1083200042F00062DA61DB6903F000630193019BB4
:108330008B682370CB68DBB2037033B10020994A9D
:10834000136843F480731360C8603422002111A8BD
:1083500007F000FA202200210DEB0200CDE9031105
:10836000CDE90511079107F0F5F902204FF48031AE
:1083700001244FF480324FF4E013CDE9180110A826
:10838000109412921A9304F0F5FC08B172B6FEE74D
:1083900010230F9008A8089305F036F8034608B19B
:1083A00072B6FEE702260F224FF48067314603A81B
:1083B0000593079303920496069704F07FFF054602
:1083C00008B172B6FEE7734B77499A6942F0010231
:1083D0009A619A6902F001020892089A4A6822F0AA
:1083E000E06242F000724A609A6910A942F0040209
:1083F0009A619A6902F004020292029A9A6942F022
:1084000010029A619B694FF4005203F0100303932A
:10841000039B012312906548CDE91023139603F0C6
:1084200039FE22464FF40051604803F047FF002315
:108430004FF400725E4810A9CDE91023129503F0A5
:1084400029FE13964FF40066584810A9CDE911454E
:10845000109703F01FFE2A463946544803F02EFFBA
:10846000524810A9109603F015FE31464FF480567D
:108470002A464E4803F022FF4C4810A9109603F0FC
:1084800009FE31464FF400462A46484803F016FFDD
:10849000474810A9109603F0FDFD2A46314644488E
:1084A00003F00CFF032740F2E1434249424A0846E9
:1084B000C1E901730A6005F04DFC0546002864D14E
:1084C00002F0A8FC02F0D0FD01F0A6FE284602F062
:1084D0005DFF3A4E3060204602F058FF0146706062
:1084E000306801F029FA3946284600F051FE2A4644
:1084F0003349344806F064F93349324806F076F9D6
:108500003249304806F012FF2E4806F079F903F0A0
:1085100067F9064603F06AF9044603F06DF9074669
:10852000244805F043FC03F05BF98642054604D07D
:108530000246FF21072002F0E9FB03F057F98442CD
:10854000064604D00246FF21082002F0DFFB03F0BC
:1085500053F987420446A0EB070207D0FF2A28BF41
:10856000FF22FF210A20D2B202F0D0FB4FF40071AB
:108570000F4803F09DFE274601F02EF8344602F026
:108580003FFB2E4600F00EFECAE772B6FEE700BFC4
:1085900054ED002000100240006C0040AD010020AE
:1085A000AC010020007000400000014000100140BC
:1085B00000080140B0010020003000400000002011
:1085C00058000020BC0100204C0100200C000020BD
:1085D000014B1878704700BFAD010020014B18789F
:1085E000704700BFAC0100200F4B82B0DA69DFF8A2
:1085F0003CC042F08052DA61DA690D4902F08052E3
:108600000092009ADA6942F00062DA61DB6903F0F5
:1086100000630193019BDCF8003043F48073CCF8D5
:108620000030C86002B07047001002400070004087
:10863000006C0040014805F0B9BB00BFB00100204C
:10864000BFF34F8F0549064BCA6802F4E06213433B
:10865000CB60BFF34F8F00BFFDE700BF00ED00E030
:108660000400FA05002000B5114B83B0DA69DFF889
:1086700044C042F08052DA61DA690F4902F0805258
:108680000092009ADA6942F00062DA61DB690B4A13
:1086900003F000630193019BDCF8003043F4807326
:1086A000CCF80030C2F8F00F4860FFF7C9FF00BFF8
:1086B0000010024000700040006C004000400020AC
:1086C000F0B51030C3B01D468DF804008DF80510CC
:1086D0008DF8063033B12AB111460DF107001A4664
:1086E00007F064F803F026FB00240746033507E093
:1086F000FFF7A0FF03F01EFBC01BB0F5617F07D2A0
:1087000021462A4601A802F0EBFF85420446EFD835
:1087100043B0F0BD2DE9F04FADF5517D02F09EFF65
:1087200030B9B34B186000200DF5517DBDE8F08FD6
:1087300003900DF11E01002002F0B6FF9DF81E40CF
:10874000039A4CBB162A174628BF16279046A94DF8
:108750008BAEBFB23146A0B202F0A6FF2A783378C2
:108760009A4216D10134A74205F10105F2D1B8F1C0
:10877000150F00F27F8403F0DDFA9D4A1368002B89
:1087800000F0B083C01AB0F5FA7FCCD30023136099
:10879000A4E042469DF81E40A02C00F0F6807ED951
:1087A000BE2C00F2A080BA2C40F29880BC2C00F0C5
:1087B000FA80BE2C00F0A783042A40F2958308AB10
:1087C0001946B4F1BB094FF001000493039218BF9E
:1087D0004FF0010902F068FF09A9022002F064FFCE
:1087E000032009A99DF8247002F05EFF04204FF0D9
:1087F00005084FF0000B9DF82430039A47EA032741
:1088000005900AA9039202F04FFF9DF82830082B2B
:1088100064D8039AB9F1000F00D1984408F101051A
:10882000AA42C0F06183002603974AAC4AAF2146B2
:10883000B0B2013602F038FFAE4204F10104F6D1C5
:1088400000233A464AA9039F01EB080012F8011BD6
:10885000824283EA0103F9D14AA911F808209A4219
:108860003CD1049B9DF82820197800238DF82C1208
:108870008DF82DB2CDF82F728DF82E928DF833220F
:108880008DF83432B9F1000F00F04083CDF8353265
:10889000CDF839328BA801F0EBF9A8B244E7902C5F
:1088A00066D0922C1AD102F0E3FC932305468DF892
:1088B0002C32827B00F10F010DF22E208DF82D223B
:1088C00006F074FFFF234C4AA97B8BAC127820463C
:1088D0000C44A270E370043102F050FF01200DF54A
:1088E000517DBDE8F08F4034E4B2122CF6D8012A55
:1088F00000F088800DF11F0739460120039202F035
:10890000D3FE3B78039A9C1CA2427BD363B1002523
:108910004AAEA81C314680B202F0C6FE3B78013553
:10892000AB4206F10106F4D8344E336801333360AC
:1089300003F000FA05469DF81E003B78A0F1C00246
:10894000122A00F21E84DFE812F08402A9023E021D
:108950002C021E021002E3014C02AC014601380158
:1089600024010C01F500DB0088007F00C9006D00C8
:1089700091232149224A0C7812788BA80321447054
:108980008270037002F0FAFEA8E7002001F060F99F
:108990000346A1241A0A8BA8032104704270837035
:1089A00002F0ECFE9AE74FF00009062A40F29C82A2
:1089B00000252F4608AB194601200493039202F0CC
:1089C00073FE039EA81C80B209A902F06DFE9DF8FB
:1089D0002430EA0001359340042D47EA0307F1D122
:1089E000062032464FF007084FF0010B059008E7CC
:1089F0008004002060FB0008910400208C0400200B
:108A00009004002003F096F9B84B1A68002A00F091
:108A10007882801AB0F5FA7FFFF485AE002201203B
:108A20001A6081E602F07EFDB0FA80F10023490968
:108A3000D2201A464900FFF743FE03F07BF9AC4A07
:108A4000431B1360A0B26FE6002B40F08B821A46E6
:108A50000121D020FFF734FEEFE7032B40F29A828A
:108A6000042B4A9800F099829DF82C21002A00F0EE
:108A70009482172A28BF17228BA902F027FA8DF8B3
:108A80002800002800F0E58200EB800100EB4101A6
:108A90000DF129038BAA1944870016680B3343F89C
:108AA0000B6C56680C3243F8076C12F8046C03F830
:108AB000036C12F8036C03F8026C12F8026C03F8F2
:108AC000016C8B42E9D1074400EB47077B1C002176
:108AD000CF200AAADBB2FFF7F3FDAEE7012B08D9DE
:108AE0009DF82921102A04D8911CC9B28B4280F02C
:108AF000B28200230121D1201A46FFF7E1FD9CE755
:108B0000022B40F21A829DF82861013EF6B2012E36
:108B100000F21382BDF829713046394601F052F84F
:108B20000346002840F0DE8202460221CE20FFF7F5
:108B3000C7FD82E7022B40F207829DF82801013829
:108B4000C0B2012800F200829DF82A219DF8291167
:108B500000F0BAFE0023CD201A461946FFF7B0FDFB
:108B60006BE702F019FE804602F01CFE8646604B61
:108B70003668D3F800C05F4B8BAA1F68002114230E
:108B8000CC20C2E9008EC2E9026C1761FFF798FDA4
:108B900053E7012B00F01A82022B07D19DF8280120
:108BA00020B99DF82931A52B00F015820023012161
:108BB000CB201A46FFF784FD3FE7522B04D99DF8DE
:108BC0002821452A40F2EB8100230121CA201A46C0
:108BD000FFF776FD31E702F04BFB0021074642220A
:108BE0000DF22E2006F0B6FD0522434B8DF82D2206
:108BF0001B780A228DF82C3201238DF82F327B7FCF
:108C00008DF83032BB7F8DF832228DF8313202F090
:108C100033FB4FF48071394A8DF83302ADF82E12D0
:108C2000374B12689A4200F00E82364ADFF8D8C0FD
:108C30008FAB0AAF07CAB84683E80700BCE80F004D
:108C40000FC79CE8030047F8040B39700746B8E8E3
:108C50000F000DF5127EAEE80F002C4BCEF8007021
:108C600093E80300CDE99701FFF7B2FC8DF86402A9
:108C700002F0B6FD8DF8650202F0B8FD8DF86602CF
:108C8000FFF7ACFC8DF8670202F0B6FD9A90FFF793
:108C900011FB44239B900021C9208BAAFFF710FDF4
:108CA000CBE600270AAA176008A809A90760099758
:108CB00002F012F8DDE90813CDE98B1302F020F879
:108CC0008DF8340202F0D8FA8DF8350201F00CFC70
:108CD00046220A9B8DF836028E938DF83722102398
:108CE0003946C8208BAAFFF7EBFCA6E680040020DB
:108CF00088040020840400209004002000D0030891
:108D000031505041E8F7FF1FECFA0008E0FA000884
:108D1000002B00F004819DF82871013FFFB2012F64
:108D200000F2FD8000260AA90E60384600F072FDB0
:108D30008046384600F088FDB44602460A9F68F334
:108D4000070C62F30F2C314667F3174C3E0A8BAACF
:108D500066F31F6C3E0C3F0E0623C620C2F800C00F
:108D600016715771FFF7ACFC67E6012B04D99DF82B
:108D70002801452840F2538100230121C5201A46CD
:108D8000FFF79EFC59E6522B04D99DF82821452A6D
:108D900040F22D8100230121C4201A46FFF790FCE8
:108DA0004BE6002B00F0D7809DF828018BA901F03D
:108DB00085FB002800F0CF805A230021C3208BAA16
:108DC000FFF77EFC39E6042B04D1BE4B4A9A9A4247
:108DD00000F0958100230121C2201A46FFF770FCA4
:108DE0002BE6002B00F0A2809DF828014AAF013845
:108DF000C0B2012800F29A800AA900F0A9FBDDE9BF
:108E00000E23DDE90C01DDF828C0CDE98E12CDF886
:108E10002CC2DDF82CC09093CDE98CC000F022FF6D
:108E20008DF8440238780138C0B200F011FF020A10
:108E30008DF84622119A8DF84502CDF84B22109AF2
:108E40002323CDF847220021C7208BAAFFF738FC47
:108E5000F3E502F00DFA06460279411D0DF22D20D0
:108E60008DF82C2206F0A2FC33798BAFB27B981CD4
:108E70003B445A7006F10F010390381806F096FC37
:108E8000B37B039A00211344D6F81920C020FA506E
:108E900004333A46DBB2FFF713FCCEE5012B1AD9B7
:108EA0009DF828114AA8092915D84A1C9A4212D8B7
:108EB00011D0875C0A2F0ED88A1CBE1806F1040C4C
:108EC000634508D3A3EB0C03022B04D110F80C303C
:108ED000A52B00F0218100230121C1201A46FFF7B4
:108EE000EFFBAAE510601EE402F024FF764B1A683F
:108EF0003AB1801AB0F5FA7FFFF415AC00221A607F
:108F0000ECE418600FE44FF001094EE505994AAB17
:108F1000013119440DF2352006F048FCBAE4002373
:108F20000121C6201A46FFF7CBFB86E5002301216D
:108F3000C7201A46FFF7C4FB7FE500230121CE209E
:108F40001A46FFF7BDFB78E500230121CD201A4624
:108F5000FFF7B6FB71E500230121C3201A46FFF796
:108F6000AFFB6AE500230AA99DF828018DF8283097
:108F700002F09AFA9DF8287001468DF82C7208B11B
:108F8000002F5AD17B1C0021D0208BAADBB2FFF727
:108F900097FB52E5002017226EE517226CE5591E5B
:108FA0008BAA0DF2291001F0DBFA00283FF40CAE79
:108FB0008BA99DF8280101F0E7FA0023B0FA80F1AF
:108FC0001A46CA204909FFF77BFB36E59DF82801C0
:108FD00000283FF4EBAD01F027FBB0FA80F100234D
:108FE0004909CB201A464900FFF76AFB25E5591EBF
:108FF0008BAA0DF2291001F0B3FA00283FF4CAAE93
:109000008BA99DF8280101F023FCB0FA80F1002320
:109010004909C4201A464900FFF752FB0DE59DF8A7
:10902000291101F029FCB0FA80F100234909C5207B
:109030001A464900FFF744FBFFE43A460DF22D20A3
:1090400006F0B4FB9EE7214A92E80300CDE98D01CA
:10905000EBE5074637E50DF595719DF8280102F01F
:1090600043FA0023B0FA80F11A46D1204909FFF7EC
:1090700027FBE2E44BF6EF60154B1649DA69164C14
:1090800042F08052DA61DA6902F080524A924A9ADA
:10909000DA6942F00062DA61DB69104A03F00063CA
:1090A000336033680B6843F480730B600C4B506083
:1090B000FF210022C4F8F03F0B2001F027FEFFF74C
:1090C000BFFA00BF46434C528004002008D003087A
:1090D000001002400070004000400020006C004082
:1090E000EFBEADDE3946304602F070F90346002887
:1090F0003BD102460321CE20FFF7E2FA9DE401F0C6
:10910000F9F90023C2201A461946FFF7D9FAC820F8
:1091100002F078FBFFF7A6FA0DF22D139B5D5A2B98
:109120007FF4D9AE3B460DF22B1717F806C00DF5AC
:109130009577BF5D024447EA0C270197875D0DF2E2
:109140002910865D47EA0626009602F09BF806463F
:10915000B6FA86F100234909C1201A464900FFF7F3
:10916000AFFA002E3FF469ACD1E7304600F070FD55
:1091700006468BAA02230021CE201680FFF7A0FA14
:109180005BE4002303211A46FFF79AFA55E400BF77
:10919000024A034B10701970704700BF9104002001
:1091A000900400202DE9F04320264FF00008624A89
:1091B000624F13688BB001331360FFF7ABFA0546BB
:1091C00058B10024C7F80080013402F053FAAC42D1
:1091D000FAD1013EB6B2002EEFD14FF00008402682
:1091E0006F4602F03BFA00285DD1404605A900F029
:1091F0004FF9002851D005A801F06CFB9DF816101E
:109200009DF81530002951D0002B59D04FF0AD0CEE
:109210009DF81C40003CDDF8173018BF01241D46A6
:109220009DF81420180A013242EAC4129DF81B402E
:109230008DF801201A0C1B0E8DF800C08DF804204B
:109240008DF805308DF803008DF802508DF806403A
:1092500091BB07250821E9465CB1B9460DF11D0116
:109260007819224606F0A2FA611EC9B229440231D9
:10927000254400224846134610F8014B01339D4215
:1092800082EA0402F8D8013E48466D4489B2B6B27B
:109290002A7002F073FA002EA3D108F10103022B09
:1092A0004FF001089BD10BB0BDE8F08333B34FF012
:1092B000AB0C9DF81C40ADE708210725B946D8E75F
:1092C0009DF81C20AC24003A18BF01229DF81430F0
:1092D000DDF817009DF81B500133010A43EAC21361
:1092E0008DF803108DF8045006210525B9468DF838
:1092F00002008DF800408DF80130BAE79DF81C207F
:10930000AA20003A18BF01229DF81430DDF817108A
:109310009DF81B4001330D0A43EAC2138DF8035038
:109320008DF80210052506218DF804408DF8000007
:109330008DF801308FE700BF8404002080040020F6
:10934000642908B52AD01BD814292BD0322923D060
:109350000A2914BF0422C82200234FF4602C4FF4C2
:10936000801142604FF00122C0E90233C0E904C11C
:109370008261838304F01EF9B0FA80F0400908BDD1
:10938000FA290DD0B1F57A7F04D07D2914BF0422CB
:109390001022E1E70222DFE72822DDE71422DBE7E3
:1093A0000822D9E76422D7E700234FF00E0C10B54E
:1093B0008AB00122CDE90133CDE90333009306934E
:1093C000994218BF634669460446CDE90722CDF8A5
:1093D00024C0059304F070F918B9204604F006FA89
:1093E00010B100200AB010BD0221204604F03AFB63
:1093F000B0FA80F040090AB010BD00BF44F210423C
:1094000070B544F20244214B02FB003202F588455C
:10941000B5F800E032F804C00EF1010ECEF3090EEB
:109420001FFA8CFCE64511D132F804C044F2044620
:109430000CF1010CCCF3090C22F804C04FF001042C
:1094400044F20C45945554590134545144F210429D
:1094500044F2084400FB02F29818055900F5884CC4
:1094600001350551BCF800000E6880B200EB001019
:109470004D688C681044CA681E5003445D609C604F
:10948000DA600A7CACF800E01A7470BD700D002040
:10949000012855D840F2444200FB02F230B5DFF813
:1094A000A8E00EEB020CBCF84234BCF840449C42ED
:1094B0002ED144F2104344F2024C03FB00F0234C43
:1094C000221802F58843B3F800E032F80C301FFA96
:1094D0008EFE9BB29E4535D032F80C309BB203EB2A
:1094E00003130344E018E458C3684568D0F808E063
:1094F000CB6032F80C300C604D60C1F808E0007CA5
:109500000133C3F30903087422F80C30012030BD85
:1095100003EB031010440EEB00025EF800405568A8
:10952000D2F808E0D0680C604D60C1F808E0C8606F
:10953000127C013303F03F030A74ACF84234E5E7D0
:1095400000207047002030BDD8040020700D00209E
:1095500099B301288C4603462AD800B544F2104E30
:1095600044F2084044F20C41144A0EFB0322105806
:10957000CCF80000124850F8230052581149CCF89A
:109580000820114ACCF8040051F8230052F8232097
:109590000E49CCE903020E4A0E4851F8231052F846
:1095A000232050F82330CCE90512CCF81C3000BD44
:1095B00020220021604606F0CDB87047700D0020D3
:1095C000680D0020C0040020B8040020B004002072
:1095D000600D0020A4040020824B1B78002B00F0BB
:1095E000EE802DE9F04F804B8FB000259B46E8467A
:1095F0007E4ADFF8FC91CDE900327E4FDBF8003087
:10960000ECB2D3F818A019F805301AF0040271D0A2
:1096100003F0FF02002B00F0B6801AF070027AD13E
:109620001AF0030F10D00123734A1AF0010F53559B
:1096300006D0724A52F8253043F0010342F8253033
:109640001AF0020F40F09780002658461BE0079A58
:109650008DF809008DF80A300B9B204602A9CDF841
:109660000B208DF80F308DF81060FFF7C7FE57F80C
:109670002530062001330022214647F8253001F02D
:1096800045FBD8F80000002104F0DAF900B3EFF34D
:10969000108A72B60021D8F800000DF1110307AA54
:1096A00004F03EF98AF3108890B9DDE90923A3F1AB
:1096B0000203B3FA83F3042A4FEA53138DF80840E8
:1096C000C5D10121089A8DF80A308DF80910C3E739
:1096D00044F2104344F204410022494803FB0503CD
:1096E000585C5A54002841D1002D3CD1012558F82E
:1096F00004BF83E7002B90D0424809F8052050F8BA
:1097000025302146013340F82530042001F0FEFACF
:109710001AF0700284D001263B48374950F82530B2
:10972000402A334440F825304E5554D04AD8202A98
:1097300046D0302A51D0A2F11006B6FA86F6760944
:10974000F6002E48120950F825302146334340F8E0
:109750002530022001F0DAFADBF80020936923F0CB
:10976000700393615CE70FB0BDE8F08F21460520E0
:1097700001F0CCFAB8E7214A52F8253043F0020351
:1097800042F8253060E74FF0010C204B09F805C086
:1097900053F825E0194EE64443F825E01C4B2146DA
:1097A00003F805C0144B032003F805C056F8253014
:1097B00043F0040346F8253001F0A8FA2DE770477E
:1097C0001026BEE7502A0AD0A2F16006B6FA86F645
:1097D00076093602B5E71646B3E72026B1E78026BC
:1097E000AFE700BFA0040020B895002090950020AE
:1097F000AC040020A4040020D4040020C8040020ED
:10980000700D0020B0040020C0040020B804002027
:10981000D00400200128034610D84FF0000C084A5D
:10982000105C02F803C0C0B2064A19B152F823C056
:10983000C1F800C0002142F8231070470020704793
:10984000D4040020C80400200128034605D80021C4
:10985000034A105CD154C0B270470020704700BF6B
:10986000D00400200368114910B55B1A18BF01230A
:109870000124416A0E4ADFF83CE0DFF83CC04EF8B4
:109880002310D4545CF8232022444CF823204A07A8
:1098900009D50A4A0A49D45451F82320224441F8F0
:1098A0002320084AD4540023436210BD00640040C2
:1098B000D4040020C8040020C0040020D0040020EC
:1098C000B8040020AC0400202DE9F04190460C467D
:1098D00084B048BB80210826154F1548019102F03D
:1098E000E7FC0546221E18BF01221148019902F02B
:1098F000E5FCB8F1000218BF01223146384602F0FB
:10990000DDFC012D0DD164B90394039BB3F5B47F45
:1099100007D200BF039B01330393039BB3F5B47FCE
:10992000F7D304B0BDE8F08110210426014FD4E73D
:10993000000C0140001401402DE9F04700248CB0D8
:10994000814648F620028A468B48002105F002FF36
:1099500040F688020021894805F0FCFE884D894BBD
:1099600089481C802C8001258849894A0460894BDC
:109970004460894E0C604C6014605460874A884F84
:109980001C6007945C6034701480BB69854A43F0A6
:109990000103BB61BB6984482B400093009B536863
:1099A00004A923F4C04343F0E06343F480435360CD
:1099B00053684FF0030843F0E8635360BB694FF40A
:1099C000807243F00803BB61BB6903F00803019395
:1099D000019BBB6943F02003BB61BB6903F020031B
:1099E0000293029B0023CDE90423069502F052FB6B
:1099F0004FF4007202236C4804A9CDE90423CDF88A
:109A00001C8002F047FB20220023674804A9CDE90F
:109A10000423069502F03EFB40220223624804A97B
:109A2000CDE90423CDF81C8002F034FB4FF0020C8A
:109A3000802201234FF01008B9695B4841F0100102
:109A4000B961B969CDF82CC001F01001039108A9E2
:109A5000CDE908230A94039B02F01CFB22468021D7
:109A6000514802F02BFC504808A9CDF8208002F0A4
:109A700011FB41464FF0080822464B4802F01EFCFD
:109A8000494808A9CDF8208002F004FB41464FF078
:109A900004082246444802F011FC444808A9CDF8C5
:109AA000208002F0F7FA22464146404802F006FCC8
:109AB000FB693F4943F00073FB61FB693D4803F0DC
:109AC00000730493049BFB693B4A43F08063FB6192
:109AD000FB690160394903F080630A6008934946D5
:109AE000089BFFF72DFC20B9002738460CB0BDE8D5
:109AF000F08751463148FFF723FC0028F4D0304B63
:109B000021462C48C3E9009AFFF74EFC0028EBD011
:109B100029462A48FFF748FC07460028E4D0224699
:109B20000521142002F030F9142002F05FF92246DA
:109B30000621162002F028F9162002F057F92246D5
:109B40000521402002F020F9402002F04FF9224682
:109B50000621422002F018F9422002F047F922467D
:109B600021462046FFF7B0FE224621462846FFF751
:109B7000ABFE3570B9E700BF700D0020D80400209F
:109B8000D0040020D4040020C8040020C004002019
:109B9000B8040020B0040020A0040020AC04002081
:109BA0000010024000000140000C01400014014080
:109BB00000640040B89500200068004090950020A7
:109BC000980400201E4B1B7873B301282CD87D29E4
:109BD00007D021D8322904D02DD80A2901D0142940
:109BE00022D1184B53F820208A4227D030B583B0B9
:109BF000F8B9154A054610460C460192FFF7A0FB3E
:109C0000A0B129460198FFF7CFFB78B101200D4B99
:109C100043F8254003B030BDB1F5FA7FE1D0B1F58E
:109C20007A7FDED0FA29DCD000207047002003B014
:109C300030BD064ADEE76429F6D1D2E7012070473D
:109C4000A004002098040020B895002090950020E2
:109C500001289ABF024B53F820000020704700BF34
:109C600098040020014B1878704700BFA004002022
:109C7000444B1B78002B54D0002852D0F0B5067806
:109C80008DB0013EF6B2012E3DD8002E3ED0437875
:109C90003D4DD0F80320002B3ED1C2F30A011A46F5
:109CA000CDE9061383780892003B18BF01230022F8
:109CB000C1795B0007464FF4FA740A918DF82C20A5
:109CC000099301E0013C18D0284603F015FE002856
:109CD000F8D028466B4607F1090206A903F0B4FD47
:109CE00058B92A4A3C7A52F82630072C03F101036E
:109CF00042F8263017D9012006E0254A52F82630CE
:109D0000013342F8263000200DB0F0BD4378214DDC
:109D1000D0F80320002BC0D022F0604300210422A1
:109D2000BEE70020704740F2444C38687968FB6811
:109D3000BA68DFF864E001AD0FC50CFB06E03B7CC0
:109D40002B70B0F84034B0F84254591C01F03F0178
:109D50008D42D0D0013403EB03138DF80C400CFB83
:109D600006348DF8046001ADA0F840140FCD4EF814
:109D7000040028780EEB04067160B260F360307462
:109D8000B9E700BFA004002090950020680D0020D6
:109D9000600D0020B8950020D804002010B58CB0CC
:109DA00000210DF1090305AA044603F0B9FD08BB23
:109DB00015492368089A5B1AA2F1020218BF012311
:109DC000B2FA82F20799520904298DF8003013D0B3
:109DD000DDF814C08DF801008DF80220002218462D
:109DE000099B6946CDF803C08DF807308DF808202F
:109DF000FFF704FB0CB010BD0121DDF818C08DF891
:109E000002208DF80110E9E7006400401B4B026856
:109E10009A420CD1844600B590F831009CF832206B
:109E200038B1022822D1522A24D0002000BD0020BF
:109E30007047002AFAD1012911D00022481E0CF1E6
:109E4000FF318B1C11F801EFA3EB0C0382EA0E0229
:109E5000DFF82CE098421EF80220F2D884449CF8E7
:109E60000000801AB0FA80F0400900BD0328DCD160
:109E70005A2ADAD18A42D8D1DFE700BF324752549A
:109E8000E0F7000800285DD04379022B58D890F8FD
:109E90002030022B54D88379012B51D890F82120FF
:109EA000012A4DD8C17B08294AD890F826100829E4
:109EB00046D890F83310012942D890F84F10022963
:109EC0003ED890F8341001293AD890F8351002297C
:109ED00036D890F83610012932D890F83BC0BCF142
:109EE000080F2DD890F853C0BCF1010F28D890F876
:109EF00056C0BCF1010F23D840F2FF7C002B0CBFF1
:109F000063466FF0604300B5002AD0F807E00CBF4D
:109F100062466FF06042002918BF6FF0604C9E45AA
:109F200011D8D0F80B1099420DD8D0F822309342B6
:109F300009D8D0F8370060458CBF0020012000BD53
:109F4000002070477047002000BD00BF2DE9F041A0
:109F50000F46054686B001F097FFBD421ED200268F
:109F60004FF0010805F50064FEF764FB2B4601E0A5
:109F70009C420DD01A6804330132F9D002A801A91D
:109F8000CDE90266CDE90458019602F023F858B9EC
:109F900005F50065AF4204F50064E5D801F088FFDF
:109FA000012006B0BDE8F08101F082FF002006B07C
:109FB000BDE8F08170B5CD79C378082D044628BF7F
:109FC000082582B0FBB103790931AB4200F10506E7
:109FD0000FD000232A46C4F805303046736005F0E0
:109FE000E5FB4FF48072002325712380628002B06C
:109FF00070BD2A463046019105F09CFB019900286E
:10A00000E7D102B070BD0931461DE2E74FF0010C07
:10A0100010B5114C030182B004F803C004EB001426
:10A02000CDE90021607001F085FE01994FF0000C30
:10A03000B1F82F30009A0344636091F84E30012B41
:10A0400038BF01232372B1F84C302273638184F846
:10A050000DC002B010BD00BFF49D002070B590F897
:10A0600034308446964686B02BB32A4B5C5CFCB1F8
:10A07000294B01EB01115A18154658585168EB68E5
:10A08000926801AC0FC49CF820202B7C12F0FD0FCD
:10A09000237001AE64468DF80CE02DD101223046CC
:10A0A0008DF80420FFF7E4FD94F82020044622BB3D
:10A0B000204606B070BD90F83330D0F8222090F8DA
:10A0C00021108DF8063090F82630CDF807209CF846
:10A0D00020208DF805108DF80B30D0F82710D0F81F
:10A0E0002B3012F0FD0F6446CDF80D1001AECDF807
:10A0F00011308DF80CE0D1D00024022230468DF8CA
:10A100000420FFF7B5FD40EA0403DCB2204606B0A8
:10A1100070BD00BF54A200209CA200202DE9F04F8A
:10A12000154604221E46002387B08DF80C20384ABD
:10A1300007463848CDF80E30CDF81230ADF816305D
:10A14000CDF80F108DF80D5002920DF107010DF1B1
:10A15000160811F8012F53404145C35CF9D18DF821
:10A16000173007F1100901F08FFE3DB34C46B3469E
:10A17000AA4606EB850300930196FEF75BFADBF82F
:10A18000005004F15A06023D01E0B4420FD02146CE
:10A190000023012035F8022F01F0CAFE0234002806
:10A1A000F3D001F085FE002007B0BDE8F08F009BE2
:10A1B0000BF1040B9B45E0D15546019EBA460DF1CB
:10A1C000060451460023012034F8022F01F0B0FEAE
:10A1D0000AF1020A0028E4D14445F2D101F068FEF8
:10A1E0001022384602A905F0A5FA0028DBD16DB18E
:10A1F00006EB8505484631685A2205F09BFA04367D
:10A2000009F15A090028CED1B542F3D10120CBE79C
:10A2100048475254E0F700082DE9F04F4FF48C62A4
:10A22000C9B000218E4805F095FA41F69C02002144
:10A230008C4805F08FFA462200218B4805F08AFAF7
:10A2400040F2A6420021894805F084FA4622002106
:10A25000874805F07FFA4FF475720021854805F0B4
:10A2600079FA4FF475720021834805F073FA0023E0
:10A270009B46824A824D1360824A83481360834A18
:10A2800083491360834C844E844A2B70DFF810920C
:10A29000844D854F03600B6023701360337000930F
:10A2A0002A684A4528D12A79042A64D0032A23D16E
:10A2B0005221687946281FD805F1100201FB0022BF
:10A2C0007948824218D828460022DFF8E0E105F1FB
:10A2D0000F0C10F8018B82EA080260451EF802207C
:10A2E000F7D1E87B904207D1D5F80720002B40F04A
:10A2F000B2808B462B46009205F50065BD42CFD15A
:10A30000002B3AD05F7977B34FF0000A03F11005C4
:10A31000D046019302E094F800805D4459462846F7
:10A32000FFF774FDD0B15A22614B002102FB0839BE
:10A33000484605F00FFA5A462946484605F036FACF
:10A340004846FFF79FFD48B199F8042008F101083D
:10A3500012B132780132327084F800800AF1010AB9
:10A36000BA45D8D1019B494A13604C4B009A1A60F8
:10A3700049B0BDE8F08F5A219BE79846494DDFF878
:10A3800030A1DFF830B1B8F1450F05F1520305F106
:10A39000A40239D95B4505F1F60509D05A4504D028
:10A3A0005D4505D052355D45EDD1B8F1000FDFD0E8
:10A3B00002AD2A463E4905EB880042F8041B824262
:10A3C00001F15A01F9D15A2303FB08F23A4B02F684
:10A3D0000F02A3EBD223334ADE02B2EBC32FC7D066
:10A3E00030463149FFF7B2FD0028C1D02B4601218C
:10A3F00030462278FFF792FE0028B9D00123234A85
:10A400001660264A1360B3E752212846FFF7FEFC88
:10A410000028C7D05A2303FB08A71A460021384654
:10A4200005F098F952222946384605F0BFF938461A
:10A43000FFF728FD08F101020028B3D03B795FFA4D
:10A4400082F813B133780133337052355D4584F8A7
:10A45000008098D1A9E700988242FFF44DAF48E709
:10A46000F49D0020A0A7002058A700209CA2002057
:10A4700054A20020109A00203C960020EC9D002061
:10A4800054A7002050A70020F09D002048A70020DE
:10A49000E89D00204CA70020E49D002044A7002058
:10A4A0004847525400E0030800000408E0F70008A1
:10A4B0003CC00020B2EF03088000010008B5084B43
:10A4C0001B7883420AD903465A22DFF818C008468F
:10A4D00002FB03C105F06AF9012008BD002008BD98
:10A4E0004CA700203CC00020014B1878704700BFEB
:10A4F0004CA7002010B500240F491048FFF726FD97
:10A500000F4B104A104911481C70114B0460147015
:10A510000C60462221460F481C7005F01BF92146AD
:10A520004FF48C620C4805F015F92146BDE8104047
:10A5300046220A4805F00EB90000040800E00308AE
:10A5400054A700204CA7002050A7002048A70020B7
:10A55000E49D002058A70020F49D002054A2002074
:10A5600038B521F00803522B01D0002038BD054634
:10A570000C46104600215A2205F0ECF822462946E6
:10A5800005F014F9012038BD30B545289BB03BD803
:10A59000054608460191FFF775FC044610B92046B0
:10A5A0001BB030BD5A22019903A805F0FFF845F60B
:10A5B000032200231649DFF85CC0ADF83D2003916B
:10A5C0000DF10B0219A812F8011F4B4082421CF832
:10A5D0000330F8D18DF865305A230F481A4603A985
:10A5E00003FB050005F0E2F801220C4B5A5501F07F
:10A5F000A1FB0B4A0B4913780860AB42CFD8204629
:10A600006B1C13701BB030BD002420461BB030BD46
:10A6100032475254E0F70008A0A7002058A70020B6
:10A6200054A7002050A700202DE9F043FF28C9B00F
:10A6300051D00446462C4AD8714B1B7823B9714D32
:10A640002B78A34200F0C0806F4D5622002128468F
:10A6500005F080F845F6032200236C496C4EA5F8FE
:10A660002D2045F8041C6A1F05F1540012F8011F43
:10A670004B409042F35CF9D185F85530654BD3F8E7
:10A680000080F4B15F4D00222E7863486349644B2B
:10A69000644F0DF1080C0AE09E460132D2B294429A
:10A6A0004CF804EB01F15A0103F15A031BD010F8E6
:10A6B00001EBBEF1000FEFD196428CBF8E46BE4635
:10A6C000EBE759495948FFF741FC002850D10020D9
:10A6D00049B0BDE8F0834A4B4A4D1C782B789C4228
:10A6E00038BF1C46A6E75A2101FB04F3504F03F67E
:10A6F0000F03A7EBD3274FEAC729DB0AB8F1000FF6
:10A7000016D001FB06F606F60F06474906F4784612
:10A7100046448E4228BF0E46B14559D24548804531
:10A7200056D8D90201F1006101F5783188454DD242
:10A730003D493E480192FFF709FC0028C7D03E4F33
:10A7400048463968019A02AB0131FFF7E7FC00285F
:10A75000BDD002AE314B06EB8408184656F8041BF8
:10A760005A2205F023F8B04500F15A03F5D103E071
:10A770004FF00009234D304F2C7000243B68254AD0
:10A7800001333B601E4D2D4B2146C2F800902248FC
:10A7900046221C602C7004F0DDFF4FF48C622146D1
:10A7A000274804F0D7FF46222146264804F0D2FF6E
:10A7B0004FF475722146244804F0CCFF4FF47572B3
:10A7C0002146224804F0C6FF012081E7DFF85C90B3
:10A7D00048460192FFF7BAFB00283FF478AF164FC6
:10A7E00048463968019A02AB0131FFF797FC00280F
:10A7F0003FF46DAF31464046FFF7A8FBA9E700BF25
:10A8000054A700204CA70020E49500203247525462
:10A81000E0F7000848A7002058A700203CC000200F
:10A82000A0A70020E09500200000040800E0030835
:10A8300080000100FFFF030844A7002050A700206C
:10A84000F49D002054A20020109A00203C96002085
:10A8500010B50446FFF798FE50B1064B601C1B78FC
:10A86000C0B29C4238BF1846BDE81040FFF7DCBEBE
:10A8700010BD00BF4CA7002030B5144D9BB02B7805
:10A8800083421FD95A230446019111491A4603FBFA
:10A89000041103A804F08AFF019B2046003B18BF67
:10A8A000012303A98DF81030FFF76EFE50B12B780D
:10A8B000601CC0B29C4238BF18461BB0BDE8304097
:10A8C000FFF7B2BE00201BB030BD00BF4CA7002078
:10A8D0003CC000202DE9F04FDFF86CA287B09AF859
:10A8E0000030002B3BD006460025DFF860B200F1B7
:10A8F0001003CDE900B3964FDFF85882DFF8589285
:10A9000000990B79E3B191F83420337A002A4DD0C5
:10A9100043B391F85620D2070DD4009890F8352013
:10A92000022A00F0C0803178914204D1717890F809
:10A930003620914225D0009B93F85330DB0737D562
:10A9400000999AF800200135EBB25A319A420091F1
:10A9500007F10E0708F10E0809F11109D0D807B068
:10A96000BDE8F08F009A92F83520022A00F0A98005
:10A97000317891421CD1009A717892F83620914238
:10A9800016D15A2202FB05B2D6F80310D2F83720AE
:10A990008A420BD1009BB3F85440002C40F0C38096
:10A9A00098F80230002B00F09480337A002BC2D14B
:10A9B000009B93F84F30012B61D0022B63D0009A9B
:10A9C0005279022A02D031789142B9D1009C727832
:10A9D000A1799142B4D15A2202FB05B2D6F8030004
:10A9E000D2F80710D2F80B2041401142A8D1E27BE7
:10A9F000002A53D15A2202FB05B2B2F85120002A94
:10AA000045D1BA78002A9BD1012B16D0F279A2B198
:10AA100006F1080302EB030E009A019C02F10F01FC
:10AA200011F8012F13F801CF087A82EA0C020242D2
:10AA300086D1734501D0A342F2D15A2303FB05B35B
:10AA4000B3F82F30327AE9B223B9009B93F84E3035
:10AA5000012B6DD908460099FFF7D8FA5A2303FB5A
:10AA600005B3B3F85120002A3FF46AAF3B880133A5
:10AA70009BB29A423B809CBF0123BB7060E7B278D7
:10AA8000002A9CD15CE7B278002A98D058E731467A
:10AA900038460293FFF78EFA029BB2E7F1799142B2
:10AAA0007FF44EAFA6E7009A717892F83620914273
:10AAB0003FF467AF009B93F85330DB077FF578AF27
:10AAC0003EE7009A92F83610727891427FF470AFA8
:10AAD00057E7009A92F83B10059100297ED002F1C9
:10AAE0003B0C0295E6460D46CDE9034C06F1090202
:10AAF00007E0B1B9E3B29D4202F1010230D0082B68
:10AB00002ED01EF8011F5C1C9EF808008142F1D86F
:10AB100096F807C09C45ECD91378994201D8984221
:10AB2000E8D2029D41E731464046FFF743FA37E756
:10AB300000980291FFF792FA002849D0074A13685B
:10AB4000013313608AE700BF4CA700203CC00020FF
:10AB5000109A00203C960020A4A20020F09D002026
:10AB6000F36830687168B26849F8080C49F8041C49
:10AB7000C9F80020C9F80430337C4FF0000EDDE93D
:10AB8000034C89F808300123029D0294059C1CF8AF
:10AB9000010FDAB29CF80810884288BF09F803E078
:10ABA000944203F1010301D9092BF0D1029C012346
:10ABB000124A5355002C3FF4F8AEB8F80020013289
:10ABC00092B29442A8F8002098BF88F80230ECE6D0
:10ABD00002980099327AFFF719FA3FE7F368306874
:10ABE0007168B26849F8080C49F8041CC9F80020DB
:10ABF000C9F80430337C89F80830D8E754A2002023
:10AC00002DE9F84301F096F82B4B05461A7832B13E
:10AC100043F69821294A1268821A8A4244D8284C5D
:10AC2000DFF8A090DFF8A080284F04F58C6613E0D1
:10AC3000637B132B33D9264A136801331360002238
:10AC4000237A6273012B24D96289013B2A4423723F
:10AC500062601034B44220D02378002BF9D06368AE
:10AC6000EB1AF6D45A20D9F800206178934200FB01
:10AC70000180227B88BFC9F80030FFF7EFF9002878
:10AC8000D6D000223B68627301333B60237A012BEC
:10AC9000DAD822701034B442DED1BDE8F883013333
:10ACA0006A1C63736260D4E7002146220948197068
:10ACB00004F050FDB3E700BF54A7002050A70020C8
:10ACC000F49D0020E89D00203CC00020F09D002065
:10ACD000EC9D002058A7002010B1064B1B680360B4
:10ACE00011B1054B1B680B6012B1044B1B6813605C
:10ACF000704700BFF09D0020E89D0020EC9D0020E3
:10AD0000014B1878704700BFE49D0020022928BF3E
:10AD1000022110282DE9F04134BF044600240D46DD
:10AD20008AB001F007F8DFF8DCC004EB44022A44E3
:10AD30005CF8222063001AB1821AB2F5FA7F3DD383
:10AD40002344591944F645432F4E304D3788012886
:10AD50004FF0000205EB071438BF0120ADF80830B2
:10AD600023464CF82100CDF80A20CDF80E20CDF86E
:10AD70001220ADF8162004F110011A6804330132D4
:10AD80001FD18B42F9D101F07FF80DF106050DF1CD
:10AD9000160821460023012035F8022F01F0C8F8DB
:10ADA000023448BBA845F4D101F082F8184A0137B3
:10ADB0001368C7F308070133136037800AB0BDE892
:10ADC000F081FB0905EBC325FDF734FC00230122CC
:10ADD000CDE9063308950992019301F055F806A8CC
:10ADE00001A901F0F7F810B901F062F8CBE701F022
:10ADF0005FF80AB0BDE8F0810AB0BDE8F04101F0AB
:10AE000057B800BFDCD80020D8D8002000B0030815
:10AE1000080000202DE9F041C02284B0002126481E
:10AE200004F098FC4FF0000C4FF0FF3644F6454715
:10AE30006546DFF88880224C0DF10D0E08EB0C13EF
:10AE40000FCB8DE80F00BDF80030BB4214D1DDF808
:10AE5000020088B16A46002112F8013B4B4072455E
:10AE6000E15CF9D19DF80D308B4205D1A84228BF95
:10AE70006646A84228BF05460CF1010CBCF5007FD0
:10AE8000DCD1731C14D0731C0135C3F308030D49C6
:10AE90000D4A0B801560FDF7A1FB0446FDF798FBFA
:10AEA00021460246012004B0BDE8F041FFF72EBF65
:10AEB00000230125EBE700BFDCD8002000B0030829
:10AEC000E0F80008D8D80020080000202DE9F04F55
:10AED00083468A4617464FF0000E44F64549234BF9
:10AEE00085B0B3F800C0DFF888800CF50076214DFE
:10AEF000B6B20DF10D04774534D9CCF3080308EB55
:10AF000003130FCB8DE80F00BDF800304B4523D164
:10AF1000DDF8021001B36A46002012F8013B4340FD
:10AF2000A242E85CF9D19DF80D30834214D18B45E3
:10AF300012D20EEB4E034AF82310DDF806200AEB7E
:10AF400083035A60BDF80A200EF1010E1A819DF8A4
:10AF50000C205FFA8EFE9A720CF1010C1FFA8CFC29
:10AF6000B445C8D1704605B0BDE8F08FD8D80020F0
:10AF700000B00308E0F800082DE9F04387B08846E8
:10AF80009146054600F080FFFDF754FB01210023A8
:10AF90002F48CDE90133CDE9040102A801A90393AB
:10AFA00001F018F8A0BBFDF745FB2A4EAC1E761B3E
:10AFB00005F11E0731190023012034F8022F00F09B
:10AFC000B7FF28BBBC42F5D1234EA8F1020408F11B
:10AFD0000E07A6EB080631190023012034F8022FD2
:10AFE00000F0A6FFA0B9BC42F5D11C4EA9F10204A5
:10AFF00009F5C477A6EB090601E0BC420ED0311971
:10B000000023012034F8022F00F092FF0028F4D032
:10B0100000F04EFF002007B0BDE8F08300F048FFCD
:10B02000202229460A4804F085FB0028F2D110228C
:10B0300041460B4804F07EFB0028EBD14FF4C5726B
:10B040004946084804F076FBB0FA80F04009E2E790
:10B0500000D8030802D8030822D8030832D803080E
:10B0600020D8030830D803086E4A38B56E491368F3
:10B070008B424FF0000359D16C4C6D4812F8011B04
:10B080004B408242E35CF9D1664AD17F994200F09D
:10B090009580644A674B126A9A420ED10023664A31
:10B0A000664812F8011B4B408242E35CF9D15D4ACD
:10B0B00092F82F10994200F09F8000230121604DEB
:10B0C0005C4A2B6045F8092C5E4A681D45F8052C42
:10B0D00005F8011CA5F10A02C5F8033012F8011F9A
:10B0E0004B409042E35CF9D1AB714E4B564A196B21
:10B0F000914203D193F83430012B4AD0534D4FF491
:10B10000C5720021284604F025FB012200234E4988
:10B110002A7129606A1E05F5C47012F8011F4B40A0
:10B120009042E35CF9D185F8893138BD0920DFF818
:10B1300020C1DFF820E14CF80E1C474942F2010221
:10B140000CF80A0CCCF80830CCF80B10BEE8030061
:10B150004CF8090C18464CF8051C9EF80010334CAE
:10B16000ACF81030CCF80030ACF80F20CCF804303C
:10B17000ACF10F020CF110050CF8011C12F8011FC4
:10B180004B409542E35CF9D1344A8CF81130107091
:10B190007FE70023324A334812F8011B4B408242BA
:10B1A000E35CF9D11F4A92F8B9219A42A6D14FF433
:10B1B000C5722B49254804F0F9FA38BD1379092BDB
:10B1C0003FF667AF937B0A2B3FF663AF537F0BBB12
:10B1D000937F002B7FF45DAF4FF0010E224DDFF81F
:10B1E00044C0BCE80F000FC59CE80F0085E80F00C5
:10B1F0001A4B83F800E04CE7938C002B3FF45DAFD3
:10B20000D38C002B3FF459AF184D0B4B0FCB85E877
:10B210000F006AE7012B7FF43CAF937F202B7FF474
:10B2200038AFD9E700D8030830474643E0F90008B3
:10B230001FD803083058454320D803082FD80308E7
:10B2400035DB0020F401F401304D4E54A0D900202C
:10B250004ADB002004FB0008830440579CD90020EF
:10B2600030D80308B9D903083CDB00202CDB0020D0
:10B27000004870473CDB0020014B1878704700BF46
:10B280009CD9002070B509298AB0BDF83850BDF8A6
:10B290003C4001D80A2B02D900200AB070BD4FF003
:10B2A000000C1646334ACDF821C08DF80C100292DE
:10B2B000CDF80DC0CDF811C0CDF815C0CDF819C02E
:10B2C000CDF81DC0CDF824C0002949D18DF8163025
:10B2D000002B3ED1002345F2407E40F2834642F2ED
:10B2E00001019D4208BF35469C4208BF7446DFF805
:10B2F00088C00DF107020DF12600ADF82510ADF85C
:10B300002150ADF8234012F8011F4B4082421CF837
:10B310000330F8D12022194902A88DF8273004F013
:10B3200009FA10B901200AB070BD154A154902A8E2
:10B33000FFF722FE0028AFD00122134B0F4D02ACC5
:10B340001A700FCC0FC594E80F0085E80F0001209C
:10B35000E9E71A4631460DF1170004F027FAB9E77C
:10B360000A4601460DF10D00019304F01FFA019BFE
:10B37000ACE700BF30474643E0F900083CDB002063
:10B38000A0D900202CDB00209CD900200E4B58B9FE
:10B3900098887D2807D009D8322804D011D80A28E7
:10B3A00001D014280AD17047D888F2E7B0F5FA7FA7
:10B3B000F9D0B0F57A7FF6D0FA28F4D04FF4FA70CD
:10B3C00070476428FAD1EEE72CDB002001285DD815
:10B3D00000B57D2986468C4685B007D036D83229FF
:10B3E00004D041D80A2901D0142937D1284B0FCBDA
:10B3F0008DE80F00BEF1000F33D0ADF806C000237A
:10B40000DFF890C00DF1FF320DF10E0012F8011FB0
:10B410004B4090421CF80330F8D11D4A0099126845
:10B420008DF80F30914222D069461B4A1B48FFF726
:10B43000A3FD98B19DE80F00DFF854C08CE80F0021
:10B440000122174B1A70012005B000BDB1F5FA7F3B
:10B45000CCD0B1F57A7FC9D0FA29C7D0002005B089
:10B4600000BDADF804C0CAE76429F7D1BEE7084BB8
:10B47000019A5B689A42D7D10A4B02991A689142A5
:10B48000D2D1039A5B689A42CED1DCE700207047A4
:10B490002CDB0020E0F90008A0D900203CDB0020D4
:10B4A0009CD9002034DB002017288C4617D80023B5
:10B4B0000C4A02EB0010421E12F8011F41B1013389
:10B4C000102BF9D1BCF1000F01D08CF8003070477F
:10B4D000DBB2BCF1000F01D08CF800300BB90020BA
:10B4E00070477047A9D90020172801D8102A01D920
:10B4F0000020704738B54FF0000E094C000100F1F4
:10B500000903181944F803E0C0F804E0C0F808E0A3
:10B51000C0F80CE012B109B104F048F9012038BDBF
:10B52000A0D900200121002300B50E4ADFF838E041
:10B53000DFF838C0CEF800200EF5C4700EF1FF32EF
:10B540008EF8041012F8011F4B4090421CF8033093
:10B55000F8D18EF88931044A054906485DF804EBB4
:10B56000FFF70ABD304D4E54A0D90020E0F9000885
:10B570002CDB00203CDB00200020704720280ED070
:10B58000212801D000207047072AFBD10A4B1868F8
:10B590009A889B7908608A8000208B717047072AFF
:10B5A000F0D1054B8888D1F800C08A799880C3F81B
:10B5B00000C000209A7170471C000020F8B50E688A
:10B5C0001EB3411E0546DFF84CC0DFF84CE01348BF
:10B5D000741809E0BCF8002011F8017F92B2A14272
:10B5E0008754ACF8003010D0BCF80030BEF8002012
:10B5F0000133C3F30A0392B29A42EBD1084A1368AB
:10B60000013B33441D446D1A1560064803F0C8FE23
:10B610000020F8BD6EDB00206CDB002070DB00201A
:10B6200060DB0020BC01002008B50849084803F091
:10B6300091FE00230749084A05480B80138003F058
:10B64000AFFE003818BF0120404208BDB0E3002023
:10B65000BC0100206EDB00206CDB0020034A044BA1
:10B6600010881B88C01AC0F30A0070476EDB0020E8
:10B670006CDB0020094B0A4A1988138889B29BB2F7
:10B68000994209D0118813880648013389B2C3F35F
:10B690000A03405C13807047002070476EDB002077
:10B6A0006CDB002070DB00200A4B0B4A1B88B2F8D1
:10B6B00000C0A3EB0C03C3F30A03984208D212881C
:10B6C000064B1044C0F30A001B5C01200B7070474E
:10B6D000002070476EDB00206CDB002070DB002058
:10B6E00091422DE9F8430D461ED281461746DFF8F8
:10B6F0007C80D8F8B842D4B97E1BB6B2402E28BFA1
:10B70000402609EB05013246194804F04FF832464D
:10B710004046174903F014FE404603F023FEF8B9F3
:10B720002E44B5B2AF42E6D82846BDE8F88300F013
:10B7300001FB0646D4F81432012BDDD1FCF77AFF69
:10B7400000F0F8FA801B6328F4D90A490A4A0B680A
:10B75000284601330B60136801331360BDE8F8839A
:10B76000054A136801331360DEE700BFBC01002007
:10B7700070E3002064DB002068DB00200A4600B58F
:10B78000002183B00192FFF7ABFF019A801A18BF26
:10B79000012003B000BD00BF014B1868704700BF17
:10B7A00068DB0020014B1868704700BF64DB002095
:10B7B00038B9094B1A78FF2A02D01A7801321A7068
:10B7C00070470128FCD1054B1A78FF2AF8D01A7867
:10B7D00001321A70F4E700BF5DDB00205CDB002063
:10B7E000014B1878704700BF5DDB0020014B1878D3
:10B7F000704700BF5CDB0020014B1868704700BF3A
:10B8000060DB00200B4B70B5D3F8B85285B104460D
:10B8100000F090FA064606E0FCF70CFF00F08AFA0A
:10B82000801BA04204D2D5F814020028F4D170BDC8
:10B83000012070BDBC010020054A136833B9B0F582
:10B84000806F03D8012303481360704700207047BE
:10B85000CCE80020D0E80020034B984200D070478D
:10B860000022024B1A607047D0E80020CCE800208C
:10B870004FF4C05030B5022100250322194C87B087
:10B88000A36943F00403A361A369029003F00403D6
:10B8900000F18040CDE90315009302A900F5704046
:10B8A000009B059200F0F6FB4FF40072002302A902
:10B8B0000D48CDE90223049500F0ECFB63690621F5
:10B8C00043F48053636163692A4603F48053019310
:10B8D0004320019B00F058FA432000F087FA07B09C
:10B8E00030BD00BF00100240000801400146D0F802
:10B8F000D80401F29C4102F09FBF00BF01EBC103DD
:10B9000000EB8303D3F86022D0F8D80402F0CABF5A
:10B9100001EBC10300EB83031A6AD0F8D80403F0EB
:10B9200003B800BFD0F8D80403F0A6B810B5044699
:10B930000020FFF73DFFD4F8D804012103F084F87C
:10B94000D4F8D804BDE8104003F056B8D0F8D804B5
:10B9500003F07EB8D0F8D80403F084B8D0F8D80447
:10B9600003F09AB8D0F8D80403F094B8D0F8D8040B
:10B9700003F094B810B504460120FFF719FFD4F87E
:10B98000D804BDE8104003F08BB800BF70B50423A5
:10B9900000254FF0A0420226104CC4F8D804C0F88D
:10B9A000C0422046237122606581E671A57300F0D4
:10B9B00089FC8021204601F0D7F929464022204603
:10B9C00001F0ACF980220121204601F0A7F94022C4
:10B9D0003146204601F0A2F9284670BDF0E3002070
:10B9E00008B5D0F8C00200F0D7FC002008BD00BFA9
:10B9F000944608B51A46D0F8C002634601F05AF8DA
:10BA0000002008BD08B5D0F8C00201F091F8002070
:10BA100008BD00BF08B5D0F8C00201F0F9F8002059
:10BA200008BD00BF08B5D0F8C00201F03BF9002006
:10BA300008BD00BF0A06D0F8C03206D401EBC10130
:10BA400003EB810393F85602704701F07F0101EB8D
:10BA5000C10103EB8103987D704700BF08B5D0F8A2
:10BA6000C00201F00DF8002008BD00BF08B5D0F8F5
:10BA7000C00201F0B5F8002008BD00BF08B5D0F83D
:10BA8000C00201F08BF8002008BD00BFD0F8C00252
:10BA900001F09CB8122301480B807047440000203D
:10BAA000042301480B8070474000002008B50A4677
:10BAB0000248034903F0BCFA014808BD10FB000826
:10BAC000E8EC002008B50A460248034903F0B0FA42
:10BAD000014808BD2CFB0008E8EC002008B50A4628
:10BAE0000248034903F0A4FA014808BD44FB0008DA
:10BAF000E8EC002010B582B00C46FFF7B9FB0279E4
:10BB00008AB1411D01900C4803F050FE0020019BBA
:10BB100022461B79084C0949E054204603F088FA74
:10BB2000064802B010BD22460449054803F080FAD9
:10BB3000024802B010BD00BFD0EC0020E8EC0020AD
:10BB400050FB000810B582B00C46FFF791FB827BDA
:10BB50008ABB4FF01A0C2149D1F8E837D1F8F00729
:10BB6000A4F800C013EB000C02D11D4802B010BDB8
:10BB70001B4BD1F8ECE7194603F110044FEA1C7097
:10BB8000092894BF303037308870CA7002318C4237
:10BB90004FEA0C1CF2D1002012494FEA1E72092A0A
:10BBA00094BF303237329A74D87402338B424FEAE2
:10BBB0000E1EF2D1D9E700F10F0101900A4803F0FF
:10BBC000F5FD0020019B22469B7B074C0749E05472
:10BBD000204603F02DFA054802B010BD00F0FF1F0B
:10BBE000240000202C000020DCEC0020E8EC0020E9
:10BBF000704700BF012008B5FCF7F6FCFEE700BF68
:10BC0000022008B5FCF7F0FCFEE700BF032008B5F2
:10BC1000FCF7EAFCFEE700BF042008B5FCF7E4FCF3
:10BC2000FEE700BF704700BF704700BF704700BF0E
:10BC300000F074B8014801F03DBF00BFB895002086
:10BC4000014801F037BF00BFB8950020014801F05E
:10BC500031BF00BFB8950020014801F02BBF00BFE5
:10BC6000B8950020014801F025BF00BF9095002045
:10BC7000014801F01FBF00BF90950020014801F06E
:10BC800019BF00BF90950020014801F013BF00BF0D
:10BC900090950020014800F095BB00BFF0E3002024
:10BCA000704700BF704700BF4FF47A7310B50F495B
:10BCB000044609780E4AB3FBF1F0126882B0B2FB79
:10BCC000F0F000F0A1F808B90F2C02D9012002B061
:10BCD00010BD0246019021464FF0FF3000F054F8AD
:10BCE000044B01981C6002B010BD00BF780000201A
:10BCF000740000207C000020074A08B51368032068
:10BD000043F01003136000F02DF80020FFF7CCFF84
:10BD1000FFF7C8FF002008BD00200240034A044B83
:10BD200011681B780B441360704700BF28ED00209A
:10BD300078000020014B1868704700BF28ED0020F4
:10BD400038B50446FFF7F6FF631C054602D0044BE6
:10BD50001B781C44FFF7EEFF401BA042FAD338BD0E
:10BD6000780000204FF6FF0C06490302CA6803F46E
:10BD7000E06302EA0C02134343F0BF6343F4003371
:10BD8000CB60704700ED00E0164B00B5DB68C3F3F5
:10BD90000223A3F1030CBCF1040F19D84FF0FF3EAE
:10BDA000C3F107030EFA03F3DB430EFA0CFE22EA9B
:10BDB0000E02194001FA0CF1114300284FEA01115B
:10BDC0000ADB00F1604000F5614080F8001300BD1F
:10BDD00000220F239446ECE7034B00F00F00C3183A
:10BDE000197600BD00ED00E0FCEC00E0002807DB68
:10BDF000012300F01F01034A40098B4042F8203024
:10BE0000704700BF00E100E00138B0F1807F01D34E
:10BE1000012070474FF0E02300224FF0F00C072183
:10BE20005861034880F823C09A6110461961704731
:10BE300000ED00E0124BDB6813F0100305D0102377
:10BE40001049CA6942F00202CA610D4AD26850071D
:10BE500006D50C4943F00403CA6942F00102CA61E5
:10BE6000074AD169C90708D50648C16941F00401EC
:10BE7000C161D16921F00101D161014AD3607047EC
:10BE80000020024030ED0020064B186910F08000C1
:10BE900006D00549054A59605A601869C0F3C010B8
:10BEA000704700BF0020024023016745AB89EFCDFA
:10BEB000034A0020136943F080031361704700BFF9
:10BEC0000020024038B50446FFF734FF174AD36814
:10BED000DD070CD5651C1CD005462CB3FFF72AFFE7
:10BEE000401BA04220D8114AD368DB07F6D40F4B81
:10BEF000DA68900644BF2022DA600C4BDA68D1067B
:10BF00000ED4DA69D2070BD4D86810F0040007D138
:10BF100038BDD368D907EAD5D368D907F9D4E6E79D
:10BF2000FFF788FF012038BD032038BD0020024004
:10BF30002DE9F84F254E357E012D43D01C460123B7
:10BF400005464CF250308A4617463376FFF7BAFF63
:10BF5000A0BB012D03D0022D14BF042502254FF0F4
:10BF60000009C846DFF868B00AEB4505C9F12003AF
:10BF7000C6F81C8027FA09F004FA03F31843A9F164
:10BF80002002DBF8103024FA02F240EA020C43F0FF
:10BF90000103CBF810304CF25030AAF800C0FFF784
:10BFA00091FFDBF810300AF1020A23F0010309F1D6
:10BFB0001009CBF8103008B9AA45D7D10023337641
:10BFC000BDE8F88F0220BDE8F88F00BF30ED0020FB
:10BFD000002002402DE9F8432C4E337E012B52D035
:10BFE0000123337603688046022B89464CF2503099
:10BFF0002ED0FFF767FF074668BB4FF0FF33C9F845
:10C000000030D8E9025305EBC3239D4223D2204CD4
:10C0100007E005F50065D8E9023203EBC223AB4225
:10C020001AD9F76123694CF2503043F002032361BF
:10C030006561236943F040032361FFF743FF2369F0
:10C0400023F0020323610028E3D0C9F8005003E085
:10C05000FFF738FF20B1012000233376BDE8F883D5
:10C060000B4CF06123694CF2503043F00403236120
:10C07000236943F040032361FFF724FF236923F082
:10C0800004032361E8E70220BDE8F88330ED0020D7
:10C09000002002402DE9F04F0E6883B0002E00F022
:10C0A000AC800022044601254FF00F08924613464B
:10C0B000784F06E0013336FA03F002F1040200F093
:10C0C0009C8005FA03F030EA060E00EA060CF1D176
:10C0D0004E68122E00F29980122E0DD8DFE806F07D
:10C0E000A70AB3D70C0C0C0C0C0C0C0C0C0C0C0C85
:10C0F0000CBBB700D1F80CA0BCF1FF0F99BFA6464E
:10C10000164604F1040EA2F12006DEF8000008FA3B
:10C1100006F920EA09000AFA06F63043CEF80000D4
:10C120004868C6006FD5BE6903F0030946F00106F2
:10C13000BE61BE694FEA890906F001060196019EBB
:10C1400023F0030606F1804606F58036D6F808E0AF
:10C1500008FA09FB2EEA0B0EDFF83CB15C4513D060
:10C160000BF5806B5C457AD0DFF830B15C4563D06D
:10C17000DFF82CB15C450CBF4FF0030B4FF0040B04
:10C180000BFA09F94EEA090EC6F808E0DFF814E1E7
:10C1900010F4801FDEF8086014BF46EA0C0626EA99
:10C1A0000C06CEF80860DFF8FCE010F4001FDEF8A3
:10C1B0000C6014BF46EA0C0626EA0C06CEF80C60AA
:10C1C000DFF8E0E010F4003FDEF8046014BF46EA58
:10C1D0000C0626EA0C06CEF80460324E10F4803FBE
:10C1E00030680DD040EA0C0030600E68013336FA3A
:10C1F00003F002F104027FF464AF03B0BDE8F08FF6
:10C2000020EA0C0030600E6854E7DFF89CE07645C9
:10C210000DD02BD8AEF5801E764508D00EF5702EC9
:10C22000764504D0AEF5801E76457FF465AF8E6806
:10C2300036BB4FF0040A5FE74FF0020B0BFA09F927
:10C240004EEA090EA0E7C86800F1080A54E7C8687A
:10C2500000F10C0A50E7C86800F1040A4CE74FF0FF
:10C26000010B0BFA09F94EEA090E8DE7DFF83CE005
:10C270007645DCD00EF5803E76457FF43DAFD6E7BF
:10C28000012E4FF0080A0CBF2061606134E74FF0C7
:10C29000000A31E700100240000801400010014090
:10C2A0000014014000040140000022100000311081
:10C2B0008368194214BF01200020704702B90904A5
:10C2C0000161704730B583B0D8B190F89534044619
:10C2D00003F0FF02002B5AD00322002384F8952498
:10C2E000A371206801F020FE237C251D8DF800300D
:10C2F000206895E80E0001F061FD30B1022384F85A
:10C3000095340125284603B030BD0146206801F070
:10C3100013FE0028F2D194F804C0BCF1000F21D024
:10C32000234622464FF0010E01461075D08501309C
:10C330006045C2E9071182F815E0117642F8241F22
:10C34000F3D100210A4683F8541201316145C3E953
:10C35000972283F8552283F85822C3F8642203F108
:10C360002403F0D1237C20688DF8003095E80E007E
:10C3700001F066FE05460028C0D1012360742068E4
:10C3800084F8953402F0AEF9284603B030BD80F849
:10C390009424FFF76DFA9FE790F89434012B0FD0A7
:10C3A00010B501230446006884F8943401F0B4FD0C
:10C3B000206802F087F9002384F89434184610BDF1
:10C3C000022070472DE9F04F0668044687B03046DA
:10C3D00002F0C6F910B107B0BDE8F08F054620683D
:10C3E00002F090F90028F6D0D6F808382068C3F398
:10C3F0000D23C4F8D43402F085F98107236806F5CB
:10C40000006903D55A6902F002025A61184602F027
:10C4100079F9C206236814D59A6922F010029A614C
:10C42000376A07F4F012B2F5802F07F00F0800F01A
:10C43000DB82B2F5402F00F0FD819A6942F01002D4
:10C440009A61184602F05EF9070300F191812068B5
:10C4500002F058F910F4802F206840F0458102F076
:10C4600051F90028C0F2A582206802F04BF90305BB
:10C4700000F18480206802F045F910F4805F2068A4
:10C4800040F0E48002F03EF910F4005F206840F0D4
:10C49000BD8002F037F9000700F1AF80206802F09C
:10C4A00031F901061DD5B36923F08003B361227908
:10C4B000012A16D92746012504E00135AA4207F1D1
:10C4C00024070ED997F87B32012BF6D105EBC50175
:10C4D00004EB8101206801F5157102F001F8227961
:10C4E000EBE7206802F00EF9C20245D52279012A55
:10C4F00025D906F512632746B046012526461C4677
:10C5000006E00135AA4204F1200407F1240714D9FA
:10C5100097F83C302168012BF3D10029F1DA05F0BE
:10C520000F0101EBC10187F83B3006EB8101306858
:10C53000143101F0D5FF3279E3E7344646462068EE
:10C54000436903F48013436102F0DCF8830220D4D2
:10C55000206802F0D7F840006FD4206802F0D2F8CB
:10C5600041077FF538AF23685D686A0700F15B8299
:10C570005A682A435A602EE72068E5E7D9F8083060
:10C58000DF0700F155822068436903F400634361CB
:10C5900071E794F804C0BCF1010F28D923460121AA
:10C5A00006F5326203E0614503F124031FD093F8DE
:10C5B0007C021568012801F1010102F12002F2D18B
:10C5C000002DF0DAD4F8D47487EA1547FF07EAD4CF
:10C5D00083F87B02B06940F08000B06170690506A5
:10C5E000E1D4D9F8043043F40073C9F8043020686A
:10C5F000436903F400134361ABE72046FFF792F968
:10C600002068436903F00803436148E702F0ACF88F
:10C61000206801F0B9FDE071256800F0EFFEE279D5
:10C620000146284601F0FEFB2046FFF77FF920680F
:10C63000436903F4005343612BE72046FFF796F963
:10C640002068436903F08043436187E7D9F80430E9
:10C65000102123F00103C9F8043001F0A3FC207974
:10C66000D8B14FF67F3106F5106399601A6801352D
:10C6700022F400121A60C3F80812D3F8002285428F
:10C6800022F40012C3F80022D3F8002203F12003A1
:10C6900042F00062C3F8E021E7D1D9F81C3043F042
:10C6A0000113C9F81C30E37B002B00F0B480D9F8EB
:10C6B000843043F00B03C9F88430D9F8443043F098
:10C6C0000B03C9F84430D6F80038206823F4FE6321
:10C6D000C6F8003804F29C4102F056F8206843691D
:10C6E00003F480534361CDE602F018F8002800F00F
:10C6F000B480804602950022B3462546206806F5A0
:10C70000106704E001324FEA58082434203718F04B
:10C71000010F07D101324FEA58082434203718F0AE
:10C72000010FEFD0D6B23146019202F009F810F0B5
:10C73000010F0346019A40F0F980190744BF082110
:10C74000B960D80644BF1021B960590644BF4021E2
:10C75000B960980700F1DB80190600F1888028682D
:10C760005FEA580398467ED0013224342037D6E75A
:10C77000206801F0CBFF074600283FF468AE214651
:10C78000A0460295B34600250B4606F5306403E04B
:10C7900001357F0820342433F80705D401357F089C
:10C7A00020342433F807F3D5D8F80000E9B2019318
:10C7B00001F0BCFF10F0010F0646019B5FFA85FAFD
:10C7C00040F0C880310700F1DA80F20644BF102241
:10C7D000A260B00710D5DBF81420110605D5D9F8F2
:10C7E000042042F48062C9F8042093F85722012AF9
:10C7F00000F02C810222A260B20644BF2022A26077
:10C80000B60444BF4FF40052A2607F0827D0013520
:10C8100020342433C6E7D9F8143043F4005343F0EE
:10C820002B03C9F81430D9F8103043F00B03C9F8C2
:10C83000103048E7082204F29C41304601F0AEFE79
:10C8400008EBC80204EB8202D2F86812C7F30A139D
:10C850000B44C2F868322368EFE52068FFE55E46C6
:10C860004446029DF3E52C465E46029DF7E5D4E979
:10C87000091E8E453FF673AFE069A1EB0E0C8445AF
:10C8800028BF844628680CF1030C00F5106303EB05
:10C8900042139A469B6905909BB2B3EB9C0FC0F084
:10C8A000D18001970495374673460E46054603929C
:10C8B00018E0E3693A469E4228BF1E462846B3B2B6
:10C8C000216A01F05BFE236AF01C33442362A36AF1
:10C8D0003344A362DAF81820666A92B2B2EB900F82
:10C8E000C0F0AA80B342A6EB0306E2D3DDE903253C
:10C8F000019F28680126059B02F00F0ED3F834181B
:10C9000006FA0EF621EA0601C3F8341828E71146A4
:10C9100058460393019201F045FBE17D019A0129FC
:10C92000039B00F09D800221B96015E702F00F0E15
:10C930000122D9F834C002FA0EFE2CEA0E0C039044
:10C94000C9F834C03146BA602846FEF7E1FF039BC0
:10C95000019AF2E60122A260D8F800204649106C44
:10C9600002F5306202EB45128842D2F808C034D199
:10C970001CF4004F2CD04FF40041916022E70822B4
:10C98000A260D8F800203D49106C02F5306202EB3D
:10C9900045128842D2F808C005D91CF4004F1CBFCC
:10C9A0004FF40041916040460193FEF79FFF019BC9
:10C9B0000BE7D9F80430204623F00103C9F804300E
:10C9C000FEF7C8FF2068436903F0004343614CE56C
:10C9D0001CF0200F1CBF202191605146404601935E
:10C9E000FEF78CFF019BEDE647F6F07217423FF42D
:10C9F00024ADC7F30A12174608EBC80304EB830300
:10CA0000D3F860123046019301F0C8FD019BD3F8C2
:10CA100060223A44C3F86022D3F868223A44C3F84B
:10CA20006822236809E52046FEF7A4FF23689FE5F6
:10CA30002046FEF78BFFA6E59E463146049D019FEA
:10CA4000039A286871453FF68BAE53E700225146A2
:10CA500083F8572240460193FEF780FF019BC9E609
:10CA600000212846E175314603920193FEF77AFFD3
:10CA7000039A019B57E700BF0A31544F0A30544FC5
:10CA8000034690F89404012811D04FF0010C00B532
:10CA9000186883B0597483F894C4019301F000FEC0
:10CAA00000221046019B83F8942403B000BD0220AD
:10CAB000704700BF10B501F00F0E0EEBCE0C09064B
:10CAC00082B04FEA8C0C26D44FF000040CF515719F
:10CAD00084448CF8554201448A604A7881F800E029
:10CAE0000B710AB1A1F81AE0022B04BF00234B71AD
:10CAF00090F89434012B17D003460122006883F884
:10CB00009424019301F048FB00221046019B83F816
:10CB1000942402B010BD4FF001040CF114018444C0
:10CB20008CF815400144D7E7022002B010BD00BFC9
:10CB300001F00F0202EBC20309064FEA83031DD482
:10CB40004FF0000C03F515710144034483F855C2FE
:10CB50000A7090F89434012B1DD00346012200B5D1
:10CB6000006883B083F89424019301F05DFB0022F8
:10CB70001046019B83F8942403B000BD4FF0010CD4
:10CB800003F114010144034483F815C00A7090F8BE
:10CB90009434012BE1D10220704700BF10B500246E
:10CBA00001F00F0101EBC10E00EB8E0C8CF854125A
:10CBB0008CF855420068CCF86022CCE999340CF529
:10CBC000157101F093FB204610BD00BF01F00F016D
:10CBD00001EBC10100EB8100D0F86802704700BF93
:10CBE00038B50125002401F00F0101EBC10E00EB67
:10CBF0008E0C8CF814108CF815500068CCF820209E
:10CC0000CCE909340CF1140101F070FB204638BD69
:10CC1000037901F00F02934234D30B0626D44FF070
:10CC2000000C01EBC1018B0003F5157103440144B5
:10CC300083F855C24FF0010C0A7081F802C090F8D9
:10CC4000943463452CD0034600B5006883B083F864
:10CC500094C4CDE9003201F0C9FCDDE900329AB19B
:10CC60000022104683F8942403B000BD4FF0010C5D
:10CC700002EBC2039B0003F114010344014483F857
:10CC800015C0D7E70120704703F29C41186801F0F6
:10CC90007BFD00221046009B83F8942403B000BD66
:10CCA00002207047037901F00F02934233D310B58D
:10CCB00002EBC203090682B04FEA83031BD40024AF
:10CCC00003F51571034483F85542002401440A70AA
:10CCD0008C7090F89434012B1AD00346012200681E
:10CCE00083F89424019301F0AFFC2046019B83F864
:10CCF000944402B010BD012403F1140103445C7597
:10CD0000002401440A708C7090F89434012BE4D113
:10CD1000022002B010BD0120704700BF00B5D0F85E
:10CD200000E0DEF8243029B943EA02430020CEF8BF
:10CD3000283000BDDEF82800013903EB104C09D083
:10CD400000230EEB8300D0F8040101338B420CEB7F
:10CD5000104CF6D140314CEA02420EEB810E00201D
:10CD6000CEF8042000BD00BF03461B6800205962B6
:10CD7000704700BF002800F0F38170B503680446D7
:10CD8000D80782B035D598494A6802F00C02042AC7
:10CD900000F044814A6802F00C02082A00F03A814F
:10CDA000A368B3F5803F10D0002B00F06281B3F58B
:10CDB000A02F00F0D7818C4B1A6822F480321A60C1
:10CDC0001A6822F480221A6004E0874A136843F448
:10CDD00080331360FEF7AEFF054605E0FEF7AAFFBD
:10CDE000401B642800F242817F4B1B689B03F5D5F2
:10CDF0002368980729D57C4A516811F00C0F00F080
:10CE0000E180516801F00C01082900F0D7806369C6
:10CE1000002B00F066810122744B1A60FEF78AFF36
:10CE2000054605E0FEF786FF401B022800F21E8142
:10CE30006D4B1B689E07F5D56B49A2690B6823F003
:10CE4000F80343EAC2030B602368190729D45E077D
:10CE50004DD5654BDA69D50000F1DA800126DA6933
:10CE600042F08052DA61DB6903F080530093009B4B
:10CE70005F4B1B68D80540F1E7802369012B00F068
:10CE80005781002B00F00C81052B574B1A6A00F0DC
:10CE9000AD8122F001021A621A6A22F004021A62BB
:10CEA0004BE1E369002B00F0978001224F4BC3F860
:10CEB0008024FEF73FFF054605E0FEF73BFF401BE1
:10CEC000022800F2D380484B5B6A9A07F5D5494B9C
:10CED000494A1B68A2FB03235B0A019300BF019B25
:10CEE0005A1E0192002BF9D123685E07B1D4E36A80
:10CEF000002B44D03C4A5168C80305D5516801F065
:10CF00000C01082900F08C81022B40F0FB80364B8D
:10CF10001A68D20005D5DB6A626B03F0F003934216
:10CF200057D10022314B9A66FEF704FF054605E013
:10CF3000FEF700FF401B642800F298802A4B1B6814
:10CF40001B01F5D401212848626BC36A23F0F0036A
:10CF50001343C362C36A226B23F470631343234AEF
:10CF6000C3629166FEF7E6FE054604E0FEF7E2FEC8
:10CF7000401B64287AD81C4B1B681E01F6D5236A17
:10CF8000CBB1194A526802F00C02082A00F036812F
:10CF90000022022B154B1A6600F0F180FEF7CAFE44
:10CFA000044604E0FEF7C6FE001B02285ED80E4BC6
:10CFB0001B689B01F6D4002002B070BD5268D103FB
:10CFC0003FF525AF084A1268920731D56269012AF8
:10CFD0002ED0012002B070BD044AC2F88034FEF7A2
:10CFE000A9FE05460FE000BF0010024000004242CB
:10CFF0000070004074000020D34D6210FEF79AFECE
:10D00000401B022832D8894B5B6A9B07F6D46BE73A
:10D0100000262DE74A68D1037FF5C2AE834A126825
:10D0200092037FF5E6AEA268002A7FF4E2AED0E775
:10D030007E49A0690A6822F0F80242EAC0020A604A
:10D0400019077FF504AF2CE7794A136843F480731E
:10D050001360FEF76FFE0546754B1B68D9053FF55B
:10D060000CAFFEF767FE401B6428F5D9032002B021
:10D0700070BD6E4A136823F480331360136823F481
:10D0800080231360FEF756FE054604E0FEF752FECD
:10D09000401B6428EAD8654B1B689E03F6D4A7E6BC
:10D0A000624A136A23F001031362136A23F0040334
:10D0B0001362FEF73FFE054606E0FEF73BFE41F237
:10D0C0008833401B9842D1D8584B1B6A9B07F4D435
:10D0D000002E3FF40CAF554AD36923F08053D3613F
:10D0E00005E7544A1360FEF725FE054604E0FEF707
:10D0F00021FE401B0228B9D84C4B1B689807F6D478
:10D100002368A2E6002149484A4AC36A23F48033CF
:10D11000C3629166FEF70EFE054604E0FEF70AFEC6
:10D12000401B6428A2D8414B1B681801F6D426E79F
:10D130003E4A136A43F001031362FEF7FBFD054606
:10D1400006E0FEF7F7FD41F28833401B98428DD888
:10D15000364B1B6A9A07F4D5002E3FF4C8AEBAE7E7
:10D160000120704703F18043A3F53C331A6842F471
:10D1700080221A601A6842F480321A602AE6FEF7AA
:10D18000D9FD054605E0FEF7D5FD401B02283FF618
:10D190006DAF264B1B689901F5D4636AB3F5803FE8
:10D1A0000AD122486168C26A0A43C262C26AE1685F
:10D1B00022F00F020A43C2620120A16A1B4C0B43FA
:10D1C00062681C4922F47412134363600866FEF718
:10D1D000B1FD044605E0FEF7ADFD001B02283FF659
:10D1E00045AF124B1B689A01F5D5E4E642F0040204
:10D1F0001A621A6A42F001021A629EE7012B3FF49A
:10D20000E8AE0A4B626A5B6803F4803191427FF4B6
:10D21000E0AEA06A03F47013181A18BF0120CBE621
:10D22000D26AD1033FF5D5AE6EE600BF00100240D2
:10D2300000700040000042421B494B6803F00C02A2
:10D24000082A01D0194870471948C3F3834210F8DF
:10D2500002C0DA0310B5644610D5CB6A154AC86A15
:10D2600003F00F03D25CC3030CD4104804FB00F09E
:10D27000B0FBF2F00D2C00D1400810BD0E4800FBB1
:10D280000CF010BDCB6AC96AC3F30313C1F30321C9
:10D290000231A1FB0C1005480133A3FB0223A1FBC3
:10D2A0000001FAF79FFFE5E70010024000127A0044
:10D2B00098FB000888FB000800093D0078B14A4A45
:10D2C000136803F007038B420BD2136823F00703A4
:10D2D0000B431360136803F007038B4201D0012056
:10D2E000704703682DE9F0419A0714D55F0704D50C
:10D2F0003E4C626842F4E06262601E0704D53B4C1B
:10D30000626842F460526260384C8568626822F05C
:10D31000F0022A436260DD078846074620D542684E
:10D32000324B012A1B6859D0022A54D0990728D5BC
:10D330002E4C41F28835636823F003031343636086
:10D34000FEF7F8FC064604E0FEF7F4FC801BA8425A
:10D3500047D863687A6803F00C03B3EB820FF3D10C
:10D36000214A136803F0070343450DD9136823F0DE
:10D37000070343EA08031360136803F007034345F8
:10D3800002D00120BDE8F0813B685A0706D5174955
:10D39000F8684A6822F4E06202434A601B0707D536
:10D3A000124A3969536823F4605343EAC103536056
:10D3B000FFF742FF03460D4A0D4952680D48C2F37C
:10D3C0000312895C0C4ACB4000681360FEF76CFCCA
:10D3D0000020BDE8F0819801AAD4D2E79C03A7D42D
:10D3E000CFE70320CEE700BF00200240001002403C
:10D3F00078FB00087C00002074000020014B1868B6
:10D40000704700BF740000202DE9F0410368044616
:10D41000DE0782B02FD5634BDA69D50040F18E80EC
:10D42000614D00272B68D80540F197805D4D6168FC
:10D430002B6A13F4407312D001F440729A420ED05A
:10D44000012600202B6A594A23F44071C2F8406437
:10D45000C2F84004DA07296200F193806168514AFA
:10D46000136A23F440730B4313621FB1D36923F093
:10D470008053D36123689E0706D54A49A0684A684D
:10D4800022F4404202434A605D0706D54549E06800
:10D49000CA6A22F400320243CA62180706D541491B
:10D4A0002069CA6A22F480220243CA623D4AD16AD4
:10D4B00089030FD4D26A57030CD4DB0606D5394A48
:10D4C000E169536823F480030B435360002002B0EA
:10D4D000BDE8F081334A1168CE0025D413680120DD
:10D4E0005D01A16904D5D36A03F0F0038B42EED14C
:10D4F0002C4DEB6A23F0F0030B43EB62EB6A62699D
:10D5000023F470431343294AEB621067FEF712FCC1
:10D51000064604E0FEF70EFC801B64282DD82B681D
:10D520009A00F7D52368C8E7D26A616902F47042AD
:10D530008A42C2D0012002B0BDE8F081DA691A4DFA
:10D5400042F08052DA61DB69012703F080530193D6
:10D55000019B2B68D8053FF569AF2B6843F48073B6
:10D560002B60FEF7E7FB06462B68D9053FF55EAF5B
:10D57000FEF7E0FB801B6428F6D9032002B0BDE86B
:10D58000F081FEF7D7FB41F2883680462B6A9B0775
:10D590003FF564AFFEF7CEFBA0EB0800B042F5D933
:10D5A000EBE700BF00100240007000400000424264
:10D5B000704700BF00287DD038B590F82030044671
:10D5C000002B74D02268136843F001031360FEF748
:10D5D000B1FB054604E0FEF7ADFB401B0A285DD811
:10D5E00023685A68D107F6D51A6822F002021A6039
:10D5F000FEF7A0FB054604E0FEF79CFB401B0A2853
:10D600004CD823685A689207F6D4227E0025012A56
:10D610001A684FF0010C0CBF42F0800222F0800229
:10D620001A60627E2846012A1A680CBF42F0400246
:10D6300022F040021A60A27E012A1A680CBF42F052
:10D64000200222F020021A60E27E012A1A680CBF32
:10D6500022F0100242F010021A60227F012A1A689A
:10D660000CBF42F0080222F008021A60627F012A11
:10D670001A680CBF42F0040222F004021A60D4E9D6
:10D6800002210A4321690A4361690A436168013939
:10D690000A43DA61656284F820C038BD0522636AF6
:10D6A000012043F40033636284F8202038BDFFF783
:10D6B0007FFF87E70120704790F820200346013A5A
:10D6C000012A4FF0010004D95A6A42F480225A62BA
:10D6D0007047454BD3F800220243C3F80022D3F829
:10D6E000002222F47C52C3F80022D3F80022D1F8A1
:10D6F00024C042EA0C22C3F800224A6902F01F0C3F
:10D7000000FA0CF0D3F81CC22CEA000CC3F81CC2BF
:10D71000D1F81CC0BCF1000F48D1D3F80CC2D20024
:10D720002CEA000CC3F80CC2D1F80CC08B8802F1B3
:10D73000804243EA0C4302F5C842D1F808C0C2F85F
:10D7400040320B8843EA0C43C2F844328B69264AC4
:10D7500033BBD2F8043223EA0003C2F804320B6967
:10D76000214ABBB9D2F8143223EA0003C2F81432BA
:10D770000B6A012B05D11C4AD2F81C320343C2F8B4
:10D780001C32194A0020D2F8003223F00103C2F8FB
:10D7900000327047D2F814320343C2F81432E7E77C
:10D7A000D2F804320343C2F80432D8E7BCF1010FC7
:10D7B000CCD1D3F80CC2D2004CEA000CC3F80CC296
:10D7C000D1F800C08B8802F1804243EA0C4302F595
:10D7D000C842D1F808C0C2F840328B8943EA0C43F2
:10D7E000C2F84432B2E700BF0064004038B590F898
:10D7F00020300446012B05D0436A43F400234362E2
:10D80000012038BD0223026880F82030136823F01D
:10D8100001031360FEF78EFA054604E0FEF78AFA6C
:10D82000431B0A2B07D823685B6813F00103F5D16B
:10D830001846636238BD0522636A43F400336362AD
:10D8400084F82020DCE700BF10B590F820E0D0F885
:10D8500000C00EF1FF3EBEF1010F1C46DCF808309F
:10D8600033D813F0E05F42D04FF0010EC3F30160F4
:10D870000EFA00F32360D1E9023E63BB0B684EEA67
:10D88000435300F1180E4FEA0E1E4CF80E300C698F
:10D890000CEB0013C3F88441097D012905D1D3F8AD
:10D8A000841141F48071C3F8841151680CEB001CA1
:10D8B000CCF88C1112680020CCF88821D3F8802194
:10D8C00042F00102C3F8802110BD436A43F4802373
:10D8D0004362012010BD4C6843EA0E0300F1180EAC
:10D8E00043EAC4034FEA0E1E4CF80E30CFE7436AFA
:10D8F00043F400134362ECE790F82030013B012B26
:10D9000001D900207047036898689A689B681201E3
:10D91000C0F3806048BF0130DB00F3D501307047B1
:10D9200090F820C00CF1FF3CBCF1010F78D830B565
:10D93000D0F800C051B9DCF80CE01EF0030F0AD19A
:10D94000436A43F400134362012030BDDCF810E069
:10D950001EF0030FF4D00CEB011EDEF8B04104F012
:10D9600004049460002C61D0DEF8B041E4085460F7
:10D97000DEF8B0410CEB011C04F00204D460DEF8C8
:10D98000B44124074EBF0824DEF8B44104F00F046C
:10D990001461DEF8B441DEF8B4E1DCF8B8514FEAC6
:10D9A0001E4EC4F3072CC2F818C0C2F814E01D7054
:10D9B000026802EB0112D2F8B821120A5A7002680A
:10D9C00002EB0112D2F8B821120C9A70026802EB35
:10D9D0000112D2F8B821120EDA70026802EB0112BD
:10D9E000D2F8BC211A71026802EB0112D2F8BC21F4
:10D9F000120A5A71026802EB0112D2F8BC21120C11
:10DA00009A71026802EB0112D2F8BC21120EDA718F
:10DA1000036881B9DA6842F02002DA60002030BD84
:10DA2000436A43F48023436201207047DEF8B0412B
:10DA3000640D14609CE71A6942F020021A61EDE758
:10DA400090F82030013B012B01D90020704703687A
:10DA500019B9D86800F003007047186900F0030096
:10DA6000704700BF90F820200346013A012A05D9EB
:10DA70005A6A012042F480225A62704702680020EC
:10DA800053690B4353617047704700BF704700BF35
:10DA9000704700BF704700BF704700BF704700BFAE
:10DAA000704700BF704700BF704700BF704700BF9E
:10DAB000704700BF03682DE9F0435C695F689A68AE
:10DAC000D9681E690546B0469E6983B0B14614F018
