:04000005080091E47A
:020000040800F2
:1088000031505041010000000CA600008DAC310336
:10881000FFFFFFFFFFFFFFFFFFFFFFFFFFFFFFFF68
:10882000FFFFFFFFFFFFFFFFFFFFFFFFFFFFFFFF58
:10883000FFFFFFFFFFFFFFFFFFFFFFFFFFFFFFFF48
:10884000FFFFFFFFFFFFFFFFFFFFFFFFFFFFFFFF38
:1090000000000120752B0108DDF2000821F30008A3
:1090100039F3000851F3000869F30008000000006C
:1090200000000000000000000000000081F30008C4
:1090300085F300080000000089F300088DF30008A4
:10904000BD2B0108BD2B0108BD2B0108BD2B01085C
:10905000BD2B0108BD2B0108BD2B0108BD2B01084C
:10906000BD2B0108BD2B0108BD2B0108BD2B01083C
:10907000BD2B0108BD2B0108BD2B0108BD2B01082C
:10908000BD2B0108BD2B0108BD2B010891F3000881
:109090009DF30008A9F30008B5F30008BD2B0108F3
:1090A000BD2B0108BD2B0108BD2B0108BD2B0108FC
:1090B000BD2B0108BD2B0108BD2B0108BD2B0108EC
:1090C000BD2B0108BD2B0108BD2B0108BD2B0108DC
:1090D000BD2B0108BD2B0108BD2B0108BD2B0108CC
:1090E000BD2B0108BD2B0108BD2B010800000000AD
:1090F0000000000000000000000000000000000070
:109100000000000000000000BD2B0108BD2B01087D
:10911000BD2B0108BD2B0108BD2B0108BD2B01088B
:10912000BD2B0108BD2B0108BD2B0108BD2B01087B
:10913000BD2B01080000000000000000C1F3000882
:10914000CDF30008D9F30008E5F30008F1F30008B7
:10915000000000000000000000000000000000000F
:1091600000000000000000000000000000000000FF
:1091700000000000000000000000000000000000EF
:1091800000000000000000000000000000000000DF
:1091900000000000000000000000000000000000CF
:1091A00000000000000000000000000000000000BF
:1091B00000000000000000000000000000000000AF
:1091C000000000000000000000000000000000009F
:1091D000000000000000000000000000000000008F
:1091E0005FF8E0F153B94AB9002908BF00281CBF55
:1091F0004FF0FF314FF0FF3000F00CB8ADF1080C2C
:109200006DE904CE09F0DCFCDDF804E0DDE90223C1
:1092100004B07047704700BF034613F8012B002AC3
:10922000FBD1181A013870470348044B834202D01F
:10923000034B03B1184770479001002090010020B4
:10924000000000000548064B1B1AD90F01EBA301D3
:10925000491002D0034B03B118477047900100201A
:10926000900100200000000010B5064C237843B99F
:10927000FFF7DAFF044B13B10448AFF3008001237A
:10928000237010BDB8010020000000006C2F010801
:1092900008B5054B1BB105490548AFF30080BDE893
:1092A0000840FFF7CFBF00BF00000000BC01002056
:1092B0006C2F01080849094A914238BF084603D378
:1092C00008E00430904203D20368B3F1C53FF8D000
:1092D000401A7047002070475CE600200000012023
:1092E000014B1868704700BFDC010020074A084B9B
:1092F00012681868904201D300207047642101FB76
:1093000000F0B0FBF2F0081AC0B27047D80100209C
:10931000DC01002069460A4A0A4802F1604C131831
:109320005B1A8A4288BF1846844506D9642303FB2A
:1093300000F0B0FBFCF0C0B270476420704700BF83
:10934000000001205CE60000014B1878704700BF68
:10935000F1010020014B1878704700BFF001002098
:10936000014B1868704700BFEC010020014B1868E2
:10937000704700BFE80100200F4B82B0DA69DFF8C8
:109380003CC042F08052DA61DA690D4902F0805245
:109390000092009ADA6942F00062DA61DB6903F058
:1093A00000630193019BDCF8003043F48073CCF838
:1093B0000030C86002B070470010024000700040EA
:1093C000006C004030B504468E46104A1049DFF864
:1093D00044C01160DCF80430646980691361DCF812
:1093E0002850C2E901046B405561C2F80CE06340AB
:1093F000DCF82C40DCF8385063406B4083EA0E0305
:1094000043404B409461D561136230BD9001002010
:109410004853524300ED00E00D480E4B02689A425B
:1094200014D14368C1685340826810B45340026944
:1094300044694B4053406340D0E906215340026ADF
:109440004B409A4218BF002010BC70470020704764
:1094500090010020485352432DE9F04F9FB005F092
:10946000F9FF6B464248A3F14002824207D91A1A1B
:10947000413A22F00302C521043209F03DFD3D4A84
:109480003D48D1693D4B41F08051D161D1693C4C9F
:1094900001F0805100910099D1693A4D41F000618D
:1094A000D161D269384902F000620192019A0268E2
:1094B000364F42F4807202609A680A70DA68D2B25B
:1094C00022705969186940EA014000212860DE696C
:1094D000986940EA06402E4E3060186A387019626A
:1094E00022B1D960196159619961D9613422002191
:1094F00011A809F001FD202200210DEB0200CDE9A9
:109500000311CDE90511079109F0F6FC4FF4803302
:1095100012934FF4E0134FF0010802221A934FF414
:10952000803310A8CDE91823CDF8408006F0D0FF95
:1095300008B172B6FEE710230F9008A8089307F051
:1095400011FB034608B172B6FEE74FF0020B05931C
:1095500007934FF4806A0F23594603A8CDE9033BD4
:10956000CDF818A007F058FA814698B172B6FEE718
:109570005CE600200010024000700040006C0040DB
:10958000F0010020EC010020F1010020E4010020A6
:10959000E8010020C24BC3499A6942F001029A6176
:1095A0009A6902F001020892089A4A6822F0E06281
:1095B00042F000724A609A6910A942F004029A616E
:1095C0009A6902F004020292029A9A6942F0100229
:1095D0009A619B694FF4005203F010030393039BBD
:1095E00001231290B048CDE91023CDF84CB006F01D
:1095F000FFF842464FF40051AB4806F00DFA002345
:109600004FF40072A94810A9CDE91023CDF8489075
:1096100006F0EEF8CDF844804FF40068A24810A997
:10962000CDE9129BCDF840A006F0E2F84A4651463B
:109630009D4806F0F1F99C4810A9CDF8408006F04D
:10964000D7F841464FF480584A46974806F0E4F967
:10965000954810A9CDF8408006F0CAF841464FF46D
:1096600000484A46904806F0D7F9904810A9CDF82E
:10967000408006F0BDF84A4641468C4806F0CCF9D9
:109680004FF0030940F2E143894AC2E90193894B53
:109690001046136007F030FF8046002840F0D68067
:1096A00003F0DCFE02F034F9834BC3F8209003F0A2
:1096B000DDFA824B824AD3F800180D20914218BF80
:1096C00043464FF003014FF00B0208BFD3F80C38AC
:1096D00003F05CF92178002940F0BA800124764D2E
:1096E00003272C6204F022FD02232B6205F0A8F868
:1096F0002F62002004F01EFF724EDFF8CC91306024
:10970000204604F017FF01467060306801F0FCFB52
:10971000002004F0AFFF0646002004F0B3FF3146FE
:109720000246002001F0B8FB204604F0A3FF0646E5
:10973000204604F0A7FF31460246204601F0ACFB6C
:109740000423394600202B6200F0CAFF05230022C3
:109750002B625E495E4808F005FC5E495C4808F0F3
:1097600017FC5D495A4809F0B3F9594808F01AFC4A
:1097700006232B6201F0EEFC07232B6202F06CFF44
:1097800005F082FB064605F085FB804605F088FB68
:1097900008232B62044605F07BFE504FDFF840B1F2
:1097A000DFF840A1C9F80000414807F0D1FE3B684E
:1097B00001333B6005F06CFED9F80030C31AB3F5F5
:1097C0007A7F0CD33B68DAF80020CBF80030934264
:1097D00088BFCAF800300023C9F800003B6005F0DC
:1097E00053FB8642054604D00246FF21072003F0C2
:1097F000A7F805F04FFB8045064604D00246FF213E
:10980000082003F09DF805F04BFB8442804608D009
:10981000021BFF2A28BFFF22FF210A20D2B203F039
:109820008FF84FF40071214806F0F0F8444601F03B
:10983000AFF9B04602F060FF2E4605F0C7F804F01D
:1098400069FA00F057FF05F0E3FAADE772B6FEE7FC
:109850002B680C20727803F099F8FFF7DDFD0546C0
:10986000B8B14369C27E21780F2003F08FF800223F
:109870001020EB69297B03F089F82969AB68C1F3F3
:1098800007221120C9B203F081F80022164B1A609A
:109890001A6200220E20397803F052F81EE700BF4A
:1098A000001002400000014000100140000801408B
:1098B000F801002000300040006C004000800008EB
:1098C0003150504100000020D401002058000020F9
:1098D000040200204C0100200C000020E0010020C8
:1098E000DC010020D801002090010020014807F091
:1098F0002FBE00BFF8010020BFF34F8F0549064B74
:10990000CA6802F4E0621343CB60BFF34F8F00BF1D
:10991000FDE700BF00ED00E00400FA05002000B5FF
:10992000114B83B0DA69DFF844C042F08052DA614B
:10993000DA690F4902F080520092009ADA6942F027
:109940000062DA61DB690B4A03F000630193019B5B
:10995000DCF8003043F48073CCF80030C2F8F00F2C
:109960004860FFF7C9FF00BF0010024000700040D0
:10997000006C004000400020F0B51030C3B01D4620
:109980008DF804008DF805108DF8063033B12AB13A
:1099900011460DF107001A4609F0DAFA05F078FDD4
:1099A00000240746033507E0FFF7A0FF05F070FD30
:1099B000C01BB0F5617F07D221462A4601A805F0F9
:1099C0006FF985420446EFD843B0F0BD2DE9F04F62
:1099D000ADF5537D05F022F930B9A54B1860002094
:1099E0000DF5537DBDE8F08F05900DF126010020A7
:1099F00005F03AF99DF82640059A4CBB162A174601
:109A000028BF162790469B4D8DAEBFB23146A0B2FF
:109A100005F02AF92A7833789A4216D10134A74200
:109A200005F10105F2D1B8F1150F00F2DC8505F062
:109A30002FFD8F4A1368002B00F04E84C01AB0F53A
:109A4000FA7FCCD300231360A3E042469DF8264062
:109A5000A02C00F0FE807DD9BE2C00F29F80BA2C95
:109A600040F29780BC2C00F00D81BE2C00F04784A2
:109A7000042A40F234840AAB1946B4F1BB094FF012
:109A800001000693059218BF4FF0010905F0ECF8AC
:109A90000BA9022005F0E8F803200BA99DF82C7013
:109AA00005F0E2F804204FF005084FF0000B9DF898
:109AB0002C30059A47EA032707900CA9059205F078
:109AC000D3F89DF83030082B63D8059AB9F1000F10
:109AD00000D1984408F10105954200F200844CAA97
:109AE0001446002605922146B0B2013605F0BCF8B6
:109AF000AE4204F10104F6D100234CA9059A01EB12
:109B0000080012F8011B824283EA0103F9D14CA933
:109B100011F808209A423CD1069B9DF83020197814
:109B200000238DF834128DF835B2CDF837728DF8E8
:109B300036928DF83B228DF83C32B9F1000F00F0DF
:109B4000E183CDF83D32CDF841328DA801F086FB9E
:109B5000A8B245E7902C6FD0922C1AD104F05CFC8F
:109B6000932305468DF83432827B00F10F010DF20C
:109B700036208DF8352209F0EBF9FF233E4AA97B08
:109B80008DAC127820460C44A270E370043105F0CD
:109B9000E9F801200DF5537DBDE8F08F4034E4B2C3
:109BA0001A2CF6D8012A00F092800DF127073946C9
:109BB0000120059205F058F83B78059A9C1CA242BA
:109BC000C0F0858063B100254CAEA81C314680B240
:109BD00005F04AF83B780135AB4206F10106F4D8AE
:109BE000264E33680133336005F052FC05469DF87C
:109BF00026003B78A0F1C0021A2A00F25E85DFE859
:109C000012F0EC022C0384025003DE023B010E0131
:109C1000A602F9016F0161019202C500A4008A0049
:109C200027021E0268020201F8006003EB00DD005B
:109C3000530149017A02760091230F49104A0C78AA
:109C400012788DA8032144708270037005F08AF8A1
:109C50009FE7002001F0F2FA0346A1241A0A8DA81A
:109C6000032104704270837005F07CF891E700BF17
:109C7000C804002004340108D9040020D4040020C2
:109C8000D80400204FF00009062A40F2288300255E
:109C90002F460AAB194601200693059204F0E4FF13
:109CA000059EA81C80B20BA904F0DEFF9DF82C30A5
:109CB000EA0001359340042D47EA0307F1D106205D
:109CC00032464FF007084FF0010B0790F5E605F01C
:109CD000DFFBBF4B1A68002A00F00E83801AB0F534
:109CE000FA7FFFF47CAE002201201A6078E6012B97
:109CF00004D99DF83001012840F29F8300230121FF
:109D0000DA201A46FFF738FE05F0C2FBB14A431BC2
:109D10001360A0B264E6022B40F212839DF830611A
:109D2000013EF6B2012E00F20B83BDF831713046D0
:109D3000394601F039FA0346002840F07B84024698
:109D40000221CE20FFF718FEDEE7022B40F2F1825F
:109D50009DF830010138C0B2012800F2EA829DF876
:109D600032219DF8311101F097F89DF830019DF8EE
:109D7000322101389DF83111C0B204F08BFC002370
:109D8000CD201A461946FFF7F7FDBDE705F058F854
:109D9000804605F05BF886468E4B3668D3F800C0E7
:109DA0008D4B8DAA1F6800211423CC20C2E9008EA0
:109DB000C2E9026C1761FFF7DFFDA5E7032B04D9A9
:109DC0009DF83001012840F25D8300230121D62057
:109DD0001A46FFF7D1FD97E723B19DF8300101281E
:109DE00040F2638300230121D5201A46FFF7C4FD0A
:109DF0008AE70E2B00F2BF8200230121D3201A46EE
:109E0000FFF7BAFD80E704F0F1FCB0FA80F100231F
:109E10004909D2201A464900FFF7AEFD74E7002B2E
:109E200000F080829DF83071013FFFB2012F00F2F7
:109E3000798200260CA90E60384600F0D3FF8046D8
:109E4000384600F0E9FFB44602460C9F68F3070C61
:109E500062F30F2C314667F3174C3E0A8DAA66F366
:109E60001F6C3E0C3F0E0623C620C2F800C01671C0
:109E70005771FFF781FD47E7012B04D99DF83001A9
:109E8000452840F2EB8200230121C5201A46FFF746
:109E900073FD39E7022B00F28D8200230121D820C7
:109EA0001A46FFF769FD2FE7042B04D99DF830010E
:109EB000012840F2458300230121D7201A46FFF7ED
:109EC0005BFD21E7522B04D99DF83021452A40F251
:109ED0001F8300230121CA201A46FFF74DFD13E717
:109EE00004F09AFA5222074600210DF2362009F0BA
:109EF00003F83A4B01211A780B238DF837128DF8AD
:109F000035328DF834227A7F8DF83822BA7F8DF879
:109F10003A328DF8392204F083FA4FF48071304AD6
:109F20008DF83B02ADF836122E4BD2F800289A423B
:109F300000F0E8822C4ADFF8B4C091AB0CAF07CA3E
:109F4000B84683E80700BCE80F000FC79CE8030091
:109F500047F8040B39700746B8E80F000DF5147E7A
:109F6000AEE80F00224BCEF8007093E80300CDE975
:109F70009901FFF7E9F98DF86C0204F085FF8DF87F
:109F80006D0204F087FF8DF86E02FFF7E3F98DF89C
:109F90006F0204F085FF9C90FFF78CF99D90FFF70E
:109FA000DFF90746FFF7E2F9CDE99E70FFF798F970
:109FB000A090FFF79BF98DF88402FFF7ABF95423CB
:109FC0008DF885020021C9208DAAFFF7D5FC9BE6FC
:109FD000C8040020D0040020CC040020D8040020B5
:109FE0000080000831505041E8F7FF1F903301080E
:109FF0008433010800270CAA17600AA80BA9076080
:10A000000B9702F0E5FBDDE90A13CDE98D1302F0B1
:10A01000F3FB8DF83C0204F003FA8DF83D0201F0E9
:10A020009FFE46220C9B8DF83E0290938DF83F22B6
:10A0300010233946C8208DAAFFF79EFC64E6002B4A
:10A0400040F0CC811A460121D020FFF795FC5BE659
:10A05000032B40F2C081042B4C9800F0D7819DF86F
:10A060003421002A00F0D281172A28BF17228DA997
:10A0700002F08EFC8DF83000002800F0418200EBE9
:10A08000800100EB41010DF131038DAA19448600D6
:10A0900017680B3343F80B7C57680C3243F8077C86
:10A0A00012F8047C03F8037C12F8037C03F8027CAA
:10A0B00012F8027C03F8017C9942E9D1831900EB84
:10A0C000430301330021CF200CAADBB2FFF754FC7D
:10A0D0001AE6012B08D99DF83121152A04D8911CC4
:10A0E000C9B28B4280F0418200230121D1201A465F
:10A0F000FFF742FC08E6032B00F230810023012128
:10A10000D9201A46FFF738FCFEE5042B04D1C04BDA
:10A110004C9A9A4200F05C8200230121C2201A4628
:10A12000FFF72AFCF0E5012B00F07681022B07D126
:10A130009DF8300120B99DF83131A52B00F07181D7
:10A1400000230121CB201A46FFF716FCDCE5002B8B
:10A1500000F0E1809DF830014CAF0138C0B2012819
:10A1600000F2D9800CA900F0CFFCDDE91023DDE975
:10A170000E01DDF830C0CDE99012CDF834C2DDF823
:10A1800034C09293CDE98EC001F062F88DF84C0294
:10A1900038780138C0B201F051F8020A8DF84E2229
:10A1A000139A8DF84D02CDF85322129A2323CDF83D
:10A1B0004F220021C7208DAAFFF7DEFBA4E5522B1A
:10A1C00004D99DF83021452A40F2828100230121E3
:10A1D000C4201A46FFF7D0FB96E504F01DF902797A
:10A1E000411D05908DF834220DF2352008F0B0FEA7
:10A1F000059B8DAE19799A7B8F1C31444A70F019FA
:10A2000003F10F0108F0A4FE0020059B9A7B174480
:10A21000B3F81920F119F255B3F819200537120ACD
:10A220004A70B3F81B208A70B3F81B308DF83000E9
:10A230001B0ACB700CA8059104F0A6FA9DF83020FB
:10A2400005990A7110B1002A40F087813246002139
:10A25000C020FBB2FFF790FB56E5012B1AD99DF801
:10A2600030114CA8092915D84A1C9A4212D811D08D
:10A27000875C0A2F0ED88A1CBE1806F1040C6345B1
:10A2800008D3A3EB0C03022B04D110F80C30A52B40
:10A2900000F0DD8100230121C1201A46FFF76CFB8D
:10A2A00032E5002B53D09DF830018DA901F042FD1D
:10A2B00000284CD05A230021C3208DAAFFF75CFB55
:10A2C00022E50023D4201A461946FFF755FBC82083
:10A2D00004F0ECFDFFF722FB1060FFF780BB05F0F8
:10A2E000D7F84C4B1A683AB1801AB0F5FA7FFFF4F0
:10A2F00076AB00221A604CE41860FFF770BB4FF099
:10A300000109C1E407994CAB013119440DF23D201C
:10A3100008F01EFE19E400230121C7201A46FFF7AA
:10A320002BFBF1E400230121C6201A46FFF724FB92
:10A33000EAE400230121CD201A46FFF71DFBE3E4E8
:10A3400000230121CE201A46FFF716FBDCE4002390
:10A350000121C3201A46FFF70FFBD5E44C9803F008
:10A360002FFCB0FA80F100234909D9201A46490090
:10A37000FFF702FBC8E4DDF83B219DF83A319DF878
:10A380003111CDE90232BDF83821BDF836319DF8E2
:10A390003001CDE90032BDF83431BDF8322104F08E
:10A3A00065FA0023B0FA80F11A46D3204909FFF775
:10A3B000E3FAA9E49A1E0DF59971BDF8300103F096
:10A3C000A9FBB0FA80F100234909D8201A464900B8
:10A3D000FFF7D2FA98E40020172248E600230CA9E0
:10A3E0009DF830018DF8303004F080F99DF8307020
:10A3F00001468DF8347208B1002F3DD17B1C00213D
:10A40000D0208DAADBB2FFF7B7FA7DE417222EE643
:10A4100046434C52C80400209DF8300100283FF408
:10A420008FAE01F03FFDB0FA80F100234909CB2047
:10A430001A464900FFF7A0FA66E49DF83131A52BD2
:10A440007FF45CAC03F07CFCB0FA80F10023490996
:10A45000DA201A464900FFF78FFA55E49DF83111CA
:10A4600001F03EFFB0FA80F100234909C5201A46E9
:10A470004900FFF781FA47E43A460DF2352008F02B
:10A4800067FDBBE79DF83331002B3FF49EACBDF870
:10A4900031118DAA03F060FA0346002875D10246F7
:10A4A0000221D620FFF768FA2EE400260CAF3B46C7
:10A4B0000AA90BAA0E6016603E6003F071FA03460B
:10A4C000002877D102460221D520FFF755FA1BE478
:10A4D000591E8DAA0DF2311001F080FC00283FF4C6
:10A4E00075AE8DA99DF8300101F07CFEB0FA80F1C7
:10A4F00000234909C4201A464900FFF73DFA03E446
:10A500000646DBE5704A92E80300CDE98F0111E5CC
:10A51000591E8DAA0DF2311001F060FC00283FF4A5
:10A52000D8AC8DA99DF8300101F06CFC0023B0FA85
:10A5300080F11A46CA204909FFF71EFAFFF7E4BB6B
:10A54000DDF8311103F042FA034638BB024602211E
:10A55000D720FFF711FAFFF7D7BB0146F019059294
:10A5600008F0F6FC059A174470E60DF599719DF810
:10A57000300104F0E1F80023B0FA80F11A46D1204E
:10A580004909FFF7F9F9FFF7BFBB0021D6209DF875
:10A5900033318DAAFFF7F0F9FFF7B6BB03F0B0FA3D
:10A5A00006468DAA04230021D7201660FFF7E4F9A0
:10A5B000FFF7AABB3B688DAADDE90AC09360C2E938
:10A5C00000C031460C23D520FFF7D6F9FFF79CBB1E
:10A5D00001F0CCFB012003F0B3FB002003F0B0FB43
:10A5E0000023C2206FE64BF6EF60384B3849DA693A
:10A5F000384C42F08052DA61DA6902F080524C92B3
:10A600004C9ADA6942F00062DA61DB69324A03F09F
:10A610000063336033680B6843F480730B602F4B27
:10A620005060FF210022C4F8F03F0B2002F088F9AF
:10A63000FFF762F93946304603F0A0FF034678BBC6
:10A6400002460321CE20FFF797F9FFF75DBB0DF21D
:10A6500035139B5D5A2B7FF41DAE3B460DF233172D
:10A6600017F806C00DF59977BF5D024447EA0C273D
:10A670000197875D0DF23110865D47EA0626009648
:10A6800003F0D4FE0646B6FA86F100234909C1203C
:10A690001A464900FFF770F9002E3FF435AB16E675
:10A6A000304600F0CBFD06468DAA02230021CE20C5
:10A6B0001680FFF761F9FFF727BB002303211A4635
:10A6C000FFF75AF9FFF720BB088800080010024086
:10A6D0000070004000400020006C0040EFBEADDE86
:10A6E000024A034B10701970704700BFD904002054
:10A6F000D80400202DE9F04320264FF00008624ADC
:10A70000624F13688BB001331360FFF75FF90546A2
:10A7100058B10024C7F80080013404F08BFAAC4231
:10A72000FAD1013EB6B2002EEFD14FF0000840261C
:10A730006F4604F073FA00285DD1404605A900F089
:10A7400075F9002851D005A801F0F8FD9DF8161004
:10A750009DF81530002951D0002B59D04FF0AD0C89
:10A760009DF81C40003CDDF8173018BF01241D4641
:10A770009DF81420180A013242EAC4129DF81B40C9
:10A780008DF801201A0C1B0E8DF800C08DF80420E6
:10A790008DF805308DF803008DF802508DF80640D5
:10A7A00091BB07250821E9465CB1B9460DF11D01B1
:10A7B0007819224608F0CCFB611EC9B22944023147
:10A7C000254400224846134610F8014B01339D42B0
:10A7D00082EA0402F8D8013E48466D4489B2B6B216
:10A7E0002A7004F0CDFA002EA3D108F10103022B48
:10A7F0004FF001089BD10BB0BDE8F08333B34FF0AD
:10A80000AB0C9DF81C40ADE708210725B946D8E7F9
:10A810009DF81C20AC24003A18BF01229DF814308A
:10A82000DDF817009DF81B500133010A43EAC213FB
:10A830008DF803108DF8045006210525B9468DF8D2
:10A8400002008DF800408DF80130BAE79DF81C2019
:10A85000AA20003A18BF01229DF81430DDF8171025
:10A860009DF81B4001330D0A43EAC2138DF80350D3
:10A870008DF80210052506218DF804408DF80000A2
:10A880008DF801308FE700BFCC040020C804002001
:10A89000642908B534D009D832292DD027D80A29FF
:10A8A00021D0142914BF0422642208E0FA2925D0FB
:10A8B000B1F57A7F19D07D2914BF0422102200231C
:10A8C0004FF4602C4FF4801142604FF00122C0E938
:10A8D0000233C0E904C18261838306F019FAB0FA39
:10A8E00080F0400908BDC822E9E70222E7E75329C2
:10A8F00014BF04221822E2E72822E0E70822DEE75C
:10A900001422DCE700234FF00E0C10B58AB00122B0
:10A91000CDE90133CDE9033300930693994218BF83
:10A92000634669460446CDE90722CDF824C0059365
:10A9300006F070FA18B9204606F006FB10B10020A8
:10A940000AB010BD0221204606F05EFCB0FA80F08D
:10A9500040090AB010BD00BF43F69032324BF0B54B
:10A9600002FB003202F56E52B2F800C043F68234A8
:10A970001FFA8CFC0CF1010CBCF5607F38BFB2F8FB
:10A9800000E043F6903228BF4FF0000E02FB003289
:10A9900032F804C03CBF0EF1010E1FFA8EFE1FFA02
:10A9A0008CFCF4451FD132F804C043F684361FFAFC
:10A9B0008CFC0CF1010CBCF5607F38BF145B43F6D6
:10A9C000903228BF00244FF0010C43F6823743F643
:10A9D0008C3502FB003238BF0134D45302F806C074
:10A9E00054596444545143F6903243F6883400FB82
:10A9F00002F29818055900F56E5C01350551BCF856
:10AA000000000E6880B200EB00104D688C681044A6
:10AA1000CA681E5003445D609C60DA600A7CACF832
:10AA200000E01A74F0BD00BFB80D0020012863D803
:10AA300040F2444200FB02F2F0B5DFF8C4E00EEB56
:10AA4000020CBCF84234BCF840449C423CD143F672
:10AA5000903E43F682372B4A0EFB002C0CF56E53CA
:10AA60001B889CB23CF807309BB29C4246D03CF815
:10AA700007309BB203EB03130EFB003302EB030E14
:10AA8000D458DEF80450DEF80C30DEF808600C60B4
:10AA90004D608E60CB609EF810300B743CF8073030
:10AAA00043F682319BB20133B3F5607F38BF3CF887
:10AAB000073043F6903C28BF00230CFB002238BF30
:10AAC000013353520120F0BD03EB031010440EEB91
:10AAD00000025EF800405568D2F808E0D0680C60CB
:10AAE0004D60C1F808E0C860127C013303F03F03F9
:10AAF0000A74ACF84234E5E7002070470020F0BD4E
:10AB000020050020B80D002099B301288C4603468B
:10AB10002AD800B543F6903E43F6883043F68C3190
:10AB2000144A0EFB03221058CCF80000124850F8CB
:10AB3000230052581149CCF80820114ACCF80400DF
:10AB400051F8230052F823200E49CCE903020E4AA3
:10AB50000E4851F8231052F8232050F82330CCE946
:10AB60000512CCF81C3000BD20220021604608F000
:10AB7000C3B97047B80D0020B00D002008050020B3
:10AB800000050020F8040020A80D0020EC0400209F
:10AB9000884B1B78002B00F0FA802DE9F04F864B94
:10ABA0008FB000251E46E946844ADFF814A2CDE99D
:10ABB0000032DFF810823368ECB2D3F818B01AF81C
:10ABC00005301BF0040271D003F0FF02002B00F0EF
:10ABD000B5801BF070027AD11BF0030F10D0012357
:10ABE000794A1BF0010F535506D0784A52F82530A8
:10ABF00043F0010342F825301BF0020F40F096802D
:10AC0000002730461BE0079A8DF809008DF80A30BE
:10AC10000B9B204602A9CDF80B208DF80F308DF844
:10AC20001070FFF799FE58F82530062001330022F6
:10AC3000214648F8253001F083FED9F800000021B4
:10AC400006F0D0FA00B3EFF3108672B60021D9F8FF
:10AC500000000DF1110307AA06F034FA86F31088FC
:10AC600090B9DDE90923A3F10203B3FA83F3042ABF
:10AC70004FEA53138DF80840C5D10121089A8DF889
:10AC80000A308DF80910C3E743F6903343F6843158
:10AC900000224F4803FB0503585C5A54002840D15A
:10ACA000002D3BD1012559F8046F84E7002B90D08B
:10ACB00048480AF8052050F825302146013340F86D
:10ACC0002530042001F03CFE1BF0700284D00127E7
:10ACD00041483D4950F82530402A3B4440F8253052
:10ACE0004F5560D056D8202A52D0302A5DD0A2F1DC
:10ACF0001007B7FA87F77F09FF003448120950F8A8
:10AD0000253021463B4340F82530022001F018FE53
:10AD10003268936923F0700393615DE70FB0BDE87B
:10AD2000F08F2146052001F00BFEB9E7274A52F8C3
:10AD3000253043F0020342F8253061E70127DFF8B0
:10AD40009CE00AF805705EF825C01F4BBC444EF825
:10AD500025C0DFF88CC021460CF80570DFF86CC008
:10AD60005F555CF82530032043F004034CF8253090
:10AD700001F0E6FD3946304606F06CF90221304616
:10AD800006F068F90421304606F064F921E77047BF
:10AD90001027B2E7502A0AD0A2F16007B7FA87F766
:10ADA0007F093F02A9E71746A7E72027A5E78027E5
:10ADB000A3E700BFE804002000850020D88400201D
:10ADC000F4040020EC0400201C05002010050020E5
:10ADD000B80D0020F8040020080500200005002020
:10ADE000180500200128034610D84FF0000C084A2F
:10ADF000105C02F803C0C0B2064A19B152F823C071
:10AE0000C1F800C0002142F82310704700207047AD
:10AE10001C050020100500200128034605D800214C
:10AE2000034A105CD154C0B270470020704700BF85
:10AE3000180500200368114910B55B1A18BF0123DB
:10AE40000124416A0E4ADFF83CE0DFF83CC04EF8CE
:10AE50002310D4545CF8232022444CF823204A07C2
:10AE600009D50A4A0A49D45451F82320224441F80A
:10AE70002320084AD4540023436210BD00640040DC
:10AE80001C050020100500200805002018050020E2
:10AE900000050020F40400202DE9F04190460C4606
:10AEA00084B048BB80210826154F1548019104F055
:10AEB000ADFD0546221E18BF01221148019904F07C
:10AEC000ABFDB8F1000218BF01223146384604F04C
:10AED000A3FD012D0DD164B90394039BB3F5B47F99
:10AEE00007D200BF039B01330393039BB3F5B47FE9
:10AEF000F7D304B0BDE8F08110210426014FD4E758
:10AF0000000C0140001401402DE9F04700248CB0F2
:10AF1000814647F220728A467B48002107F0ECFF09
:10AF200040F688020021794807F0E6FF784D794B1A
:10AF300079481C802C8001257849794A0460794B36
:10AF40004460794E0C604C6014605460774A784FCE
:10AF50001C6007945C6034701480BB69754A43F0D0
:10AF60000103BB61BB6974482B400093009B53688D
:10AF700004A923F4C04343F0E06343F480435360E7
:10AF800053684FF0030843F0E8635360BB694FF424
:10AF9000807243F00803BB61BB6903F008030193AF
:10AFA000019BBB6943F02003BB61BB6903F0200335
:10AFB0000293029B0023CDE90423069504F018FCBC
:10AFC0004FF4007202235C4804A9CDE90423CDF8B4
:10AFD0001C8004F00DFC20220023574804A9CDE971
:10AFE0000423069504F004FC40220223524804A9DD
:10AFF000CDE90423CDF81C8004F0FAFB4FF0020CDD
:10B00000802201234FF01008B9694B4841F010012C
:10B01000B961B969CDF82CC001F01001039108A9FC
:10B02000CDE908230A94039B04F0E2FB2246802129
:10B03000414804F0F1FC404808A9CDF8208004F014
:10B04000D7FB41464FF0080822463B4804F0E4FC99
:10B05000394808A9CDF8208004F0CAFB41464FF0DA
:10B0600004082246344804F0D7FC344808A9CDF837
:10B07000208004F0BDFB22464146304804F0CCFC61
:10B08000FB692F4943F00073FB61FB692D4803F016
:10B0900000730493049BFB692B4A43F08063FB61BC
:10B0A000FB690160294903F080630A6008934946FF
:10B0B000089BFFF7EDFB20B9002738460CB0BDE830
:10B0C000F08751462148FFF7E3FB0028F4D0204BDE
:10B0D00021461C48C3E9009AFFF714FC0028EBD076
:10B0E00029461A48FFF70EFC07460028E4D02246FE
:10B0F00021462046FFF7D0FE224621462846FFF78C
:10B10000CBFE3570D9E700BFB80D00202005002028
:10B11000180500201C05002010050020080500204F
:10B1200000050020F8040020E8040020F4040020BA
:10B130000010024000000140000C014000140140DA
:10B14000006400400085002000680040D884002092
:10B15000E004002008B5134B1B7803B908BD00229A
:10B160000521142004F0BEF9142004F0EDF90022AA
:10B170000621162004F0B6F9162004F0E5F90022A5
:10B180000521402004F0AEF9402004F0DDF9422012
:10B190000022062104F0A6F9BDE80840422004F090
:10B1A000D3B900BFE8040020204B1B785BB1012815
:10B1B00009D8642911D008D832290ED031D80A29EB
:10B1C0000BD0142909D000207047B1F5FA7F04D0C4
:10B1D00023D87D2901D0FA29F5D1154B53F8202029
:10B1E0008A4221D030B583B0A8B9124A054610462C
:10B1F0000C460192FFF74CFB50B129460198FFF72E
:10B2000081FB28B101200A4B43F8254003B030BD33
:10B21000002003B030BD084AE8E7B1F57A7FD2D10B
:10B22000DBE75329CFD1D8E701207047E80400209D
:10B23000E004002000850020D884002001289ABF67
:10B24000024B53F820000020704700BFE0040020AC
:10B25000014B1878704700BFE8040020444B1B786E
:10B26000002B54D0002852D0F0B506788DB0013EA6
:10B27000F6B2012E3DD8002E3ED043783D4DD0F899
:10B280000320002B3ED1C2F30A011A46CDE9061372
:10B2900083780892003B18BF01230022C1795B002C
:10B2A00007464FF4FA740A918DF82C20099301E0B7
:10B2B000013C18D0284605F0F1FE0028F8D02846B9
:10B2C0006B4607F1090206A905F06CFE58B92A4A37
:10B2D0003C7A52F82630072C03F1010342F826305D
:10B2E00017D9012006E0254A52F82630013342F8EA
:10B2F000263000200DB0F0BD4378214DD0F803205A
:10B30000002BC0D022F0604300210422BEE70020C1
:10B31000704740F2444C38687968FB68BA68DFF8D7
:10B3200064E001AD0FC50CFB06E03B7C2B70B0F870
:10B330004034B0F84254591C01F03F018D42D0D046
:10B34000013403EB03138DF80C400CFB06348DF82D
:10B35000046001ADA0F840140FCD4EF80400287829
:10B360000EEB04067160B260F3603074B9E700BFA1
:10B37000E8040020D8840020B00D0020A80D002093
:10B38000008500202005002010B58CB000210DF1B3
:10B39000090305AA044605F095FE08BB1549236874
:10B3A000089A5B1AA2F1020218BF0123B2FA82F2D4
:10B3B0000799520904298DF8003013D0DDF814C024
:10B3C0008DF801008DF8022000221846099B69467D
:10B3D000CDF803C08DF807308DF80820FFF7BCFAD0
:10B3E0000CB010BD0121DDF818C08DF802208DF8D9
:10B3F0000110E9E70064004000285DD04379022B8A
:10B4000058D890F82030022B54D88379012B51D88A
:10B4100090F82120012A4DD8C17B08294AD890F8FC
:10B420002610082946D890F83310012942D890F800
:10B430004F1002293ED890F8341001293AD890F8DC
:10B440003510022936D890F83610012932D890F8F4
:10B450003BC0BCF1080F2DD890F853C0BCF11F0FB2
:10B4600028D890F856C0BCF1030F23D840F2FF7CD7
:10B47000002B0CBF63466FF0604300B5002AD0F884
:10B4800007E00CBF62466FF06042002918BF6FF002
:10B49000604C9E4511D8D0F80B1099420DD8D0F8C9
:10B4A0002230934209D8D0F8370060458CBF002085
:10B4B000012000BD002070477047002000BD00BF84
:10B4C0002DE9F04F9046CA799946C378082A28BFDB
:10B4D000082283B013B10379934217D0451D01F1BF
:10B4E000090A034600245146C3F8054028466C600B
:10B4F0000192009307F02CFDDDE900324FF48071DA
:10B500001A711C80598003B0BDE8F08F01F1090465
:10B51000451DA2462B464FF0000C08F11801B9F169
:10B52000000F23D198F84F60012E32D091F800E03F
:10B53000BEF1000F46D01E78B3465FFA8CF6B242D9
:10B5400032D926780EEA06070EEA0B0E7745C8D1E7
:10B550000CF1010CBCF1080F01F1010103F1010331
:10B5600004F10104CFD0B9F1000FDBD098F83B60B3
:10B57000B3465FFA8CFEF34518D991F8246091F830
:10B580002C70BE4212D8724519D8002793F800E0FB
:10B59000DCE70CF1010CBCF1080FB4D00CF1010C8C
:10B5A000BCF1080FF5D1AEE70027CDE70CF1010C97
:10B5B000BCF1080FA7D0013101330134D9E7267857
:10B5C0003746E3E70CF1010CBCF1080F9BD00131C9
:10B5D00001330134A8E700BF2DE9F0410F460546CD
:10B5E00086B003F0FFFFBD421ED200264FF00108D7
:10B5F00005F50064FEF77AF92B4601E09C420DD078
:10B600001A6804330132F9D002A801A9CDE9026613
:10B61000CDE90458019604F08BF858B905F500659A
:10B62000AF4204F50064E5D803F0F0FF012006B056
:10B63000BDE8F08103F0EAFF002006B0BDE8F0812C
:10B640004FF0010C10B5114C030182B004F803C097
:10B6500004EB0014CDE90021607003F019FF01999B
:10B660004FF0000CB1F82F30009A0344636091F85A
:10B670004E30012B38BF01232372B1F84C302273B6
:10B68000638184F80DC002B010BD00BF3C8D002066
:10B6900070B590F834308446964686B02BB32A4B6A
:10B6A0005C5CFCB1294B01EB01115A181546585846
:10B6B0005168EB68926801AC0FC49CF820202B7C89
:10B6C00012F0FD0F237001AE64468DF80CE02DD111
:10B6D000012230468DF80420FFF7C0FD94F82020A9
:10B6E000044622BB204606B070BD90F83330D0F837
:10B6F000222090F821108DF8063090F82630CDF8F1
:10B7000007209CF820208DF805108DF80B30D0F81C
:10B710002710D0F82B3012F0FD0F6446CDF80D1035
:10B7200001AECDF811308DF80CE0D1D0002402220A
:10B7300030468DF80420FFF791FD40EA0403DCB2A7
:10B74000204606B070BD00BF9C910020E49100200F
:10B750002DE9F04182B001F0B7FF284FB84218D868
:10B760000446DFF89C80274E00F5006523684345BA
:10B7700009D12379042B36D0032B12D02946204639
:10B78000FFF72AFF50B104F50064BC4205F50065DF
:10B79000ECD91D491D48FFF71FFF38BB02B0BDE8BB
:10B7A000F0814FF0520E60794628E7D822460023F8
:10B7B00004F10F0C12F8011B4B409445F35CF9D1D6
:10B7C000E27B9A42DAD10EFB00F1114A01F60F0139
:10B7D000131B6FF30A016FF30A03214423449142C0
:10B7E00088BF1946CBE74FF05A0EDCE7019002F014
:10B7F00063F8019802B0BDE8F08100BFFFFF0308C5
:10B8000048475254842F010800F0030800E0030861
:10B81000000004082DE9F04F154604221E460023BF
:10B8200087B08DF80C20384A07463848CDF80E30DE
:10B83000CDF81230ADF81630CDF80F108DF80D5050
:10B8400002920DF107010DF1160811F8012F534076
:10B850004145C35CF9D18DF8173007F1100903F0A9
:10B86000C1FE3DB34C46B346AA4606EB85030093A2
:10B870000196FEF73BF8DBF8005004F15A06023D52
:10B8800001E0B4420FD021460023012035F8022FF9
:10B8900003F0FCFE02340028F3D003F0B7FE0020D2
:10B8A00007B0BDE8F08F009B0BF1040B9B45E0D186
:10B8B0005546019EBA460DF106045146002301206B
:10B8C00034F8022F03F0E2FE0AF1020A0028E4D164
:10B8D0004445F2D103F09AFE1022384602A907F03F
:10B8E000FBFA0028DBD16DB106EB850548463168CF
:10B8F0005A2207F0F1FA043609F15A090028CED18C
:10B90000B542F3D10120CBE748475254842F0108B8
:10B910002DE9F04F0024CFB04FF48C620021734822
:10B9200007F0EAFA41F69C020021714807F0E4FAB8
:10B93000462200216F4807F0DFFA40F2A6420021BC
:10B940006D4807F0D9FA462200216C4807F0D4FA76
:10B950004FF4757200216A4807F0CEFA4FF4757201
:10B960000021684807F0C8FA674B68491C60684BBB
:10B97000684A1C60684B69481C60694B694E1C60D2
:10B98000DFF8A481694B04700C60146034701C6093
:10B9900088F8004001F098FEDFF894C1604500F29D
:10B9A000D5800146A246DFF88CE1DFF88CB1634F09
:10B9B00002940B68734526D10B79042B00F0948018
:10B9C000032B20D152254B79462B1CD801F11002B4
:10B9D00005FB03235B4516D80A46002301F10F003F
:10B9E00012F8019B83EA09038242FB5CF8D1CA7B0F
:10B9F0009A4208D1D1F80730BAF1000F40F03281F5
:10BA00002C468A46029301F500616145D1D9BAF10D
:10BA1000000F00F09B809AF805300193002B49D06D
:10BA20000027464B0AF10F05CDF80CA0D5F80120F0
:10BA3000434905F1010B8A4235D19BF831209BF82F
:10BA40003210002A40F0168169BB2846002204F11A
:10BA5000FF3CAC4410F8011F4A4060459A5CF9D1A4
:10BA6000295D91421FD15A22364B96F80090002151
:10BA700002FB093A504607F03FFA22465946504623
:10BA800007F066FA5046FFF7B7FC2C4B58B19AF80E
:10BA9000042022B198F80020013288F8002009F132
:10BAA000010986F80090019A0137BA422544BDD1B8
:10BAB000DDF80CA0029A1D4B50461A60019B04FB56
:10BAC00003F4154B04F60F04C3F800A0144BE10A6D
:10BAD000196001F0DFFE1C48194B02689A4200F021
:10BAE000E6804FB0BDE8F08F5A256CE73C8D002012
:10BAF000F0960020A8960020E49100209C91002060
:10BB00005889002084850020348D0020388D002045
:10BB10009C960020308D002094960020A096002056
:10BB200090960020989600202C8D00208C96002066
:10BB3000FFFF03084847525400000408842F0108FF
:10BB4000324752548CAF002000E003083578704C27
:10BB5000DFF8C0A1DFF8C091DFF8C0B1452D00F2D9
:10BB600095802368534505D052345C4537D023680F
:10BB7000534531D194F8313094F83220002B6CD1F8
:10BB800052BB0023611E04F1500011F8012F5340F5
:10BB9000884219F80330F8D194F851209A421BD109
:10BBA0005A235F4F1A4603FB05770021384607F0FA
:10BBB000A3F952222146384607F0CAF93846FFF762
:10BBC0001BFC48B13B7923B198F80030013388F869
:10BBD00000300135EDB2357052345C45BED1002DD8
:10BBE0003FF47FAF08AF3A464D4B07EB850142F873
:10BBF000043B8A4203F15A03F9D15A2303FB05F4AB
:10BC000001F0D8FD814601F0E3FD04F60F04E40ADB
:10BC100009EBC423834202463FF663AFA0EBC42383
:10BC20000493A3EB090309EB53036FF30A03CDF865
:10BC300018900DF1100805930DF11C0AD8F800506A
:10BC40004D4505EBC42B01D3934538D908F10408C1
:10BC5000D045F3D14FB0BDE8F08F022BBCD1522AB2
:10BC6000BAD18EE7029A9342FFF4CDAE2C468A46B3
:10BC70000293C8E6022A16D0032A7FF414AF5A2989
:10BC80007FF411AF8C427FF40EAFDEE6234B04F15C
:10BC900052029A42A6D004F1A4029A429FD0F634EE
:10BCA0009C4299D19EE752297FF4FDAEEAE71D49F7
:10BCB000FFF792FC4FB0BDE8F04F01F0FDBD5946D3
:10BCC0002846019201F0BAFD019A0028BED0002D4D
:10BCD0003FF407AF59462846FFF77EFC00283FF4A3
:10BCE00000AF3B46012128463278FFF793FD00283C
:10BCF0003FF4F7AE0C4B0D4A1D60012314600C4A53
:10BD000028462146136001F0C5FD06490048CFE7EB
:10BD100000E0030832475254842F0108B2EF0308B1
:10BD20008CAF002000F0030894960020909600202D
:10BD30008C96002008B5084B1B7883420AD903462D
:10BD40005A22DFF818C0084602FB03C107F000F9C9
:10BD5000012008BD002008BD989600208CAF00206F
:10BD6000014B1878704700BF9896002038B5002422
:10BD7000FFF7EEFC104B114911481C70114A124B91
:10BD8000124D0C700460214620461C7014602C601B
:10BD900001F080FD214646220D4807F0ADF821460E
:10BDA0004FF48C620B4807F0A7F82146BDE83840F5
:10BDB0004622094807F0A0B8A096002098960020D7
:10BDC0009C960020949600202C8D002090960020B8
:10BDD000A89600203C8D00209C91002038B521F0D1
:10BDE0000803522B01D0002038BD05460C461046F2
:10BDF00000215A2207F080F82246294607F0A8F8C9
:10BE0000012038BD30B545289BB03BD805460846D3
:10BE10000191FFF7F1FA044610B920461BB030BD7E
:10BE20005A22019903A807F093F845F6032200234C
:10BE30001649DFF85CC0ADF83D2003910DF10B020F
:10BE400019A812F8011F4B4082421CF80330F8D1A8
:10BE50008DF865305A230F481A4603A903FB0500E5
:10BE600007F076F801220C4B5A5503F011FB0B4AF0
:10BE70000B4913780860AB42CFD820466B1C137077
:10BE80001BB030BD002420461BB030BD3247525499
:10BE9000842F0108F0960020A8960020A09600208C
:10BEA0009C9600202DE9F04FFF28D1B060D00746C6
:10BEB000462F59D8B14B1B7823B9B14B1B78BB42E5
:10BEC00000F0B280AF4D56220021284607F014F84A
:10BED00045F603220023AC49AC4C45F8041CA5F8F8
:10BEE0002D20691F05F1540011F8012F534088429D
:10BEF000E35CF9D185F85530002F59D0A04BA44D03
:10BF00000DF1280A93F80090564650462946002421
:10BF1000BE46DFF880C2A04AA04B0AE017460134B3
:10BF2000E4B2A64540F8047B01F15A0102F15A023D
:10BF300008D01CF8017B002FF0D1A1458CBF0F4623
:10BF40001F46ECE75A2204FB02F202F60F024FEA08
:10BF5000D22901F02FFC0746834601F039FC07EB9C
:10BF6000C922824203460BD9002051B0BDE8F08FB0
:10BF7000824A834B17781B789F4238BF1F4697E74A
:10BF8000874AA0EBC92710680392029000284DD180
:10BF900019463846019301F051FC019B002800F03E
:10BFA000D8807A1CE0D0029B07EBC9280193B0E04F
:10BFB00001F000FC01F00CFC794B0393FFF7C8FB88
:10BFC0000028D1D000216E4A764B1170039A0846A2
:10BFD0001160196001F05EFCDFF8CC810024D8F814
:10BFE0000030724D0133C8F80030644B46222146C0
:10BFF00068481C702C6006F07FFF4FF48C6221466D
:10C000006B4806F079FF462221466A4806F074FF25
:10C010004FF475722146684806F06EFF4FF4757252
:10C020002146664806F068FF01209EE75D49644AA4
:10C030000968CDE9077700EBC121914228BF11467D
:10C040000191194622462B4635460E46CDF824B0BE
:10C0500007AF3C685C4504EBC92811D346450FD3B4
:10C0600001998C4202D20299884509D8414620465E
:10C07000CDE9043201F0E2FBDDE90432002842D1CF
:10C080000437BA45E5D12E4614461D46029B03EB04
:10C09000C927019B9F4206D93946019801F0CEFB82
:10C0A00000283FF461AF01990298B94238BF394680
:10C0B000FFF792FA00283FF457AFDFF8EC80029FB9
:10C0C000D8F800105346224638460131FFF7A2FB4C
:10C0D00000283FF449AF334B49463846C3F8009037
:10C0E00001F0D8FB0AEB840956F8041B28465A22B3
:10C0F00006F02EFF4E4505F15A05F5D1204B1C7078
:10C10000039B1F606AE72746791C2E4614461D468E
:10C11000BCD041463846FFF75FFA00283FF424AF11
:10C12000DFF884805346D8F80010224638460131A3
:10C13000FFF770FB00283FF417AFDDE90110FFF7B0
:10C140004BFA184A49463846C2F8009001F0A2FB63
:10C15000C8E704962E461D46CDE9077B019407AC3F
:10C1600027685F4507EBC92801D3A8452AD90434BD
:10C1700009AB9C423FF4F8AEF2E700BFA096002066
:10C18000989600202C85002032475254842F0108B5
:10C190008CAF0020A8960020F09600202885002073
:10C1A00094960020909600208C9600209C9600206B
:10C1B0003C8D00209C91002058890020848500201F
:10C1C000000004084146384601F038FB0028CED074
:10C1D0007B1C3546019C049E3FF4C6AE00230193B0
:10C1E00097E700BF10B50446FFF70CFE50B1064BB1
:10C1F000601C1B78C0B29C4238BF1846BDE8104096
:10C20000FFF750BE10BD00BF989600202DE9F04307
:10C210002D4CC7B0236813B12C4B1B780BB90120F0
:10C220002FE0054601F050FAA84229D8284B19689A
:10C23000284B05EBC121994222D82368AB42EED0AE
:10C24000224B187848B16B46234A0DEB800043F827
:10C25000042B834202F15A02F9D12846FFF7BCF9B8
:10C2600070B11E4F194B3968DFF864801A78284680
:10C270006B4601312668D8F80090FFF7CBFA18B961
:10C28000002047B0BDE8F0833B6828460133D8F86A
:10C29000001025603B6001F0FDFAB54206EBC924B1
:10C2A00009D80B4B186805EBC020A042B7D2214635
:10C2B000FFF792F9B3E7A5422946304628BF214649
:10C2C000FFF78AF9EDE700BF9496002098960020CA
:10C2D00090960020000004088CAF00208C9600206F
:10C2E00030B5144D9BB02B7883421FD95A23044696
:10C2F000019111491A4603FB041103A806F028FE18
:10C30000019B2046003B18BF012303A98DF8103084
:10C31000FFF778FD50B12B78601CC0B29C4238BF4B
:10C3200018461BB0BDE83040FFF7BCBD00201BB075
:10C3300030BD00BF989600208CAF00202DE9F04F53
:10C34000DFF8ACA287B09AF80030002B00F0B9807B
:10C3500081460025A74EA84CA84FDFF8A482237978
:10C36000002B00F09F8094F83430FBB199F808302E
:10C370001BB194F85630D8071AD494F83530022BF4
:10C3800003D099F800209A4210D199F8012094F82E
:10C3900036309A420AD15A239749D9F8032003FB31
:10C3A0000513D3F83730934200F0998094F8563053
:10C3B000990777D494F853309A0773D499F80820E2
:10C3C0000AB1DB076ED494F84FB0BBF1010F7BD0FC
:10C3D000BBF1020F7DD06379022B03D099F80020C6
:10C3E0009A425FD1A27999F801309A425AD15A23E0
:10C3F000814AD9F8031003FB0523D3F80720D3F8AB
:10C400000B304A401A424DD1E37B002B40F0A7800D
:10C410005A22794B02FB0533B3F85130002B40F020
:10C420009780B378002B3DD1BBF1010F17D099F85D
:10C430000720A2B109F1080302EB030C04F10F017C
:10C4400009F1100E11F8012F13F801BF087A82EAE2
:10C450000B02024226D1634501D09E45F2D15A23F8
:10C46000654999F8082003FB0513B3F82F305FFAEC
:10C4700085FB23B994F84E30012B40F2C580584615
:10C480002146FFF7DDF85A235B4A03FB0523B3F887
:10C4900051203AB1338801339BB29A4233809CBF1A
:10C4A0000123B3709AF800200135EBB29A4204F1EF
:10C4B0005A0406F10E0607F10E0708F111083FF6BF
:10C4C0004EAF07B0BDE8F08F99F80230002B82D153
:10C4D000E8E799F80230002B3FF47DAFE2E7B4F8CB
:10C4E00054B0BBF1000F3FD1BB78002B7FF45EAF9F
:10C4F00094F83B200192002A00F0978004F13B0061
:10C50000029503940146CDE904B0019C09F10902AA
:10C5100009F1110508E0C0B95FFA8EF39C4202F1FF
:10C52000010228D0AA4226D011F8010F03F1010E12
:10C5300091F808C06045EFD899F807B09B45EAD953
:10C540001378984201D89C45E6D2DDE902542DE7E4
:10C550000023224649463046FEF7B2FF61E799F8CC
:10C5600007209A429ED153E7012322464946384686
:10C57000FEF7A6FFB8E7D9F80C30D9F800C0D9F813
:10C580000410D9F8082048F808CC48F8041CC8F86A
:10C590000020C8F8043099F810304FF0000EDDE9A3
:10C5A0000254DDE904B088F8083001230294019CAC
:10C5B00010F801CFDAB2017A8C4588BF08F803E0A1
:10C5C000944203F1010301D9092BF1D1029C01220C
:10C5D0000C4B5A5594F85630BBF1000F3FF4E8AEBF
:10C5E0003988114489B28B45398098BFBA70DFE62B
:10C5F00098960020588900208CAF00208485002068
:10C60000EC9100209C91002059462046FFF740F80D
:10C6100020B1104A13680133136034E758462146AD
:10C6200099F80820FFF70CF82DE7D9F80C30D9F865
:10C630000000D9F80410D9F8082048F8080C48F888
:10C64000041CC8F80020C8F8043099F8103088F8A5
:10C650000830BCE7388D00202DE9F047224F3B78A9
:10C660007BB3DFF88880002445464FF05A09204EFE
:10C670002B795FFA84FADBB195F853309B0717D515
:10C6800009FB0483B3F8572032B9B3F82F201AB945
:10C6900095F84E30012B16D9002229465046FEF758
:10C6A000CFFF09FB04827368B2F85720134473600C
:10C6B0003A780134E3B29A4205F15A0506F11006C0
:10C6C000D6D8BDE8F08751462846FEF7E1FF094974
:10C6D00018B10B6801330B60EAE702462946504661
:10C6E000FEF7AEFFE4E700BF989600208CAF002075
:10C6F0003C8D0020388D00202DE9F84302F0C8FE63
:10C700002B4B05461A7832B143F69821294A126814
:10C71000821A8A4244D8284CDFF8A090DFF8A08023
:10C72000284F04F58C6613E0637B132B33D9264A1C
:10C730001368013313600022237A6273012B24D91A
:10C740006289013B2A44237262601034B44220D0D3
:10C750002378002BF9D06368EB1AF6D45A20D9F865
:10C7600000206178934200FB0180227B88BFC9F8DA
:10C770000030FEF78DFF0028D6D000223B686273A0
:10C7800001333B60237A012BDAD822701034B44293
:10C79000DED1BDE8F88301336A1C63736260D4E7BD
:10C7A000002146220948197006F0A6FBB3E700BF36
:10C7B000A09600209C9600203C8D0020308D00200B
:10C7C0008CAF0020388D0020348D0020A8960020EA
:10C7D00010B1064B1B68036011B1054B1B680B6061
:10C7E00012B1044B1B681360704700BF388D0020E6
:10C7F000308D0020348D0020014B1878704700BF29
:10C800002C8D00200023012230B5054687B005930A
:10C81000CDE90133CDE90333ADF8142002F0E2FE97
:10C8200001AC2D1B00232919012034F8022B02F042
:10C830002DFF06AB9C42F5D107B0BDE8304002F0B9
:10C84000E5BE00BFF0B5394C8BB0226812B1384B51
:10C850001B780BB10BB0F0BD44F64541CDF80A3062
:10C86000CDF80E30CDF81230ADF81630314BADF8B2
:10C870000810188802F1200303EB00130746060195
:10C8800003F1100019680433013129D18342F9D131
:10C8900002F0A8FE24680DF1060520343444214638
:10C8A0000023012035F8022F02F0F0FE02340028A8
:10C8B00037D10DF116039D42F1D102F0A7FE1E49BA
:10C8C0001E4B0A6801320A607A1CA3FB02131B0A82
:10C8D000C3EB0323A2EB4302164B1A800BB0F0BD4F
:10C8E00006F120056FF30A051544FCF7FFFF00234E
:10C8F00001220693099208950193079302F072FEB4
:10C9000006A801A902F014FF10B102F07FFEA1E712
:10C9100002F07CFE23689D42BAD12846FFF772FFE1
:10C92000B6E70BB0BDE8F04002F070BE30C80020A2
:10C9300028C8002034C800200800002081808080A2
:10C94000022928BF0221182838B534BF0446002424
:10C950000D4602F09DFDDFF830C004EB44022A448E
:10C960005CF822201AB1821AB2F5FA7F0BD30128A3
:10C9700038BF012004EB44035919BDE838404CF896
:10C980002100FFF75FBF38BD38C80020FFF75ABF4E
:10C990002DE9F04F314B87B01E6800900191002EB9
:10C9A00056D093464FF0000A44F645492C4BDFF829
:10C9B000B480B3F800E02C4D20360EF5FF770DF172
:10C9C0001504D34540D9A8FB0E2323F0FF02A2EBA8
:10C9D0001322AEEB420206EB021312019059596882
:10C9E0009A68DB680DF1080CACE80F00BDF8083060
:10C9F0004B4525D1DDF80A1011B3002302AA12F825
:10CA0000010B4340A242EB5CF9D19DF815209A42FC
:10CA100016D1009B8B4213D2019A0AEB4A0342F8CB
:10CA2000231002EB8303DDF80E200AF1010A5A609D
:10CA3000BDF812205FFA8AFA1A819DF814209A72C2
:10CA40000EF1010EBE45BCD1504607B0BDE8F08FD7
:10CA5000B246504607B0BDE8F08F00BF30C8002096
:10CA600034C8002081808080843001082DE9F04F97
:10CA7000DFF8F08189B0D8F80050002D49D0854208
:10CA800047D0C0F30A0ABAF1000F46D14FF00102B5
:10CA9000754B854281461A7043D904AFB9460DF1F2
:10CAA0000C0B0090009EFCF721FF00220123C9E936
:10CAB000002206EB0A0407930392069402F092FD0B
:10CAC0005946484602F034FE0746002859D105EB86
:10CAD0000A0402F09BFD751B02F084FD04F500665C
:10CAE00001E0B44260D0228829190023012002F01D
:10CAF000CDFD02340028F4D002F088FDBAF5C05F05
:10CB000000F08480002F3ED0D8F800500AF5006A6B
:10CB1000C8E7012009B0BDE8F08F002009B0BDE8EA
:10CB2000F08FCDF800A04FF4C05A04AF0DF10C0BFC
:10CB300009EB0A040194FCF7D9FE009BC7E9003316
:10CB4000039301230694079302F04CFD594638469F
:10CB500002F0EEFDA8B905EB0A0402F057FDA9EBBF
:10CB6000050502F03FFD04F5006601E0B44211D076
:10CB7000228829190023012002F088FD02340028B0
:10CB8000F4D002F043FD00200023374A137009B0AF
:10CB9000BDE8F08F02F03AFDBAF1000F06D0D8F8E8
:10CBA0000050AAF5006AC3E70127A5E7D8F800609E
:10CBB000019B9E4223D25446CDF800903346012576
:10CBC000D946DDF804A014E0FCF790FEC7E9004464
:10CBD0000394CDE9066502F005FD06F500664946B9
:10CBE000384602F0A5FD02F011FDB24505D9D8F88E
:10CBF000003003F50053B342E6D8DDF80090484614
:10CC0000C8F8009000F052FE0120BDE73B464F46B9
:10CC1000DDF80090002BB6D0D8F8003009F50054AC
:10CC200003F500529442EAD200250126DA4607E0D5
:10CC3000D8F8003004F5006403F50052A242DED9B2
:10CC4000A342F5D8FCF752FEC7E900550395CDE99C
:10CC5000064602F0C7FC5146384602F069FD02F074
:10CC6000D5FCE5E730C8002028C800202DE9F04FAA
:10CC700000274FF4907287B000218B4806F03CF9F2
:10CC800001238A4A8A4D17708A4A2F6013608A4BA3
:10CC90001F8000F055FD002840F0A18000F01AFD33
:10CCA000064658BB042000F0D5FD0646C8B100F585
:10CCB000005AB0464FF000094FF0010B02AFFCF7ED
:10CCC00015FEC7E90099CDF80490CDE9048B02F078
:10CCD00089FC384601A902F02BFD0446B0B102F0F0
:10CCE00095FCFCF737FB0446FCF72EFB2146024679
:10CCF000012007B0BDE8F04FFFF722BE00F5005A53
:10CD0000514600F09BFD0028CCD0D2E708F5006822
:10CD100002F07CFCC245D2D1684A30462E60C2F88F
:10CD200000B0FFF76FFD304600F0C0FD0126A246BF
:10CD3000634FDFF89081DFF8909144F645433A88DD
:10CD40009A4210D1D7F802306BB13946002307F16F
:10CD50000D0011F8012B5340814218F80330F8D12F
:10CD60007A7B9A4210D010374F4506F1010604F144
:10CD70001004E2D1BAF1000F03D04E4B0AF10100CA
:10CD8000186000F09FFDACE702F02CFC4FF0000BA8
:10CD900004EB0B0303F1006303F570331A882B686F
:10CDA000012020331919594400230BF1020B02F022
:10CDB0006DFCBBF1100FEBD102F028FCD7F802306C
:10CDC0005345D0D39A46414BA3FB063222F0FF03D2
:10CDD000A3EB1223384AA6EB43031380C3E7BA46FA
:10CDE00000F078FC4FF0FF3644F64548D346354C0A
:10CDF000286000F1200C02AF0DF1150EB946DCF8E9
:10CE00000C30DCF80000DCF80410DCF80820A9E89D
:10CE10000F00BDF80830434514D1DDF80A208AB16F
:10CE20003946002311F8010B43407145E35CF9D109
:10CE30009DF81510994205D15A4528BF56465A45C6
:10CE400028BF93460AF1010ABAF5FF7F0CF1100CD6
:10CE5000D4D1731C24D01D49721CA1FB020121F006
:10CE6000FF00A0EB11210BF10103A2EB41021249DB
:10CE70000A80104A136000F06BFC2B680446834262
:10CE80003FF47FAF00283FF47CAF00F5005100F085
:10CE9000D5FC00283FF475AF2046FFF7E7FD70E7AB
:10CEA00000220123E3E700BF38C8002028C8002083
:10CEB00030C800200800002034C800202CC8002002
:10CEC00000C0030884300108E0DF0308818080800F
:10CED000144B1A68E2B15868134B144A1B68002BB4
:10CEE00008BF1346834212D91A1A00EB52026FF39D
:10CEF0000A0202F5005199420FD9A3F5005282426D
:10CF000038BF024600F50051994298BF104670475D
:10CF1000074B186800F50060DEE7904238BF104606
:10CF2000704700BF98C90020A8C90020000004086D
:10CF300058C900202DE9F0410F46054686B002F0A1
:10CF400051FBBD421ED200264FF0010805F50064DA
:10CF5000FCF7CCFC2B4601E09C420DD01A68043350
:10CF60000132F9D002A801A9CDE90266CDE9045841
:10CF7000019602F0DDFB58B905F50065AF4204F5F6
:10CF80000064E5D802F042FB012006B0BDE8F08164
:10CF900002F03CFB002006B0BDE8F081254B1B6889
:10CFA00003F5006C844501D98B4237D300B5DFF817
:10CFB00088E0DEF800203AB1934205D0DEF8043074
:10CFC000984201D2914227D81C4B1A6822B15B6863
:10CFD000984201D28C451FD3194B1B680BB1994263
:10CFE0001AD8184B1B682BB103F50052904201D29E
:10CFF000994211D8144B1A684AB9144B1B689842CD
:10D000000ED3134B1B6898420ED3002000BD5B6803
:10D010009842F2D29142F0D9012000BD0120704720
:10D020000C4B9942EDD9F7E70B48814294BF0020A1
:10D03000012000BD58C9002088C9002098C90020DF
:10D04000A8C9002074C9002078C9002070C9002038
:10D050006CC9002000E0030800C003082DE9F84374
:10D06000254B01281C68254B41D09C422FD8DFF866
:10D0700090808146234D244E204F236898451FD130
:10D08000238A012B1CD1A168B1F5404F18D8224644
:10D09000002304F1130C12F8010B43409445EB5CA0
:10D0A000F9D1E27C9A420BD101F613016FF30A0128
:10D0B0002144B14228BF31462046FFF73BFF68B10B
:10D0C00004F50064BC42D8D9B9F1010F08D00022A0
:10D0D0000E4BC3E90022C3E902220120BDE8F88318
:10D0E00000220B4BC3E90022C3E90222F5E79C4270
:10D0F000F6D8DFF82080BCE758C90020FFFF0308FE
:10D1000048584C46843101080000040898C90020A2
:10D11000A8C900204852415603688B4202D1038AB5
:10D12000012B01D0002070478368B3F5404FF9D838
:10D13000002300B5DFF820E0421E00F1120C12F8C7
:10D14000011F4B4094451EF80330F8D1C07CC01A33
:10D15000B0FA80F0400900BD84310108914280F0AE
:10D16000A1802DE9F04F81468846084685B01146DA
:10D170001746FFF713FF18B9012005B0BDE8F08F7F
:10D18000B9F1010F00F090809E4B1A683B4602B93E
:10D190009D4A9A420CD9D11A03EB51016FF30A014F
:10D1A00001F500508242C0F0D9808B4238BF0B4657
:10D1B000964A12681646002A7DD1954A13689B4606
:10D1C000002B65D09F4263D9516888450E465FD2D7
:10D1D0008E48A1EB030A00680090002840F0EC8024
:10D1E0000192FFF775FE8446019AB9F1010F00F034
:10D1F000E68007EB0A00844501460DD3ABEB06033E
:10D2000013EB0C0308D09F420AEB030140F2B880F5
:10D21000414540F2B58001467A4BD3F800C03B4609
:10D22000BCF1000F01D1DFF8E0C18C4577D3D2E922
:10D2300000967648E346056811E01846019200938F
:10D24000FFF7ACFE714B019A1D60C2E90096009B8E
:10D2500078B103F500630AEB03018B455FD300202F
:10D260006A4C9942C2E900002060E6D8C2E9009603
:10D270002560002B53D0184601920093FEF7C6FF9D
:10D2800000284CD0009B019A0AEB0301C2E900314F
:10D2900039464046FFF782FE80F00100C0B205B07B
:10D2A000BDE8F08F012070475A480368002B60D01A
:10D2B000424643686DE79E42554A3FF47FAF10688F
:10D2C000824600283ED003F5005181423AD9516888
:10D2D00099428B4636D9B9F1010FA1EB000C00F051
:10D2E0008B8039466144994219D8AAEB0B01C918C1
:10D2F0000C46009113D00020444D61448C42C2E999
:10D30000000028600DD20098CDE90132FFF746FEFB
:10D310003E4B029A1E60C2E900AB019B20B1002087
:10D320002BE7C2E900AB2E60009CCDE9023220461B
:10D330000191FEF76BFF0028F1D0039A0199029B3F
:10D3400014605160184601920093FFF78FFB00288C
:10D35000E5D02E4A009B1360019A2FE7A2F50051F9
:10D36000994238BF194603F50050824228BF0B4648
:10D370001EE7294B42461B6803F5006309E7634635
:10D380000020224C8B42C2E90000206055D2184692
:10D3900002920193FFF702FE1C4B029A0099C2E928
:10D3A00000B61960019B00283FF465AFB9F1010F89
:10D3B00048D007EB0A002EE7DDF800C015E7154856
:10D3C00003685BB343680AEB03018C4512D3ABEBF4
:10D3D000060E1EEB0C0C0DD067450AEB0C01CED9E6
:10D3E0008845CCD203687BBB0B4B1B6803F50063FD
:10D3F0000AEB0301C44618E706480168C1B1416859
:10D4000070E700BFA8C900200000040874C900200C
:10D4100078C9002098C9002058C900200D4B1B680E
:10D4200003F500630AEB03018C45D0D2C446FCE649
:10D430000849096801F5006154E70098C2E900B69F
:10D44000206018E70448CDE74368C4460AEB0301AF
:10D45000EBE600BF58C9002098C900202DE9F04F25
:10D46000804C814B6FF30A049C4283B005D37F4B01
:10D470009C4298BF234601D97D4B1C460022019255
:10D480007C4ADFF8F4A1DFF8E4B1DFF8F0917C4FDB
:10D49000DFF8F081136004F113052668564522D0A9
:10D4A000794B9E424BD020467849FFF735FE002845
:10D4B0006DD0A16801F613036FF30A0323444B45B3
:10D4C00008D8734A60681668002E7FD1C2E901301F
:10D4D000D160146004F500645C452DD8266805F51C
:10D4E00000655645DCD1238A012BDCD1A268B2F558
:10D4F000404FD8D82146002311F8010B43408D42FC
:10D50000FB5CF9D1E17C9942CDD102F613036FF3B4
:10D510000A0323444B45DDD8D8F80010636819B1DD
:10D52000D8F808109942D5D8C8E9004904F5006434
:10D530005C45C8E90232D1D903B0BDE8F08F238A37
:10D54000012BB0D1A268B2F5404FACD821460023E0
:10D550004B4811F801CB83EA0C03A942C35CF8D114
:10D56000E17C99429FD102F613036FF30A0323442F
:10D570004B45AFD8474E6168306810B1B068814202
:10D58000A8D34448C0E90131C2600460A2E7204644
:10D590004149FFF7C1FD034610B1404B1C6099E7BC
:10D5A0003F4A96421AD03F4B9C4222D03E4B9C426F
:10D5B00090D144F64543228805F500659A4204BFA0
:10D5C0003A4B384A3A4C08BF1A6066E79668B04250
:10D5D00080D3C2E90130D16014607BE72679F21E66
:10D5E000012A10D92F4B9C42E0D1324C05F5006541
:10D5F00053E7314B9E42F8D1304B314A2D4C05F563
:10D6000000651A6049E761794629EBD822461C4833
:10D6100004F10F0C12F801EB83EA0E03DBB2624552
:10D62000C35CF7D1E27B9A42DCD1042E14BF5222B4
:10D630005A2204F60F0302FB0133104A6FF30A0368
:10D6400093423FF647AF1F4AD4F80710106818B14D
:10D65000019888423FF63EAFC2E9004391600191D4
:10D6600038E700BF0B3E010800980008FFFF0308E1
:10D670000090000858C90020485241560000040894
:10D6800084310108A8C9002048584C464847464301
:10D6900088C9002098C90020484C564574C900200C
:10D6A0004847525400E0030800C003086CC900203A
:10D6B00000C8030800E803083247525470C900202C
:10D6C00000F0030878C90020014B1868704700BFBC
:10D6D00058C90020154B186808BB154B1A68FAB9D1
:10D6E000144B186800F50060134B144A1B68002B9C
:10D6F00008BF1346834212D91A1A00EB52026FF385
:10D700000A0202F500518B420CD2A3F5005282426C
:10D7100038BF024600F500518B4228BF10467047C3
:10D720005868E1E7904238BF1046704774C900203E
:10D7300098C9002058C90020A8C90020000004088A
:10D74000024B1868003818BF0120704774C90020C8
:10D75000144B1A68E2B15868134B144A1B68002B2B
:10D7600008BF1346834212D91A1A00EB52026FF314
:10D770000A0202F500518B420FD2A3F500528242F9
:10D7800038BF024600F500518B4228BF1046704753
:10D79000074B186800F50060DEE7904238BF10467E
:10D7A000704700BF98C90020A8C9002000000408E5
:10D7B00058C90020044B1A680AB158687047034BD7
:10D7C000186800F50060704798C9002058C900200B
:10D7D000154B186808BB154B1A68FAB9144B186832
:10D7E00000F50060134B144A1B68002B08BF13465A
:10D7F000834212D91A1A00EB52026FF30A0202F5A1
:10D8000000518B420CD2A3F50052824238BF02462F
:10D8100000F500518B4228BF104670475868E1E779
:10D82000904238BF1046704774C9002098C9002044
:10D8300058C90020A8C9002000000408884206D268
:10D8400008B5FFF7ABFB80F00100C0B208BD0120B6
:10D85000704700BF0D4B70B51C680D4D04F500649A
:10D8600004EBC021A9420ED806468C420CD22046B9
:10D87000FFF794FB01F5006130B104F5006404EB9F
:10D88000C623AB42F1D90024204670BD58C9002000
:10D890000000040800EBC121002808BF0146024B2C
:10D8A000C3E90001704700BF78C90020014B186030
:10D8B000704700BF74C900200022014B1A607047F6
:10D8C00070C9002044F6454208B51A4B19889142A8
:10D8D00004D00022184B01201A6008BD17491848CF
:10D8E0000A68013A82421FD9002343F6FE711548A7
:10D8F000154A006882188A42EBD9144A01F1006186
:10D90000126801F56831013A8A42E2D9104A116879
:10D9100019B1084952688A42DBD8002BD9D10D4988
:10D920000448FFF707FBD4E74A6893422CBF002363
:10D930000123DAE700C003086CC9002078C9002081
:10D94000FEDF030874C90020FF5FFCF7A8C90020B0
:10D9500098C9002000E0030801280CBF0E480F48BA
:10D96000D0F800C0BCF1000F14D038B54FF0000E55
:10D97000C568CC184EEB0E00A5427EEB000001D22C
:10D98000704638BD1431104661441A4605F0E0FA7D
:10D99000012038BD60467047A8C9002098C9002002
:10D9A00001280CBFDFF81CC0DFF81CC0DCF8000049
:10D9B00038B108600120DCF80C101160DCF8082098
:10D9C0001A607047A8C9002098C900204B1EB3F503
:10D9D000404F2AD2012828D8404B1B782BBBF0B5EA
:10D9E00001F61303012806460F4683B06FF30A03BE
:10D9F0001ED03B4A116800294BD055683949EA18B6
:10DA00008A4235D900200093FFF728FB009B40B1E4
:10DA1000354A126802F500655A19324B29469A4276
:10DA20003CD90023184603B0F0BD002318467047C8
:10DA30002E4A1268002A4ED12A4A2B49D01A096868
:10DA4000054601F50061884212D201200093FFF7DC
:10DA500005FB009B0028E4D0234AC3F10061126853
:10DA600001F5802102F5006291420D46D9D3D3E73A
:10DA700029463046CDE90023FFF770FB009AA0B994
:10DA80003046FFF7EBFA0028CBD0012E019BBFD127
:10DA9000E2E7154A126802F50065AFE730460092EA
:10DAA000FFF75CFB009A0028BBD011462846FFF721
:10DAB00041FA0028B5D00122084900900A700C4AAA
:10DAC0000C4916700C4A0D60176001F0E1FC0B4A1E
:10DAD000009B1060A6E79A42B7D3AEE769C9002061
:10DAE00098C900200000040858C90020A8C90020D7
:10DAF00068C9002064C9002060C900205CC90020FA
:10DB0000024B187808B1024B1868704769C90020A9
:10DB100064C900202DE9F041254F3B789BB192B1BB
:10DB2000244C13182468A3420DD816460C4605460B
:10DB300001F0AEFC43F698231F4A1268801A9842FF
:10DB400004D900233B700020BDE8F0811B4B013459
:10DB50001B68143303EB050801F044FD00256B1C22
:10DB60009E4214F8012C88BF237808EB050188BF7A
:10DB700042EA03224FF001004FF0000398BF42F445
:10DB80007F4201F083FD0235023450B9AE42E6D83F
:10DB900001F03CFD01F07CFC0346074A01201360C4
:10DBA000D2E701F033FD4FF000033B70CBE700BF3D
:10DBB00069C9002060C900205CC9002064C9002038
:10DBC000494B1A78002A00F081800022F0B54749BD
:10DBD00087B00C6805461A70002C7CD04FF0FF31DE
:10DBE000434B44481B6803F1140C234403F1140E07
:10DBF00008239CF80020514041F30002013B024001
:10DC000013F0FF0382EA5101F6D10CF1010CE64555
:10DC1000EED1C9438D4202D0002007B0F0BD364B93
:10DC200000221B788DF81320012B0CBF3349344997
:10DC30008DF8123000914FF001014FF000030CBF3E
:10DC4000304A314A02949268304C0A441746019295
:10DC500003950DF1FF320DF11200ADF8101012F81E
:10DC6000011F4B409042E35CF9D18DF8133001F075
:10DC7000B9FC6A466C461E4B1B689D1A22886119C6
:10DC80000023012001F002FD023408BB05AB9C42D9
:10DC9000F4D101F0BBFC164B14221C6869462046E7
:10DCA00005F01AF90028B7D1134B104A1B781168F8
:10DCB000012B12D001F61303134A6FF30A03234416
:10DCC000C2E90043C2E902710120A6E700207047C3
:10DCD00001F09CFCA0E721469CE70A4B0C4AC3E9F3
:10DCE0000271C3E90042EFE769C9002060C9002062
:10DCF00064C900202083B8ED68C90020485241560D
:10DD000048584C46A8C9002098C900208431010811
:10DD10000000040808B5084B1A7802B908BD01F0E4
:10DD2000B7FB43F6982205490968401A9042F5D995
:10DD30000022014B1A7008BD69C900205CC900208F
:10DD4000012801D900207047FFF788B91C4A1368E1
:10DD50000BB9184670478C4630B5D46883B064451B
:10DD6000224603F1140128BF62460093019105F099
:10DD7000EFF8009BDA681546FAB1C4B14FF0FF3CEA
:10DD800023441048019903F1140E08230A788CEA01
:10DD9000020C4CF30002013B024013F0FF0382EA45
:10DDA0005C0CF6D101317145EFD16FEA0C04281BF0
:10DDB000B0FA80F0400903B030BD012003B030BD9F
:10DDC00088C900202083B8ED002800F0AD804A1EED
:10DDD000B2F5404F80F0A8802DE9F04F01F6130412
:10DDE000E40A012C89B00DD1514B0F461D6806463F
:10DDF00005F500612846AA46009205F5006BFFF77D
:10DE000099F820B90023184609B0BDE8F08F0190B9
:10DE100001F0E8FB009A05F1130822F0010101F17D
:10DE20000309751EBC422A5D38BF335D08EB04014F
:10DE300038BF42EA03224FF001004FF0000328BF31
:10DE400042F47F4201F022FC0234002869D14C45A3
:10DE5000E8D1DDE900238DF81F00B018354A2C46C3
:10DE60000392354A4FF0FF3E9268344901329046A2
:10DE700005970492082214F801CF8EEA0C0E4EF397
:10DE8000000C013A0CEA010C12F0FF028CEA5E0E63
:10DE9000F5D1A042EED194466FEA0E02069201221D
:10DEA000ADF81C200222264C8DF81E200DF10B012E
:10DEB0000DF11E0011F8012F8CEA020C884214F8B3
:10DEC0000CC0F7D11E4603AC8DF81FC0AAEB0405A9
:10DED000228829190023012001F0D8FB023400BB5D
:10DEE00008AB9C42F4D1009601F090FB14225046FE
:10DEF00003A904F0F1FF002884D10F4B186859687A
:10DF0000C3E90287C3F800A0C3F804B0009B00284F
:10DF10003FF479AF82453FF476AFFFF70BF8009BF3
:10DF200071E701F073FB6DE700231846704700BFEF
:10DF300058C900204847464388C900202083B8EDCF
:10DF400084310108174B02689A4201D000207047C3
:10DF5000002300B5DFF850E0421E00F11E0C12F85D
:10DF6000011F4B4094451EF80330F8D1C27F9A42FE
:10DF700001D0002000BD0379092BFAD8837B0A2B3E
:10DF8000F7D8437F23B9807FB0FA80F0400900BD05
:10DF9000012BEED1807FA0F12000B0FA80F0400983
:10DFA00000BD00BF30474643843201080E4B026873
:10DFB0009A4201D0002070470379102BFAD8002331
:10DFC00000B5DFF828E0421E00F11E0C12F8011F18
:10DFD0004B4094451EF80330F8D1C07FC01AB0FA08
:10DFE00080F0400900BD00BF31524556843201081F
:10DFF0002DE9F04387B088469146054601F0F2FAD4
:10E00000FBF774FC012100233F48CDE90133CDE942
:10E01000040102A801A9039301F08AFBA0BBFBF74E
:10E0200065FC3A4EAC1E761B05F11E073119002324
:10E03000012034F8022F01F029FB28BBBC42F5D1A6
:10E04000334EA8F1020408F10E07A6EB08063119B9
:10E050000023012034F8022F01F018FBA0B9BC42C4
:10E06000F5D12C4EA9F1020409F50077A6EB0906BB
:10E0700001E0BC420ED031190023012034F8022FF8
:10E0800001F004FB0028F4D001F0C0FA002007B032
:10E09000BDE8F0832048FFF789FF70B11E4E1F4C8A
:10E0A0001F4F214632880023012001F0EFFA02348D
:10E0B00002360028E8D1BC42F3D101F0A7FA2022B1
:10E0C0002946114804F008FF0028DFD110224146FC
:10E0D000144804F001FF0028D8D140F2022249463A
:10E0E000114804F0F9FE0028D0D10B48FFF75EFF7D
:10E0F00040B120220849094804F0EEFEB0FA80F051
:10E100004009C4E70120C2E700800008028000083F
:10E110002280000832800008D0C900200084000856
:10E120002084000820800008308000082DE9F04796
:10E13000A048FFF707FF002800F0A2800027DFF8C3
:10E1400078C2DFF870E28146BEE80F00ACE80F004D
:10E150009EE80F008CE80F00984C994DDFF8648220
:10E16000994E9A4B326883F80090994B9A420DD1A0
:10E170000023721E06F10E0012F8011F4B40904260
:10E18000E35CF9D1F27B9A4200F0D28001210023B6
:10E19000904A02F8011C8E49A2F10909136042F865
:10E1A000091CC2F803308C4A09F10E00C9F804209A
:10E1B00009F1FF3212F8011F4B409042E35CF9D1A4
:10E1C00089F80F3000224FF0010C844B8249181F50
:10E1D00043F8041C12215A60824680F808C09A60F5
:10E1E0001A609A81FFF7B2FD002837D09AF80830FC
:10E1F000A3B37B4BD8F800209A4203D198F804309F
:10E20000022B7ED0DFF8DC8140F202220021404662
:10E2100004F072FE022388F804300023704A08F5E7
:10E220000070C8F8002008F1FF3212F8011F4B40BF
:10E230009042E35CF9D188F80132202200216A483B
:10E2400004F05AFE694B2A689A4242D03046FFF7E2
:10E25000ADFE70BB002F35D1BDE8F0876449D9F819
:10E26000043001220B6000230A724B60C1F80930B0
:10E27000C1F80D304B7408461221FFF7A5FDB8E731
:10E280005C48FFF75FFE0746002860D0DFF828C132
:10E29000DFF860E18146BEE80F00ACE80F00564DA4
:10E2A0009EE80F00DFF854818CE80F00544E434C79
:10E2B00057E74D4C0FCE0FC496E80F0084E80F00CF
:10E2C000002FC9D0BDE8F047464A4E493A48FFF70B
:10E2D0008FBE2B79102BB9D800236A1E05F11E00C2
:10E2E00012F8011F4B408242E35CF9D1EA7F9A4267
:10E2F000ACD10FCD3C4C0FC495E80F0084E80F0063
:10E30000A8E7002308F1FF3208F5007012F8011F9A
:10E310004B409042E35CF9D198F801229A427FF495
:10E3200071AF414640F202222E4804F011FE84E70C
:10E33000B388002B3FF42AAFF388002B3FF426AFBD
:10E3400096E80F00DFF8BC9089E80F003AE7092350
:10E3500042F201022C4D2D49DFF8B4C005F80A3C09
:10E360002C4BA860288228606860C5F80B3045F8FF
:10E370000E1C0346BCE8030045F8051C9CF8001081
:10E380000E4CA5F80F2005F11006A5F10F0245F877
:10E39000090C05F8011C12F8011F4B409642E35C82
:10E3A000F9D16B744FF00009054DDFF81880064E67
:10E3B000D7E600BF0080000804CC002084320108AA
:10E3C000008400083080000820800008B8C90020C0
:10E3D00030584543FDCB0020F401F401C0C90020B2
:10E3E000304D4E54F0C90020D0C90020315245565E
:10E3F000BCC9002000D8030800DC030830D803089B
:10E4000020D80308F4CB002012CC0020304746432C
:10E41000A8330108830440570048704704CC00200B
:10E42000014B1878704700BFB8C9002070B50929A2
:10E430008AB0BDF83850BDF83C4001D80A2B02D94B
:10E4400000200AB070BD4FF0000C1646334ACDF8DC
:10E4500021C08DF80C100292CDF80DC0CDF811C07E
:10E46000CDF815C0CDF819C0CDF81DC0CDF824C029
:10E47000002949D18DF81630002B3ED1002345F2FA
:10E48000407E40F2834642F201019D4208BF35467C
:10E490009C4208BF7446DFF888C00DF107020DF1F9
:10E4A0002600ADF82510ADF82150ADF8234012F844
:10E4B000011F4B4082421CF80330F8D12022194939
:10E4C00002A88DF8273004F007FD10B901200AB02A
:10E4D00070BD154A154902A8FFF78AFD0028AFD084
:10E4E0000122134B0F4D02AC1A700FCC0FC594E8EC
:10E4F0000F0085E80F000120E9E71A4631460DF1CB
:10E50000170004F025FDB9E70A4601460DF10D009C
:10E51000019304F01DFD019BACE700BF304746436B
:10E520008432010804CC0020F0C90020F4CB002084
:10E53000B8C90020104B68B91888642809D00BD8D6
:10E54000322806D011D80A2803D0142801D04FF45D
:10E55000FA7070475888F0E7B0F5FA7FF9D007D81D
:10E560007D28F6D0FA28F2D1F3E75328EFD1F0E76F
:10E57000B0F57A7FEBD1ECE7BCC90020012868D860
:10E5800000B5642986468C4685B012D009D8322958
:10E590000FD048D80A290CD014290AD0002005B081
:10E5A00000BDB1F5FA7F04D040D87D2901D0FA2909
:10E5B000F4D1294B0FCB8DE80F00BEF1000F2FD007
:10E5C000ADF806C00023DFF894C00DF1FF320DF165
:10E5D0000E0012F8011F4B4082421CF80330F8D1A4
:10E5E0001D4A009912688DF80F30914222D0694679
:10E5F0001B4A1C48FFF7FCFC0028CFD09DE80F0009
:10E60000DFF854C08CE80F000B4617481221036056
:10E61000FFF7DAFB0122154B1A70012005B000BD8F
:10E62000ADF804C0CEE75329B8D1C2E7B1F57A7F7F
:10E63000B4D1BEE7084B019A5B689A42D7D10C4B24
:10E6400002991A689142D2D1039A5B689A42CED15C
:10E65000E3E70020704700BFF4CB002084320108BC
:10E66000F0C9002004CC0020BCC90020B8C900209B
:10E67000FCCB0020024B08B9187970479879704795
:10E68000BCC90020024B08B958797047D879704747
:10E69000BCC90020012823D8B1F1000C18BF4FF0ED
:10E6A000010C003A18BF012200B50F4B98B103F1DD
:10E6B000070E13F8061F614503D19EF80010914222
:10E6C00010D083F800C08EF80020122106485DF8B3
:10E6D00004EBFFF779BB03F1050E13F8041FEAE71B
:10E6E00000207047012000BDBCC9002017288C46BF
:10E6F00016D8104B00EB4000C0EBC0001844421E7F
:10E70000002302E00133152B0CD012F8011F002961
:10E71000F8D1DBB2BCF1000F01D08CF800303BB96E
:10E7200000207047BCF1000F01D08CF8003070471A
:10E73000704700BFF9C90020172821D8152A38B51D
:10E74000964601D9002038BD4FF0000C00EB400088
:10E750000C4CC0EBC00000F10903181944F803C0C9
:10E76000C0F804C0C0F808C0C0F80CC0C0F810C0A1
:10E7700080F814C012B109B104F0EAFB012038BDE1
:10E7800000207047F0C900201449154B0A689A42CE
:10E7900004D008B1002303700020704710B50B7936
:10E7A000102B1C4614D800234A1E01F11E0E12F82D
:10E7B00001CF83EA0C03DFF82CC096451CF8033028
:10E7C000F5D1CA7F9A4203D100B10470064810BD4A
:10E7D00008B100230370002010BD00BFD0C9002085
:10E7E0003152455684320108D5C900200221002348
:10E7F00000B50E4ADFF838E0DFF838C0CEF8002068
:10E800000EF500700EF1FF328EF8041012F8011FA1
:10E810004B4090421CF80330F8D18EF80132044A84
:10E82000054906485DF804EBFFF7E2BB304D4E5456
:10E83000F0C9002084320108F4CB002004CC002071
:10E84000F8B50026074C084D04F12007A18854F8BC
:10E85000080BEE60002225F8106B01F0DDF8BC42D9
:10E86000F4D1F8BD1C34010824CC00202DE9F0437C
:10E8700001389C46C3B283B0032BBDF82860BDF8B5
:10E880002C409DF8305001D8032903D9002003B053
:10E89000BDE8F083CDE90013E046174600F0F8FD2F
:10E8A0000022DFF81CC1019B009981460CEB031E7E
:10E8B00018010CF80010CEF80C20002961D00129B5
:10E8C00071D002293FD0621EB2F5FA7FA646DDD292
:10E8D0006A1E632ADAD84FF47A71B1FBF4F101FBB6
:10E8E00005F2632A5CD9DFF8DCE0AEFB02E2B1EBB3
:10E8F000521F4FEA521E98BF01F1FF3E72460EEBC7
:10E9000009050CEB000E891AAEF802204FF0000248
:10E91000AEF806200D9AAEF80410CEF8085022B1D9
:10E920000D9909EB0102CEF80C20012226498444FE
:10E9300001EBC30E51F83300BEF804108CF801202F
:10E9400001F06AF828E0002FA0D0B8F1000F9DD0A8
:10E95000002E9BD0012209EB0701CEF808101A49BE
:10E96000AEF8048001EBC30C51F83300BCF804107E
:10E97000AEF80270AEF806608EF8012001F04CF897
:10E980000AE011488EF8011000EBC30CBCF804102B
:10E9900050F8330001F040F8012003B0BDE8F083E7
:10E9A00001229646ABE708480A4600EBC30C8EF8F6
:10E9B000011050F83300BCF8041001F02DF8EBE71B
:10E9C00024CC00201F85EB511C3401082DE9F84FA1
:10E9D00000F05EFD002704464FF00108DFF8BC9010
:10E9E000DFF8BCB0A9F1040A9BF80030012B10D964
:10E9F000DBF80C30A3B1E31A002B11DB002239F84D
:10EA000027105AF82700CBF80C20ABF8002001F0B3
:10EA100003F80237082F0BF1100BE5D1BDE8F88F92
:10EA2000DBF80830E31A002BF3DB5AF8276039F8DB
:10EA3000275014E0002229468BF80120304600F0D0
:10EA4000EBFFDBF80810BBF804309BF800200B4408
:10EA5000022ACBF8083015D0E31A002BD9DB9BF83B
:10EA60000130002BE6D10122294630468BF8018087
:10EA700000F0D2FFDBF80820BBF802301344CBF8DB
