:04000005080081E48A
:020000040800F2
:1080000000000120D5D700084D9F0008519F0008AF
:10801000559F0008599F00085D9F00080000000060
:10802000000000000000000000000000619F000848
:10803000659F000800000000699F00086D9F000810
:108040001DD800081DD800081DD800081DD800083C
:108050001DD800081DD800081DD800081DD800082C
:108060001DD800081DD800081DD800081DD800081C
:108070001DD800081DD800081DD800081DD800080C
:108080001DD800081DD800081DD80008719F0008E1
:108090007D9F0008899F0008959F00081DD8000853
:1080A0001DD800081DD800081DD800081DD80008DC
:1080B0001DD800081DD800081DD800081DD80008CC
:1080C0001DD800081DD800081DD800081DD80008BC
:1080D0001DD800081DD800081DD800081DD80008AC
:1080E0001DD800081DD800081DD800080000000099
:1080F0000000000000000000000000000000000080
:1081000000000000000000001DD800081DD8000875
:108110001DD800081DD800081DD800081DD800086B
:108120001DD800081DD800081DD800081DD800085B
:108130001DD800080000000000000000A19F0008FA
:10814000AD9F0008B99F0008C59F0008D19F000897
:10815000000000000000000000000000000000001F
:10816000000000000000000000000000000000000F
:1081700000000000000000000000000000000000FF
:1081800000000000000000000000000000000000EF
:1081900000000000000000000000000000000000DF
:1081A00000000000000000000000000000000000CF
:1081B00000000000000000000000000000000000BF
:1081C00000000000000000000000000000000000AF
:1081D000000000000000000000000000000000009F
:1081E0005FF8E0F153B94AB9002908BF00281CBF65
:1081F0004FF0FF314FF0FF3000F00CB8ADF1080C3C
:108200006DE904CE05F00CFBDDF804E0DDE90223A6
:1082100004B07047704700BF034613F8012B002AD3
:10822000FBD1181A013870470348044B834202D02F
:10823000034B03B1184770478801002088010020D4
:10824000000000000548064B1B1AD90F01EBA301E3
:10825000491002D0034B03B1184770478801002032
:10826000880100200000000010B5064C237843B9B7
:10827000FFF7DAFF044B13B10448AFF3008001238A
:10828000237010BD8801002000000000CCDB000836
:1082900008B5054B1BB105490548AFF30080BDE8A3
:1082A0000840FFF7CFBF00BF000000008C01002096
:1082B000CCDB0008F0B59DB001F0BCFE34220021FB
:1082C0000FA805F049FC0021202206A8CDE90111E4
:1082D000CDE90311059105F03FFC02204FF48031F8
:1082E00001244FF480324FF4E013CDE916010EA8BB
:1082F0000E941092189302F011FF08B172B6FEE7C7
:1083000010250D9006A8069503F052FA034608B111
:1083100072B6FEE70F22039305930223CDE90123F2
:108320004FF48063022101A8049303F09BF908B184
:1083300072B6FEE7744B75499A69022742F0010252
:108340009A619A69064602F001020692069A4A6804
:1083500022F0E06242F000724A609A690EA942F08F
:1083600004029A619A6902F004020092009A9A69E2
:1083700042F010029A619B694FF4005203F010031F
:108380000193019B012310906148CDE90E231197C1
:1083900002F01EF822464FF400515D4802F02CF91D
:1083A0004FF4007200235B480EA9CDE90E2310960E
:1083B00002F00EF8042356480EA90E93CDE90F469D
:1083C000119702F005F832460421514802F014F9E1
:1083D00008234F480EA90E9301F0FAFF32460821F8
:1083E0004B4802F009F94A480EA90E9501F0F0FF3A
:1083F00029464FF400453246454802F0FDF845480D
:108400000EA90E9501F0E4FF29463246414802F0DC
:10841000F3F840F2E14303223F498B603F4B0846AB
:108420004A600B6003F058FE054650B901F084F92C
:1084300000F0D4FE3A4B186800F026FD18B972B669
:10844000FEE772B6FEE72146284600F09DFB4FF49A
:108450000071304802F0CAF80128044642D02C4688
:108460002D4803F065FE4FF400712A4802F0BEF873
:10847000012814D0D4B901F0CBF8002502E00EA8F1
:1084800001F03EF828460EA900F032FC0446002810
:10849000F5D16B1C022B4FF00105E1D0F2E774B16E
:1084A00001F0B6F800F07AFB0124D9E71D4804F08A
:1084B000A3FB1C4804F07EFB01F0AAF8DDE722468E
:1084C0001949184804F060FB1849164804F084FB69
:1084D0001749144805F02CF9124804F087FB01F005
:1084E00097F8DFE72A4610490E4804F04DFB0F4984
:1084F0000C4804F071FB0E490A4805F019F90948C7
:1085000004F074FBACE700BF001002400000014023
:108510000010014000080140A80100200030004088
:1085200000000020B4010020500000204401002081
:1085300004000020BFF34F8F0549064BCA6802F4C0
:10854000E0621343CB60BFF34F8F00BFFDE700BF76
:1085500000ED00E00400FA0570B5A0F1C0030C4680
:10856000D4B0092B00F2B581DFE813F031006500CB
:10857000BB00A100F1009900CF00A900D7000A00BC
:1085800001F04CF9467F807F01228DF854004FF0B6
:108590000A008DF855004FF000004FF0D90E4FF053
:1085A000080CBD4B8DF856001C780B2113A88DF8D4
:1085B0004F408DF85360ADF84CE08DF84EC0ADF8EB
:1085C00050208DF8522001F099FA54B070BD01F09E
:1085D00025F905460279411D0DF115008DF814208D
:1085E000039205F0E5FA039AAB7B901C04466A44BB
:1085F000537503931A4605AB05F10F01181805F0E2
:10860000D7FAD021039BD5F8190023441A1DD2B202
:1086100005ACE050ADF84C108DF84E2032B105A9F4
:108620000DF14F00039205F0C3FA039A13A8D11C71
:1086300001F064FAC9E7012A40F293802178092900
:1086400000F28F804B1C934200F28B8000F08980F7
:10865000E35C0A2B00F2858001F1020C03EB0C00B5
:1086600000F1040E72457CD304EB0C0204EB000C09
:108670009CF803509CF802E04EEA052ECDF804E089
:108680009CF801C0205C40EA0C200090601C01F0C6
:10869000C9F80346002800F01981D12227E0012AF9
:1086A00002D92078092868D940F2D5120EE01AB113
:1086B0002078092840F2998040F2D31206E01AB1DE
:1086C0002078012840F2EA8040F2D71200230321EB
:1086D00013A8ADF84C208DF84E3001F00FFA54B0CD
:1086E00070BD01F017F9034600283DD0D2220023C7
:1086F000032113A8ADF84C208DF84E3001F0FEF99F
:10870000322001F0BBFCFFF715FF1AB120780128D9
:1087100040F294804FF4EB72D8E7002304A805A937
:108720000360059300F0CAFF4FF0D80C4FF0080E1D
:108730000B2113A8ADF84CC08DF84EE0DDE904C262
:10874000CDF84FC0CDF8532001F0D8F93DE7362AD7
:1087500004D994F800E0BEF1090F24D94FF4EA726D
:10876000B4E740F2D112B1E740F2D22213A80321BC
:108770008370028001F0C2F927E7617800F08CFE77
:108780004FF0D50EB0FA80F34FF0000C5B095B00A0
:10879000032113A88DF84CE08DF84EC08DF84D30B4
:1087A00001F0ACF911E705AD04F1010C04F131065B
:1087B0002C46DCF80000DCF80410DCF80820DCF8BB
:1087C0000C300CF1100CB4450FC405F11005EFD1BD
:1087D000DCF80000BCF8043005A92860AB807046C6
:1087E00000F09EFD4FF0D40ECCE705A900F072FD1D
:1087F000D322362305ADADF84C208DF84E300DF167
:108800004F0EAC460EF1100EBCE80F004EF8043CC3
:1088100011AB9C4505F110054EF8100C4EF80C1CE0
:108820004EF8082CEDD128683921CEF80000AB882D
:1088300013A8AEF8043001F061F9C6E6002305A9DB
:10884000059300F0ABFA0546207800F0BDFA00234E
:108850004FF0060E4FF0D604DDF814C065F30703A1
:1088600060F30F236CF317434FEA1C2060F31F6380
:108870004FEA1C408DF853004FEA1C6C092113A8E5
:10888000ADF84C408DF84EE0CDF84F308DF854C027
:1088900001F034F999E600BF7804002005A900F042
:1088A0005BFA0C204FF0D70C059A079BCDF84F20B0
:1088B000069A8DF84E000F2113A8ADF84CC0CDF8E4
:1088C0005320CDF8573001F019F97EE640F2D1225D
:1088D0004CE703214FF0000C00F1100313A88DF8B2
:1088E0004C308DF84D108DF84EC001F007F96CE654
:1088F0002DE9F04FCBB001F0BFF818B900204BB014
:10890000BDE8F08F019005A9002001F0DBF89DF88B
:108910001440019A04BB162A174628BF1627904612
:10892000934DBFB20AA9A0B201F0CCF82A789DF805
:1089300028309A420DD10134A74205F10105F1D149
:10894000B8F1150FDAD98B4B8B4AC3F8F02FFFF72C
:10895000F1FD42469DF81440A02C00F0D68073D95A
:10896000BC2C00F29480BA2C40F28D80BC2C00F01C
:10897000DB80042AC2D90DF115010120019201F01A
:10898000A1F80DF11601022001F09CF803200DF171
:1089900016019DF8165001F095F804204FF00009DB
:1089A000052480469DF81630019A0DF1150A45EA16
:1089B00003250DF11701019201F084F89DF817C00D
:1089C000019ABCF1080F5ED8A4440CF10103934254
:1089D000039393D806AC2746AB46CDE90144002665
:1089E00065461C463946B0B2013601F06BF8A64226
:1089F00007F10107F6D1DDE90124AC46002304EBC1
:108A0000050E12F8011B964583EA0103F9D114F80B
:108A10000C209A4237D19DF817209AF8006008F18F
:108A2000010121440DF131008DF830208DF829909D
:108A3000CDF82CB08DF8286005F0BAF80AA800F03F
:108A40001DFBBDF80C005AE7902C4ED0922C1AD189
:108A500000F0E4FE932305468DF82830827B00F178
:108A60000F010DF12A008DF8292005F0A1F8FF2350
:108A7000424AA97B0AAC127820460C44A270E370EB
:108A8000043101F03BF801204BB0BDE8F08F4034D9
:108A9000E4B2092CF7D8012A3FF430AF06A901202F
:108AA000019201F00FF89DF81830019A991C8A4242
:108AB00003F10208FFF422AF0AAE6BB1374600257E
:108AC000A81C394680B200F0FDFF9DF81830013532
:108AD000AB4207F10107F3D89DF814001A4631465E
:108AE000FFF73AFD1FFA88F009E791232349244A4A
:108AF000087812788DF8290003210AA88DF82A2019
:108B00008DF8283000F0FAFFBDE7A1221D4B0321AC
:108B10001B688DF82820180A8DF829000AA88DF8FE
:108B20002A3000F0EBFFAEE7062A7FF6E7AE00241E
:108B3000254601200DF11501019200F0C3FF019FB0
:108B40000DF1150AA01C80B20DF1160100F0BAFF5C
:108B50009DF81630E20001349340042C45EA0305E9
:108B6000F0D106203A464FF001090724804620E75D
:108B7000E4DD000800400020EFBEADDE79040020F7
:108B80007804002000000020024A034B1070197086
:108B9000704700BF79040020780400202DE9F043DD
:108BA00020268BB0FFF7A4FE054648B1002401340F
:108BB00000F06EFFAC42FAD1013EB6B2002EF1D108
:108BC0000026AA274025304605A900F091F8002884
:108BD00047D005A800F094FC9DF81520BDF81800BA
:108BE000069B9DF814C0002A43D04FF0AB0E4FEA0D
:108BF00013481A0E0821072406238DF801C0ADF88A
:108C000002008DF804808DF805208DF800E09DF8B5
:108C10001C906B44E84683F80090B9F1000F0CD02B
:108C20000DF11D010DEB04004A4604F0C1FF09F1EE
:108C3000FF31C9B2214402314C4400224046134660
:108C400010F801CB01339C428CEA0202F8D8013DB6
:108C500040466C4489B2ADB2227000F04FFF002D47
:108C6000B1D1731C022B4FF00106ABD10BB0BDE8A4
:108C7000F0830621052404238DF800708DF801C0CF
:108C8000ADF80200C3E700BF642908B52AD01BD89D
:108C900014292BD0322923D00A2914BF0422C82238
:108CA00000234FF4402C4FF4801142604FF001221A
:108CB000C0E90233C0E904C18261838302F04EFE41
:108CC000B0FA80F0400908BDFA290DD0B1F57A7FDD
:108CD00004D07D2914BF04221022E1E70222DFE73D
:108CE0002822DDE71422DBE70822D9E76422D7E750
:108CF0000128F0B52AD845F2100245F2020402FB21
:108D000000F0144B1D1805F5A042B2F800C02A5B14
:108D10001FFA8CFC92B2944518D08E4601272A5B2C
:108D200092B202EB820200EB820003EB000C2B5BA1
:108D30000133C3F30906BCE80F00AEE80F00DCF80E
:108D400000303846CEF800302E53F0BD00273846AC
:108D5000F0BD00BF94040020A9B1012814D800B5CB
:108D600045F2100E45F2080245F20C0C094B0EFBC1
:108D700000339A580A60084A52F8202053F80C3001
:108D8000C1E9012300BD704700230B604B608B607D
:108D9000704700BF940400208C0400200128034683
:108DA0000CD84FF0000C064A105C02F803C0C0B2A9
:108DB00029B1044A52F823300B60704700207047F5
:108DC000880400207C0400200128034605D80021E7
:108DD000034A105CD154C0B270470020704700BFF6
:108DE000840400200B4A036801219B1A18BF012349
:108DF000426ADFF824C010B44CF823205207074C15
:108E000048BF074AE15448BFD154002310BC436215
:108E1000704700BF006400407C04002088040020EC
:108E2000840400200028F0B514BF0225012583B07A
:108E30000C4613482946164601F0D8FB0746221E69
:108E400018BF012229460E4801F0D6FB321E18BF7A
:108E5000012229460B4801F0CFFB012F0DD164B947
:108E60000194019BB3F5B47F07D200BF019B01338E
:108E70000193019BB3F5B47FF7D303B0F0BD00BFFE
:108E8000000C0140001001402DE9F04100240126B2
:108E90004FF4807790B080464AF2200200216C485F
:108EA00004F05AFE6B4B6C4A6C496D4D0C80049477
:108EB000148003941C6005945C60AB69694843F0BE
:108EC0000803AB61AB6902A903F008030093009BA0
:108ED00002970496032701F07BFA4FF400720223F5
:108EE000604802A9CDE90223059701F071FA4FF419
:108EF000805200235B4802A9CDE90223049601F0C9
:108F000067FA4FF400520223564802A9CDE9022322
:108F1000059701F05DFAAB69022743F01003AB61DE
:108F2000AB69012203F010030193019B01234D481B
:108F300006A9CDE906230894099701F049FA2246CB
:108F40003146484801F058FB464806A9069701F00B
:108F50003FFA22463946434801F04EFB424806A9F3
:108F6000069601F035FA224631463F4801F044FBAF
:108F70003D4806A9069701F02BFA224639463A48A1
:108F800001F03AFBEB69394943F00073EB61384873
:108F9000EB69384A0160384903F000730A600293B4
:108FA0004146029BFFF770FE20B90025284610B00D
:108FB000BDE8F08141463048FFF766FE05460028CF
:108FC000F3D0CDE90644CDE90844CDE90A44CDE922
:108FD0000C460E24264806A90E960F9402F040FD7A
:108FE0000028E2D1244806A90B9402F039FD00289C
:108FF000DBD11F4802F0CEFD0028D6D11E4802F07A
:10900000C9FD0028D1D13946194802F0EDFE0028EB
:10901000CBD13946184802F0E7FE0028C5D14FF4FD
:109020000C41134802F0E0FE0028BED14FF40C4181
:10903000114802F0D9FE0028B7D102460146FFF7D9
:10904000F1FE002201201146FFF7ECFEAEE700BF63
:10905000940400207C040020840400208804002064
:1090600000100240000C014000100140006400406C
:10907000DCA4002000680040B4A4002070B5037890
:10908000064688B04BBB1B4D7378706803BB1A460D
:10909000C0F30A01039300230492327A4FF4FA7466
:1090A000CDE9053202918DF81C3001E0013C0CD075
:1090B000284602F0F5FD0028F8D0284601AB06F15D
:1090C000090202A902F094FD48B1002008B070BD69
:1090D0000021042220F06043DCE7074DD4E70120A3
:1090E0003178064A52F82130034442F8213008B062
:1090F00070BD00BFDCA40020B4A400208C040020BC
:1091000010B58CB000210DF1090305AA044602F048
:10911000DBFD00284AD122682E49079B521A18BF4E
:10912000012245F21001DDF824E0042B8DF808E05F
:10913000DDF818E008BF0120DDF814C008BFF446D0
:1091400045F20204244B8DF8010001FB023101F5C8
:10915000A040CDF804C0B0F800C0085B0CF1010CD1
:10916000CCF3090C80B284458DF8002020D045F264
:10917000100145F20804EE4601FB02F29918085965
:109180000130085101F5A0400188A0F800C089B263
:1091900001EB810102EB810203EB020CBEE80F0040
:1091A000ACE80F00DEF80030CCF800300CB010BD99
:1091B000085B45F20C0E0130C0F30900085345F27C
:1091C00004004FF001040C5451F80E00013041F836
:1091D0000E00CCE700640040940400202DE9F84F15
:1091E00050220021344804F0B7FC0023DFF8CCA063
:1091F000984657463249334A334E344CDFF8D090C4
:109200000AF134050B60136056F8343CA6F13400C3
:109210004B450CD10023A6F1350212F8011F4B403B
:10922000B242E35CF9D190F835209A4228D032223C
:109230000021381D04F090FC362344F2317E45F2C3
:10924000524C002103FB08F30AEB03002AF803E069
:109250007A1EA0F802C012F8013F4B40AA42E15C1E
:10926000F9D187F8351008F10108B8F10A0F07F1B4
:10927000360705F1360506F13606C5D1BDE8F88F8B
:109280003B4600F13002D0F800B0D0F804E0D0F84E
:1092900008C0C16810309042C3F800B0C3F804E0C1
:1092A000C3F808C0D96003F11003ECD102681A605A
:1092B00082889A80D7E700BF0CA500205CA500201B
:1092C00008A5002004A5002034E00308E4DB000822
:1092D0003147525409281ED83622104B10B502FBD4
:1092E000003303F130021868D3F804E00446D3F8E1
:1092F00008C0D868103393420C60C1F804E0C1F88C
:1093000008C0C86001F11001EDD11A6801200A609F
:109310009B888B8010BD0020704700BF5CA500209B
:10932000092800F2AD802DE9F04106460C46A2B0B6
:109330000DF1180C01F1300E654620686168A268D5
:10934000E368103474450FC50CF1100CF4D1A388F8
:109350002068ACF8043000234A4A4B4DCCF800009A
:1093600013AC06920DF1170212F8011F4B40A242F6
:10937000EB5CF9D136228DF84D30444B06A802FB48
:1093800006342146374604F0D7FB002874D014AECB
:1093900004F1300C354620686168A268E368103437
:1093A00064450FC506F11006F4D13623206806ADDA
:1093B0003060A2880DF1480CB280344A03FB0724C8
:1093C0002E4610340FCE664505F1100544F8100CFA
:1093D00044F80C1C44F8082C44F8043CF0D12868EC
:1093E0002060AB88A38000F0EDFE01210023284817
:1093F000CDE90133CDE9040101A902A8039300F0EE
:1094000087FF98B9DFF88480214CA8F1020504F1A8
:10941000360601E0A64227D021460023012035F878
:10942000022F00F023FF02340028F3D0362400F08E
:10943000DDFE164B14AE04FB07340DF1800C3546EF
:1094400010340FCD654506F1100644F8100C44F8B1
:109450000C1C44F8082C44F8043CF0D1306820601F
:10946000B3880020A38008E00A4A08F136039A4234
:109470009846CAD100F0BAFE012022B0BDE8F081C2
:109480000020704731475254E4DB00085CA50020FF
:1094900000E0030878A7002009282CD8F0B5362270
:1094A0008FB004460F466D46144B02FB003C0CF196
:1094B0003006AE46DCF80000DCF80410DCF80820CA
:1094C000DCF80C300CF1100CB445AEE80F0005F1DF
:1094D0001005EED13B1E18BF0123DCF800006946E1
:1094E0002860BCF804202046AA808DF80430FFF7DD
:1094F00017FF0FB0F0BD0020704700BF5CA5002033
:109500002DE9F04F3F4F82463C4600254FF036088C
:109510003D4EDFF8F89087B02379002B5AD062795E
:109520009AF800309A4255D1A2799AF801309A42BD
:1095300050D108FB0573DAF80410D3F80720D3F8EC
:109540000B304A401A4245D1E37B9AF80820002BA1
:1095500055D1A2B10AF1080302EB030C04F10F018B
:109560000AF1100E11F8012F13F801BF087A82EAF0
:109570000B0202422ED1634501D07345F2D108FBA4
:10958000057BBBF82F2093B273BBCDF80A30CDF822
:109590000E30CDF80630CDF81230238CADF8162001
:1095A000ADF80430DBF8222094F8263002928DF8D2
:1095B0000C30D4F82720D4F82B3001A8CDF80D209A
:1095C000CDF81130FFF75AFD20B1D9F80030013342
:1095D000C9F8003001350A2D04F1360406F10806F9
:1095E0009AD107B0BDE8F08F4FF00103757033706A
:1095F00000F03EFDBBF82F3003447360EAE793426E
:10960000E8D1A7E75CA500200CA5002008A5002054
:109610002DE9F04387B000F02BFD0646234CDFF820
:109620009090DFF89080244F04F150052378BBB36D
:10963000636801A8F31A33D44FF0360C0021D9F82F
:109640000020CDF80A10934288BFC9F80030637833
:10965000CDF80E100CFB03F3CDF80610CDF8121068
:109660002170ADF8161003F1200238F802204344AF
:10967000ADF80420D3F822C093F82610D3F82720A1
:10968000D3F82B30CDF808C08DF80C10CDF80D2094
:10969000CDF81130FFF7F2FC10B13B6801333B60AD
:1096A0000834AC42C2D107B0BDE8F0830CA500205D
:1096B00004A500205CA5002008A5002010B1044BE3
:1096C0001B68036011B1034B1B680B60704700BF40
:1096D00008A5002004A50020F0B587B0074600F0DB
:1096E00071FD0121002312480293CDE9040102A873
:1096F00001A90193039300F00BFE98B90D4DBC1E18
:1097000007F11E06ED1B29190023012034F8022F52
:1097100000F0ACFD30B9B442F5D100F067FD012096
:1097200007B0F0BD00F062FD002007B0F0BD00BF43
:1097300000D8030802D80308304A314B116830B50D
:1097400099423DD10023DFF8BCE02F4812F8011BFD
:109750004B4082421EF80330F8D1284AD17F99420B
:1097600031D00023092542F20104DFF8A0C02449CA
:10977000274A4CF80E1C03CA12784CF8090C0CF856
:10978000012C244ACCF80830ACF81030CCF80B206F
:109790004CF8051CCCF80030CCF804300CF80A5C0E
:1097A000ACF80F40ACF10F020CF1100012F8011FE1
:1097B0004B4090421EF80330F8D18CF8113030BD88
:1097C000DFF840E0CDE71379092BCAD8937B0A2B49
:1097D000C7D8537F5BB9937F002BC2D10E4C074D86
:1097E0000FCD0FC495E80F0084E80F0030BD012BAA
:1097F000B7D1937F202BB4D1F0E700BF00D8030886
:1098000030474643E4DC00081FD8030886A7002041
:10981000FCDD00088304405778A70020004870470B
:1098200078A7002070B509298AB0BDF83850BDF876
:109830003C4001D80A2B02D900200AB070BD4FF07D
:10984000000C1646304ACDF821C08DF80C1002925B
:10985000CDF80DC0CDF811C0CDF815C0CDF819C0A8
:10986000CDF81DC0CDF824C0002944D18DF81630A4
:10987000002B39D1002345F2407E40F2834642F26C
:1098800001019D4208BF35469C4208BF7446DFF87F
:109890007CC00DF107020DF12600ADF82510ADF8E2
:1098A0002150ADF8234012F8011F4B4082421CF8B2
:1098B0000330F8D12022164902A88DF8273004F091
:1098C0003BF910B901200AB070BD02A8FFF704FFF0
:1098D0000028B1D00E4D02AC0FCC0FC594E80F009C
:1098E00085E80F000120EEE71A4631460DF117001A
:1098F00004F05EF9BEE70A4601460DF10D00019342
:1099000004F056F9019BB1E730474643E4DC000818
:1099100078A70020002242F20101092310B51F4858
:1099200088B01F4C00901F48CDF81620ADF81E20BF
:10993000CDF81900ADF81D1003CCCDF80910217831
:10994000DFF864E08DF80430CDF80E201346CDF832
:1099500012200DF11E0C0DF1FF32CDF805008DF82F
:109960000D1012F8011F4B4094451EF80330F8D13A
:1099700068468DF81F30FFF7AFFE044650B1EC4645
:10998000DFF828E0BCE80F00AEE80F009CE80F000D
:109990008EE80F00204608B010BD00BF3047464398
:1099A000FCDD000883044057E4DC000878A70020B1
:1099B0000020704720280ED0212801D000207047B9
:1099C000072AFBD10A4B18689A889B7908608A801D
:1099D00000208B717047072AF0D1054B8888D1F899
:1099E00000C08A799880C3F800C000209A7170473F
:1099F0001400002038B50B68BBB101380D490E4C7E
:109A00000E4D00EB030E08E00A8810F801CF92B269
:109A1000704505F802C00B8007D00B8822880133FF
:109A2000C3F30A0392B29A42EED1054803F0BAFE9C
:109A3000002038BD9AA7002098A700209CA70020EE
:109A4000B401002008B50849084803F085FE00234A
:109A50000749084A05480B80138003F0A3FE00382D
:109A600018BF0120404208BDDCAF0020B401002037
:109A70009AA7002098A70020034A044B10881B884F
:109A8000C01AC0F30A0070479AA7002098A70020C8
:109A9000094B0A4A1988138889B29BB2994209D0A6
:109AA000118813880648013389B2C3F30A03405C66
:109AB00013807047002070479AA7002098A70020C5
:109AC0009CA700200A4B0B4A1B88B2F800C0A3EBEE
:109AD0000C03C3F30A03984208D21288064B1044C1
:109AE000C0F30A001B5C01200B7070470020704718
:109AF0009AA7002098A700209CA7002099B32DE9E1
:109B0000F84381460F460026DFF86080D8F8B84257
:109B1000D4B9BD1BADB2402D28BF402509EB0601CD
:109B20002A46134804F044F82A464046104903F0F8
:109B300009FE404603F018FE90B93544AEB2B74274
:109B4000E6D80020BDE8F88300F092FA0546D4F884
:109B50001432012BDDD100F08BFA401B6328F6D9BB
:109B60000120BDE8F8830020704700BFB401002049
:109B70009CAF0020054A136833B9B0F5806F03D855
:109B8000012303481360704700207047F8B4002099
:109B9000FCB40020034B984200D070470022024BD7
:109BA0001A607047FCB40020F8B400204FF4C05095
:109BB00030B5022100250322194C87B0A36943F078
:109BC0000403A361A369029003F0040300F1804041
:109BD000CDE90315009302A900F57040009B0592A2
:109BE00000F0F6FB4FF40072002302A90D48CDE906
:109BF0000223049500F0ECFB6369062143F48053D3
:109C0000636163692A4603F4805301934320019BF7
:109C100000F058FA432000F087FA07B030BD00BFCB
:109C20000010024000080140024A536923F48053A7
:109C300053617047001002400146D0F8D80401F289
:109C40009C4102F0FBBF00BF01EBC10300EB8303AB
:109C5000D3F86022D0F8D80403F026B801EBC10392
:109C600000EB83031A6AD0F8D80403F05FB800BF92
:109C7000D0F8D80403F002B910B504460121D0F899
:109C8000D80403F0E3F8D4F8D804BDE8104003F09A
:109C9000B5B800BFD0F8D80403F0DCB8D0F8D804C9
:109CA00003F0E2B8D0F8D80403F0F8B8D0F8D8043C
:109CB00003F0F2B8D0F8D80403F0F2B8D0F8D80422
:109CC00003F0F0B8F8B54FF0A042042300250226B7
:109CD0000127114CC4F8D804C0F8C04220462371B3
:109CE00022606581E671A77300F08AFC802120461E
:109CF00001F00EFA29464022204601F0E3F93946E8
:109D00008022204601F0DEF940223146204601F053
:109D1000D9F92846F8BD00BF1CB0002008B5D0F81E
:109D2000C00200F0D7FC002008BD00BF08B5D0F885
:109D3000C00200F0EBFC002008BD00BF08B5D0F861
:109D4000C00200F0F9FC002008BD00BF944608B531
:109D50001A46D0F8C002634601F080F8002008BD22
:109D600008B5D0F8C00201F0B7F8002008BD00BF68
:109D700008B5D0F8C00201F01FF9002008BD00BFEF
:109D800008B5D0F8C00201F061F9002008BD00BF9D
:109D90000A06D0F8C03206D401EBC10103EB8103FF
:109DA00093F85602704701F07F0101EBC10103EB0C
:109DB0008103987D704700BF08B5D0F8C00201F05C
:109DC00033F8002008BD00BF08B5D0F8C00201F08C
:109DD000DBF8002008BD00BF08B5D0F8C00201F0D4
:109DE000B1F8002008BD00BFD0F8C00201F0C2B831
:109DF000122301480B8070473C00002004230148D7
:109E00000B8070473800002008B50A460248034915
:109E100003F010FB014808BD08DE000814B900205B
:109E200008B50A460248034903F004FB014808BD8F
:109E300024DE000814B9002008B50A460248034988
:109E400003F0F8FA014808BD3CDE000814B9002010
:109E500010B582B00C46FFF7E1FC02798AB1411DD2
:109E600001900C4803F0A4FE0020019B22461B79C0
:109E7000084C0949E054204603F0DCFA064802B0D9
:109E800010BD22460449054803F0D4FA024802B046
:109E900010BD00BFFCB8002014B9002048DE000847
:109EA00010B582B00C46FFF7B9FC827B8ABB4FF03D
:109EB0001A0C2149D1F8E837D1F8F007A4F800C00E
:109EC00013EB000C02D11D4802B010BD1B4BD1F8A2
:109ED000ECE7194603F110044FEA1C70092894BFFF
:109EE000303037308870CA7002318C424FEA0C1C17
:109EF000F2D1002012494FEA1E72092A94BF303273
:109F000037329A74D87402338B424FEA0E1EF2D164
:109F1000D9E700F10F0101900A4803F049FE002043
:109F2000019B22469B7B074C0749E054204603F0E7
:109F300081FA054802B010BD00F0FF1F1C00002090
:109F40002400002008B9002014B90020704700BF89
:109F5000FEE700BFFEE700BFFEE700BFFEE700BF71
:109F6000704700BF704700BF704700BF00F074B873
:109F7000014801F061BF00BFDCA40020014801F0EE
:109F80005BBF00BFDCA40020014801F055BF00BF4B
:109F9000DCA40020014801F04FBF00BFDCA400207A
:109FA000014801F049BF00BFB4A40020014801F0FE
:109FB00043BF00BFB4A40020014801F03DBF00BF73
:109FC000B4A40020014801F037BF00BFB4A40020B2
:109FD000014800F0CBBB00BF1CB00020704700BFA1
:109FE000704700BF4FF47A7310B50F4904460978E3
:109FF0000E4AB3FBF1F0126882B0B2FBF0F000F051
:10A00000A1F808B90F2C02D9012002B010BD0246F8
:10A01000019021464FF0FF3000F054F8044B0198B6
:10A020001C6002B010BD00BF700000206C0000205A
:10A0300074000020074A08B51368032043F010039A
:10A04000136000F02DF80020FFF7CCFFFFF7C8FFEA
:10A05000002008BD00200240034A044B11681B7811
:10A060000B441360704700BF54B9002070000020FB
:10A07000014B1868704700BF54B9002038B504463A
:10A08000FFF7F6FF631C054602D0044B1B781C4407
:10A09000FFF7EEFF401BA042FAD338BD700000204E
:10A0A0004FF6FF0C06490302CA6803F4E06302EAB4
:10A0B0000C02134343F0BF6343F40033CB6070479B
:10A0C00000ED00E0164B00B5DB68C3F30223A3F1FB
:10A0D000030CBCF1040F19D84FF0FF3EC3F1070386
:10A0E0000EFA03F3DB430EFA0CFE22EA0E021940CD
:10A0F00001FA0CF1114300284FEA01110ADB00F1CB
:10A10000604000F5614080F8001300BD00220F237D
:10A110009446ECE7034B00F00F00C318197600BD1E
:10A1200000ED00E0FCEC00E0002807DB012300F07C
:10A130001F01034A40098B4042F82030704700BF9E
:10A1400000E100E00138B0F1807F01D301207047C9
:10A150004FF0E02300224FF0F00C07215861034834
:10A1600080F823C09A6110461961704700ED00E045
:10A17000124BDB6813F0100305D010231049CA6995
:10A1800042F00202CA610D4AD268500706D50C4956
:10A1900043F00403CA6942F00102CA61074AD16967
:10A1A000C90708D50648C16941F00401C161D169F8
:10A1B00021F00101D161014AD360704700200240C3
:10A1C00058B90020064B186910F0800006D00549E8
:10A1D000054A59605A601869C0F3C010704700BF43
:10A1E0000020024023016745AB89EFCD034A0020E0
:10A1F000136943F080031361704700BF00200240E1
:10A2000038B50446FFF734FF174AD368DD070CD58D
:10A21000651C1CD005462CB3FFF72AFF401BA0424B
:10A2200020D8114AD368DB07F6D40F4BDA689006C2
:10A2300044BF2022DA600C4BDA68D1060ED4DA690A
:10A24000D2070BD4D86810F0040007D138BDD3680A
:10A25000D907EAD5D368D907F9D4E6E7FFF788FF2D
:10A26000012038BD032038BD002002402DE9F84F01
:10A27000254E357E012D43D01C46012305464CF268
:10A2800050308A4617463376FFF7BAFFA0BB012D40
:10A2900003D0022D14BF042502254FF00009C84643
:10A2A000DFF868B00AEB4505C9F12003C6F81C8049
:10A2B00027FA09F004FA03F31843A9F12002DBF8A6
:10A2C000103024FA02F240EA020C43F00103CBF80A
:10A2D00010304CF25030AAF800C0FFF791FFDBF8C5
:10A2E00010300AF1020A23F0010309F11009CBF83A
:10A2F000103008B9AA45D7D100233376BDE8F88FCE
:10A300000220BDE8F88F00BF58B9002000200240AD
:10A310002DE9F8432C4E337E012B52D001233376A6
:10A3200003688046022B89464CF250302ED0FFF74E
:10A3300067FF074668BB4FF0FF33C9F80030D8E924
:10A34000025305EBC3239D4223D2204C07E005F5C1
:10A350000065D8E9023203EBC223AB421AD9F76198
:10A3600023694CF2503043F0020323616561236995
:10A3700043F040032361FFF743FF236923F0020307
:10A3800023610028E3D0C9F8005003E0FFF738FF4D
:10A3900020B1012000233376BDE8F8830B4CF06137
:10A3A00023694CF2503043F004032361236943F0E6
:10A3B00040032361FFF724FF236923F00403236193
:10A3C000E8E70220BDE8F88358B9002000200240E9
:10A3D0002DE9F04F0E6883B0002E00F0AC80002213
:10A3E000044601254FF00F0892461346784F06E0C9
:10A3F000013336FA03F002F1040200F09C8005FA02
:10A4000003F030EA060E00EA060CF1D14E68122E77
:10A4100000F29980122E0DD8DFE806F0A70AB3D714
:10A420000C0C0C0C0C0C0C0C0C0C0C0C0CBBB7001E
:10A43000D1F80CA0BCF1FF0F99BFA646164604F157
:10A44000040EA2F12006DEF8000008FA06F920EA60
:10A4500009000AFA06F63043CEF800004868C60044
:10A460006FD5BE6903F0030946F00106BE61BE69FF
:10A470004FEA890906F001060196019E23F00306C2
:10A4800006F1804606F58036D6F808E008FA09FBA2
:10A490002EEA0B0EDFF83CB15C4513D00BF5806B58
:10A4A0005C457AD0DFF830B15C4563D0DFF82CB181
:10A4B0005C450CBF4FF0030B4FF0040B0BFA09F98E
:10A4C0004EEA090EC6F808E0DFF814E110F4801F28
:10A4D000DEF8086014BF46EA0C0626EA0C06CEF841
:10A4E0000860DFF8FCE010F4001FDEF80C6014BF19
:10A4F00046EA0C0626EA0C06CEF80C60DFF8E0E02F
:10A5000010F4003FDEF8046014BF46EA0C0626EAA9
:10A510000C06CEF80460324E10F4803F30680DD047
:10A5200040EA0C0030600E68013336FA03F002F1A5
:10A5300004027FF464AF03B0BDE8F08F20EA0C00A2
:10A5400030600E6854E7DFF89CE076450DD02BD8DC
:10A55000AEF5801E764508D00EF5702E764504D0F7
:10A56000AEF5801E76457FF465AF8E6836BB4FF042
:10A57000040A5FE74FF0020B0BFA09F94EEA090EE5
:10A58000A0E7C86800F1080A54E7C86800F10C0A9F
:10A5900050E7C86800F1040A4CE74FF0010B0BFAD2
:10A5A00009F94EEA090E8DE7DFF83CE07645DCD08C
:10A5B0000EF5803E76457FF43DAFD6E7012E4FF095
:10A5C000080A0CBF2061606134E74FF0000A31E7F0
:10A5D000001002400008014000100140001401403A
:10A5E000000401400000221000003110836819426D
:10A5F00014BF01200020704702B9090401617047AF
:10A6000030B583B0D8B190F89534044603F0FF021A
:10A61000002B5AD00322002384F89524A3712068CC
:10A6200001F044FE237C251D8DF80030206895E85C
:10A630000E0001F085FD30B1022384F89534012528
:10A64000284603B030BD0146206801F037FE0028DF
:10A65000F2D194F804C0BCF1000F21D02346224669
:10A660004FF0010E01461075D08501306045C2E9FA
:10A67000071182F815E0117642F8241FF3D100216A
:10A680000A4683F8541201316145C3E9972283F8E1
:10A69000552283F85822C3F8642203F12403F0D131
:10A6A000237C20688DF8003095E80E0001F08AFECA
:10A6B00005460028C0D101236074206884F89534D1
:10A6C00002F0F4F9284603B030BD80F89424FFF777
:10A6D0006DFA9FE7B8B110B50323044682B0006855
:10A6E00084F8953402F09EF918B10123184602B09F
:10A6F00010BD01902046FFF797FA019B184684F899
:10A70000953402B010BD01231846704790F8943478
:10A71000012B0FD010B501230446006884F894344F
:10A7200001F0BCFD206802F0B1F9002384F89434F4
:10A73000184610BD0220704790F89434012B13D0B6
:10A7400010B501230446006884F8943401F0AEFD8E
:10A75000206802F0ABF91021206801F0E5FD00232C
:10A7600084F89434184610BD022070472DE9F04F4C
:10A770000668044687B0304602F0D6F910B107B03B
:10A78000BDE8F08F0546206802F0A0F90028F6D059
:10A79000D6F808382068C3F30D23C4F8D43402F087
:10A7A00095F98107236806F5006903D55A6902F017
:10A7B00002025A61184602F089F9C206236814D5CC
:10A7C0009A6922F010029A61376A07F4F012B2F522
:10A7D000802F07F00F0800F0DB82B2F5402F00F069
:10A7E000FD819A6942F010029A61184602F06EF9F2
:10A7F000070300F19181206802F068F910F4802FBE
:10A80000206840F0458102F061F90028C0F2A5827D
:10A81000206802F05BF9030500F18480206802F0F3
:10A8200055F910F4805F206840F0E48002F04EF9A2
:10A8300010F4005F206840F0BD8002F047F9000787
:10A8400000F1AF80206802F041F901061DD5B3691F
:10A8500023F08003B3612279012A16D92746012506
:10A8600004E00135AA4207F124070ED997F87B329C
:10A87000012BF6D105EBC50104EB8101206801F540
:10A88000157101F0EFFF2279EBE7206802F01EF965
:10A89000C20245D52279012A25D906F51263274639
:10A8A000B046012526461C4606E00135AA4204F1C1
:10A8B000200407F1240714D997F83C302168012BB4
:10A8C000F3D10029F1DA05F00F0101EBC10187F89E
:10A8D0003B3006EB81013068143101F0C3FF32795F
:10A8E000E3E7344646462068436903F48013436136
:10A8F00002F0ECF8830220D4206802F0E7F8400070
:10A900006FD4206802F0E2F841077FF538AF236882
:10A910005D686A0700F15B825A682A435A602EE735
:10A920002068E5E7D9F80830DF0700F15582206894
:10A93000436903F40063436171E794F804C0BCF118
:10A94000010F28D92346012106F5326203E0614553
:10A9500003F124031FD093F87C021568012801F14C
:10A96000010102F12002F2D1002DF0DAD4F8D47402
:10A9700087EA1547FF07EAD483F87B02B06940F005
:10A980008000B06170690506E1D4D9F8043043F461
:10A990000073C9F804302068436903F4001343616D
:10A9A000ABE72046FFF764F92068436903F008032A
:10A9B000436148E702F0BCF8206801F0A7FDE071B0
:10A9C000256800F0EFFEE2790146284601F0ECFB35
:10A9D0002046FFF751F92068436903F400534361AF
:10A9E0002BE72046FFF766F92068436903F08043B0
:10A9F000436187E7D9F80430102123F00103C9F837
:10AA0000043001F091FC2079D8B14FF67F3106F582
:10AA1000106399601A68013522F400121A60C3F8B5
:10AA20000812D3F80022854222F40012C3F8002253
:10AA3000D3F8002203F1200342F00062C3F8E021C2
:10AA4000E7D1D9F81C3043F00113C9F81C30E37B7F
:10AA5000002B00F0B480D9F8843043F00B03C9F820
:10AA60008430D9F8443043F00B03C9F84430D6F8A9
:10AA70000038206823F4FE63C6F8003804F29C41D5
:10AA800002F066F82068436903F480534361CDE621
:10AA900002F028F8002800F0B480804602950022D9
:10AAA000B3462546206806F5106704E001324FEAF8
:10AAB00058082434203718F0010F07D101324FEA2B
:10AAC00058082434203718F0010FEFD0D6B23146A1
:10AAD000019202F019F810F0010F0346019A40F0BC
:10AAE000F980190744BF0821B960D80644BF102176
:10AAF000B960590644BF4021B960980700F1DB8076
:10AB0000190600F1888028685FEA580398467ED0CD
:10AB1000013224342037D6E7206801F0DBFF0746F6
:10AB200000283FF468AE2146A0460295B3460025B2
:10AB30000B4606F5306403E001357F0820342433EA
:10AB4000F80705D401357F0820342433F807F3D5FE
:10AB5000D8F80000E9B2019301F0CCFF10F0010F2A
:10AB60000646019B5FFA85FA40F0C880310700F184
:10AB7000DA80F20644BF1022A260B00710D5DBF8DD
:10AB80001420110605D5D9F8042042F48062C9F8D2
:10AB9000042093F85722012A00F02C810222A2609F
:10ABA000B20644BF2022A260B60444BF4FF4005254
:10ABB000A2607F0827D0013520342433C6E7D9F8B6
:10ABC000143043F4005343F02B03C9F81430D9F880
:10ABD000103043F00B03C9F8103048E7082204F2A4
:10ABE0009C41304601F09CFE08EBC80204EB820257
:10ABF000D2F86812C7F30A130B44C2F8683223680C
:10AC0000EFE52068FFE55E464446029DF3E52C46ED
:10AC10005E46029DF7E5D4E9091E8E453FF673AF07
:10AC2000E069A1EB0E0C844528BF844628680CF12E
:10AC3000030C00F5106303EB42139A469B690590E1
:10AC40009BB2B3EB9C0FC0F0D180019704953746BF
:10AC500073460E460546039218E0E3693A469E4263
:10AC600028BF1E462846B3B2216A01F049FE236A76
:10AC7000F01C33442362A36A3344A362DAF8182039
:10AC8000666A92B2B2EB900FC0F0AA80B342A6EB14
:10AC90000306E2D3DDE90325019F28680126059B11
:10ACA00002F00F0ED3F8341806FA0EF621EA060168
:10ACB000C3F8341828E7114658460393019201F06F
:10ACC00033FBE17D019A0129039B00F09D80022165
:10ACD000B96015E702F00F0E0122D9F834C002FA6C
:10ACE0000EFE2CEA0E0C0390C9F834C03146BA604F
:10ACF0002846FEF7B3FF039B019AF2E60122A26009
:10AD0000D8F800204649106C02F5306202EB45127B
:10AD10008842D2F808C034D11CF4004F2CD04FF434
:10AD20000041916022E70822A260D8F800203D4946
:10AD3000106C02F5306202EB45128842D2F808C06E
:10AD400005D91CF4004F1CBF4FF4004191604046F0
:10AD50000193FEF771FF019B0BE7D9F80430204601
:10AD600023F00103C9F80430FEF798FF2068436917
:10AD700003F0004343614CE51CF0200F1CBF202171
:10AD80009160514640460193FEF75EFF019BEDE660
:10AD900047F6F07217423FF424ADC7F30A12174684
:10ADA00008EBC80304EB8303D3F860123046019329
:10ADB00001F0B6FD019BD3F860223A44C3F860224B
:10ADC000D3F868223A44C3F86822236809E520468C
:10ADD000FEF774FF23689FE52046FEF75BFFA6E5BC
:10ADE0009E463146049D019F039A286871453FF6AF
:10ADF0008BAE53E70022514683F857224046019319
:10AE0000FEF750FF019BC9E600212846E175314657
:10AE100003920193FEF74AFF039A019B57E700BF95
:10AE20000A31544F0A30544F034690F894040128D5
:10AE300011D04FF0010C00B5186883B0597483F835
:10AE400094C4019301F010FE00221046019B83F888
:10AE5000942403B000BD0220704700BF10B501F07C
:10AE60000F0E0EEBCE0C090682B04FEA8C0C26D4E6
:10AE70004FF000040CF5157184448CF855420144E0
:10AE80008A604A7881F800E00B710AB1A1F81AE0F3
:10AE9000022B04BF00234B7190F89434012B17D080
:10AEA00003460122006883F89424019301F036FBE5
:10AEB00000221046019B83F8942402B010BD4FF08D
:10AEC00001040CF1140184448CF815400144D7E7C7
:10AED000022002B010BD00BF01F00F0202EBC2035E
:10AEE00009064FEA83031DD44FF0000C03F51571DA
:10AEF0000144034483F855C20A7090F89434012B3E
:10AF00001DD00346012200B5006883B083F8942465
:10AF1000019301F04BFB00221046019B83F894241F
:10AF200003B000BD4FF0010C03F1140101440344D0
:10AF300083F815C00A7090F89434012BE1D10220F7
:10AF4000704700BF10B5002401F00F0101EBC10EE6
:10AF500000EB8E0C8CF854128CF855420068CCF83B
:10AF60006022CCE999340CF5157101F081FB204683
:10AF700010BD00BF01F00F0101EBC10100EB81002A
:10AF8000D0F86802704700BF38B50125002401F0F1
:10AF90000F0101EBC10E00EB8E0C8CF814108CF835
:10AFA00015500068CCF82020CCE909340CF11401CC
:10AFB00001F05EFB204638BD037901F00F02934299
:10AFC00034D30B0626D44FF0000C01EBC1018B00EB
:10AFD00003F515710344014483F855C24FF0010C89
:10AFE0000A7081F802C090F8943463452CD003466F
:10AFF00000B5006883B083F894C4CDE9003201F055
:10B00000B7FCDDE900329AB10022104683F894249F
:10B0100003B000BD4FF0010C02EBC2039B0003F133
:10B0200014010344014483F815C0D7E70120704799
:10B0300003F29C41186801F08BFD00221046009B32
:10B0400083F8942403B000BD02207047037901F017
:10B050000F02934233D310B502EBC203090682B04C
:10B060004FEA83031BD4002403F51571034483F8CE
:10B070005542002401440A708C7090F89434012BDE
:10B080001AD003460122006883F89424019301F04A
:10B090009DFC2046019B83F8944402B010BD01241E
:10B0A00003F1140103445C75002401440A708C70A0
:10B0B00090F89434012BE4D1022002B010BD01209D
:10B0C000704700BF00B5D0F800E0DEF8243029B9A1
:10B0D00043EA02430020CEF8283000BDDEF8280005
:10B0E000013903EB104C09D000230EEB8300D0F89C
:10B0F000040101338B420CEB104CF6D140314CEA89
:10B1000002420EEB810E0020CEF8042000BD00BFED
:10B1100003461B6800205962704700BF002800F0FA
:10B12000F38170B503680446D80782B035D59849D5
:10B130004A6802F00C02042A00F044814A6802F0D6
:10B140000C02082A00F03A81A368B3F5803F10D0C2
:10B15000002B00F06281B3F5A02F00F0D7818C4B5B
:10B160001A6822F480321A601A6822F480221A6067
:10B1700004E0874A136843F480331360FEF778FFD6
:10B18000054605E0FEF774FF401B642800F242818B
:10B190007F4B1B689B03F5D52368980729D57C4A0C
:10B1A000516811F00C0F00F0E180516801F00C01C2
:10B1B000082900F0D7806369002B00F06681012226
:10B1C000744B1A60FEF754FF054605E0FEF750FF8A
:10B1D000401B022800F21E816D4B1B689E07F5D5AF
:10B1E0006B49A2690B6823F0F80343EAC2030B60C2
:10B1F0002368190729D45E074DD5654BDA69D50058
:10B2000000F1DA800126DA6942F08052DA61DB6906
:10B2100003F080530093009B5F4B1B68D80540F1FF
:10B22000E7802369012B00F05781002B00F00C818F
:10B23000052B574B1A6A00F0AD8122F001021A6209
:10B240001A6A22F004021A624BE1E369002B00F053
:10B25000978001224F4BC3F88024FEF709FF054673
:10B2600005E0FEF705FF401B022800F2D380484BA3
:10B270005B6A9A07F5D5494B494A1B68A2FB032331
:10B280005B0A019300BF019B5A1E0192002BF9D16A
:10B2900023685E07B1D4E36A002B44D03C4A51686E
:10B2A000C80305D5516801F00C01082900F08C8114
:10B2B000022B40F0FB80364B1A68D20005D5DB6AC2
:10B2C000626B03F0F003934257D10022314B9A6630
:10B2D000FEF7CEFE054605E0FEF7CAFE401B6428D9
:10B2E00000F298802A4B1B681B01F5D401212848E5
:10B2F000626BC36A23F0F0031343C362C36A226B19
:10B3000023F470631343234AC3629166FEF7B0FED1
:10B31000054604E0FEF7ACFE401B64287AD81C4BBF
:10B320001B681E01F6D5236ACBB1194A526802F098
:10B330000C02082A00F036810022022B154B1A66F7
:10B3400000F0F180FEF794FE044604E0FEF790FE64
:10B35000001B02285ED80E4B1B689B01F6D4002010
:10B3600002B070BD5268D1033FF525AF084A12689C
:10B37000920731D56269012A2ED0012002B070BD3A
:10B38000044AC2F88034FEF773FE05460FE000BFA2
:10B390000010024000004242007000406C0000209B
:10B3A000D34D6210FEF764FE401B022832D8894B51
:10B3B0005B6A9B07F6D46BE700262DE74A68D1034A
:10B3C0007FF5C2AE834A126892037FF5E6AEA268AB
:10B3D000002A7FF4E2AED0E77E49A0690A6822F035
:10B3E000F80242EAC0020A6019077FF504AF2CE7B1
:10B3F000794A136843F480731360FEF739FE0546FB
:10B40000754B1B68D9053FF50CAFFEF731FE401BAD
:10B410006428F5D9032002B070BD6E4A136823F486
:10B4200080331360136823F480231360FEF720FE3B
:10B43000054604E0FEF71CFE401B6428EAD8654B75
:10B440001B689E03F6D4A7E6624A136A23F0010341
:10B450001362136A23F004031362FEF709FE054624
:10B4600006E0FEF705FE41F28833401B9842D1D832
:10B47000584B1B6A9B07F4D4002E3FF40CAF554A7F
:10B48000D36923F08053D36105E7544A1360FEF774
:10B49000EFFD054604E0FEF7EBFD401B0228B9D89E
:10B4A0004C4B1B689807F6D42368A2E60021494854
:10B4B0004A4AC36A23F48033C3629166FEF7D8FD1B
:10B4C000054604E0FEF7D4FD401B6428A2D8414B9A
:10B4D0001B681801F6D426E73E4A136A43F00103BD
:10B4E0001362FEF7C5FD054606E0FEF7C1FD41F219
:10B4F0008833401B98428DD8364B1B6A9A07F4D587
:10B50000002E3FF4C8AEBAE70120704703F1804334
:10B51000A3F53C331A6842F480221A601A6842F498
:10B5200080321A602AE6FEF7A3FD054605E0FEF725
:10B530009FFD401B02283FF66DAF264B1B6899010B
:10B54000F5D4636AB3F5803F0AD122486168C26AC4
:10B550000A43C262C26AE16822F00F020A43C26271
:10B560000120A16A1B4C0B4362681C4922F474122F
:10B57000134363600866FEF77BFD044605E0FEF7B3
:10B5800077FD001B02283FF645AF124B1B689A015E
:10B59000F5D5E4E642F004021A621A6A42F00102AA
:10B5A0001A629EE7012B3FF4E8AE0A4B626A5B68C1
:10B5B00003F4803191427FF4E0AEA06A03F470138B
:10B5C000181A18BF0120CBE6D26AD1033FF5D5AED9
:10B5D0006EE600BF001002400070004000004242D2
:10B5E0001B494B6803F00C02082A01D01948704728
:10B5F0001948C3F3834210F802C0DA0310B5644659
:10B6000010D5CB6A154AC86A03F00F03D25CC30396
:10B610000CD4104804FB00F0B0FBF2F00D2C00D16C
:10B62000400810BD0E4800FB0CF010BDCB6AC96A83
:10B63000C3F30313C1F303210231A1FB0C1005482E
:10B640000133A3FB0223A1FB0001FCF7CBFDE5E7DF
:10B650000010024000127A0078DE000868DE000860
:10B6600000093D0078B14A4A136803F007038B4292
:10B670000BD2136823F007030B431360136803F026
:10B6800007038B4201D00120704703682DE9F04188
:10B690009A0714D55F0704D53E4C626842F4E06215
:10B6A00062601E0704D53B4C626842F460526260DF
:10B6B000384C8568626822F0F0022A436260DD0738
:10B6C0008846074620D54268324B012A1B6859D06C
:10B6D000022A54D0990728D52E4C41F28835636848
:10B6E00023F0030313436360FEF7C2FC064604E045
:10B6F000FEF7BEFC801BA84247D863687A6803F057
:10B700000C03B3EB820FF3D1214A136803F0070354
:10B7100043450DD9136823F0070343EA0803136078
:10B72000136803F00703434502D00120BDE8F08110
:10B730003B685A0706D51749F8684A6822F4E06260
:10B7400002434A601B0707D5124A3969536823F43C
:10B75000605343EAC1035360FFF742FF03460D4ABB
:10B760000D4952680D48C2F30312895C0C4ACB4064
:10B7700000681360FEF736FC0020BDE8F0819801F8
:10B78000AAD4D2E79C03A7D4CFE70320CEE700BF1B
:10B79000002002400010024058DE00087400002023
:10B7A0006C000020014B1868704700BF6C0000203F
:10B7B0002DE9F04103680446DE0782B02FD5634BC4
:10B7C000DA69D50040F18E80614D00272B68D805DD
:10B7D00040F197805D4D61682B6A13F4407312D07D
:10B7E00001F440729A420ED0012600202B6A594A79
:10B7F00023F44071C2F84064C2F84004DA072962B9
:10B8000000F193806168514A136A23F440730B433B
:10B8100013621FB1D36923F08053D36123689E075D
:10B8200006D54A49A0684A6822F4404202434A6069
:10B830005D0706D54549E068CA6A22F40032024332
:10B84000CA62180706D541492069CA6A22F48022D3
:10B850000243CA623D4AD16A89030FD4D26A5703B0
:10B860000CD4DB0606D5394AE169536823F480031A
:10B870000B435360002002B0BDE8F081334A1168E9
:10B88000CE0025D4136801205D01A16904D5D36AD7
:10B8900003F0F0038B42EED12C4DEB6A23F0F00362
:10B8A0000B43EB62EB6A626923F470431343294A4A
:10B8B000EB621067FEF7DCFB064604E0FEF7D8FB00
:10B8C000801B64282DD82B689A00F7D52368C8E719
:10B8D000D26A616902F470428A42C2D0012002B089
:10B8E000BDE8F081DA691A4D42F08052DA61DB6915
:10B8F000012703F080530193019B2B68D8053FF586
:10B9000069AF2B6843F480732B60FEF7B1FB0646EA
:10B910002B68D9053FF55EAFFEF7AAFB801B6428B4
:10B92000F6D9032002B0BDE8F081FEF7A1FB41F299
:10B93000883680462B6A9B073FF564AFFEF798FB7D
:10B94000A0EB0800B042F5D9EBE700BF00100240C1
:10B950000070004000004242704700BF00287DD0C8
:10B9600038B590F820300446002B74D02268136854
:10B9700043F001031360FEF77BFB054604E0FEF78E
:10B9800077FB401B0A285DD823685A68D107F6D593
:10B990001A6822F002021A60FEF76AFB054604E00C
:10B9A000FEF766FB401B0A284CD823685A689207AA
:10B9B000F6D4227E0025012A1A684FF0010C0CBF34
:10B9C00042F0800222F080021A60627E2846012A3C
:10B9D0001A680CBF42F0400222F040021A60A27EB8
:10B9E000012A1A680CBF42F0200222F020021A60DD
:10B9F000E27E012A1A680CBF22F0100242F0100207
:10BA00001A60227F012A1A680CBF42F0080222F055
:10BA100008021A60627F012A1A680CBF42F0040211
:10BA200022F004021A60D4E902210A4321690A4380
:10BA300061690A43616801390A43DA61656284F821
:10BA400020C038BD0522636A012043F400336362DD
:10BA500084F8202038BDFFF77FFF87E7012070477B
:10BA600090F820200346013A012A4FF0010004D942
:10BA70005A6A42F480225A627047454BD3F800223A
:10BA80000243C3F80022D3F8002222F47C52C3F808
:10BA90000022D3F80022D1F824C042EA0C22C3F8D5
:10BAA00000224A6902F01F0C00FA0CF0D3F81CC205
:10BAB0002CEA000CC3F81CC2D1F81CC0BCF1000F6A
:10BAC00048D1D3F80CC2D2002CEA000CC3F80CC247
:10BAD000D1F80CC08B8802F1804243EA0C4302F596
:10BAE000C842D1F808C0C2F840320B8843EA0C4380
:10BAF000C2F844328B69264A33BBD2F8043223EAB7
:10BB00000003C2F804320B69214ABBB9D2F81432DF
:10BB100023EA0003C2F814320B6A012B05D11C4A38
:10BB2000D2F81C320343C2F81C32194A0020D2F862
:10BB3000003223F00103C2F800327047D2F8143209
:10BB40000343C2F81432E7E7D2F804320343C2F8E1
:10BB50000432D8E7BCF1010FCCD1D3F80CC2D2002B
:10BB60004CEA000CC3F80CC2D1F800C08B8802F17B
:10BB7000804243EA0C4302F5C842D1F808C0C2F83B
:10BB800040328B8943EA0C43C2F84432B2E700BF2B
:10BB90000064004038B590F820300446012B05D0F1
:10BBA000436A43F400234362012038BD0223026844
:10BBB00080F82030136823F001031360FEF758FA71
:10BBC000054604E0FEF754FA431B0A2B07D8236806
:10BBD0005B6813F00103F5D11846636238BD052296
:10BBE000636A43F40033636284F82020DCE700BF1B
:10BBF00010B590F820E0D0F800C00EF1FF3EBEF185
:10BC0000010F1C46DCF8083033D813F0E05F42D057
:10BC10004FF0010EC3F301600EFA00F32360D1E987
:10BC2000023E63BB0B684EEA435300F1180E4FEA25
:10BC30000E1E4CF80E300C690CEB0013C3F8844157
:10BC4000097D012905D1D3F8841141F48071C3F82D
:10BC5000841151680CEB001CCCF88C111268002088
:10BC6000CCF88821D3F8802142F00102C3F880216A
:10BC700010BD436A43F480234362012010BD4C6829
:10BC800043EA0E0300F1180E43EAC4034FEA0E1E06
:10BC90004CF80E30CFE7436A43F400134362ECE7FD
:10BCA00090F82030013B012B01D900207047036838
:10BCB00098689A689B681201C0F3806048BF0130A1
:10BCC000DB00F3D50130704790F820C00CF1FF3C49
:10BCD000BCF1010F78D830B5D0F800C051B9DCF80C
:10BCE0000CE01EF0030F0AD1436A43F400134362D1
:10BCF000012030BDDCF810E01EF0030FF4D00CEB97
:10BD0000011EDEF8B04104F004049460002C61D000
:10BD1000DEF8B041E4085460DEF8B0410CEB011CE1
:10BD200004F00204D460DEF8B44124074EBF0824B6
:10BD3000DEF8B44104F00F041461DEF8B441DEF81B
:10BD4000B4E1DCF8B8514FEA1E4EC4F3072CC2F838
:10BD500018C0C2F814E01D70026802EB0112D2F89C
:10BD6000B821120A5A70026802EB0112D2F8B82107
:10BD7000120C9A70026802EB0112D2F8B821120E6E
:10BD8000DA70026802EB0112D2F8BC211A71026863
:10BD900002EB0112D2F8BC21120A5A71026802EBBE
:10BDA0000112D2F8BC21120C9A71026802EB011246
:10BDB000D2F8BC21120EDA71036881B9DA6842F058
:10BDC0002002DA60002030BD436A43F480234362DE
:10BDD00001207047DEF8B041640D14609CE71A69D9
:10BDE00042F020021A61EDE790F820200346013A64
:10BDF000012A05D95A6A012042F480225A6270470A
:10BE00000268002053690B4353617047704700BFBD
:10BE1000704700BF704700BF704700BF704700BF4A
:10BE2000704700BF704700BF704700BF704700BF3A
:10BE3000704700BF704700BF03682DE9F0435C699D
:10BE40005F689A68D9681E690546B0469E6983B0E6
:10BE5000B14614F001061FD0D60700F182800026FB
:10BE6000D0050BD54FF480702B689860930500F1D6
:10BE7000BA80500540F1D88046F40056D0030BD567
:10BE80004FF480302B689860930300F19F8050033B
:10BE900040F1CF8046F40046230701D5C8065AD4A6
:10BEA000620701D50B0771D4A00703D52B68DB68A7
:10BEB000990772D1620602D518F0100F5CD1A30663
:10BEC00002D518F0080F73D1E00603D52B681B6963
:10BED000990757D1A20301D5FB0662D4E00301D52F
:10BEE00039076CD4220431D57B072A682CD509F098
:10BEF000010314F4807F43EA060318BF1E46A7051A
:10BF000017D519F0020F14D0600546F0020604F4AC
:10BF1000006372D519F0040F6DD193B904235360F7
:10BF20006B6A284633436B62FCF75CFF03B0BDE8E5
:10BF3000F083610504F4006302D519F0040F5AD1AF
:10BF400013B119F070035DD104235360002EE7D1C3
:10BF500003B0BDE8F08310222B6846F40076DA6067
:10BF60009EE701269E60960736D4530766D41607CF
:10BF700074D54FF4805673E710222B6846F4806620
:10BF80001A619CE72846FFF74FFFA3E708222B68BA
:10BF90002846DA60FFF746FF86E72846FDF7B0F847
:10BFA00088E710222B6828465A60FFF741FF95E783
:10BFB00008222B6828461A61FFF738FF84E7082219
:10BFC0002B6828465A60FFF735FF8BE7284600911B
:10BFD000FFF720FF00995FE7CDE90021FFF716FF8B
:10BFE000DDE900213BE72846CDE90021FFF710FFFE
:10BFF000DDE9002142E746F00406002B8ED019F05F
:10C0000070038BD0402B43D01BD8202B5BD0302B20
:10C0100050D0102B37D10421936946F0080623F045
:10C020007003936151607BE7130524D546F4804685
:10C0300024E7120319D546F480362DE74FF4006645
:10C040000EE7502B2DD0602B1DD10421936946F4AF
:10C05000807623F070039361516061E7CDE90021A0
:10C06000FFF7DAFEDDE90021F9E628460091FFF747
:10C07000D7FE009910E72846CDE90021FFF7CEFE54
:10C08000DDE90021FAE6936923F0700393615BE731
:10C090000421936946F0400623F0700393615160D8
:10C0A0003EE70421936946F0800623F07003936114
:10C0B000516035E70421936946F0200623F07003B0
:10C0C000936151602CE70421936946F0100623F038
:10C0D00070039361516023E730B370B504464CF6AA
:10C0E000CC45D4E9003145F25550A2681D60186076
:10C0F00059609A60FDF7BCFF23680546DA6890072F
:10C100000DD041F23C36FDF7B3FF401BB04223682F
:10C1100002D9DA68910709D1DA689207F3D14AF6B1
:10C12000AA2200201A6070BD01207047032070BD54
:10C1300003464AF6AA221B6800201A60704700BF17
:10C1400084B082B00DF10C0C8CE80E000021C368A5
:10C15000024643F04003C360019102E01369002BE3
:10C160000EDB019B01330193019BB3F1706FF5D995
:10C170000320936B43F48033936302B004B07047A1
:10C1800000230193136943F00103136103E0106975
:10C1900010F00100EDD0019B01330193019BB3F13D
:10C1A000706FF4D9E4E700BF022A03460AD04FF4C7
:10C1B0001051DA68002022F47052DA60DA680A431B
:10C1C000DA607047264A27488A18824232D9264ABE
:10C1D00026488A18824230D92548A1F57402A2F572
:10C1E000105282422CD92348A1F18372A2F5E74272
:10C1F000824228D3204A21488A18824226D9204ADE
:10C2000020488A18824224D31F4A20488A18824232
:10C21000CDD31F48A1F1B772A2F5585282421BD369
:10C220001C4A1D488A1882422CBF4FF4C0514FF45B
:10C23000E051BEE74FF47051BBE74FF46051B8E7EF
:10C240004FF45051B5E74FF44051B2E74FF430513D
:10C25000AFE74FF42051ACE74FF40051A9E700BF1E
:10C26000405327FFFF340C00401E1BFF3F420F00CE
:10C270007F4F120020D6130060B6E5FE5FE3160084
:10C2800000D3CEFE40771B00C05BB3FEC0912100FF
:10C2900020753800E05459FEE09C410003469A683E
:10C2A000002042F001029A60704700BF03469A687E
:10C2B000002022F001029A60704700BF38B5C368C1
:10C2C000012923F0C0430546C36017D0A1B9C36854
:10C2D0000C4643F08043C36001E0C82C0CD00A2018
:10C2E000FDF7CCFE6B690A34DB07F6D4A4F1C80075
:10C2F000B0FA80F0400938BD012038BDC368002481
:10C3000043F00053C36001E0C82CF5D00A20FDF7CC
:10C31000B5FE6B690A34DA07F6D5A4F1C800B0FAA5
:10C3200080F04009E7E700BF002382B0019302E0FC
:10C330000369002B09DB019B01330193019BB3F1DE
:10C34000706FF5D9032002B070470023890141F0D6
:10C3500020010193016103E0036913F0200307D07A
:10C36000019B01330193019BB3F1706FF4D9E9E7AD
:10C37000184602B0704700BF002382B0019302E06C
:10C380000369002B09DB019B01330193019BB3F18E
:10C39000706FF5D9032002B070470022102301927C
:10C3A000036103E0036913F0100307D0019B01331D
:10C3B0000193019BB3F1706FF4D9EBE7184602B01B
:10C3C000704700BF84B0F8B507AD85E80E000023C4
:10C3D00004461D469DF81C6004EB830201330F2BBD
:10C3E000C2F80451F8D1A36B102143F40023A363D6
:10C3F000C4F8005ED4F80038204643F00303C4F8C4
:10C400000038FFF791FF01462046FFF7B5FF41EAEC
:10C41000000C5FFA8CFCBCF1000C04F500673D6178
:10C4200018BF4FF0010C7D61FD61002E39D0D4F8AA
:10C43000002904F51063002A5ADB0022002119604C
:10C4400000254FF67F310132B2421D6199600BD059
:10C4500053F8200F0028F1DA4FF090400132B24239
:10C4600018601D619960F3D1D4F8002B04F5306396
:10C47000002A43DB00220021196000204FF67F359F
:10C480000132B24218619D600BD053F8201F002981
:10C49000F1DA4FF090410132B242196018619D60AB
:10C4A000F3D16FF0804200203B699DF8221023F405
:10C4B00080733B61A0616261A269134B42F010027C
:10C4C000A261A2691343A36119B1A36943F00803F0
:10C4D000A3619DF82630012B05D1A36943F0804369
:10C4E00043F00403A3616046BDE8F84004B0704720
:10C4F0004FF000610022C4F80019A1E74FF000617D
:10C500000022C4F8001BB8E700383C80D0F8083897
:10C5100013F0020F14BF02200F207047012310B543
:10C520000A7891F801E002F00F04BEF1010F00F566
:10C53000006C03FA04F300EB42101AD0DCF81C2064
:10C5400042EA0343CCF81C30D0F8003B1B040ED465
:10C550008B68D0F8004B0A79C3F30A03234343EAFC
:10C56000824343F0805343F40043C0F8003B002073
:10C5700010BDDCF81C402343CCF81C30D0F8003947
:10C580001C04F4D48B68D0F800490979C3F30A037A
:10C59000234343EA814343EA825343F0805343F405
:10C5A0000043C0F80039002010BD00BF00B50A7874
:10C5B000497800EB421301292CD0D3F8001B002945
:10C5C0001BDB4FF48031D0F83CE802F00F0201FA97
:10C5D00002F22EEA0201C0F83C18D0F81C18DFF86D
:10C5E00088C021EA0202C0F81C28D3F8002B0020E2
:10C5F00002EA0C0CC3F800CB00BDD3F8001B41F0DD
:10C600000061C3F8001BD3F8001B41F08041C3F860
:10C61000001BD6E7D3F8001900290BDAD3F800196C
:10C6200041F00061C3F80019D3F8001941F08041CE
:10C63000C3F800190121D0F83CE802F00F0201FA1A
:10C6400002F22EEA0201C0F83C18D0F81C1821EAC8
:10C650000202C0F81C28D3F8002904481040C3F88F
:10C660000009002000BD00BF0078F3EF007833EC34
:10C6700070B591F801C00D78BCF1010F0A690C7911
:10C6800000EB451355D0D3F810CB03F5306E6FF3A4
:10C69000120CC3F810CBD3F810CB6FF3DC4CC3F8FB
:10C6A00010CBD1F808C04DBB0AB1C1F810C0C1F819
:10C6B00020C0DEF81020CCF3120C4CEA0202CEF8B7
:10C6C0001020DEF8102042F40022CEF81020012CB9
:10C6D0000CD1D0F8082812F4807FD3F8002B0CBFBF
:10C6E00042F0005242F08052C3F8002BD3F8002BE6
:10C6F00042F00442C3F8002B002070BD002AD8D0BD
:10C700006244013AB2FBFCF295B20CFB05F2DFF891
:10C7100050C1DEF810600CEAC54535430A62CEF818
:10C720001050DEF81010C2F312020A43CEF81020A7
:10C73000CDE703F5106CDCF810E0AAB36FF3120E2E
:10C74000CCF810E0DCF810E06FF3DC4ECCF810E031
:10C75000D1F808E0002D60D196453CBFC1F810E04B
:10C760007246DCF810E04EF4002ECCF810E0DCF855
:10C770001060C2F3120E4EEA060E012CCCF810E047
:10C780005AD0D3F8001941F00441C3F80019002A27
:10C79000B2D00123D0F8342805F00F05AB40134385
:10C7A000C0F83438002070BD6FF3DC4ECCF810E0D8
:10C7B000DCF810E0012C4EF4002ECCF810E0DCF890
:10C7C00010E06FF3120ECCF810E0D3F800C94CF073
:10C7D000044CC3F800C98FD1D0F8084892B214F4C1
:10C7E000807FD3F8004902F103020CBF44F00054EB
:10C7F00044F080549208C3F800493FF47DAFCB6801
:10C8000000EB053505F5805503EB820153F8042B49
:10C8100099422A60FAD1002070BD0EEB0206013E5B
:10C82000B6FBFEFE0E4E06EACE4EDCF810604EEA77
:10C83000060ECCF810E09AE7DCF8104024F0C04473
:10C84000CCF81040DCF8104044F00054CCF8104014
:10C85000D3F8004944F00444C3F80049BCE700BFE2
:10C860000000F81F4FF0000C4A780B7882B0012AC4
:10C87000CDF804C04FEA431323D000F53060C1580F
:10C88000C218002902DB002002B0704750F803C034
:10C8900042F210714CF0006C40F803C050F803C035
:10C8A0004CF0804C40F803C002E01368002BEADA39
:10C8B000019B01330193019B8B42F6D9012002B009
:10C8C000704700F51060C158C2186145DBDA50F8B6
:10C8D00003C042F210714CF0006C40F803C050F8F5
:10C8E00003C04CF0804C40F803C002E01368002BFA
:10C8F000C9DA019B01330193019B8B42F6D9DDE735
:10C9000003339B0809D0013200EB023001EB8302B4
:10C9100051F8043B8A420360FAD10020704700BFFF
:10C9200070B55FEA920E054602F003061ED08C46F3
:10C93000002300F580541846226801339E454CF8C8
:10C94000042BF8D1043101EB800076B103460022BC
:10C9500005F580552C68811924FA02F003F8010BC3
:10C960008B4202F10802F7D1184670BD0846ECE789
:10C970004A780B78012A00EB43100CD0D0F8002B3A
:10C98000002A00DBD3B9D0F8003B43F40013C0F811
:10C99000003B00207047D0F80029002A06DB2BB1AD
:10C9A000D0F8003923F08043C0F80039D0F80039BE
:10C9B00043F40013C0F8003900207047D0F8003B62
:10C9C00023F08043C0F8003BDDE700BF0B794A78D5
:10C9D00091F800C0023B012A00EB4C10DBB211D0F1
:10C9E000D0F8002B012B22F40012C0F8002B01D943
:10C9F00000207047D0F8003B43F08053C0F8003B64
:10CA000000207047D0F80029012B22F40012C0F852
:10CA10000029EDD8D0F8003943F08053C0F8003930
:10CA2000002070474FF67F3210B500F510630446C2
:10CA300000F52E6019469A6020338342C1F808221F
:10CA4000F8D100222046C4F81028C4F81428C4F8ED
:10CA50001C28FFF791FC28B910212046FFF764FC41
:10CA600000B910BD032010BD0346D3F8002809010A
:10CA700022F4FE62C3F80028D3F8002801F4FE6116
:10CA800011430020C3F80018704700BF0346194641
:10CA9000D3F8002E002022F00302C3F8002ED3F8B2
:10CAA000043823F00203C1F80438704703461946DE
:10CAB000D3F8002E002022F00302C3F8002ED3F892
:10CAC000043843F00203C1F80438704742698069B2
:10CAD00010407047D0F81838D0F81C081840000CE7
:10CAE000704700BFD0F81838D0F81C08184080B242
:10CAF000704700BF034600EB4110D0F8080BD3F895
:10CB000014381840704700BFD0F81028D0F83438D7
:10CB100000EB411001F00F01CB40DB01D0F8080918
:10CB2000DBB2134318407047406900F001007047C2
:10CB300003461946D3F8002900206FF30A02C3F810
:10CB40000029D3F8043843F48073C1F804387047DF
:10CB50000C4A016C00F53063914203D9D0F8002BE8
:10CB6000002A0DDB00221A611A6942F400221A61C0
:10CB70001A6942F018021A611A6942F0C0421A6139
:10CB8000002070470A30544F88B108B5D0F8B4324D
:10CB900013B10023C0F8B43209B1C0F8B0120123B8
:10CBA000027080F89C32FDF78DF8002008BD02204D
:10CBB000704700BF012210B50446D0F8B43280F8A7
:10CBC0009C225B68017998472046FDF7B7F820461C
:10CBD000FDF7A4F8002010BD21B10023C0F8B41265
:10CBE0001846704702231846704700BF08B5FDF786
:10CBF0009DF8002008BD00BF10B50446D0F8B4323F
:10CC000001795B6898472046FDF798F8002010BD31
:10CC100008B5D0F8B43233B11B689847003818BF54
:10CC20000120400008BD022008BD00BF08B5D0F8B3
:10CC3000B4325B689847002008BD00BF10B50446B9
:10CC400082B000F52A70019000F0DCFB012394F81B
:10CC5000A812B4F8AE22C4F8943201F01F03012BDD
:10CC60000198C4F8982210D0022B07D0A3B901462E
:10CC7000204600F069F9002002B010BD01462046B0
:10CC800000F00EFB002002B010BD0146204600F06F
:10CC9000CFFA002002B010BD204601F08001FDF760
:10CCA00067F8002002B010BD00B5034683B061B93B
:10CCB000D0F894E2BEF1030F16D0BEF1050F0DD1EE
:10CCC000C0F89412FDF754F808E0D0F8B422926945
:10CCD0003AB190F89C32032B03D19047002003B067
:10CCE00000BD022003B000BDD0E958E18E450ED84A
:10CCF000D0F8B422126932B190F89C12032902D103
:10CD000001909047019B184600F006F9E6E7AEEB6C
:10CD1000010E714528BF71468C46C0F860E111468E
:10CD20001FFA8CF200F0F0F8D8E700BF10B5044607
:10CD300082B091B9D0F894C2BCF1020F1CD03CF083
:10CD4000040302D18021FDF713F894F8A032012BDF
:10CD50000CD1002384F8A03208E0D0F8B4325B692B
:10CD60003BB190F89C22032A03D19847002002B0DF
:10CD700010BD022002B010BDD0E908ECE64528D86D
:10CD8000C269B2FBFCF30CFB132393B9944510D892
:10CD9000D0F898C262450CD21A46019300F09CF874
:10CDA000019B20461A461946C4F89832FDF714F83C
:10CDB000CBE7D4F8B432DB681BB194F89C22032A89
:10CDC00018D080212046FCF7D3FF204600F0B0F8B1
:10CDD000BBE7AEEB0C0E0191C0F820E011461FFA44
:10CDE0008EF200F079F8019B20461A461946FCF7AE
:10CDF000F3FFAAE720469847E3E700BF002238B5D3
:10CE00001146402304460125FCF7A0FF40230022E1
:10CE10008021C4F864312046C4F85851FCF796FFCD
:10CE200000214023D4F8B822A561636284F89C52A3
:10CE3000C4F894126160C4F8A41222B1D4F8B432D8
:10CE400020465B689847002038BD00BF034600209D
:10CE5000197470470346042193F89C22002083F83C
:10CE60009C1283F89D22704790F89C32042B04BFDB
:10CE700090F89D3280F89C320020704790F89C22F8
:10CE8000032A01D00020704708B5D0F8B432DB691E
:10CE900003B19847002008BD00207047002070476C
:10CEA00000207047012208B5D0F8B43280F89C22E7
:10CEB0005B6801799847002008BD00BF08B54FF0B6
:10CEC000020C1346C0F894C20A46C36100210362F3
:10CED000FCF77AFF002008BD08B513460A4600217A
:10CEE000FCF772FF002008BD08B54FF0030C134695
:10CEF000C0F894C20A46C0F85C310021C0F8603125
:10CF0000FCF76AFF002008BD08B513460A46002159
:10CF1000FCF762FF002008BD08B504210023C0F81B
:10CF200094121A461946FCF74FFF002008BD00BFB7
:10CF300008B505210023C0F894121A461946FCF7DB
:10CF40004BFF002008BD00BF30B50B780D4603F045
:10CF50006003202B044683B028D0402B26D053B149
:10CF600080212046FCF704FF00212046FCF700FF4B
:10CF7000002003B030BD4B78092BF1D801A252F844
:10CF800023F000BFF1CF000819D0000861CF0008DE
:10CF900037D0000861CF00083FD0000879D00008E2
:10CFA00061CF0008ADD00008BFCF0008D4F8B4327C
:10CFB000294620469B689847002003B030BD8B78F7
:10CFC0009A4D012B2B70CBD890F89C22022A00F0AE
:10CFD0000C81032A00F0F9808021FCF7C9FE0021B2
:10CFE0002046FCF7C5FE20462978FFF71FFEBFE765
:10CFF00090F89C32013B022BB2D8CA88022AAFD1EA
:10D00000D0F8A4320146002B0CBF0123032341F8C2
:10D010000C3FFFF753FFABE790F89C32013B022B2C
:10D020009ED84B88012BA3D100232046C4F8A432FC
:10D03000FFF772FF9CE74B88012B99D1F5E78B88AE
:10D04000002B8DD1CB88002B8AD14B887F2B87D8A2
:10D0500090F89C22032A83D0DDB2294680F89E52A4
:10D06000FCF7AAFE2046FFF757FF002D00F0D980FD
:10D07000022384F89C327BE700216A88ADF8061011
:10D08000130A013B062B3FF66BAF01A151F823F0C9
:10D090003FD1000827D1000815D1000861CF000852
:10D0A00061CF0008FFD00008D1D00008CA88012A4B
:10D0B0007FF456AF90F89C32022B7FD8002B3FF4C0
:10D0C0004FAF0146002341F8083FFFF7F7FE4FE757
:10D0D000037C002B7FF444AFD0F8B4320DF106008E
:10D0E0001B6B984707234370BDF80630002B60D0B8
:10D0F000EA88002A54D12046FFF70EFF38E7037C68
:10D10000002B7FF42DAFD0F8B4320DF106005B6B2D
:10D110009847E9E7D2B2052A3FF622AFDFE802F0EE
:10D120003A342E282217027CD0F8B432002A69D172
:10D130009B6A0DF10600984702234370D4E7D0F8AC
:10D14000B0320DF106011B68007C9847CCE7D0F89F
:10D15000B0329B69002B3FF403AF207C0DF1060138
:10D160009847C1E7D0F8B0325B69002BF5D1F7E6FC
:10D17000D0F8B0321B69002BEFD1F1E6D0F8B03215
:10D18000DB68002BE9D1EBE6D0F8B0329B68002BCE
:10D19000E3D1E5E6D0F8B0325B68002BDDD1DFE605
:10D1A0009A4228BF1A4601462046ADF80620FFF7EE
:10D1B00085FEEB88002B7FF4DBAE9CE7032B7FF42E
:10D1C000CFAE011DFFF77AFED2E69AB20BB34168EB
:10D1D000914290D0C9B2FFF729FD297820466160BD
:10D1E000FFF716FD022886D1BAE6002B83D0032272
:10D1F0000121436080F89C22FFF70AFD02287FF49A
:10D200007AAFADE6DB6A0DF1060098470223437062
:10D210006AE702251946426080F89C52FFF706FD36
:10D2200069E7012384F89C32A2E600BF78B90020A8
:10D2300010B50B7804465A0682B00DD503F0600392
:10D24000402B09D08021FCF793FD00212046FCF7FC
:10D250008FFD002002B010BD94F89C32013B022BE0
:10D2600012D80B79012B0FD8D4F8B43220469B6822
:10D27000019198470199CB88002BEAD10028E8D189
:10D280002046FFF749FEE4E780212046FCF770FDC9
:10D2900000212046FCF76CFD002002B010BD00BF4D
:10D2A00010B50B78044603F06003202B82B044D005
:10D2B000402B42D053B180212046FCF759FD00217C
:10D2C0002046FCF755FD002002B010BD4B788A883F
:10D2D000012B5FFA82FC49D0032B36D0002BEAD118
:10D2E00090F89C32022B5BD0032BE4D102F00F03A9
:10D2F00003EB8303110600EB830365D4D3F85831A5
:10D30000002BD8D002F07F0202EB820200EB8203F6
:10D3100003F5AA73BCF1000F64D061462046019367
:10D32000FCF736FD019B002869D001221A60022219
:10D3300019462046FFF7C2FDC5E7D4F8B4322046AF
:10D340009B689847002002B010BD90F89C32022BD9
:10D350001BD0032BAFD14B889BB91CF07F0F10D093
:10D36000CB8873B96146FCF703FD0AE090F89C3264
:10D37000022B0AD0032B9ED14B88002BA3D153063E
:10D3800039D12046FFF7C8FD9DE71CF07F0F92D0F2
:10D390006146FCF7EDFC80212046FCF7E9FC92E7B2
:10D3A0001CF07F0F87D1100602F07F031DD403EB22
:10D3B000830304EB830101F5AA71002302222046B6
:10D3C0000B60FFF77BFD7EE79B69002B3FF473AF9B
:10D3D00002F07F03013303EB8303BCF1800F00EB0A
:10D3E00083039AD100221A60A1E7013303EB830380
:10D3F00004EB8301E1E76146FCF7C2FCC1E718607A
:10D4000095E700BF0B7803704B7843704B884380DF
:10D410008B888380CB88C380704700BF10B50446DB
:10D420008021FCF7A5FC2046BDE810400021FCF758
:10D430009FBC00BF50B300B50346007885B030B341
:10D44000581CCDE902120193FAF7E6FEDDE901313D
:10D450000130C0B2013040008446039A108003229C
:10D4600081F800C04A70187870B19C464FF0000EE9
:10D4700002235A1CD2B2C85401F802E01CF8010F72
:10D480000233DBB20028F4D105B000BD70474FF085
:10D49000020C6046E2E700BFD0F8BC329BB1D0F886
:10D4A000B81291F80002FF280DD000B59B6883B038
:10D4B00091F8012201919847FF230020019981F8FA
:10D4C000003203B000BD0020704700BF0346432276
:10D4D00001481A80704700BFBC0000200346432269
:10D4E00001481A80704700BF000100200346432214
:10D4F00001481A80704700BF7800002003460A22C6
:10D5000001481A80704700BF7C01002038B50446EE
:10D51000D0F8B852FCF768FCD4F8B832C5F80C0261
:10D520004BB1D4F8BC32D5F80402DB6805F50371C1
:10D530009847002038BD022038BD00BF10B5D0F894
:10D54000B842F4B101EB810C00EB8C0CDCF81C3020
:10D5500023B90023C4F81432002010BDD0F8C0E273
:10D5600001EBC1020EEB8202D269B3FBF2FE02FBB9
:10D570001E33002BEDD11A46CCF81C30FCF724FCEE
:10D58000EAE7022010BD00BF002230B591F800C0CC
:10D5900085B08DF80D20ADF80E201CF060020B4612
:10D5A0000446D0F8B8521ED0202A06D0204619468C
:10D5B000FFF734FF022005B030BDCA8891F801E0C2
:10D5C00012B31CF0800F36D0D4F8BC127046D1F8DC
:10D5D00008C029460193E047019B29462046DA8886
:10D5E000FFF76CFC15E04A780A2A1AD00B2A13D0F0
:10D5F000002ADBD190F89C22032AD7D102220DF118
:10D600000E01FFF75BFC04E0D0F8BC3270469B686B
:10D610009847002005B030BD90F89C22032AF8D02E
:10D62000C4E790F89C22032AC0D101220DF10D011C
:10D63000FFF744FCEDE7294685F800E285F8012272
:10D64000FFF752FCE5E700BF38B50446002581210D
:10D65000FCF786FB01212046E562FCF781FB822175
:10D660002046C4F86C51FCF77BFBD4F8B832256433
:10D670004BB1D4F8BC325B689847D4F8B802FCF7D9
:10D6800089FAC4F8B852002038BD00BF30B5037C19
:10D69000044683B0ABBB4FF4007302228121FCF738
:10D6A00055FB01214FF4007302222046E162FCF792
:10D6B0004DFB01250823032282212046C4F86C512A
:10D6C000FCF744FB4FF407702564FCF753FAC4F8E9
:10D6D000B80250B3D4F8BC220190126890470021E0
:10D6E000019BC3F81412C3F81812D3F80422237C48
:10D6F000A3B1402329462046FCF76EFB002003B06F
:10D7000030BD402302228121FCF720FB0121402370
:10D7100002222046E162FCF719FBCAE74FF40073CE
:10D7200029462046FCF758FBE8E7284603B030BD01
:10D7300021B10023C0F8BC121846704702231846D6
:10D74000704700BF0346D3F8B8320020C3F8081270
:10D75000C3F81022704700BF0346D3F8B832002048
:10D76000C3F80412704700BFD0F8B8C2BCF1000F74
:10D7700015D070B5DCF814420CB1012070BD012544
:10D78000DCF810E2DCF80822CCF8145281211FFAF0
:10D790008EF3C0F830E0FCF717FB204670BD022086
:10D7A000704700BFD0F8B8228AB108B5037CD2F820
:10D7B00004222BB140230121FCF70EFB002008BD01
:10D7C0004FF400730121FCF707FB002008BD022085
:10D7D000704700BFFCF702FC0B480C490C4A0023C1
:10D7E00002E0D458C4500433C4188C42F9D3094A17
:10D7F000094C002301E013600432A242FBD300F085
:10D80000B3F9FAF757FD70470000002088010020A7
:10D8100098DE0008880100207CB90020FEE70000A7
:10D820002DE9F047074616460846BC460D46089ABD
:10D83000002B4FD18E42B64669D9B6FA86F44CB168
:10D84000C4F12003A54027FA03F306FA04FE1D43A2
:10D8500007FA04FC4FEA1E47B5FBF7F107FB115529
:10D860001FFA8EF04FEA1C4343EA054301FB00F523
:10D870009D420AD91EEB030301F1FF3680F0F680CA
:10D880009D4240F2F380023973445B1BB3FBF7F512
:10D8900007FB153305FB00F01FFA8CFC4CEA034C28
:10D8A00060450AD91EEB0C0C05F1FF3380F0E080D7
:10D8B000604540F2DD80F444023DACEB000C45EAEB
:10D8C0000140002122B12CFA04F30024C2E9003403
:10D8D000BDE8F0878B4206D90AB1C2E90071002188
:10D8E0000846BDE8F087B3FA83F100294CD18342A2
:10D8F00002D3BE4200F20F81B7EB060C60EB0303CC
:10D9000001201D46002AE3D0C2E900C5E0E7002E51
:10D9100000F095801C46B6FA86F3002B40F0AA80F2
:10D920008D1B0121370CB6B2B5FBF7F007FB105584
:10D930004FEA1C4343EA054306FB00F59D4208D924
:10D940001EEB030300F1FF3802D29D4200F2E88093
:10D9500040465B1BB3FBF7F507FB15331FFA8CFC46
:10D960004CEA034C06FB05F3634508D91EEB0C0C8F
:10D9700005F1FF3602D2634500F2CF803546ACEBAD
:10D98000030C45EA00409DE7C1F120058B4026FAD3
:10D9900005FC4CEA030C20FA05F44FEA1C4E06FA8B
:10D9A00001F9B4FBFEF6884027FA05F303430EFBAA
:10D9B00016401FFA8CF807FA01FA1F0C47EA0044D8
:10D9C00006FB08F0A0420AD91CEB040406F1FF375D
:10D9D00080F09F80A04240F29C80023E6444241A62
:10D9E000B4FBFEF00EFB104400FB08FE9BB243EAC2
:10D9F00004439E450AD91CEB030300F1FF3480F079
:10DA000086809E4540F283800238634440EA0640A7
:10DA1000A0FB0974A3EB0E03A342BE46264665D3C2
:10DA200062D052B1BAEB0E0463EB060303FA05F5BC
:10DA3000CC402543CB40C2E90053002148E77B0896
:10DA400043EAC1734C08190C41EA04419BB2B4FB90
:10DA5000F6F04FEAC77C43EA01433546B1FBF6F1E5
:10DA600037461F245D1B41EA00415DE731460CE764
:10DA70001D4622E71C4606FA03FEC3F1200321FAE5
:10DA800003F5A04027FA03F307FA04FC4FEA1E4708
:10DA90000343B5FBF7F007FB10551FFA8EF6190C80
:10DAA00041EA054100FB06F58D423ED91EEB01011E
:10DAB00001D28D4221D8491BB1FBF7F5A84605FBE1
:10DAC00006F5013807FB18119BB243EA0143AB424C
