:04000005080081E48A
:020000040800F2
:108000000000012045ED0008A9B50008ADB5000845
:10801000B1B50008B5B50008B9B50008000000000A
:10802000000000000000000000000000BDB50008D6
:10803000C1B5000800000000C5B50008C9B50008BA
:108040008DED00088DED00088DED00088DED000828
:108050008DED00088DED00088DED00088DED000818
:108060008DED00088DED00088DED00088DED000808
:108070008DED00088DED00088DED00088DED0008F8
:108080008DED00088DED00088DED0008CDB50008E0
:10809000D9B50008E5B50008F1B500088DED000878
:1080A0008DED00088DED00088DED00088DED0008C8
:1080B0008DED00088DED00088DED00088DED0008B8
:1080C0008DED00088DED00088DED00088DED0008A8
:1080D0008DED00088DED00088DED00088DED000898
:1080E0008DED00088DED00088DED0008000000000A
:1080F0000000000000000000000000000000000080
:1081000000000000000000008DED00088DED00086B
:108110008DED00088DED00088DED00088DED000857
:108120008DED00088DED00088DED00088DED000847
:108130008DED00080000000000000000FDB5000803
:1081400009B6000815B6000821B600082DB60008CB
:10815000000000000000000000000000000000001F
:10816000000000000000000000000000000000000F
:1081700000000000000000000000000000000000FF
:1081800000000000000000000000000000000000EF
:1081900000000000000000000000000000000000DF
:1081A00000000000000000000000000000000000CF
:1081B00000000000000000000000000000000000BF
:1081C00000000000000000000000000000000000AF
:1081D000000000000000000000000000000000009F
:1081E0005FF8E0F153B94AB9002908BF00281CBF65
:1081F0004FF0FF314FF0FF3000F00CB8ADF1080C3C
:108200006DE904CE06F0C4FDDDF804E0DDE90223EB
:1082100004B07047704700BF034613F8012B002AD3
:10822000FBD1181A013870470348044B834202D02F
:10823000034B03B1184770478C0100208C010020CC
:10824000000000000548064B1B1AD90F01EBA301E3
:10825000491002D0034B03B1184770478C0100202E
:108260008C0100200000000010B5064C237843B9B3
:10827000FFF7DAFF044B13B10448AFF3008001238A
:10828000237010BD90010020000000003CF10008A8
:1082900008B5054B1BB105490548AFF30080BDE8A3
:1082A0000840FFF7CFBF00BF00000000940100208E
:1082B0003CF1000870B5884C9EB003F0E9F9E36921
:1082C000864D43F08053E361E369854803F08053B2
:1082D0000093009BE369342243F00063E361E369A8
:1082E000002103F000630193019BAB68012503703B
:1082F00011A806F0E9FE202200210DEB0200CDE9D5
:108300000311CDE90511079106F0DEFE4FF480332D
:108310004FF4E01212931A924FF48033022210A805
:10832000CDE91823109504F0F1F908B172B6FEE713
:1083300010230F9008A8089304F032FD034608B1FB
:1083400072B6FEE70F220593079302231946CDE983
:1083500003234FF4806303A8069304F07BFC08B169
:1083600072B6FEE7A3695F4A43F00103A361A36904
:10837000022603F001030893089B536810A923F019
:10838000E06343F000735360A3694FF4005243F07D
:108390000403A361A36903F004030293029BA3698E
:1083A00043F01003A361A369044603F01003039391
:1083B000039B012312904C48CDE91023139603F040
:1083C00035FB2A464FF40051474803F043FC4FF475
:1083D00000720023454810A9CDE91023129403F040
:1083E00025FB4FF48063404810A91093CDE9115448
:1083F000139603F01BFB264622464FF400644FF40D
:108400008061394803F026FC374810A9109403F026
:108410000DFB21464FF480543246334803F01AFCDA
:10842000314810A9109403F001FB21464FF4004499
:1084300032462D4803F00EFC2C4810A9109403F08E
:10844000F5FA21463246294803F004FC2849294A16
:1084500040F2E1430A6003220846C1E9012305F026
:1084600033F90446002834D102F096FB01F0ACFE4B
:10847000204602F0DDFC204B1860284602F0D8FCB4
:108480001D4B01465860186801F046FA032120464A
:1084900000F034FF22461949194805F04BFE1949EE
:1084A000174805F05DFE1849154806F0F9FB144819
:1084B00005F060FE0E4805F033F94FF400710B48EB
:1084C00003F0C2FB01F0F0F802F086FA00F020FFA2
:1084D000F0E772B6FEE700BF00100240006C0040FB
:1084E000AC010020000001400010014000080140E4
:1084F000B0010020003000400000002054000020A7
:10850000BC0100204801002008000020014B187821
:10851000704700BFAC010020014805F001B900BF61
:10852000B0010020BFF34F8F0549064BCA6802F423
:10853000E0621343CB60BFF34F8F00BFFDE700BF86
:1085400000ED00E00400FA05002000B5114B83B0F7
:10855000DA69DFF844C042F08052DA61DA690F4923
:1085600002F080520092009ADA6942F00062DA6109
:10857000DB690B4A03F000630193019BDCF80030D8
:1085800043F48073CCF80030C2F8F00F4860FFF776
:10859000C9FF00BF0010024000700040006C0040A6
:1085A0000040002070B51030C2B01C468DF80400A9
:1085B0008DF805108DF8063033B12AB111460DF152
:1085C00007001A4606F0ACFD03F080F803340646B7
:1085D00007E0FFF7A1FF03F079F8801BB0F5617F9A
:1085E00005D2214601A802F063FD0028F1D142B076
:1085F00070BD00BF2DE9F04FADF51F7D02F016FDF7
:1086000030B9B64A106000200DF51F7DBDE8F08F2F
:1086100002900DF11201002002F02EFD9DF8124093
:10862000029B44BB162B1F4628BF16279846AC4E0C
:108630005DADBFB22946A0B202F01EFD32782B78A4
:108640009A4215D10134A74206F10106F2D1B8F1E0
:10865000150F00F2FA8503F039F8A04A1368002BD1
:10866000D0D0C01AB0F5FA7FCDD3002313609FE0BD
:1086700043469DF81240A02C00F0EC8079D9BE2C26
:1086800000F29B80BA2C40F29380BC2C00F0F0806A
:10869000BE2C00F0C483042B40F2B183B4F1BB08BC
:1086A00005A94FF00100029318BF4FF0010802F036
:1086B000E3FC06A9022002F0DFFC032006A99DF8D6
:1086C000187002F0D9FC042005264FF0000A9DF82E
:1086D0001820029B0DF1140B47EA0229039007A909
:1086E000029302F0C9FC9DF81C20082A60D8029B66
:1086F000B8F1000F00D11644741C9C4200F27F8335
:108700001CAB1D46002702932946B8B2013702F080
:10871000B3FCA74205F10105F6D100221CA9029B7A
:10872000881913F8011B834282EA0102F9D11CABBC
:108730009B5D93423CD100239BF800109DF81C20C8
:108740008DF874118DF87B218DF875A1CDF8779196
:108750008DF876818DF87C31B8F1000F00F06283DE
:10876000CDF87D31CDF881315DA801F071FAA0B26C
:108770004AE7902C61D0922C1AD102F0CFFA9323C1
:1087800005468DF87431827B00F10F010DF5BB7049
:108790008DF8752106F0C4FCFF23524AA97B5DAC1D
:1087A000127820460C44A270E370043102F080FC81
:1087B00001200DF51F7DBDE8F08F4034E4B20E2C92
:1087C000F6D8012B79D00DF1130739460120029319
:1087D00002F052FC3A78029B941CA3426DD362B122
:1087E00000251CAEA81C314680B202F045FC3B7847
:1087F0000135AB4206F10106F4D83B4D2B6801333D
:108800002B6002F063FF9DF812200646A2F1C00320
:1088100038780E2B00F24885DFE813F03C0248015F
:108820002701EA00C90086019600C0021002610219
:108830000601BE01A801E6016A00912329492B4ADD
:108840000C7812785DA8032144708270037002F0E6
:108850002FFCADE7002001F0EBF90346A1241A0A32
:108860005DA8032104704270837002F021FC9FE731
:108870004FF00008062B40F2C28200252C46012052
:1088800005A9029302F0F8FB029F0DF1140BA81C3E
:1088900080B206A902F0F0FB9DF81830EA0001351D
:1088A0009340042D44EA0304F1D10620A1463B463F
:1088B00007264FF0010A039011E702F007FF074B6C
:1088C0001A68002A00F0A882801AB0F5FA7FFFF437
:1088D0009AAE002201201A6096E600BF80040020B4
:1088E000D4F30008910400208C04002090040020A0
:1088F000022840F2D6829DF87050013DEDB2012D64
:1089000000F2CF82BDF871702846394601F04AF96D
:10891000002840F0708440F2DE238DF87601ADF837
:10892000743102F0D3FE074607E0FFF7F5FD02F0D1
:10893000CDFEC31BB3F5617F32D203215DA802F0E7
:10894000B7FB0028F1D12BE0002800F0C5829DF88C
:108950007070013FFFB2012F00F2BE82002507A90F
:108960000D60384600F046FF8046384600F05CFF58
:10897000AC460246079F68F3070C62F30F2C67F3BF
:10898000174C29463D0A5DAA65F31F6C3D0C3F0E4E
:108990000623C620C2F800C015715771FFF702FE0A
:1089A00002F094FEB84A831B1360A0B22CE6522852
:1089B00004D99DF87050452D40F20D834FF4EA72B2
:1089C0000023ADF874218DF8763102F07FFE074662
:1089D00007E0FFF7A1FD02F079FEC31BB3F5617F4D
:1089E000DED203215DA802F063FB0028F1D1D7E7B6
:1089F000002840F08C8240F2D3138DF87601ADF858
:108A0000743102F063FE074607E0FFF785FD02F0D0
:108A10005DFEC31BB3F5617FC2D203215DA802F0E6
:108A200047FB0028F1D1BBE7522804D99DF87050CC
:108A3000452D40F209834FF4ED720023ADF8742107
:108A40008DF8763102F042FE074607E0FFF764FD3D
:108A500002F03CFEC31BB3F5617FA1D203215DA8E8
:108A600002F026FB0028F1D19AE7042804D1874BB5
:108A70001C9A9A4200F0E0834FF4E9720023ADF8AB
:108A800074218DF8763102F021FE074607E0FFF7EA
:108A900043FD02F01BFEC31BB3F5617F80D20321AF
:108AA0005DA802F005FB0028F1D179E7012840F22A
:108AB0001E839DF870101CAF092900F24A824B1CDE
:108AC000834200F2468200F03483FB5C0A2B00F202
:108AD0004B838A1C9D1805F1040C6045C0F044834B
:108AE000A0EB0C00022804D117F80C00A52800F018
:108AF000568340F2D1120023ADF874218DF87631FF
:108B000002F0E4FD074608E0FFF706FD02F0DEFD97
:108B1000C31BB3F5617FBFF443AF03215DA802F02F
:108B2000C7FA0028F0D13BE7012804D99DF870006E
:108B3000452840F2B88240F2D5120023ADF87421E6
:108B40008DF8763102F0C2FD074608E0FFF7E4FC3D
:108B500002F0BCFDC31BB3F5617FBFF421AF03215D
:108B60005DA802F0A5FA0028F0D119E702F0F0FAAA
:108B7000074602F0F3FA444B5DAA1B68002160939C
:108B80002B685F93424B1B686193C2E9007014230A
:108B9000CC20FFF707FD03E7012800F0F58102284C
:108BA00007D19DF8700020B99DF87130A52B00F019
:108BB000F08140F2DB120023ADF874218DF876319C
:108BC00002F084FD074608E0FFF7A6FC02F07EFDF8
:108BD000C31BB3F5617FBFF4E3AE03215DA802F0D0
:108BE00067FA0028F0D1DBE6022840F224819DF8E4
:108BF00070000138C0B2012800F21D819DF872207A
:108C00009DF8711000F050FEDD220023ADF87421B4
:108C10008DF8763102F05AFD074608E0FFF77CFC3C
:108C200002F054FDC31BB3F5617FBFF4B9AE03215D
:108C30005DA802F03DFA0028F0D1B1E6002707AAAE
:108C4000176005A806A90760069701F031FFDDE966
:108C50000513CDE95D1301F03FFF8DF87C0102F0B3
:108C600061F88DF87D0101F01DFC4622079B8DF80F
:108C70007E0160938DF87F2110233946C8205DAABC
:108C8000FFF790FC8CE600BF8804002046434C525E
:108C90008404002002F042F805460279411D0DF2DD
:108CA00075108DF8742106F03BFA2B795DAFAA7B25
:108CB000981C3B445A7005F10F010290381806F0D9
:108CC0002FFAAB7B029A00211344D5F81920C0205B
:108CD000FA5004333A46DBB2FFF764FC60E602F078
:108CE0001DF8002107463E220DF5BB7006F0ECF999
:108CF0000322C64B8DF875211B780A228DF874313A
:108D000001238DF877317B7F8DF87831BB7F8DF82B
:108D10007A218DF8793102F005F84FF48071BC4A60
:108D20008DF87B01ADF87611BA4B12689A4200F0CB
:108D3000B481B94ADFF8E4C261AB07AF07CAB846ED
:108D400083E80700BCE80F000FC79CE8030047F862
:108D5000040B39700746B8E80F000DF5C87EAEE881
:108D60000F00AF4BCEF8007093E80300CDE9690126
:108D7000FFF7CCFB8DF8AC0102F00EFA8DF8AD01D7
:108D800002F010FA8DF8AE0102F012FA40236C9056
:108D90000021C9205DAAFFF705FC01E6002865D087
:108DA0009DF870001CAF0138C0B201285ED807A939
:108DB00000F03AFCDDE908325F920A9A60920B9A61
:108DC00061920C9A6292079ACDE95D2300F03AFF16
:108DD0008DF88C0138780138C0B200F029FF0246C6
:108DE0000D9D8DF88D21120A8DF88E211F230021F3
:108DF000C7205DAACDF88F51FFF7D4FBD0E502F074
:108E000065FC884B1A683AB1801AB0F5FA7FFFF416
:108E1000FAAB00221A60CBE41860FFF7F4BB4FF006
:108E2000010827E503991CAB013119440DF27D10AF
:108E300006F076F998E440F2DD120023ADF87421D3
:108E40008DF8763102F042FC074608E0FFF764FB3C
:108E500002F03CFCC31BB3F5617FBFF4A1AD03215D
:108E60005DA802F025F90028F0D199E540F2D7126B
:108E70000023ADF874218DF8763102F027FC074607
:108E800008E0FFF749FB02F021FCC31BB3F5617F4B
:108E9000BFF486AD03215DA802F00AF90028F0D1E5
:108EA0007EE54FF4EF720023ADF874218DF8763132
:108EB00002F00CFC074608E0FFF72EFB02F006FC70
:108EC000C31BB3F5617FBFF46BAD03215DA802F056
:108ED000EFF80028F0D163E54FF4EB720023ADF812
:108EE00074218DF8763102F0F1FB074608E0FFF7B8
:108EF00013FB02F0EBFBC31BB3F5617FBFF450AD76
:108F000003215DA802F0D4F80028F0D148E59DF8CF
:108F1000700007A901F0B0FA002840F0038140F288
:108F2000D3138DF87601ADF8743102F0CFFB07460C
:108F300008E0FFF7F1FA02F0C9FBC31BB3F5617F4C
:108F4000BFF42EAD03215DA802F0B2F80028F0D1E5
:108F500026E540F2D1120023ADF874218DF8763168
:108F600002F0B4FB074608E0FFF7D6FA02F0AEFBCA
:108F7000C31BB3F5617FBFF413AD03215DA802F0FD
:108F800097F80028F0D10BE59DF8700000283FF419
:108F900010AE01F00DFBDB238DF87431B0FA80F3D5
:108FA00000225B095B008DF876218DF8753102F0A7
:108FB0008DFB074608E0FFF7AFFA02F087FBC31B03
:108FC000B3F5617FBFF4ECAC03215DA802F070F84B
:108FD0000028F0D1E4E452220DF1710107A806F057
:108FE0009FF807A9284601F0A7FBD4238DF8743118
:108FF000B0FA80F300225B095B008DF876218DF8D2
:10900000753102F063FB074617E000BF90040020B3
:1090100000D0030831505041E8F7FF1F60F300080B
:1090200054F3000880040020FFF776FA02F04EFBAC
:10903000C31BB3F5617FBFF4B3AC03215DA802F09D
:1090400037F80028F0D1ABE452220DF1710107A8E6
:1090500006F066F807A9284601F05AFADA238DF8D7
:109060007431B0FA80F300225B098DF876218DF817
:10907000753102F02BFB074608E0FFF74DFA02F0CE
:1090800025FBC31BB3F5617FBFF48AAC03215DA848
:1090900002F00EF80028F0D182E4924A92E8030030
:1090A000CDE95F0145E69DF8711001F059FBD5232C
:1090B0008DF87431B0FA80F300225B095B008DF803
:1090C00076218DF8753102F001FB074608E0FFF7C5
:1090D00023FA02F0FBFAC31BB3F5617FBFF460AC67
:1090E00003215DA801F0E4FF0028F0D158E440F22C
:1090F000D1120023ADF874218DF8763102F0E6FA32
:10910000074608E0FFF708FA02F0E0FAC31BB3F5E0
:10911000617FBFF445AC03215DA801F0C9FF0028C1
:10912000F0D13DE452230021C32007AAFFF73AFA09
:1091300036E440F2D1120023ADF874218DF8763177
:1091400002F0C4FA074608E0FFF7E6F902F0BEFABB
:10915000C31BB3F5617FBFF423AC03215DA801F00D
:10916000A7FF0028F0D11BE440F2D1120023ADF894
:1091700074218DF8763102F0A9FA074608E0FFF76E
:10918000CBF902F0A3FAC31BB3F5617FBFF408ACBF
:1091900003215DA801F08CFF0028F0D100E40DF15F
:1091A0007500405D5A287FF4A4AC0DF1730010F8EF
:1091B00005C00DF17200405D3A4440EA0C20019078
:1091C0000DF171007F5D455D47EA0525009501F0D1
:1091D000AFFD0546B5FA85F100234909C1201A46BD
:1091E0004900FFF7DFF9002D3FF4DAABC82001F0AA
:1091F000E5FFFFF7A9F93946284601F039FE0028B6
:1092000045D140F2DE338DF87601ADF8743102F0CD
:109210005DFA074608E0FFF77FF902F057FAC31B33
:10922000B3F5617FBFF4BCAB03215DA801F040FF43
:109230000028F0D1FFF7B4BB01F03AF90023C220B7
:109240001A461946FFF7AEF9D0E74BF6EF64264B06
:109250002649DA69264842F08052DA61DA6902F07A
:1092600080521C921C9ADA6942F00062DA61DB6972
:10927000204A03F000632B602B680B6843F4807373
:109280000B601D4B4460C2F8F03FFFF74BF92846D6
:1092900000F0CEFC05465DAA02230021CE201580F9
:1092A000FFF780F9FFF77CBB0321002310328DF814
:1092B00074218DF875118DF8763102F007FA0746A2
:1092C00003215DA801F0F4FE00283FF469ABFFF72D
:1092D00023F902F0FBF9C31BB3F5617FF0D3FFF76D
:1092E0005FBB00BF08D003080010024000700040C0
:1092F000006C004000400020EFBEADDE024A034B90
:1093000010701970704700BF910400209004002075
:109310002DE9F04320264FF00008624A624F13689F
:109320008BB001331360FFF765F9054658B100248F
:10933000C7F80080013401F085FEAC42FAD1013E4D
:10934000B6B2002EEFD14FF0000840266F4601F074
:109350006DFE00285DD1404605A900F005F9002802
:1093600051D005A801F02AFA9DF816109DF8153085
:10937000002951D0002B59D04FF0AD0C9DF81C4066
:10938000003CDDF8173018BF01241D469DF814205D
:10939000180A013242EAC4129DF81B408DF80120E0
:1093A0001A0C1B0E8DF800C08DF804208DF80530C6
:1093B0008DF803008DF802508DF8064091BB07250B
:1093C0000821E9465CB1B9460DF11D017819224624
:1093D00005F0A6FE611EC9B22944023125440022CF
:1093E0004846134610F8014B01339D4282EA0402BD
:1093F000F8D8013E48466D4489B2B6B22A7001F0F1
:1094000057FE002EA3D108F10103022B4FF00108F3
:109410009BD10BB0BDE8F08333B34FF0AB0C9DF89C
:109420001C40ADE708210725B946D8E79DF81C2068
:10943000AC24003A18BF01229DF81430DDF8170063
:109440009DF81B500133010A43EAC2138DF8031043
:109450008DF8045006210525B9468DF802008DF8D7
:1094600000408DF80130BAE79DF81C20AA20003A90
:1094700018BF01229DF81430DDF817109DF81B402D
:1094800001330D0A43EAC2138DF803508DF8021020
:10949000052506218DF804408DF800008DF8013077
:1094A0008FE700BF8404002080040020642908B5F1
:1094B0002AD01BD814292BD0322923D00A2914BF33
:1094C0000422C82200234FF4602C4FF48011426024
:1094D0004FF00122C0E90233C0E904C182618383F5
:1094E00003F034FDB0FA80F0400908BDFA290DD030
:1094F000B1F57A7F04D07D2914BF04221022E1E760
:109500000222DFE72822DDE71422DBE70822D9E781
:109510006422D7E700234FF00E0C10B58AB0012269
:10952000CDE90133CDE9033300930693994218BF87
:10953000634669460446CDE90722CDF824C0059369
:1095400003F086FD18B9204603F01CFE10B1002080
:109550000AB010BD0221204603F03EFFB0FA80F0B1
:1095600040090AB010BD00BF012855D840F244425E
:1095700000FB02F230B5DFF8A8E00EEB020CBCF8FD
:109580004234BCF840449C422ED144F2104344F291
:10959000024C03FB00F0234C221802F58843B3F879
:1095A00000E032F80C301FFA8EFE9BB29E4535D09B
:1095B00032F80C309BB203EB03130344E018E45879
:1095C000C3684568D0F808E0CB6032F80C300C6016
:1095D0004D60C1F808E0007C0133C3F3090308744F
:1095E00022F80C30012030BD03EB031010440EEBC9
:1095F00000025EF800405568D2F808E0D0680C60C0
:109600004D60C1F808E0C860127C013303F03F03ED
:109610000A74ACF84234E5E700207047002030BD02
:10962000D0040020680D002041B3012827D800B5E0
:1096300044F2104E44F2084C44F20C42144B0EFB20
:10964000003353F80CC0C1F800C0DFF848C05CF824
:1096500020C09B58104A8B60104BC1F804C052F8D0
:1096600020C053F820300E4AC1E903C30D4B52F815
:10967000202053F820304A618B6100BD70470023E1
:109680000B604B608B60CB600B614B618B617047F3
:10969000680D0020600D0020B8040020B0040020F8
:1096A000A8040020580D0020484B1B78002B00F028
:1096B00086802DE9F04782B000230125E846444921
:1096C000444ADFF814C1CDE90012DFF810E1444C40
:1096D000444E58F8042B11688A6912F0040039D0FE
:1096E0001CF8030000284AD012F070001CD05EF86D
:1096F0002370402807F101074EF82370E5540AD083
:1097000054D8202860D030285AD0A0F11000B0FAE8
:1097100080F04009C00056F82370384346F8230013
:10972000886920F07000886190070BD0D107E5545C
:1097300006D52C4850F8231041F0010140F82310C1
:10974000920714D45A1C022A4FF00103C1D102B06F
:10975000BDE8F0871CF80370002FC5D0224F0CF82D
:10976000030057F82300013047F82300BCE71D49E8
:1097700051F8232042F0020241F82320E2E70120C1
:10978000DFF868900CF8030059F82370DFF854A054
:10979000074449F82370164FF854114FF8545AF8FB
:1097A000230040F004004AF823009DE7502809D028
:1097B000A0F16000B0FA80F040090002ABE770470A
:1097C0002020A8E78020A6E71020A4E7A00400201E
:1097D000B095002088950020A4040020B804002043
:1097E000CC040020C0040020A8040020B004002005
:1097F000C80400200128034610D84FF0000C084A86
:10980000105C02F803C0C0B2064A19B152F823C076
:10981000C1F800C0002142F82310704700207047B3
:10982000CC040020C00400200128034605D80021F4
:10983000034A105CD154C0B270470020704700BF8B
:10984000C80400200368114910B55B1A18BF012332
:109850000124416A0E4ADFF83CE0DFF83CC04EF8D4
:109860002310D4545CF8232022444CF823204A07C8
:1098700009D50A4A0A49D45451F82320224441F810
:109880002320084AD4540023436210BD00640040E2
:10989000CC040020C0040020B8040020C80400202C
:1098A000B0040020A40400202DE9F04190460C46AD
:1098B00084B048BB80210826154F1548019102F05D
:1098C000C3F90546221E18BF01221148019902F072
:1098D000C1F9B8F1000218BF01223146384602F042
:1098E000B9F9012D0DD164B90394039BB3F5B47F8D
:1098F00007D200BF039B01330393039BB3F5B47FEF
:10990000F7D304B0BDE8F08110210426014FD4E75D
:10991000000C0140001401402DE9F04700248CB0F8
:10992000814648F620028A468B48002105F0CCFB90
:1099300040F688020021894805F0C6FB884D894B16
:1099400089481C802C8001258849894A0460894BFC
:109950004460894E0C604C6014605460874A884FA4
:109960001C6007945C6034701480BB69854A43F0C6
:109970000103BB61BB6984482B400093009B536883
:1099800004A923F4C04343F0E06343F480435360ED
:1099900053684FF0030843F0E8635360BB694FF42A
:1099A000807243F00803BB61BB6903F008030193B5
:1099B000019BBB6943F02003BB61BB6903F020033B
:1099C0000293029B0023CDE90423069502F02EF8B2
:1099D0004FF4007202236C4804A9CDE90423CDF8AA
:1099E0001C8002F023F820220023674804A9CDE957
:1099F0000423069502F01AF840220223624804A9C3
:109A0000CDE90423CDF81C8002F010F84FF0020CD1
:109A1000802201234FF01008B9695B4841F0100122
:109A2000B961B969CDF82CC001F01001039108A902
:109A3000CDE908230A94039B01F0F8FF2246802118
:109A4000514802F007F9504808A9CDF8208001F0EC
:109A5000EDFF41464FF0080822464B4802F0FAF865
:109A6000494808A9CDF8208001F0E0FF41464FF0B9
:109A700004082246444802F0EDF8444808A9CDF80D
:109A8000208001F0D3FF22464146404802F0E2F830
:109A9000FB693F4943F00073FB61FB693D4803F0FC
:109AA00000730493049BFB693B4A43F08063FB61B2
:109AB000FB690160394903F080630A6008934946F5
:109AC000089BFFF7F3FC20B9002738460CB0BDE82F
:109AD000F08751463148FFF7E9FC0028F4D0304BBD
:109AE00021462C48C3E9009AFFF714FD0028EBD06B
:109AF00029462A48FFF70EFD07460028E4D02246F3
:109B00000521142001F00CFE142001F03BFE22463A
:109B10000621162001F004FE162001F033FE224635
:109B20000521402001F0FCFD402001F02BFE2246E3
:109B30000621422001F0F4FD422001F023FE2246DE
:109B400021462046FFF7B0FE224621462846FFF771
:109B5000ABFE3570B9E700BF680D0020D0040020CF
:109B6000C8040020CC040020C0040020B804002059
:109B7000B0040020A8040020A0040020A4040020B9
:109B80000010024000000140000C014000140140A0
:109B900000640040B09500200068004088950020D7
:109BA000980400201E4B1B7873B301282CD87D2904
:109BB00007D021D8322904D02DD80A2901D0142960
:109BC00022D1184B53F820208A4227D030B583B0D9
:109BD000F8B9154A054610460C460192FFF766FC97
:109BE000A0B129460198FFF795FC78B101200D4BF3
:109BF00043F8254003B030BDB1F5FA7FE1D0B1F5AF
:109C00007A7FDED0FA29DCD000207047002003B034
:109C100030BD064ADEE76429F6D1D2E7012070475D
:109C2000A004002098040020B09500208895002012
:109C300001289ABF024B53F820000020704700BF54
:109C400098040020014B1878704700BFA004002042
:109C5000444B1B78002B54D0002852D0F0B5067826
:109C60008DB0013EF6B2012E3DD8002E3ED0437895
:109C70003D4DD0F80320002B3ED1C2F30A011A4615
:109C8000CDE9061383780892003B18BF0123002218
:109C9000C1795B0007464FF4FA740A918DF82C20C5
:109CA000099301E0013C18D0284603F0F1FA00289E
:109CB000F8D028466B4607F1090206A903F090FA8E
:109CC00058B92A4A3C7A52F82630072C03F101038E
:109CD00042F8263017D9012006E0254A52F82630EE
:109CE000013342F8263000200DB0F0BD4378214DFD
:109CF000D0F80320002BC0D022F0604300210422C2
:109D0000BEE70020704740F2444C38687968FB6831
:109D1000BA68DFF864E001AD0FC50CFB06E03B7CE0
:109D20002B70B0F84034B0F84254591C01F03F0198
:109D30008D42D0D0013403EB03138DF80C400CFBA3
:109D400006348DF8046001ADA0F840140FCD4EF834
:109D5000040028780EEB04067160B260F360307482
:109D6000B9E700BFA004002088950020600D002006
:109D7000580D0020B0950020D004002030B58DB0E3
:109D800000210DF1090305AA044603F095FA002805
:109D900060D123683449089A5B1AA2F1020218BF05
:109DA0000123B2FA82F20799520904298DF8003092
:109DB00052D005998DF801008DF8022044F210422E
:109DC000002044F20245099CCDF803108DF80740AD
:109DD000264C8DF8080002FB034202F588410988F1
:109DE000505B0131C1F3090180B2814211D1505B56
:109DF00044F2044E0130C0F3090050534FF001000B
:109E000044F20C4C02F80E0052F80C00013042F8FB
:109E10000C0044F2104244F20845EE4602FB03F304
:109E2000E21850590130505102F58842B2F800C092
:109E300011801FFA8CFC0CEB0C1C9C44BEE80F003C
:109E400044F80C009EF8000004EB0C056960AA6061
:109E5000EB6028740DB030BD012006998DF802200A
:109E60008DF80100AAE700BF00640040680D0020E3
:109E7000002853D04379022B4ED890F82030022B83
:109E80004AD88379012B47D890F82120012A43D85A
:109E9000C17B082940D890F8261008293CD890F8B2
:109EA0003310012938D890F84F10022934D890F88F
:109EB0003410012930D890F8351002292CD890F8A8
:109EC0003610012928D890F83BC0BCF1080F23D8E0
:109ED00040F2FF7C002B0CBF63466FF0604300B57F
:109EE000002AD0F807E00CBF62466FF060420029FC
:109EF00018BF6FF0604C9E4511D8D0F80B109942F6
:109F00000DD8D0F82230934209D8D0F837006045F8
:109F10008CBF0020012000BD00207047704700204A
:109F200000BD00BF4FF0010C10B5114C030182B011
:109F300004F803C004EB0014CDE90021607001F0C7
:109F4000C5FB01994FF0000CB1F82F30009A034483
:109F5000636091F84E30012B38BF01232372B1F8B2
:109F60004C302273638184F80DC002B010BD00BF75
:109F70003896002070B590F834308446964686B006
:109F80002BB32A4B5C5CFCB1294B01EB01115A1835
:109F9000154658585168EB68926801AC0FC49CF89C
:109FA00020202B7C12F0FD0F237001AE64468DF84B
:109FB0000CE02DD1012230468DF80420FFF748FE39
:109FC00094F82020044622BB204606B070BD90F8CD
:109FD0003330D0F8222090F821108DF8063090F818
:109FE0002630CDF807209CF820208DF805108DF83C
:109FF0000B30D0F82710D0F82B3012F0FD0F64464C
:10A00000CDF80D1001AECDF811308DF80CE0D1D0A7
:10A010000024022230468DF80420FFF719FE40EAA2
:10A020000403DCB2204606B070BD00BF989A002041
:10A03000E09A0020F0B5054687B001F0F1FB00265C
:10A04000134F05F50064FEF767FA2B4601E09C42CA
:10A050000ED01A6804330132F9D0012302A801A9F5
:10A06000CDE9026604950196059301F07FFC50B995
:10A0700005F50065BD4204F50064E4D101F0E4FBA0
:10A08000012007B0F0BD01F0DFFB002007B0F0BDFC
:10A09000000004082DE9F04F00241E46032387B07A
:10A0A00015468DF80D20464ACDF80E40CDF81240E9
:10A0B0008DF80C30ADF816402346424C0746CDF8DB
:10A0C0000F1002920DF107010DF1160011F8012F8A
:10A0D00053408142E35CF9D18DF817303C4601F0E2
:10A0E0009FFB0DF1060907F110082146002301200E
:10A0F00039F8022F01F0E8FB0234E0B94445F4D10D
:10A10000002D47D0B246A94606EB850B0196FEF717
:10A1100003FADAF8005004F15206023D01E0B442BD
:10A120000FD021460023012035F8022F01F0CCFB8F
:10A1300002340028F3D001F087FB002007B0BDE80F
:10A14000F08F0AF1040ADA45E1D1019E01F07CFBAF
:10A150003A68029B9A42F0D17968039A3B1D91427A
:10A16000EBD153F8041F049A9142E6D15A68059B3B
:10A170009A42E2D106EB890540463168522204F04A
:10A1800093FF043608F152080028D6D1B542F3D126
:10A190000120D3E701F058FB3A68029B9A42CCD1E8
:10A1A0007A68039B04379A42C7D157F8042F049B5F
:10A1B0009A42C2D17A68059B9A42BED1E8E700BFB5
:10A1C0004847525454F100082DE9F04F4FF48C6287
:10A1D000C9B00021924804F077FF41F26C6200217F
:10A1E000904804F071FF462200218F4804F06CFF74
:10A1F00040F2A64200218D4804F066FF462200216D
:10A200008B4804F061FF00238A4A8B4C13601A4686
:10A210002370144689498A480B608A49DFF82882EE
:10A220000B60DFF828928A49036088F800300B60E1
:10A2300089F80030874F884B884E1968B94224D17D
:10A240001979032921D1587946281ED8522503F1BE
:10A25000100105FB00118148814216D818460021E3
:10A26000DFF8FCE103F10F0C10F8015B6940844555
:10A270001EF80110F8D1D87B884206D1D3F8071018
:10A28000002C40F0C8800A461C4603F50063B34228
:10A29000D3D1002C47D06679002E3FD0522392466E
:10A2A000603403FB06466F4F6D4D54F8503CA4F1EB
:10A2B000500BBB422ED10023A4F1510111F8012F04
:10A2C0005340A142EB5CF9D19BF851209A4221D135
:10A2D0009BF83130002B40F092809BF83230CBB9A4
:10A2E0005846FFF7C5FDA8B1522298F800305E48E5
:10A2F000594602FB0300019304F012FF019B9BF8F7
:10A300000420013388F8003022B199F8003001337D
:10A3100089F800305234A642C7D152464C4B1A60DD
:10A3200049B0BDE8F08F2646DFF838B14F4C4C4DB0
:10A330004F4F54F8503CA4F1500A5B4519D100230B
:10A34000A4F1510212F8011F4B40A242EB5CF9D17B
:10A350009AF851209A420CD19AF83130002B47D10B
:10A360009AF832302BB95046FFF782FD08B1452EDE
:10A3700029D95234BC42DCD1002ED1D002AD2946BD
:10A38000394A05EB860341F8042B8B4202F1520255
:10A39000F9D1522303FB06F2364C02F60F02A4EB6E
:10A3A000D224E002FFF746FE0028B9D02B46012157
:10A3B00098F80020E002FFF76DFE0028B0D00123DE
:10A3C000234A1360ACE752222748514602FB06009D
:10A3D00004F0A6FE01369AF80430F6B288F8006060
:10A3E000002BC6D099F80030013389F80030C0E75F
:10A3F000022BBED19AF83230522BBAD1B3E7022BDE
:10A4000088D19BF83230522B3FF46AAF5234A642C7
:10A410007FF44BAF81E78A423FF637AF33E700BFA7
:10A4200038960020E09F0020989F0020E09A0020AE
:10A43000989A002030960020949F002034960020A7
:10A440002C960020909F00208C9F00202A960020B0
:10A45000889F00204847525400E003080000040889
:10A4600054F10008324752544CB6002050E0030823
:10A4700002F003088000010008B5084B1B788342F6
:10A480000AD903465222DFF818C0084602FB03C16E
:10A4900004F046FE012008BD002008BD8C9F00206E
:10A4A0004CB60020014B1878704700BF8C9F0020ED
:10A4B00010B500240E48FFF7BDFD0E490E4A0F48A7
:10A4C0000F4B04700C701470214646220D481C601E
:10A4D00004F0FAFD21464FF48C620B4804F0F4FDC1
:10A4E0002146BDE810404622084804F0EDBD00BFFB
:10A4F00000E003088C9F0020949F00202A960020F3
:10A50000909F0020989F002038960020989A002065
:10A5100030B5452899B03BD8054608460191FFF76C
:10A52000A7FC044610B9204619B030BD522201994B
:10A5300003A804F0F5FD45F2022200231649DFF8D6
:10A540005CC0ADF83D2003910DF10B0217A812F885
:10A55000011F4B4082421CF80330F8D18DF85D306A
:10A5600052230F481A4603A903FB050004F0D8FD47
:10A5700001220C4B5A5501F0A9F80B4A0B491378EC
:10A580000860AB42CFD820466B1C137019B030BDA9
:10A590000024204619B030BD3247525454F100080F
:10A5A000E09F0020989F0020949F0020909F002013
:10A5B0002DE9F043FF28C7B051D00446462C4AD8B5
:10A5C0004E4B1B7823B94E4F3B78A34200F08B8053
:10A5D0004C4E4E220021304604F076FD45F2022218
:10A5E00000234949494DA6F82D2046F8041C721F46
:10A5F00006F14C0012F8011F4B408242EB5CF9D18E
:10A6000086F84D30002C70D03D4F414D6E46684667
:10A6100029460023DFF8FCC097F800903E4ADFF897
:10A62000FC800AE096460133DBB29C4240F804EB22
:10A6300001F1520102F1520209D01CF801EBBEF106
:10A64000000FEFD199458CBF8E46C646EBE73448E4
:10A65000FFF7F0FC58B9002047B0BDE8F083274B66
:10A66000274F1C783B789C4238BF1C46A6E75220F7
:10A6700004FB00F0DFF8AC90DFF8ACC0D9F80010B4
:10A6800000F60F00ACEBD0206B4622460131C00231
:10A69000FFF700FD0028DED00DEB840856F8041B00
:10A6A0002846522204F03CFD464505F15205F5D1FD
:10A6B0000025D9F800303C700133C9F800300F4C48
:10A6C0001A4B4622294613481D60257004F0FCFCF5
:10A6D0004FF48C622946164804F0F6FC46222946BF
:10A6E000144804F0F1FC0120B6E70D48FFF7A2FC86
:10A6F0000028B0D0024FDFF82C90D9E7949F0020BB
:10A700008C9F0020DC9500203247525454F1000801
:10A710004CB60020989F0020E09F0020D895002094
:10A7200000E00308889F002080000100909F002027
:10A7300038960020989A002010B50446FFF7E8FEEE
:10A7400050B1064B601C1B78C0B29C4238BF184603
:10A75000BDE81040FFF72CBF10BD00BF8C9F00204C
:10A7600030B5144D99B02B7883421FD9522304463B
:10A77000019111491A4603FB041103A804F0D0FC0F
:10A78000019B2046003B18BF012303A98DF8103020
:10A79000FFF7BEFE50B12B78601CC0B29C4238BFA0
:10A7A000184619B0BDE83040FFF702BF002019B0CD
:10A7B00030BD00BF8C9F00204CB600202DE9F04F2B
:10A7C000804E89B03378002B75D0DFF8FC814FF0D4
:10A7D000000BC2464FF0520904469AF80430002B91
:10A7E00060D09AF83430A3B19AF83530022B02D0F9
:10A7F00022789A420DD19AF8362063789A4208D18D
:10A80000522303FB0B83D4F80320D3F83730934251
:10A8100062D09AF84F30012B50D0022B52D09AF8C8
:10A820000520022A02D0217891423BD19AF80610E5
:10A830006278914236D109FB0B82D4F80300D2F83A
:10A840000710D2F80B20414011422BD19AF80F206B
:10A85000002A3BD1012B14D0E07990B104F1080318
:10A8600018440AF10F0104F1100C11F8012F13F82C
:10A87000017F0D7A7A402A4214D1834201D09C454F
:10A88000F3D109FB0B83B3F82F30227A5FFA8BF5F3
:10A8900023B99AF84E30012B40F284805146284665
:10A8A000FFF740FB32780BF1010B5FFA8BF39A4212
:10A8B0000AF1520A91D809B0BDE8F08FA278002AB7
:10A8C000ADD1EFE7A278002AA9D0EBE7E07990427A
:10A8D000E8D1012BC2D1D4E79AF83B300393002B87
:10A8E0004BD00023E27904F10900049207941F463B
:10A8F0001A469E461C46CDE905BA029301930AF119
:10A900003B0A009001994FEA042C08021AF8014F03
:10A910000299049D4CEA1E6C090244EA0E2E9AF834
:10A92000084040EA176041EA136102F1010B9542C9
:10A9300044EA0727CDE9010164464FEA03235FFAA1
:10A940008BF204D9009D95F800B04BEA0303039DF8
:10A950009542009D05F10105009501D0082AD1D14D
:10A96000DDE905BA734571EB0C02079CFFF451AFAA
:10A970009F4270EB0101FFF44CAF01222768DFF822
:10A980004CC0E1686568A0680BEB0B134CF80370D2
:10A9900063445D609860D960217C19740C4B03F8A6
:10A9A0000B2036E729465046FFF7E4FA20B1094A62
:10A9B00013680133136075E728465146227AFFF782
:10A9C000B1FA6FE78C9F00204CB60020E09A00207F
:10A9D000989A0020349600202DE9F84300F076FE86
:10A9E0002B4B05461A7832B143F69821294A126852
:10A9F000821A8A4244D8284CDFF8A090DFF8A08061
:10AA0000284F04F58C6613E0637B132B33D9264A59
:10AA10001368013313600022237A6273012B24D957
:10AA20006289013B2A44237262601034B44220D010
:10AA30002378002BF9D06368EB1AF6D45220D9F8AA
:10AA400000206178934200FB0180227B88BFC9F817
:10AA50000030FFF78FFA0028D6D000223B686273DF
:10AA600001333B60237A012BDAD822701034B442D0
:10AA7000DED1BDE8F88301336A1C63736260D4E7FA
:10AA8000002146220948197004F01EFBB3E700BFFD
:10AA9000949F0020909F0020389600202C96002044
:10AAA0004CB600203496002030960020989F00205D
:10AAB00010B1064B1B68036011B1054B1B680B609E
:10AAC00012B1044B1B681360704700BF349600201E
:10AAD0002C96002030960020014B1878704700BF5C
:10AAE0002A9600202DE9F04186B08846074600F0FE
:10AAF00097FEFDF711FD012100232348CDE9013325
:10AB0000CDE9040101A902A8039300F02FFFA0BB27
:10AB1000FDF702FD1D4DBC1E07F11E06ED1B291998
:10AB20000023012034F8022F00F0CEFE28BBB442EF
:10AB3000F5D1174DA8F1020408F10E06A5EB0805A2
:10AB400029190023012034F8022F00F0BDFEA0B91E
:10AB5000B442F5D100F078FE202239460A4804F0CC
:10AB6000A3FA60B9102241460A4804F09DFAB0FAEF
:10AB700080F0400906B0BDE8F08100F065FE0020DD
:10AB800006B0BDE8F08100BF00D8030802D8030872
:10AB900022D8030820D80308514A5249136830B517
:10ABA0008B424FF000033BD1DFF83CC14F4812F815
:10ABB000011B4B4082421CF80330F8D1484AD17F38
:10ABC00099426BD0464A4A4B126A9A420ED10023F0
:10ABD000484A494812F8011B4B4082421CF8033096
:10ABE000F8D13F4A92F82F1099424BD0002301210F
:10ABF000424C3F4A236044F8092C414A601D44F806
:10AC0000052C04F8011CA4F10A02C4F8033012F860
:10AC1000011F4B4090421CF80330F8D1A37130BDA6
:10AC20000920DFF8E0E0384D4EF80E1C374942F2BB
:10AC300001020EF80A0CCEF80830CEF80B1003CD46
:10AC40004EF8090C18464EF8051C2978DFF898C014
:10AC5000AEF81030CEF80030AEF80F20CEF8043049
:10AC6000AEF10F020EF110040EF8011C12F8011FD4
:10AC70004B4094421CF80330F8D1254A8EF811302D
:10AC800010709FE7938C002BB0D0D38C002BADD0ED
:10AC9000204C184B0FCB84E80F0030BD1379092BE3
:10ACA00090D8937B0A2B8DD8537F83B9937F002B49
:10ACB00088D14FF0010E184C094D0FCD0FC495E807
:10ACC0000F0084E80F00124B83F800E07AE7012BB5
:10ACD0007FF478AF937F202B7FF474AFE9E700BF58
:10ACE00000D803083047464354F200081FD8030831
:10ACF0003058454320D803082FD80308C5CC00207E
:10AD0000F401F401DACC002078F300088304405702
:10AD1000B8CC0020BCCC0020CCCC00200048704730
:10AD2000CCCC0020014B1878704700BFB8CC002075
:10AD300070B509298AB0BDF83850BDF83C4001D83B
:10AD40000A2B02D900200AB070BD4FF0000C164645
:10AD5000324ACDF821C08DF80C100292CDF80DC00A
:10AD6000CDF811C0CDF815C0CDF819C0CDF81DC073
:10AD7000CDF824C0002948D18DF81630002B3DD1E4
:10AD8000002345F2407E40F2834642F201019D429B
:10AD900008BF35469C4208BF7446DFF884C00DF1F9
:10ADA00007020DF12600ADF82510ADF82150ADF8E1
:10ADB000234012F8011F4B4082421CF80330F8D1A7
:10ADC0002022184902A88DF8273004F06DF910B937
:10ADD00001200AB070BD144902A8FFF783FE0028C5
:10ADE000B0D00122114B0F4D02AC1A700FCC0FC521
:10ADF00094E80F0085E80F000120EAE71A46314683
:10AE00000DF1170004F08CF9BAE70A4601460DF17E
:10AE10000D00019304F084F9019BADE730474643F0
:10AE200054F20008CCCC0020BCCC0020B8CC0020D0
:10AE30000E4B58B998887D2807D009D8322804D0FD
:10AE400011D80A2801D014280AD17047D888F2E70F
:10AE5000B0F5FA7FF9D0B0F57A7FF6D0FA28F4D0C1
:10AE60004FF4FA7070476428FAD1EEE7BCCC0020AA
:10AE700001285CD800B57D2986468C4685B007D070
:10AE800035D8322904D040D80A2901D0142936D126
:10AE9000284B0FCB8DE80F00BEF1000F32D0ADF87C
:10AEA00006C00023DFF890C00DF1FF320DF10E0057
:10AEB00012F8011F4B4090421CF80330F8D11D4A94
:10AEC000009912688DF80F30914221D069461B48D5
:10AED000FFF708FE98B19DE80F00DFF858C08CE836
:10AEE0000F000122164B1A70012005B000BDB1F50C
:10AEF000FA7FCDD0B1F57A7FCAD0FA29C8D0002028
:10AF000005B000BDADF804C0CBE76429F7D1BFE7B9
:10AF1000084B019A5B689A42D8D10A4B02991A6889
:10AF20009142D3D1039A5B689A42CFD1DCE70020EB
:10AF3000704700BFBCCC002054F20008CCCC0020ED
:10AF4000B8CC0020C4CC00200020704720280ED0B0
:10AF5000212801D000207047072AFBD10A4B18682E
:10AF60009A889B7908608A8000208B717047072A35
:10AF7000F0D1054B8888D1F800C08A799880C3F851
:10AF800000C000209A71704718000020F8B50E68C4
:10AF90001EB3411E0546DFF84CC0DFF84CE01348F5
:10AFA000741809E0BCF8002011F8017F92B2A142A8
:10AFB0008754ACF8003010D0BCF80030BEF8002048
:10AFC0000133C3F30A0392B29A42EBD1084A1368E1
:10AFD000013B33441D446D1A1560064803F09AFE88
:10AFE0000020F8BDFECC0020FCCC002000CD0020CD
:10AFF000F0CC0020BC01002008B50849084803F047
:10B0000063FE00230749084A05480B80138003F0BC
:10B0100081FE003818BF0120404208BD40D5002005
:10B02000BC010020FECC0020FCCC0020034A044BD5
:10B0300010881B88C01AC0F30A007047FECC00209D
:10B04000FCCC0020094B0A4A1988138889B29BB2AC
:10B05000994209D0118813880648013389B2C3F395
:10B060000A03405C1380704700207047FECC00202C
:10B07000FCCC002000CD00200A4B0B4A1B88B2F804
:10B0800000C0A3EB0C03C3F30A03984208D2128852
:10B09000064B1044C0F30A001B5C01200B70704784
:10B0A00000207047FECC0020FCCC002000CD00200A
:10B0B000002942D02DE9F84381460F460026DFF8EB
:10B0C0008080D8F8B842D4B9BD1BADB2402D28BF9E
:10B0D000402509EB06012A461A4804F021F82A46C1
:10B0E0004046184903F0E6FD404603F0F5FDF8B987
:10B0F0003544AEB2B742E6D80020BDE8F88300F090
:10B10000E5FA0546D4F81432012BDDD1FDF704FA37
:10B1100000F0DCFA401B6328F4D90B490B4A0B689A
:10B1200001330B601368013313600120BDE8F8831D
:10B13000064A136801331360F7E70020704700BF29
:10B14000BC01002000D50020F4CC0020F8CC002069
:10B15000014B1868704700BFF8CC0020014B1868FD
:10B16000704700BFF4CC002038B9094B1A78FF2A89
:10B1700002D01A7801321A7070470128FCD1054BB1
:10B180001A78FF2AF8D01A7801321A70F4E700BF53
:10B19000EDCC0020ECCC0020014B1878704700BFAC
:10B1A000EDCC0020014B1878704700BFECCC00209C
:10B1B000014B1868704700BFF0CC00200B4B70B5F6
:10B1C000D3F8B85285B1044600F080FA064606E08E
:10B1D000FDF7A2F900F07AFA801BA04204D2D5F85C
:10B1E00014020028F4D170BD012070BDBC01002004
:10B1F000054A136833B9B0F5806F03D801230348BB
:10B2000013607047002070475CDA002060DA00208D
:10B21000034B984200D070470022024B1A607047DF
:10B2200060DA00205CDA00204FF4C05030B5022113
:10B2300000250322194C87B0A36943F00403A361DE
:10B24000A369029003F0040300F18040CDE90315E7
:10B25000009302A900F57040009B059200F0E6FB08
:10B260004FF40072002302A90D48CDE90223049592
:10B2700000F0DCFB6369062143F48053636163697A
:10B280002A4603F4805301934320019B00F048FABF
:10B29000432000F077FA07B030BD00BF0010024035
:10B2A000000801400146D0F8D80401F29C4102F0A8
:10B2B0007DBF00BF01EBC10300EB8303D3F8602225
:10B2C000D0F8D80402F0A8BF01EBC10300EB830360
:10B2D0001A6AD0F8D80402F0E1BF00BFD0F8D80451
:10B2E00003F084B810B504460020FFF73DFFD4F802
:10B2F000D804012103F062F8D4F8D804BDE8104066
:10B3000003F034B8D0F8D80403F05CB8D0F8D8040F
:10B3100003F062B8D0F8D80403F078B8D0F8D804B5
:10B3200003F072B8D0F8D80403F072B810B5044630
:10B330000120FFF719FFD4F8D804BDE8104003F04E
:10B3400069B800BF70B5042300254FF0A042022663
:10B35000104CC4F8D804C0F8C042204623712260C3
:10B360006581E671A57300F079FC8021204601F02B
:10B37000C7F929464022204601F09CF9802201218C
:10B38000204601F097F940223146204601F092F91B
:10B39000284670BD80D5002008B5D0F8C00200F066
:10B3A000C7FC002008BD00BF944608B51A46D0F877
:10B3B000C002634601F04AF8002008BD08B5D0F885
:10B3C000C00201F081F8002008BD00BF08B5D0F828
:10B3D000C00201F0E9F8002008BD00BF08B5D0F8B0
:10B3E000C00201F02BF9002008BD00BF0A06D0F80A
:10B3F000C03206D401EBC10103EB810393F856027E
:10B40000704701F07F0101EBC10103EB8103987DDF
:10B41000704700BF08B5D0F8C00200F0FDFF002063
:10B4200008BD00BF08B5D0F8C00201F0A5F80020A3
:10B4300008BD00BF08B5D0F8C00201F07BF80020BD
:10B4400008BD00BFD0F8C00201F08CB8122301483B
:10B450000B80704740000020042301480B80704798
:10B460003C00002008B50A460248034903F09AFA56
:10B47000014808BD84F3000878DE002008B50A46BC
:10B480000248034903F08EFA014808BDA0F3000802
:10B4900078DE002008B50A460248034903F082FA24
:10B4A000014808BDB8F3000878DE002010B582B06E
:10B4B0000C46FFF733FC02798AB1411D01900C481C
:10B4C00003F02EFE0020019B22461B79084C0949FF
:10B4D000E054204603F066FA064802B010BD22464A
:10B4E0000449054803F05EFA024802B010BD00BFEF
:10B4F00060DE002078DE0020C4F3000810B582B0C2
:10B500000C46FFF70BFC827B8ABB4FF01A0C2149DB
:10B51000D1F8E837D1F8F007A4F800C013EB000C1D
:10B5200002D11D4802B010BD1B4BD1F8ECE7194603
:10B5300003F110044FEA1C70092894BF30303730F3
:10B540008870CA7002318C424FEA0C1CF2D1002084
:10B5500012494FEA1E72092A94BF303237329A7468
:10B56000D87402338B424FEA0E1EF2D1D9E700F1B4
:10B570000F0101900A4803F0D3FD0020019B2246F1
:10B580009B7B074C0749E054204603F00BFA054823
:10B5900002B010BD00F0FF1F200000202800002096
:10B5A0006CDE002078DE0020704700BFFEE700BFA1
:10B5B000FEE700BFFEE700BFFEE700BF704700BF29
:10B5C000704700BF704700BF00F074B8014801F039
:10B5D0002BBF00BFB0950020014801F025BF00BF80
:10B5E000B0950020014801F01FBF00BFB0950020BA
:10B5F000014801F019BF00BFB0950020014801F0DB
:10B6000013BF00BF88950020014801F00DBF00BFA7
:10B6100088950020014801F007BF00BF88950020F1
:10B62000014801F001BF00BF88950020014800F0EB
:10B6300095BB00BF80D50020704700BF704700BF9A
:10B640004FF47A7310B50F49044609780E4AB3FBDC
:10B65000F1F0126882B0B2FBF0F000F0A1F808B986
:10B660000F2C02D9012002B010BD024601902146E4
:10B670004FF0FF3000F054F8044B01981C6002B00A
:10B6800010BD00BF74000020700000207800002072
:10B69000074A08B51368032043F01003136000F055
:10B6A0002DF80020FFF7CCFFFFF7C8FF002008BDF2
:10B6B00000200240034A044B11681B780B441360BE
:10B6C000704700BFB8DE002074000020014B1868EE
:10B6D000704700BFB8DE002038B50446FFF7F6FF1C
:10B6E000631C054602D0044B1B781C44FFF7EEFF99
:10B6F000401BA042FAD338BD740000204FF6FF0C67
:10B7000006490302CA6803F4E06302EA0C02134329
:10B7100043F0BF6343F40033CB60704700ED00E0BB
:10B72000164B00B5DB68C3F30223A3F1030CBCF195
:10B73000040F19D84FF0FF3EC3F107030EFA03F3CD
:10B74000DB430EFA0CFE22EA0E02194001FA0CF15C
:10B75000114300284FEA01110ADB00F1604000F5B7
:10B76000614080F8001300BD00220F239446ECE7EF
:10B77000034B00F00F00C318197600BD00ED00E088
:10B78000FCEC00E0002807DB012300F01F01034A66
:10B7900040098B4042F82030704700BF00E100E0D4
:10B7A0000138B0F1807F01D3012070474FF0E023D2
:10B7B00000224FF0F00C07215861034880F823C0A5
:10B7C0009A6110461961704700ED00E0124BDB688A
:10B7D00013F0100305D010231049CA6942F0020289
:10B7E000CA610D4AD268500706D50C4943F00403DC
:10B7F000CA6942F00102CA61074AD169C90708D57E
:10B800000648C16941F00401C161D16921F001011B
:10B81000D161014AD360704700200240C0DE0020A1
:10B82000064B186910F0800006D00549054A59609A
:10B830005A601869C0F3C010704700BF0020024072
:10B8400023016745AB89EFCD034A0020136943F01C
:10B8500080031361704700BF0020024038B50446E2
:10B86000FFF734FF174AD368DD070CD5651C1CD0E1
:10B8700005462CB3FFF72AFF401BA04220D8114AEF
:10B88000D368DB07F6D40F4BDA68900644BF20225A
:10B89000DA600C4BDA68D1060ED4DA69D2070BD421
:10B8A000D86810F0040007D138BDD368D907EAD5AD
:10B8B000D368D907F9D4E6E7FFF788FF012038BD40
:10B8C000032038BD002002402DE9F84F254E357E7B
:10B8D000012D43D01C46012305464CF250308A46C8
:10B8E00017463376FFF7BAFFA0BB012D03D0022D18
:10B8F00014BF042502254FF00009C846DFF868B0E0
:10B900000AEB4505C9F12003C6F81C8027FA09F0A7
:10B9100004FA03F31843A9F12002DBF8103024FAEB
:10B9200002F240EA020C43F00103CBF810304CF273
:10B930005030AAF800C0FFF791FFDBF810300AF191
:10B94000020A23F0010309F11009CBF8103008B9FD
:10B95000AA45D7D100233376BDE8F88F0220BDE891
:10B96000F88F00BFC0DE0020002002402DE9F84320
:10B970002C4E337E012B52D0012333760368804650
:10B98000022B89464CF250302ED0FFF767FF074656
:10B9900068BB4FF0FF33C9F80030D8E9025305EB1C
:10B9A000C3239D4223D2204C07E005F50065D8E96A
:10B9B000023203EBC223AB421AD9F76123694CF27E
:10B9C000503043F0020323616561236943F0400373
:10B9D0002361FFF743FF236923F00203236100285B
:10B9E000E3D0C9F8005003E0FFF738FF20B1012091
:10B9F00000233376BDE8F8830B4CF06123694CF2E9
:10BA0000503043F004032361236943F04003236172
:10BA1000FFF724FF236923F004032361E8E70220F2
:10BA2000BDE8F883C0DE0020002002402DE9F04F81
:10BA30000E6883B0002E00F0AC8000220446012581
:10BA40004FF00F0892461346784F06E0013336FA5E
:10BA500003F002F1040200F09C8005FA03F030EAE2
:10BA6000060E00EA060CF1D14E68122E00F2998003
:10BA7000122E0DD8DFE806F0A70AB3D70C0C0C0C79
:10BA80000C0C0C0C0C0C0C0C0CBBB700D1F80CA063
:10BA9000BCF1FF0F99BFA646164604F1040EA2F1B1
:10BAA0002006DEF8000008FA06F920EA09000AFA82
:10BAB00006F63043CEF800004868C6006FD5BE6970
:10BAC00003F0030946F00106BE61BE694FEA890929
:10BAD00006F001060196019E23F0030606F180465A
:10BAE00006F58036D6F808E008FA09FB2EEA0B0EB8
:10BAF000DFF83CB15C4513D00BF5806B5C457AD028
:10BB0000DFF830B15C4563D0DFF82CB15C450CBF89
:10BB10004FF0030B4FF0040B0BFA09F94EEA090E34
:10BB2000C6F808E0DFF814E110F4801FDEF80860C2
:10BB300014BF46EA0C0626EA0C06CEF80860DFF8C9
:10BB4000FCE010F4001FDEF80C6014BF46EA0C069F
:10BB500026EA0C06CEF80C60DFF8E0E010F4003FB7
:10BB6000DEF8046014BF46EA0C0626EA0C06CEF89E
:10BB70000460324E10F4803F30680DD040EA0C0073
:10BB800030600E68013336FA03F002F104027FF4EC
:10BB900064AF03B0BDE8F08F20EA0C0030600E689F
:10BBA00054E7DFF89CE076450DD02BD8AEF5801E2B
:10BBB000764508D00EF5702E764504D0AEF5801E81
:10BBC00076457FF465AF8E6836BB4FF0040A5FE7B9
:10BBD0004FF0020B0BFA09F94EEA090EA0E7C8680C
:10BBE00000F1080A54E7C86800F10C0A50E7C86879
:10BBF00000F1040A4CE74FF0010B0BFA09F94EEA89
:10BC0000090E8DE7DFF83CE07645DCD00EF5803E8E
:10BC100076457FF43DAFD6E7012E4FF0080A0CBF02
:10BC20002061606134E74FF0000A31E70010024004
:10BC300000080140001001400014014000040140D0
:10BC400000002210000031108368194214BF012047
:10BC50000020704702B909040161704730B583B014
:10BC6000D8B190F89534044603F0FF02002B5AD067
:10BC70000322002384F89524A371206801F00EFEAE
:10BC8000237C251D8DF80030206895E80E0001F01A
:10BC90004FFD30B1022384F895340125284603B0C6
:10BCA00030BD0146206801F001FE0028F2D194F871
:10BCB00004C0BCF1000F21D0234622464FF0010EF4
:10BCC00001461075D08501306045C2E9071182F840
:10BCD00015E0117642F8241FF3D100210A4683F8BB
:10BCE000541201316145C3E9972283F8552283F844
:10BCF0005822C3F8642203F12403F0D1237C206886
:10BD00008DF8003095E80E0001F054FE054600283D
:10BD1000C0D101236074206884F8953402F09CF946
:10BD2000284603B030BD80F89424FFF77DFA9FE7E2
:10BD300090F89434012B0FD010B50123044600680D
:10BD400084F8943401F0A2FD206802F075F9002314
:10BD500084F89434184610BD022070472DE9F04F46
:10BD60000668044687B0304602F0B4F910B107B057
:10BD7000BDE8F08F0546206802F07EF90028F6D075
:10BD8000D6F808382068C3F30D23C4F8D43402F081
:10BD900073F98107236806F5006903D55A6902F033
:10BDA00002025A61184602F067F9C206236814D5E8
:10BDB0009A6922F010029A61376A07F4F012B2F51C
:10BDC000802F07F00F0800F0DB82B2F5402F00F063
:10BDD000FD819A6942F010029A61184602F04CF90E
:10BDE000070300F19181206802F046F910F4802FDA
:10BDF000206840F0458102F03FF90028C0F2A5829A
:10BE0000206802F039F9030500F18480206802F00F
:10BE100033F910F4805F206840F0E48002F02CF9E0
:10BE200010F4005F206840F0BD8002F025F90007A3
:10BE300000F1AF80206802F01FF901061DD5B3693B
:10BE400023F08003B3612279012A16D92746012500
:10BE500004E00135AA4207F124070ED997F87B3296
:10BE6000012BF6D105EBC50104EB8101206801F53A
:10BE7000157101F0EFFF2279EBE7206802F0FCF882
:10BE8000C20245D52279012A25D906F51263274633
:10BE9000B046012526461C4606E00135AA4204F1BB
:10BEA000200407F1240714D997F83C302168012BAE
:10BEB000F3D10029F1DA05F00F0101EBC10187F898
:10BEC0003B3006EB81013068143101F0C3FF327959
:10BED000E3E7344646462068436903F48013436130
:10BEE00002F0CAF8830220D4206802F0C5F84000AE
:10BEF0006FD4206802F0C0F841077FF538AF23689F
:10BF00005D686A0700F15B825A682A435A602EE72F
:10BF10002068E5E7D9F80830DF0700F1558220688E
:10BF2000436903F40063436171E794F804C0BCF112
:10BF3000010F28D92346012106F5326203E061454D
:10BF400003F124031FD093F87C021568012801F146
:10BF5000010102F12002F2D1002DF0DAD4F8D474FC
:10BF600087EA1547FF07EAD483F87B02B06940F0FF
:10BF70008000B06170690506E1D4D9F8043043F45B
:10BF80000073C9F804302068436903F40013436167
:10BF9000ABE72046FFF7A2F92068436903F00803E6
:10BFA000436148E702F09AF8206801F0A7FDE071CC
:10BFB000256800F0EFFEE2790146284601F0ECFB2F
:10BFC0002046FFF78FF92068436903F4005343616B
:10BFD0002BE72046FFF7A6F92068436903F080436A
:10BFE000436187E7D9F80430102123F00103C9F831
:10BFF000043001F091FC2079D8B14FF67F3106F57D
:10C00000106399601A68013522F400121A60C3F8AF
:10C010000812D3F80022854222F40012C3F800224D
:10C02000D3F8002203F1200342F00062C3F8E021BC
:10C03000E7D1D9F81C3043F00113C9F81C30E37B79
:10C04000002B00F0B480D9F8843043F00B03C9F81A
:10C050008430D9F8443043F00B03C9F84430D6F8A3
:10C060000038206823F4FE63C6F8003804F29C41CF
:10C0700002F044F82068436903F480534361CDE63D
:10C0800002F006F8002800F0B480804602950022F5
:10C09000B3462546206806F5106704E001324FEAF2
:10C0A00058082434203718F0010F07D101324FEA25
:10C0B00058082434203718F0010FEFD0D6B231469B
:10C0C000019201F0F7FF10F0010F0346019A40F0D2
:10C0D000F980190744BF0821B960D80644BF102170
:10C0E000B960590644BF4021B960980700F1DB8070
:10C0F000190600F1888028685FEA580398467ED0C8
:10C10000013224342037D6E7206801F0B9FF074612
:10C1100000283FF468AE2146A0460295B3460025AC
:10C120000B4606F5306403E001357F0820342433E4
:10C13000F80705D401357F0820342433F807F3D5F8
:10C14000D8F80000E9B2019301F0AAFF10F0010F46
:10C150000646019B5FFA85FA40F0C880310700F17E
:10C16000DA80F20644BF1022A260B00710D5DBF8D7
:10C170001420110605D5D9F8042042F48062C9F8CC
:10C18000042093F85722012A00F02C810222A26099
:10C19000B20644BF2022A260B60444BF4FF400524E
:10C1A000A2607F0827D0013520342433C6E7D9F8B0
:10C1B000143043F4005343F02B03C9F81430D9F87A
:10C1C000103043F00B03C9F8103048E7082204F29E
:10C1D0009C41304601F09CFE08EBC80204EB820251
:10C1E000D2F86812C7F30A130B44C2F86832236806
:10C1F000EFE52068FFE55E464446029DF3E52C46E8
:10C200005E46029DF7E5D4E9091E8E453FF673AF01
:10C21000E069A1EB0E0C844528BF844628680CF128
:10C22000030C00F5106303EB42139A469B690590DB
:10C230009BB2B3EB9C0FC0F0D180019704953746B9
:10C2400073460E460546039218E0E3693A469E425D
:10C2500028BF1E462846B3B2216A01F049FE236A70
:10C26000F01C33442362A36A3344A362DAF8182033
:10C27000666A92B2B2EB900FC0F0AA80B342A6EB0E
:10C280000306E2D3DDE90325019F28680126059B0B
:10C2900002F00F0ED3F8341806FA0EF621EA060162
:10C2A000C3F8341828E7114658460393019201F069
:10C2B00033FBE17D019A0129039B00F09D8002215F
:10C2C000B96015E702F00F0E0122D9F834C002FA66
:10C2D0000EFE2CEA0E0C0390C9F834C03146BA6049
:10C2E0002846FEF7F1FF039B019AF2E60122A260C5
:10C2F000D8F800204649106C02F5306202EB451276
:10C300008842D2F808C034D11CF4004F2CD04FF42E
:10C310000041916022E70822A260D8F800203D4940
:10C32000106C02F5306202EB45128842D2F808C068
:10C3300005D91CF4004F1CBF4FF4004191604046EA
:10C340000193FEF7AFFF019B0BE7D9F804302046BD
:10C3500023F00103C9F80430FEF7D8FF20684369D1
:10C3600003F0004343614CE51CF0200F1CBF20216B
:10C370009160514640460193FEF79CFF019BEDE61C
:10C3800047F6F07217423FF424ADC7F30A1217467E
:10C3900008EBC80304EB8303D3F860123046019323
:10C3A00001F0B6FD019BD3F860223A44C3F8602245
:10C3B000D3F868223A44C3F86822236809E5204686
:10C3C000FEF7B4FF23689FE52046FEF79BFFA6E536
:10C3D0009E463146049D019F039A286871453FF6A9
:10C3E0008BAE53E70022514683F857224046019313
:10C3F000FEF790FF019BC9E600212846E175314612
:10C4000003920193FEF78AFF039A019B57E700BF4F
:10C410000A31544F0A30544F034690F894040128CF
:10C4200011D04FF0010C00B5186883B0597483F82F
:10C4300094C4019301F0EEFD00221046019B83F8A5
:10C44000942403B000BD0220704700BF10B501F076
:10C450000F0E0EEBCE0C090682B04FEA8C0C26D4E0
:10C460004FF000040CF5157184448CF855420144DA
:10C470008A604A7881F800E00B710AB1A1F81AE0ED
:10C48000022B04BF00234B7190F89434012B17D07A
:10C4900003460122006883F89424019301F036FBDF
:10C4A00000221046019B83F8942402B010BD4FF087
:10C4B00001040CF1140184448CF815400144D7E7C1
:10C4C000022002B010BD00BF01F00F0202EBC20358
:10C4D00009064FEA83031DD44FF0000C03F51571D4
:10C4E0000144034483F855C20A7090F89434012B38
:10C4F0001DD00346012200B5006883B083F8942460
:10C50000019301F04BFB00221046019B83F8942419
:10C5100003B000BD4FF0010C03F1140101440344CA
:10C5200083F815C00A7090F89434012BE1D10220F1
:10C53000704700BF10B5002401F00F0101EBC10EE0
:10C5400000EB8E0C8CF854128CF855420068CCF835
:10C550006022CCE999340CF5157101F081FB20467D
:10C5600010BD00BF01F00F0101EBC10100EB810024
:10C57000D0F86802704700BF38B50125002401F0EB
:10C580000F0101EBC10E00EB8E0C8CF814108CF82F
:10C5900015500068CCF82020CCE909340CF11401C6
:10C5A00001F05EFB204638BD037901F00F02934293
:10C5B00034D30B0626D44FF0000C01EBC1018B00E5
:10C5C00003F515710344014483F855C24FF0010C83
:10C5D0000A7081F802C090F8943463452CD0034669
:10C5E00000B5006883B083F894C4CDE9003201F04F
:10C5F000B7FCDDE900329AB10022104683F894249A
:10C6000003B000BD4FF0010C02EBC2039B0003F12D
:10C6100014010344014483F815C0D7E70120704793
:10C6200003F29C41186801F069FD00221046009B4E
:10C6300083F8942403B000BD02207047037901F011
:10C640000F02934233D310B502EBC203090682B046
:10C650004FEA83031BD4002403F51571034483F8C8
:10C660005542002401440A708C7090F89434012BD8
:10C670001AD003460122006883F89424019301F044
:10C680009DFC2046019B83F8944402B010BD012418
:10C6900003F1140103445C75002401440A708C709A
:10C6A00090F89434012BE4D1022002B010BD012097
:10C6B000704700BF00B5D0F800E0DEF8243029B99B
:10C6C00043EA02430020CEF8283000BDDEF82800FF
:10C6D000013903EB104C09D000230EEB8300D0F896
:10C6E000040101338B420CEB104CF6D140314CEA83
:10C6F00002420EEB810E0020CEF8042000BD00BFE8
:10C7000003461B6800205962704700BF002800F0F4
:10C71000F38170B503680446D80782B035D59849CF
:10C720004A6802F00C02042A00F044814A6802F0D0
:10C730000C02082A00F03A81A368B3F5803F10D0BC
:10C74000002B00F06281B3F5A02F00F0D7818C4B55
:10C750001A6822F480321A601A6822F480221A6061
:10C7600004E0874A136843F480331360FEF7AEFF9A
:10C77000054605E0FEF7AAFF401B642800F242814F
:10C780007F4B1B689B03F5D52368980729D57C4A06
:10C79000516811F00C0F00F0E180516801F00C01BC
:10C7A000082900F0D7806369002B00F06681012220
:10C7B000744B1A60FEF78AFF054605E0FEF786FF18
:10C7C000401B022800F21E816D4B1B689E07F5D5A9
:10C7D0006B49A2690B6823F0F80343EAC2030B60BC
:10C7E0002368190729D45E074DD5654BDA69D50052
:10C7F00000F1DA800126DA6942F08052DA61DB6901
:10C8000003F080530093009B5F4B1B68D80540F1F9
:10C81000E7802369012B00F05781002B00F00C8189
:10C82000052B574B1A6A00F0AD8122F001021A6203
:10C830001A6A22F004021A624BE1E369002B00F04D
:10C84000978001224F4BC3F88024FEF73FFF054637
:10C8500005E0FEF73BFF401B022800F2D380484B67
:10C860005B6A9A07F5D5494B494A1B68A2FB03232B
:10C870005B0A019300BF019B5A1E0192002BF9D164
:10C8800023685E07B1D4E36A002B44D03C4A516868
:10C89000C80305D5516801F00C01082900F08C810E
:10C8A000022B40F0FB80364B1A68D20005D5DB6ABC
:10C8B000626B03F0F003934257D10022314B9A662A
:10C8C000FEF704FF054605E0FEF700FF401B642865
:10C8D00000F298802A4B1B681B01F5D401212848DF
:10C8E000626BC36A23F0F0031343C362C36A226B13
:10C8F00023F470631343234AC3629166FEF7E6FE96
:10C90000054604E0FEF7E2FE401B64287AD81C4B83
:10C910001B681E01F6D5236ACBB1194A526802F092
:10C920000C02082A00F036810022022B154B1A66F1
:10C9300000F0F180FEF7CAFE044604E0FEF7C6FEF2
:10C94000001B02285ED80E4B1B689B01F6D400200A
:10C9500002B070BD5268D1033FF525AF084A126896
:10C96000920731D56269012A2ED0012002B070BD34
:10C97000044AC2F88034FEF7A9FE05460FE000BF66
:10C980000010024000004242007000407000002091
:10C99000D34D6210FEF79AFE401B022832D8894B15
:10C9A0005B6A9B07F6D46BE700262DE74A68D10344
:10C9B0007FF5C2AE834A126892037FF5E6AEA268A5
:10C9C000002A7FF4E2AED0E77E49A0690A6822F02F
:10C9D000F80242EAC0020A6019077FF504AF2CE7AB
:10C9E000794A136843F480731360FEF76FFE0546BF
:10C9F000754B1B68D9053FF50CAFFEF767FE401B72
:10CA00006428F5D9032002B070BD6E4A136823F480
:10CA100080331360136823F480231360FEF756FEFF
:10CA2000054604E0FEF752FE401B6428EAD8654B39
:10CA30001B689E03F6D4A7E6624A136A23F001033B
:10CA40001362136A23F004031362FEF73FFE0546E8
:10CA500006E0FEF73BFE41F28833401B9842D1D8F6
:10CA6000584B1B6A9B07F4D4002E3FF40CAF554A79
:10CA7000D36923F08053D36105E7544A1360FEF76E
:10CA800025FE054604E0FEF721FE401B0228B9D82A
:10CA90004C4B1B689807F6D42368A2E6002149484E
:10CAA0004A4AC36A23F48033C3629166FEF70EFEDE
:10CAB000054604E0FEF70AFE401B6428A2D8414B5D
:10CAC0001B681801F6D426E73E4A136A43F00103B7
:10CAD0001362FEF7FBFD054606E0FEF7F7FD41F2A7
:10CAE0008833401B98428DD8364B1B6A9A07F4D581
:10CAF000002E3FF4C8AEBAE70120704703F180432F
:10CB0000A3F53C331A6842F480221A601A6842F492
:10CB100080321A602AE6FEF7D9FD054605E0FEF7E9
:10CB2000D5FD401B02283FF66DAF264B1B689901CF
:10CB3000F5D4636AB3F5803F0AD122486168C26ABE
:10CB40000A43C262C26AE16822F00F020A43C2626B
:10CB50000120A16A1B4C0B4362681C4922F4741229
:10CB6000134363600866FEF7B1FD044605E0FEF777
:10CB7000ADFD001B02283FF645AF124B1B689A0122
:10CB8000F5D5E4E642F004021A621A6A42F00102A4
:10CB90001A629EE7012B3FF4E8AE0A4B626A5B68BB
:10CBA00003F4803191427FF4E0AEA06A03F4701385
:10CBB000181A18BF0120CBE6D26AD1033FF5D5AED3
:10CBC0006EE600BF001002400070004000004242CC
:10CBD0001B494B6803F00C02082A01D01948704722
:10CBE0001948C3F3834210F802C0DA0310B5644653
:10CBF00010D5CB6A154AC86A03F00F03D25CC30391
:10CC00000CD4104804FB00F0B0FBF2F00D2C00D166
:10CC1000400810BD0E4800FB0CF010BDCB6AC96A7D
:10CC2000C3F30313C1F303210231A1FB0C10054828
:10CC30000133A3FB0223A1FB0001FBF7D3FAE5E7D5
:10CC40000010024000127A000CF40008FCF3000807
:10CC500000093D0078B14A4A136803F007038B428C
:10CC60000BD2136823F007030B431360136803F020
:10CC700007038B4201D00120704703682DE9F04182
:10CC80009A0714D55F0704D53E4C626842F4E0620F
:10CC900062601E0704D53B4C626842F460526260D9
:10CCA000384C8568626822F0F0022A436260DD0732
:10CCB0008846074620D54268324B012A1B6859D066
:10CCC000022A54D0990728D52E4C41F28835636842
:10CCD00023F0030313436360FEF7F8FC064604E009
:10CCE000FEF7F4FC801BA84247D863687A6803F01B
:10CCF0000C03B3EB820FF3D1214A136803F007034F
:10CD000043450DD9136823F0070343EA0803136072
:10CD1000136803F00703434502D00120BDE8F0810A
:10CD20003B685A0706D51749F8684A6822F4E0625A
:10CD300002434A601B0707D5124A3969536823F436
:10CD4000605343EAC1035360FFF742FF03460D4AB5
:10CD50000D4952680D48C2F30312895C0C4ACB405E
:10CD600000681360FEF76CFC0020BDE8F0819801BC
:10CD7000AAD4D2E79C03A7D4CFE70320CEE700BF15
:10CD80000020024000100240ECF300087800002070
:10CD900070000020014B1868704700BF7000002031
:10CDA0002DE9F04103680446DE0782B02FD5634BBE
:10CDB000DA69D50040F18E80614D00272B68D805D7
:10CDC00040F197805D4D61682B6A13F4407312D077
:10CDD00001F440729A420ED0012600202B6A594A73
:10CDE00023F44071C2F84064C2F84004DA072962B3
:10CDF00000F193806168514A136A23F440730B4336
:10CE000013621FB1D36923F08053D36123689E0757
:10CE100006D54A49A0684A6822F4404202434A6063
:10CE20005D0706D54549E068CA6A22F4003202432C
:10CE3000CA62180706D541492069CA6A22F48022CD
:10CE40000243CA623D4AD16A89030FD4D26A5703AA
:10CE50000CD4DB0606D5394AE169536823F4800314
:10CE60000B435360002002B0BDE8F081334A1168E3
:10CE7000CE0025D4136801205D01A16904D5D36AD1
:10CE800003F0F0038B42EED12C4DEB6A23F0F0035C
:10CE90000B43EB62EB6A626923F470431343294A44
:10CEA000EB621067FEF712FC064604E0FEF70EFC8C
:10CEB000801B64282DD82B689A00F7D52368C8E713
:10CEC000D26A616902F470428A42C2D0012002B083
:10CED000BDE8F081DA691A4D42F08052DA61DB690F
:10CEE000012703F080530193019B2B68D8053FF580
:10CEF00069AF2B6843F480732B60FEF7E7FB0646AF
:10CF00002B68D9053FF55EAFFEF7E0FB801B642878
:10CF1000F6D9032002B0BDE8F081FEF7D7FB41F25D
:10CF2000883680462B6A9B073FF564AFFEF7CEFB41
:10CF3000A0EB0800B042F5D9EBE700BF00100240BB
:10CF40000070004000004242704700BF00287DD0C2
:10CF500038B590F820300446002B74D0226813684E
:10CF600043F001031360FEF7B1FB054604E0FEF752
:10CF7000ADFB401B0A285DD823685A68D107F6D557
:10CF80001A6822F002021A60FEF7A0FB054604E0D0
:10CF9000FEF79CFB401B0A284CD823685A6892076E
:10CFA000F6D4227E0025012A1A684FF0010C0CBF2E
:10CFB00042F0800222F080021A60627E2846012A36
:10CFC0001A680CBF42F0400222F040021A60A27EB2
:10CFD000012A1A680CBF42F0200222F020021A60D7
:10CFE000E27E012A1A680CBF22F0100242F0100201
:10CFF0001A60227F012A1A680CBF42F0080222F050
:10D0000008021A60627F012A1A680CBF42F004020B
:10D0100022F004021A60D4E902210A4321690A437A
:10D0200061690A43616801390A43DA61656284F81B
:10D0300020C038BD0522636A012043F400336362D7
:10D0400084F8202038BDFFF77FFF87E70120704775
:10D0500090F820200346013A012A4FF0010004D93C
:10D060005A6A42F480225A627047454BD3F8002234
:10D070000243C3F80022D3F8002222F47C52C3F802
:10D080000022D3F80022D1F824C042EA0C22C3F8CF
:10D0900000224A6902F01F0C00FA0CF0D3F81CC2FF
:10D0A0002CEA000CC3F81CC2D1F81CC0BCF1000F64
:10D0B00048D1D3F80CC2D2002CEA000CC3F80CC241
:10D0C000D1F80CC08B8802F1804243EA0C4302F590
:10D0D000C842D1F808C0C2F840320B8843EA0C437A
:10D0E000C2F844328B69264A33BBD2F8043223EAB1
:10D0F0000003C2F804320B69214ABBB9D2F81432DA
:10D1000023EA0003C2F814320B6A012B05D11C4A32
:10D11000D2F81C320343C2F81C32194A0020D2F85C
:10D12000003223F00103C2F800327047D2F8143203
:10D130000343C2F81432E7E7D2F804320343C2F8DB
:10D140000432D8E7BCF1010FCCD1D3F80CC2D20025
:10D150004CEA000CC3F80CC2D1F800C08B8802F175
:10D16000804243EA0C4302F5C842D1F808C0C2F835
:10D1700040328B8943EA0C43C2F84432B2E700BF25
:10D180000064004038B590F820300446012B05D0EB
:10D19000436A43F400234362012038BD022302683E
:10D1A00080F82030136823F001031360FEF78EFA35
:10D1B000054604E0FEF78AFA431B0A2B07D82368CA
:10D1C0005B6813F00103F5D11846636238BD052290
:10D1D000636A43F40033636284F82020DCE700BF15
:10D1E00010B590F820E0D0F800C00EF1FF3EBEF17F
:10D1F000010F1C46DCF8083033D813F0E05F42D052
:10D200004FF0010EC3F301600EFA00F32360D1E981
:10D21000023E63BB0B684EEA435300F1180E4FEA1F
:10D220000E1E4CF80E300C690CEB0013C3F8844151
:10D23000097D012905D1D3F8841141F48071C3F827
:10D24000841151680CEB001CCCF88C111268002082
:10D25000CCF88821D3F8802142F00102C3F8802164
:10D2600010BD436A43F480234362012010BD4C6823
:10D2700043EA0E0300F1180E43EAC4034FEA0E1E00
:10D280004CF80E30CFE7436A43F400134362ECE7F7
:10D2900090F82030013B012B01D900207047036832
:10D2A00098689A689B681201C0F3806048BF01309B
:10D2B000DB00F3D50130704790F820C00CF1FF3C43
:10D2C000BCF1010F78D830B5D0F800C051B9DCF806
:10D2D0000CE01EF0030F0AD1436A43F400134362CB
:10D2E000012030BDDCF810E01EF0030FF4D00CEB91
:10D2F000011EDEF8B04104F004049460002C61D0FB
:10D30000DEF8B041E4085460DEF8B0410CEB011CDB
:10D3100004F00204D460DEF8B44124074EBF0824B0
:10D32000DEF8B44104F00F041461DEF8B441DEF815
:10D33000B4E1DCF8B8514FEA1E4EC4F3072CC2F832
:10D3400018C0C2F814E01D70026802EB0112D2F896
:10D35000B821120A5A70026802EB0112D2F8B82101
:10D36000120C9A70026802EB0112D2F8B821120E68
:10D37000DA70026802EB0112D2F8BC211A7102685D
:10D3800002EB0112D2F8BC21120A5A71026802EBB8
:10D390000112D2F8BC21120C9A71026802EB011240
:10D3A000D2F8BC21120EDA71036881B9DA6842F052
:10D3B0002002DA60002030BD436A43F480234362D8
:10D3C00001207047DEF8B041640D14609CE71A69D3
:10D3D00042F020021A61EDE790F820200346013A5E
:10D3E000012A05D95A6A012042F480225A62704704
:10D3F0000268002053690B4353617047704700BFB8
:10D40000704700BF704700BF704700BF704700BF44
:10D41000704700BF704700BF704700BF704700BF34
:10D42000704700BF704700BF03682DE9F0435C6997
:10D430005F689A68D9681E690546B0469E6983B0E0
:10D44000B14614F001061FD0D60700F182800026F5
:10D45000D0050BD54FF480702B689860930500F1D0
:10D46000BA80500540F1D88046F40056D0030BD561
:10D470004FF480302B689860930300F19F80500335
:10D4800040F1CF8046F40046230701D5C8065AD4A0
:10D49000620701D50B0771D4A00703D52B68DB68A1
:10D4A000990772D1620602D518F0100F5CD1A3065D
:10D4B00002D518F0080F73D1E00603D52B681B695D
:10D4C000990757D1A20301D5FB0662D4E00301D529
:10D4D00039076CD4220431D57B072A682CD509F092
:10D4E000010314F4807F43EA060318BF1E46A70514
:10D4F00017D519F0020F14D0600546F0020604F4A7
:10D50000006372D519F0040F6DD193B904235360F1
:10D510006B6A284633436B62FCF794F903B0BDE8AD
:10D52000F083610504F4006302D519F0040F5AD1A9
:10D5300013B119F070035DD104235360002EE7D1BD
:10D5400003B0BDE8F08310222B6846F40076DA6061
:10D550009EE701269E60960736D4530766D41607C9
:10D5600074D54FF4805673E710222B6846F480661A
:10D570001A619CE72846FFF74FFFA3E708222B68B4
:10D580002846DA60FFF746FF86E72846FCF7F6FBF9
:10D5900088E710222B6828465A60FFF741FF95E77D
:10D5A00008222B6828461A61FFF738FF84E7082213
:10D5B0002B6828465A60FFF735FF8BE72846009115
:10D5C000FFF720FF00995FE7CDE90021FFF716FF85
:10D5D000DDE900213BE72846CDE90021FFF710FFF8
:10D5E000DDE9002142E746F00406002B8ED019F059
:10D5F00070038BD0402B43D01BD8202B5BD0302B1B
:10D6000050D0102B37D10421936946F0080623F03F
:10D610007003936151607BE7130524D546F480467F
:10D6200024E7120319D546F480362DE74FF400663F
:10D630000EE7502B2DD0602B1DD10421936946F4A9
:10D64000807623F070039361516061E7CDE900219A
:10D65000FFF7DAFEDDE90021F9E628460091FFF741
:10D66000D7FE009910E72846CDE90021FFF7CEFE4E
:10D67000DDE90021FAE6936923F0700393615BE72B
:10D680000421936946F0400623F0700393615160D2
:10D690003EE70421936946F0800623F0700393610E
:10D6A000516035E70421936946F0200623F07003AA
:10D6B000936151602CE70421936946F0100623F032
:10D6C00070039361516023E730B370B504464CF6A4
:10D6D000CC45D4E9003145F25550A2681D60186070
:10D6E00059609A60FDF7F2FF23680546DA689007F3
:10D6F0000DD041F23C36FDF7E9FF401BB0422368F4
:10D7000002D9DA68910709D1DA689207F3D14AF6AB
:10D71000AA2200201A6070BD01207047032070BD4E
:10D7200003464AF6AA221B6800201A60704700BF11
:10D7300084B082B00DF10C0C8CE80E000021C3689F
:10D74000024643F04003C360019102E01369002BDD
:10D750000EDB019B01330193019BB3F1706FF5D98F
:10D760000320936B43F48033936302B004B070479B
:10D7700000230193136943F00103136103E010696F
:10D7800010F00100EDD0019B01330193019BB3F137
:10D79000706FF4D9E4E700BF022A03460AD04FF4C1
:10D7A0001051DA68002022F47052DA60DA680A4315
:10D7B000DA607047264A27488A18824232D9264AB8
:10D7C00026488A18824230D92548A1F57402A2F56C
:10D7D000105282422CD92348A1F18372A2F5E7426C
:10D7E000824228D3204A21488A18824226D9204AD8
:10D7F00020488A18824224D31F4A20488A1882422D
:10D80000CDD31F48A1F1B772A2F5585282421BD363
:10D810001C4A1D488A1882422CBF4FF4C0514FF455
:10D82000E051BEE74FF47051BBE74FF46051B8E7E9
:10D830004FF45051B5E74FF44051B2E74FF4305137
:10D84000AFE74FF42051ACE74FF40051A9E700BF18
:10D85000405327FFFF340C00401E1BFF3F420F00C8
:10D860007F4F120020D6130060B6E5FE5FE316007E
:10D8700000D3CEFE40771B00C05BB3FEC0912100F9
:10D8800020753800E05459FEE09C410003469A6838
:10D89000002042F001029A60704700BF03469A6878
:10D8A000002022F001029A60704700BF38B5C368BB
:10D8B000012923F0C0430546C36017D0A1B9C3684E
:10D8C0000C4643F08043C36001E0C82C0CD00A2012
:10D8D000FDF702FF6B690A34DB07F6D4A4F1C80038
:10D8E000B0FA80F0400938BD012038BDC36800247B
:10D8F00043F00053C36001E0C82CF5D00A20FDF7C7
:10D90000EBFE6B690A34DA07F6D5A4F1C800B0FA69
:10D9100080F04009E7E700BF002382B0019302E0F6
:10D920000369002B09DB019B01330193019BB3F1D8
:10D93000706FF5D9032002B070470023890141F0D0
:10D9400020010193016103E0036913F0200307D074
:10D95000019B01330193019BB3F1706FF4D9E9E7A7
:10D96000184602B0704700BF002382B0019302E066
:10D970000369002B09DB019B01330193019BB3F188
:10D98000706FF5D9032002B0704700221023019276
:10D99000036103E0036913F0100307D0019B013317
:10D9A0000193019BB3F1706FF4D9EBE7184602B015
:10D9B000704700BF84B0F8B507AD85E80E000023BE
:10D9C00004461D469DF81C6004EB830201330F2BB7
:10D9D000C2F80451F8D1A36B102143F40023A363D0
:10D9E000C4F8005ED4F80038204643F00303C4F8BE
:10D9F0000038FFF791FF01462046FFF7B5FF41EAE7
:10DA0000000C5FFA8CFCBCF1000C04F500673D6172
:10DA100018BF4FF0010C7D61FD61002E39D0D4F8A4
:10DA2000002904F51063002A5ADB00220021196046
:10DA300000254FF67F310132B2421D6199600BD053
:10DA400053F8200F0028F1DA4FF090400132B24233
:10DA500018601D619960F3D1D4F8002B04F5306390
:10DA6000002A43DB00220021196000204FF67F3599
:10DA70000132B24218619D600BD053F8201F00297B
:10DA8000F1DA4FF090410132B242196018619D60A5
:10DA9000F3D16FF0804200203B699DF8221023F4FF
:10DAA00080733B61A0616261A269134B42F0100276
:10DAB000A261A2691343A36119B1A36943F00803EA
:10DAC000A3619DF82630012B05D1A36943F0804363
