:04000005080081E48A
:020000040800F2
:108000000000012009FA000871C10008B5C100088C
:10801000CDC10008E5C10008FDC100080000000056
:1080200000000000000000000000000015C2000871
:1080300019C20008000000001DC2000821C200088B
:1080400051FA000851FA000851FA000851FA0008E4
:1080500051FA000851FA000851FA000851FA0008D4
:1080600051FA000851FA000851FA000851FA0008C4
:1080700051FA000851FA000851FA000851FA0008B4
:1080800051FA000851FA000851FA000825C2000808
:1080900031C200083DC2000849C2000851FA000878
:1080A00051FA000851FA000851FA000851FA000884
:1080B00051FA000851FA000851FA000851FA000874
:1080C00051FA000851FA000851FA000851FA000864
:1080D00051FA000851FA000851FA000851FA000854
:1080E00051FA000851FA000851FA00080000000097
:1080F0000000000000000000000000000000000080
:10810000000000000000000051FA000851FA0008C9
:1081100051FA000851FA000851FA000851FA000813
:1081200051FA000851FA000851FA000851FA000803
:1081300051FA0008000000000000000055C20008CD
:1081400061C200086DC2000879C2000885C200083B
:10815000000000000000000000000000000000001F
:10816000000000000000000000000000000000000F
:1081700000000000000000000000000000000000FF
:1081800000000000000000000000000000000000EF
:1081900000000000000000000000000000000000DF
:1081A00000000000000000000000000000000000CF
:1081B00000000000000000000000000000000000BF
:1081C00000000000000000000000000000000000AF
:1081D000000000000000000000000000000000009F
:1081E0005FF8E0F153B94AB9002908BF00281CBF65
:1081F0004FF0FF314FF0FF3000F00CB8ADF1080C3C
:108200006DE904CE07F026FCDDF804E0DDE9022389
:1082100004B07047704700BF034613F8012B002AD3
:10822000FBD1181A013870470348044B834202D02F
:10823000034B03B1184770479001002090010020C4
:10824000000000000548064B1B1AD90F01EBA301E3
:10825000491002D0034B03B118477047900100202A
:10826000900100200000000010B5064C237843B9AF
:10827000FFF7DAFF044B13B10448AFF3008001238A
:10828000237010BDB80100200000000000FE0008AF
:1082900008B5054B1BB105490548AFF30080BDE8A3
:1082A0000840FFF7CFBF00BF00000000BC01002066
:1082B00000FE00080849094A914238BF084603D326
:1082C00008E00430904203D20368B3F1C53FF8D010
:1082D000401A70470020704764E50020000001202C
:1082E000014B1878704700BFE1010020014B18785E
:1082F000704700BFE0010020014B1868704700BFC5
:10830000DC010020014B1868704700BFD801002035
:108310000F4B82B0DA69DFF83CC042F08052DA617C
:10832000DA690D4902F080520092009ADA6942F04F
:108330000062DA61DB6903F000630193019BDCF802
:10834000003043F48073CCF80030C86002B070474E
:108350000010024000700040006C004030B5044640
:108360008E46104A1049DFF844C01160DCF8043032
:10837000646980691361DCF82850C2E901046B402C
:108380005561C2F80CE06340DCF82C40DCF8385052
:1083900063406B4083EA0E0343404B409461D561D8
:1083A000136230BD900100204853524300ED00E0BD
:1083B0000D480E4B02689A4214D14368C16853407D
:1083C000826810B45340026944694B405340634093
:1083D000D0E906215340026A4B409A4218BF002060
:1083E00010BC704700207047900100204853524352
:1083F0002DE9F0479EB003F077FF6B464148A3F1AB
:108400004002824207D91A1A413A22F00302C521DA
:10841000043207F0BBFC3C4A3C48D1693C4B41F07C
:108420008051D161D1693B4C01F08051009100999C
:10843000D169394D41F00061D161D269374902F00B
:1084400000620192019A0268354F42F48072026024
:108450009A680A70DA68D2B222705969186940EADB
:10846000014000212860DE69986940EA06402D4EEF
:108470003060186A3870196222B1D9601961596187
:108480009961D9613422002111A807F07FFC2022D4
:1084900000210DEB0200CDE90311CDE90511079193
:1084A00007F074FC4FF4803312934FF4E0134FF055
:1084B000010802221A934FF4803310A8CDE9182343
:1084C000CDF8408004F04EFF08B172B6FEE71023ED
:1084D0000F9008A8089305F08FFA034608B172B60A
:1084E000FEE74FF00F0C0593079302231946CDE9E1
:1084F00003C34FF4806303A8069305F0D7F998B13E
:1085000072B6FEE764E500200010024000700040F3
:10851000006C0040E0010020DC010020E1010020AF
:10852000D4010020D8010020A04BA1499A694FF046
:10853000020A42F001029A619A69814602F0010240
:108540000892089A4A6822F0E06242F000724A609B
:108550009A6910A942F004029A619A6902F0040231
:108560000292029A9A6942F010029A619B694FF452
:10857000005203F010030393039B012312908D48D4
:10858000CDE91023CDF84CA004F07CF842464FF41E
:108590000051884804F08AF94FF40072002386489D
:1085A00010A9CDE91023CDF8489004F06BF84FF4F2
:1085B0008063CDF844804FF400687E4810A9109382
:1085C000CDE9129A04F05EF84A464FF4806179488A
:1085D00004F06CF9774810A9CDF8408004F052F807
:1085E00041464FF480584A46724804F05FF971489A
:1085F00010A9CDF8408004F045F841464FF40048FA
:108600004A466C4804F052F96B4810A9CDF84080F6
:1086100004F038F841464A46674804F047F9032316
:10862000664A536040F2E1439360654B1046136025
:1086300005F0ACFE8046002840F08E8002F0B8FDC8
:10864000604B614A19680D20914218BF43464FF0B4
:1086500003014FF0070208BFDB6802F005FE217836
:1086600000297BD10127594D03262F6202F0CCFE51
:1086700002232B6201F056FF2E62002003F056F811
:10868000534C2060384603F051F801466060206882
:1086900001F06EFA0423314600202B6200F05AFEEE
:1086A000052300222B624B494B4806F0A5FB4B49A2
:1086B000494806F0B7FB4A49474807F053F946488E
:1086C00006F0BAFB06232B6201F078FB07232B622E
:1086D00002F00CFC03F022FB064603F025FB0446E7
:1086E00003F028FB082307462B62344805F07AFE86
:1086F00003F014FB8642054604D00246FF21072002
:1087000002F030FD03F010FB8442064604D002461E
:10871000FF21082002F026FD03F00CFB87420446EF
:10872000A0EB070207D0FF2A28BFFF22FF210A2063
:10873000D2B202F017FD4FF400711F4804F0B0F8F8
:10874000274601F059F8344602F020FC2E4600F08E
:108750000BFE03F0A7FAC8E772B6FEE72B680C2001
:10876000727802F081FDFFF723FE0546B8B1436938
:10877000C27E21780F2002F077FD00221020EB69E5
:10878000297B02F071FD2969AB68C1F30722112032
:10879000C9B202F069FD0022124B1A601A6200226F
:1087A0000E20397802F0DEFC5CE700BF00100240CA
:1087B000000001400010014000080140E8010020D5
:1087C0000030004000D0030831505041006C0040A0
:1087D0000000002058000020F40100204C0100207F
:1087E0000C00002090010020014805F0FBBD00BFF7
:1087F000E8010020BFF34F8F0549064BCA6802F419
:10880000E0621343CB60BFF34F8F00BFFDE700BFB3
:1088100000ED00E00400FA05002000B5114B83B024
:10882000DA69DFF844C042F08052DA61DA690F4950
:1088300002F080520092009ADA6942F00062DA6136
:10884000DB690B4A03F000630193019BDCF8003005
:1088500043F48073CCF80030C2F8F00F4860FFF7A3
:10886000C9FF00BF0010024000700040006C0040D3
:1088700000400020F0B51030C3B01D468DF8040054
:108880008DF805108DF8063033B12AB111460DF17F
:1088900007001A4607F0A6FA03F044FD0024074635
:1088A000033507E0FFF7A0FF03F03CFDC01BB0F568
:1088B000617F07D221462A4601A803F03BF9854291
:1088C0000446EFD843B0F0BD2DE9F04FADF5517D32
:1088D00003F0EEF830B9B34B186000200DF5517D70
:1088E000BDE8F08F03900DF11E01002003F006F9A2
:1088F0009DF81E40039A4CBB162A174628BF162720
:108900009046A94D8BAEBFB23146A0B203F0F6F847
:108910002A7833789A4216D10134A74205F101052D
:10892000F2D1B8F1150F00F2878403F0FBFC9D4AE9
:108930001368002B00F0B883C01AB0F5FA7FCCD3CF
:1089400000231360A4E042469DF81E40A02C00F0D6
:10895000F6807ED9BE2C00F2A080BA2C40F298801E
:10896000BC2C00F0FA80BE2C00F0AF83042A40F249
:108970009D8308AB1946B4F1BB094FF00100049385
:10898000039218BF4FF0010903F0B8F809A90220BB
:1089900003F0B4F8032009A99DF8247003F0AEF8A1
:1089A00004204FF005084FF0000B9DF82430039A87
:1089B00047EA032705900AA9039203F09FF89DF860
:1089C0002830082B64D8039AB9F1000F00D19844DD
:1089D00008F10105AA42C0F06983002603974AAC5A
:1089E0004AAF2146B0B2013603F088F8AE4204F136
:1089F0000104F6D100233A464AA9039F01EB08007F
:108A000012F8011B824283EA0103F9D14AA911F845
:108A100008209A423CD1049B9DF828201978002315
:108A20008DF82C128DF82DB2CDF82F728DF82E9274
:108A30008DF833228DF83432B9F1000F00F04883FD
:108A4000CDF83532CDF839328BA801F037FAA8B21B
:108A500044E7902C66D0922C1AD102F0D9FD9323D2
:108A600005468DF82C32827B00F10F010DF22E208D
:108A70008DF82D2207F0B6F9FF234C4AA97B8BAC69
:108A8000127820460C44A270E370043103F0B4F86D
:108A900001200DF5517DBDE8F08F4034E4B2122C79
:108AA000F6D8012A00F088800DF11F073946012011
:108AB000039203F023F83B78039A9C1CA2427BD3D9
:108AC00063B100254AAEA81C314680B203F016F807
:108AD0003B780135AB4206F10106F4D8344E3368D9
:108AE0000133336003F01EFC05469DF81E003B7801
:108AF000A0F1C002122A00F22684DFE812F08C02F4
:108B0000B1024602340226021802EB015402B401FB
:108B10004601380124010C01F500DB0088007F00CC
:108B2000C9006D0091232149224A0C7812788BA844
:108B3000032144708270037003F05EF8A8E7002000
:108B400001F0ACF90346A1241A0A8BA80321047092
:108B50004270837003F050F89AE74FF00009062A3C
:108B600040F2A48200252F4608AB19460120049349
:108B7000039202F0C3FF039EA81C80B209A902F071
:108B8000BDFF9DF82430EA0001359340042D47EAEB
:108B90000307F1D1062032464FF007084FF0010BD2
:108BA000059008E7B804002098010108C9040020D6
:108BB000C4040020C804002003F0B4FBBC4B1A68B6
:108BC000002A00F08082801AB0F5FA7FFFF485AEAB
:108BD000002201201A6081E602F084FEB0FA80F1E2
:108BE00000234909D2201A464900FFF743FE03F04B
:108BF00099FBB04A431B1360A0B26FE6002B40F014
:108C000093821A460121D020FFF734FEEFE7032BB1
:108C100040F2A282042B4A9800F0A1829DF82C21F8
:108C2000002A00F09C82172A28BF17228BA902F085
:108C30001DFB8DF82800002800F0ED8200EB80017C
:108C400000EB41010DF129038BAA19448700166836
:108C50000B3343F80B6C56680C3243F8076C12F870
:108C6000046C03F8036C12F8036C03F8026C12F83E
:108C7000026C03F8016C8B42E9D1074400EB470713
:108C80007B1C0021CF200AAADBB2FFF7F3FDAEE781
:108C9000012B08D99DF82921152A04D8911CC9B2A5
:108CA0008B4280F0BA8200230121D1201A46FFF7BF
:108CB000E1FD9CE7022B40F222829DF82861013EF3
:108CC000F6B2012E00F21B82BDF8297130463946FA
:108CD00001F09EF80346002840F0E6820246022199
:108CE000CE20FFF7C7FD82E7022B40F20F829DF8EE
:108CF00028010138C0B2012800F208829DF82A211B
:108D00009DF8291100F0FCFE0023CD201A461946DB
:108D1000FFF7B0FD6BE702F0DDFF804602F0E0FFF9
:108D20008646644B3668D3F800C0634B8BAA1F6835
:108D300000211423CC20C2E9008EC2E9026C176125
:108D4000FFF798FD53E7012B00F02282022B07D199
:108D50009DF8280120B99DF82931A52B00F01D822E
:108D600000230121CB201A46FFF784FD3FE7522B59
:108D700004D99DF82821452A40F2F38100230121DE
:108D8000CA201A46FFF776FD31E702F041FC0021C8
:108D900007464A220DF22E2006F0F8FF0722474B25
:108DA0008DF82D221B780A228DF82C3201238DF8A4
:108DB0002F327B7F8DF83032BB7F8DF832228DF8D9
:108DC000313202F029FC4FF480713D4A8DF83302B4
:108DD000ADF82E123B4B12689A4200F016823A4AC6
:108DE000DFF8E8C08FAB0AAF07CAB84683E80700D0
:108DF000BCE80F000FC79CE8030047F8040B39706C
:108E00000746B8E80F000DF5127EAEE80F00304BB4
:108E1000CEF8007093E80300CDE99701FFF760FA00
:108E20008DF8640202F07AFF8DF8650202F07CFF93
:108E30008DF86602FFF75AFA8DF8670202F07AFFA2
:108E40009A90FFF737FA9B90FFF756FA0746FFF71D
:108E500059FA02464C23CDE99C720021C9208BAA05
:108E6000FFF708FDC3E600270AAA176008A809A9AA
:108E70000760099702F0F6F8DDE90813CDE98B13D6
:108E800002F004F98DF8340202F0C6FB8DF83502C9
:108E900001F0B0FC46220A9B8DF836028E938DF8C5
:108EA000372210233946C8208BAAFFF7E3FC9EE641
:108EB000B8040020C0040020BC040020C804002026
:108EC00000D0030831505041E8F7FF1F240101088A
:108ED00018010108002B00F004819DF82871013F62
:108EE000FFB2012F00F2FD8000260AA90E6038466D
:108EF00000F0ACFD8046384600F0C2FDB4460246A4
:108F00000A9F68F3070C62F30F2C314667F3174C86
:108F10003E0A8BAA66F31F6C3E0C3F0E0623C6204A
:108F2000C2F800C016715771FFF7A4FC5FE6012B71
:108F300004D99DF82801452840F2538100230121DE
:108F4000C5201A46FFF796FC51E6522B04D99DF82E
:108F50002821452A40F22D8100230121C4201A46F0
:108F6000FFF788FC43E6002B00F0D7809DF828012E
:108F70008BA901F029FC002800F0CF805A230021A2
:108F8000C3208BAAFFF776FC31E6042B04D1BE4B3D
:108F90004A9A9A4200F0958100230121C2201A4684
:108FA000FFF768FC23E6002B00F0A2809DF8280163
:108FB0004AAF0138C0B2012800F29A800AA900F035
:108FC000D7FBDDE90E23DDE90C01DDF828C0CDE992
:108FD0008E12CDF82CC2DDF82CC09093CDE98CC058
:108FE00000F066FF8DF8440238780138C0B200F016
:108FF00055FF020A8DF84622119A8DF84502CDF8E8
:109000004B22109A2323CDF847220021C7208BAA98
:10901000FFF730FCEBE502F0FBFA06460279411D52
:109020000DF22D208DF82C2206F0DCFE33798BAF6B
:10903000B27B981C3B445A7006F10F01039038181C
:1090400006F0D0FEB37B039A00211344D6F8192012
:10905000C020FA5004333A46DBB2FFF70BFCC6E5FA
:10906000012B1AD99DF828114AA8092915D84A1C9C
:109070009A4212D811D0875C0A2F0ED88A1CBE18CB
:1090800006F1040C634508D3A3EB0C03022B04D1B7
:1090900010F80C30A52B00F0218100230121C12004
:1090A0001A46FFF7E7FBA2E5106016E403F03AF971
:1090B000764B1A683AB1801AB0F5FA7FFFF40DAC1E
:1090C00000221A60E4E4186007E44FF0010946E565
:1090D00005994AAB013119440DF2352006F082FEA4
:1090E000B2E400230121C6201A46FFF7C3FB7EE548
:1090F00000230121C7201A46FFF7BCFB77E50023B8
:109100000121CE201A46FFF7B5FB70E500230121AF
:10911000CD201A46FFF7AEFB69E500230121C320ED
:109120001A46FFF7A7FB62E500230AA99DF828016C
:109130008DF8283002F088FB9DF8287001468DF8E4
:109140002C7208B1002F5AD17B1C0021D0208BAA91
:10915000DBB2FFF78FFB4AE50020172266E51722F6
:1091600064E5591E8BAA0DF2291001F07FFB00283F
:109170003FF404AE8BA99DF8280101F08BFB00237E
:10918000B0FA80F11A46CA204909FFF773FB2EE5B1
:109190009DF8280100283FF4E3AD01F0CBFBB0FAC5
:1091A00080F100234909CB201A464900FFF762FBF2
:1091B0001DE5591E8BAA0DF2291001F057FB00285E
:1091C0003FF4CAAE8BA99DF8280101F0C7FCB0FAA4
:1091D00080F100234909C4201A464900FFF74AFBE1
:1091E00005E59DF8291101F0CDFCB0FA80F10023CE
:1091F0004909C5201A464900FFF73CFBF7E43A4607
:109200000DF22D2006F0EEFD9EE7214A92E80300C4
:10921000CDE98D01E3E507462FE50DF595719DF844
:10922000280102F037FB0023B0FA80F11A46D12062
:109230004909FFF71FFBDAE44BF6EF60154B1649BF
:10924000DA69164C42F08052DA61DA6902F0805233
:109250004A924A9ADA6942F00062DA61DB69104A9E
:1092600003F00063336033680B6843F480730B6072
:109270000C4B5060FF210022C4F8F03F0B2001F09E
:1092800071FFFFF7B7FA00BF46434C52B804002005
:1092900008D0030800100240007000400040002089
:1092A000006C0040EFBEADDE3946304602F05EFA9B
:1092B000034600283BD102460321CE20FFF7DAFA0D
:1092C00095E401F09DFA0023C2201A461946FFF7E3
:1092D000D1FAC82002F034FDFFF79EFA0DF22D13EB
:1092E0009B5D5A2B7FF4D9AE3B460DF22B1717F836
:1092F00006C00DF59577BF5D024447EA0C2701973C
:10930000875D0DF22910865D47EA0626009602F079
:1093100089F90646B6FA86F100234909C1201A46A2
:109320004900FFF7A7FA002E3FF461ACD1E73046C1
:1093300000F0B4FD06468BAA02230021CE20168041
:10934000FFF798FA53E4002303211A46FFF792FA35
:109350004DE400BF024A034B10701970704700BF04
:10936000C9040020C80400202DE9F04320264FF056
:109370000008624A624F13688BB001331360FFF735
:10938000A3FA054658B10024C7F80080013402F062
:109390009BFBAC42FAD1013EB6B2002EEFD14FF0AA
:1093A000000840266F4602F083FB00285DD140464E
:1093B00005A900F06FF9002851D005A801F010FCB4
:1093C0009DF816109DF81530002951D0002B59D06A
:1093D0004FF0AD0C9DF81C40003CDDF8173018BF75
:1093E00001241D469DF81420180A013242EAC412D5
:1093F0009DF81B408DF801201A0C1B0E8DF800C043
:109400008DF804208DF805308DF803008DF802509A
:109410008DF8064091BB07250821E9465CB1B946A5
:109420000DF11D017819224606F0DCFC611EC9B25F
:1094300029440231254400224846134610F8014BC6
:1094400001339D4282EA0402F8D8013E48466D4449
:1094500089B2B6B22A7002F0DDFB002EA3D108F16A
:109460000103022B4FF001089BD10BB0BDE8F08344
:1094700033B34FF0AB0C9DF81C40ADE70821072536
:10948000B946D8E79DF81C20AC24003A18BF012249
:109490009DF81430DDF817009DF81B500133010AC8
:1094A00043EAC2138DF803108DF8045006210525F8
:1094B000B9468DF802008DF800408DF80130BAE70A
:1094C0009DF81C20AA20003A18BF01229DF81430F4
:1094D000DDF817109DF81B4001330D0A43EAC21353
:1094E0008DF803508DF80210052506218DF80440F3
:1094F0008DF800008DF801308FE700BFBC0400201C
:10950000B8040020642908B52AD01BD814292BD010
:10951000322923D00A2914BF0422C82200234FF481
:10952000602C4FF4801142604FF00122C0E90233F9
:10953000C0E904C18261838304F034FBB0FA80F097
:10954000400908BDFA290DD0B1F57A7F04D07D29F4
:1095500014BF04221022E1E70222DFE72822DDE720
:109560001422DBE70822D9E76422D7E700234FF073
:109570000E0C10B58AB00122CDE90133CDE90333D9
:1095800000930693994218BF634669460446CDE9A5
:109590000722CDF824C0059304F086FB18B92046B5
:1095A00004F01CFC10B100200AB010BD02212046BE
:1095B00004F074FDB0FA80F040090AB010BD00BF9D
:1095C00043F69032324BF0B502FB003202F56E5298
:1095D000B2F800C043F682341FFA8CFC0CF1010C87
:1095E000BCF5607F38BFB2F800E043F6903228BF88
:1095F0004FF0000E02FB003232F804C03CBF0EF107
:10960000010E1FFA8EFE1FFA8CFCF4451FD132F8B2
:1096100004C043F684361FFA8CFC0CF1010CBCF537
:10962000607F38BF145B43F6903228BF00244FF0B0
:10963000010C43F6823743F68C3502FB003238BF0B
:109640000134D45302F806C054596444545143F6CB
:10965000903243F6883400FB02F29818055900F561
:109660006E5C01350551BCF800000E6880B200EB5D
:1096700000104D688C681044CA681E5003445D6039
:109680009C60DA600A7CACF800E01A74F0BD00BFA0
:10969000A80D0020012863D840F2444200FB02F2EA
:1096A000F0B5DFF8C4E00EEB020CBCF84234BCF8B5
:1096B00040449C423CD143F6903E43F682372B4ACD
:1096C0000EFB002C0CF56E531B889CB23CF8073047
:1096D0009BB29C4246D03CF807309BB203EB03138D
:1096E0000EFB003302EB030ED458DEF80450DEF814
:1096F0000C30DEF808600C604D608E60CB609EF828
:1097000010300B743CF8073043F682319BB20133C2
:10971000B3F5607F38BF3CF8073043F6903C28BF74
:1097200000230CFB002238BF013353520120F0BD4F
:1097300003EB031010440EEB00025EF80040556886
:10974000D2F808E0D0680C604D60C1F808E0C8604D
:10975000127C013303F03F030A74ACF84234E5E7AE
:10976000002070470020F0BD10050020A80D00204B
:1097700099B301288C4603462AD800B543F6903E9B
:1097800043F6883043F68C31144A0EFB03221058FE
:10979000CCF80000124850F8230052581149CCF878
:1097A0000820114ACCF8040051F8230052F8232075
:1097B0000E49CCE903020E4A0E4851F8231052F824
:1097C000232050F82330CCE90512CCF81C3000BD22
:1097D00020220021604606F0D9BA7047A80D00206B
:1097E000A00D0020F8040020F0040020E804002070
:1097F000980D0020DC040020884B1B78002B00F023
:10980000FA802DE9F04F864B8FB000251E46E946C1
:10981000844ADFF814A2CDE90032DFF81082336801
:10982000ECB2D3F818B01AF805301BF0040271D06E
:1098300003F0FF02002B00F0B5801BF070027AD11C
:109840001BF0030F10D00123794A1BF0010F535571
:1098500006D0784A52F8253043F0010342F825300B
:109860001BF0020F40F09680002730461BE0079A5D
:109870008DF809008DF80A300B9B204602A9CDF81F
:109880000B208DF80F308DF81070FFF799FE58F807
:109890002530062001330022214648F8253001F00A
:1098A00061FCD9F80000002104F0E6FB00B3EFF3FF
:1098B000108672B60021D9F800000DF1110307AA35
:1098C00004F04AFB86F3108890B9DDE90923A3F17F
:1098D0000203B3FA83F3042A4FEA53138DF80840C6
:1098E000C5D10121089A8DF80A308DF80910C3E717
:1098F00043F6903343F6843100224F4803FB0503BF
:10990000585C5A54002840D1002D3BD1012559F80C
:10991000046F84E7002B90D048480AF8052050F8DF
:1099200025302146013340F82530042001F01AFC8F
:109930001BF0700284D0012741483D4950F8253082
:10994000402A3B4440F825304F5560D056D8202A55
:1099500052D0302A5DD0A2F11007B7FA87F77F09FD
:10996000FF003448120950F8253021463B4340F8A7
:109970002530022001F0F6FB3268936923F0700372
:1099800093615DE70FB0BDE8F08F2146052001F03F
:10999000E9FBB9E7274A52F8253043F0020342F8C1
:1099A000253061E70127DFF89CE00AF805705EF8D2
:1099B00025C01F4BBC444EF825C0DFF88CC02146A3
:1099C0000CF80570DFF86CC05F555CF8253003209B
:1099D00043F004034CF8253001F0C4FB394630460F
:1099E00004F082FA0221304604F07EFA0421304667
:1099F00004F07AFA21E770471027B2E7502A0AD01C
:109A0000A2F16007B7FA87F77F093F02A9E7174677
:109A1000A7E72027A5E78027A3E700BFD8040020F9
:109A2000F0840020C8840020E4040020DC0400202E
:109A30000C05002000050020A80D0020E8040020EF
:109A4000F8040020F0040020080500200128034647
:109A500010D84FF0000C084A105C02F803C0C0B2E6
:109A6000064A19B152F823C0C1F800C0002142F8DB
:109A700023107047002070470C05002000050020CF
:109A80000128034605D80021034A105CD154C0B216
:109A900070470020704700BF080500200368114987
:109AA00010B55B1A18BF01230124416A0E4ADFF882
:109AB0003CE0DFF83CC04EF82310D4545CF823207F
:109AC00022444CF823204A0709D50A4A0A49D454AB
:109AD00051F82320224441F82320084AD45400237B
:109AE000436210BD006400400C050020000500200A
:109AF000F804002008050020F0040020E404002001
:109B00002DE9F04190460C4684B048BB80210826E0
:109B1000154F1548019102F0C3FE0546221E18BFDD
:109B200001221148019902F0C1FEB8F1000218BFEC
:109B300001223146384602F0B9FE012D0DD164B93B
:109B40000394039BB3F5B47F07D200BF039B01339B
:109B50000393039BB3F5B47FF7D304B0BDE8F08162
:109B600010210426014FD4E7000C014000140140ED
:109B70002DE9F04700248CB0814647F220728A46D6
:109B80007B48002106F002F940F68802002179485E
:109B900006F0FCF8784D794B79481C802C80012523
:109BA0007849794A0460794B4460794E0C604C6086
:109BB00014605460774A784F1C6007945C6034707E
:109BC0001480BB69754A43F00103BB61BB697448EB
:109BD0002B400093009B536804A923F4C04343F037
:109BE000E06343F48043536053684FF0030843F04D
:109BF000E8635360BB694FF4807243F00803BB61B4
:109C0000BB6903F008030193019BBB6943F0200388
:109C1000BB61BB6903F020030293029B0023CDE9E3
:109C20000423069502F02EFD4FF4007202235C48D7
:109C300004A9CDE90423CDF81C8002F023FD2022E5
:109C40000023574804A9CDE90423069502F01AFD24
:109C500040220223524804A9CDE90423CDF81C80F8
:109C600002F010FD4FF0020C802201234FF010088B
:109C7000B9694B4841F01001B961B969CDF82CC000
:109C800001F01001039108A9CDE908230A94039B70
:109C900002F0F8FC22468021414802F007FE4048CD
:109CA00008A9CDF8208002F0EDFC41464FF00808ED
:109CB00022463B4802F0FAFD394808A9CDF8208039
:109CC00002F0E0FC41464FF004082246344802F01E
:109CD000EDFD344808A9CDF8208002F0D3FC2246DF
:109CE0004146304802F0E2FDFB692F4943F0007322
:109CF000FB61FB692D4803F000730493049BFB692F
:109D00002B4A43F08063FB61FB690160294903F042
:109D100080630A6008934946089BFFF7F3FB20B96C
:109D2000002738460CB0BDE8F08751462148FFF7C0
:109D3000E9FB0028F4D0204B21461C48C3E9009AD7
:109D4000FFF714FC0028EBD029461A48FFF70EFC59
:109D500007460028E4D0224621462046FFF7D0FEE1
:109D6000224621462846FFF7CBFE3570D9E700BFD3
:109D7000A80D002010050020080500200C0500207B
:109D800000050020F8040020F0040020E804002072
:109D9000D8040020E404002000100240000001402C
:109DA000000C01400014014000640040F0840020D9
:109DB00000680040C8840020D004002008B5134B80
:109DC0001B7803B908BD00220521142002F0D4FA43
:109DD000142002F003FB00220621162002F0CCFA28
:109DE000162002F0FBFA00220521402002F0C4FAFE
:109DF000402002F0F3FA42200022062102F0BCFAD1
:109E0000BDE80840422002F0E9BA00BFD8040020B3
:109E10001E4B1B7873B301282CD87D2907D021D87D
:109E2000322904D02DD80A2901D0142922D1184B67
:109E300053F820208A4227D030B583B0F8B9154AAC
:109E4000054610460C460192FFF75CFBA0B129467F
:109E50000198FFF78BFB78B101200D4B43F82540AB
:109E600003B030BDB1F5FA7FE1D0B1F57A7FDED035
:109E7000FA29DCD000207047002003B030BD064A2C
:109E8000DEE76429F6D1D2E701207047D80400202C
:109E9000D0040020F0840020C884002001289ABF4C
:109EA000024B53F820000020704700BFD004002070
:109EB000014B1878704700BFD8040020444B1B7832
:109EC000002B54D0002852D0F0B506788DB0013E5A
:109ED000F6B2012E3DD8002E3ED043783D4DD0F84D
:109EE0000320002B3ED1C2F30A011A46CDE9061326
:109EF00083780892003B18BF01230022C1795B00E0
:109F000007464FF4FA740A918DF82C20099301E06A
:109F1000013C18D0284604F00BF80028F8D0284659
:109F20006B4607F1090206A903F086FF58B92A4AD1
:109F30003C7A52F82630072C03F1010342F8263010
:109F400017D9012006E0254A52F82630013342F89D
:109F5000263000200DB0F0BD4378214DD0F803200D
:109F6000002BC0D022F0604300210422BEE7002075
:109F7000704740F2444C38687968FB68BA68DFF88B
:109F800064E001AD0FC50CFB06E03B7C2B70B0F824
:109F90004034B0F84254591C01F03F018D42D0D0FA
:109FA000013403EB03138DF80C400CFB06348DF8E1
:109FB000046001ADA0F840140FCD4EF804002878DD
:109FC0000EEB04067160B260F3603074B9E700BF55
:109FD000D8040020C8840020A00D0020980D002087
:109FE000F08400201005002010B58CB000210DF188
:109FF000090305AA044603F0AFFF08BB154923680F
:10A00000089A5B1AA2F1020218BF0123B2FA82F287
:10A010000799520904298DF8003013D0DDF814C0D7
:10A020008DF801008DF8022000221846099B694630
:10A03000CDF803C08DF807308DF80820FFF7C0FA7F
:10A040000CB010BD0121DDF818C08DF802208DF88C
:10A050000110E9E7006400401B4B02689A420CD1F2
:10A06000844600B590F831009CF8322038B10228BF
:10A0700022D1522A24D0002000BD00207047002A9F
:10A08000FAD1012911D00022481E0CF1FF318B1C9E
:10A0900011F801EFA3EB0C0382EA0E02DFF82CE0CB
:10A0A00098421EF80220F2D884449CF80000801ADE
:10A0B000B0FA80F0400900BD0328DCD15A2ADAD179
:10A0C0008A42D8D1DFE700BF3247525418FE000859
:10A0D00000285DD04379022B58D890F82030022B0D
:10A0E00054D88379012B51D890F82120012A4DD8DA
:10A0F000C17B08294AD890F82610082946D890F83C
:10A100003310012942D890F84F1002293ED890F818
:10A11000341001293AD890F83510022936D890F831
:10A120003610012932D890F83BC0BCF1080F2DD869
:10A1300090F853C0BCF11F0F28D890F856C0BCF15E
:10A14000010F23D840F2FF7C002B0CBF63466FF059
:10A15000604300B5002AD0F807E00CBF62466FF0FC
:10A160006042002918BF6FF0604C9E4511D8D0F8AE
:10A170000B1099420DD8D0F82230934209D8D0F86C
:10A18000370060458CBF0020012000BD00207047D3
:10A190007047002000BD00BF2DE9F04F9046CA79FE
:10A1A0009946C378082A28BF082283B013B10379DF
:10A1B000934217D0451D01F1090A03460024514678
:10A1C000C3F8054028466C600192009305F00AFE32
:10A1D000DDE900324FF480711A711C80598003B0A0
:10A1E000BDE8F08F01F10904451DA2462B464FF052
:10A1F000000C08F11801B9F1000F23D198F84F6055
:10A20000012E32D091F800E0BEF1000F46D01E784A
:10A21000B3465FFA8CF6B24232D926780EEA0607C8
:10A220000EEA0B0E7745C8D10CF1010CBCF1080FFA
:10A2300001F1010103F1010304F10104CFD0B9F1EF
:10A24000000FDBD098F83B60B3465FFA8CFEF34515
:10A2500018D991F8246091F82C70BE4212D872453A
:10A2600019D8002793F800E0DCE70CF1010CBCF1F1
:10A27000080FB4D00CF1010CBCF1080FF5D1AEE71A
:10A280000027CDE70CF1010CBCF1080FA7D001317C
:10A2900001330134D9E726783746E3E70CF1010CA6
:10A2A000BCF1080F9BD0013101330134A8E700BF96
:10A2B0002DE9F0410F46054686B002F0DDF8BD42BB
:10A2C0001ED200264FF0010805F50064FEF78CFA57
:10A2D0002B4601E09C420DD01A6804330132F9D0BC
:10A2E00002A801A9CDE90266CDE90458019602F061
:10A2F00069F958B905F50065AF4204F50064E5D881
:10A3000002F0CEF8012006B0BDE8F08102F0C8F8F6
:10A31000002006B0BDE8F0814FF0010C10B5114CE3
:10A32000030182B004F803C004EB0014CDE900215E
:10A33000607001F0F7FF01994FF0000CB1F82F3079
:10A34000009A0344636091F84E30012B38BF01231B
:10A350002372B1F84C302273638184F80DC002B0CF
:10A3600010BD00BF2C8D002070B590F834308446AD
:10A37000964686B02BB32A4B5C5CFCB1294B01EBB3
:10A3800001115A18154658585168EB68926801AC8B
:10A390000FC49CF820202B7C12F0FD0F237001AE1F
:10A3A00064468DF80CE02DD1012230468DF8042052
:10A3B000FFF784FD94F82020044622BB204606B017
:10A3C00070BD90F83330D0F8222090F821108DF82D
:10A3D000063090F82630CDF807209CF820208DF824
:10A3E00005108DF80B30D0F82710D0F82B3012F074
:10A3F000FD0F6446CDF80D1001AECDF811308DF88B
:10A400000CE0D1D00024022230468DF80420FFF762
:10A4100055FD40EA0403DCB2204606B070BD00BF23
:10A420008C910020D49100202DE9F04F1546042294
:10A430001E46002387B08DF80C20384A074638485E
:10A44000CDF80E30CDF81230ADF81630CDF80F1033
:10A450008DF80D5002920DF107010DF1160811F85B
:10A46000012F53404145C35CF9D18DF8173007F1F6
:10A47000100902F001F83DB34C46B346AA4606EB7C
:10A48000850300930196FEF7AFF9DBF8005004F165
:10A490005A06023D01E0B4420FD0214600230120BC
:10A4A00035F8022F02F03CF802340028F3D001F016
:10A4B000F7FF002007B0BDE8F08F009B0BF1040B05
:10A4C0009B45E0D15546019EBA460DF10604514622
:10A4D0000023012034F8022F02F022F80AF1020AC8
:10A4E0000028E4D14445F2D101F0DAFF10223846C9
:10A4F00002A905F03BFC0028DBD16DB106EB850518
:10A50000484631685A2205F031FC043609F15A09EF
:10A510000028CED1B542F3D10120CBE748475254B1
:10A5200018FE00082DE9F04F4FF48C62C9B00021ED
:10A530008E4805F02BFC41F69C0200218C4805F06A
:10A5400025FC462200218B4805F020FC40F2A64263
:10A550000021894805F01AFC46220021874805F0B1
:10A5600015FC4FF475720021854805F00FFC4FF47F
:10A5700075720021834805F009FC00239B46824A3E
:10A58000824D1360824A83481360834A8349136073
:10A59000834C844E844A2B70DFF81092844D854F93
:10A5A00003600B6023701360337000932A684A4580
:10A5B00028D12A79042A64D0032A23D15221687928
:10A5C00046281FD805F1100201FB0022794882427B
:10A5D00018D828460022DFF8E0E105F10F0C10F84A
:10A5E000018B82EA080260451EF80220F7D1E87B61
:10A5F000904207D1D5F80720002B40F0B2808B465F
:10A600002B46009205F50065BD42CFD1002B3AD014
:10A610005F7977B34FF0000A03F11005D04601933C
:10A6200002E094F800805D4459462846FFF714FD87
:10A63000D0B15A22614B002102FB0839484605F08F
:10A64000A5FB5A462946484605F0CCFB4846FFF78D
:10A650003FFD48B199F8042008F1010812B13278A1
:10A660000132327084F800800AF1010ABA45D8D16B
:10A67000019B494A13604C4B009A1A6049B0BDE8EF
:10A68000F08F5A219BE79846494DDFF830A1DFF85B
:10A6900030B1B8F1450F05F1520305F1A40239D9E3
:10A6A0005B4505F1F60509D05A4504D05D4505D056
:10A6B00052355D45EDD1B8F1000FDFD002AD2A462D
:10A6C0003E4905EB880042F8041B824201F15A0121
:10A6D000F9D15A2303FB08F23A4B02F60F02A3EB1F
:10A6E000D223334ADE02B2EBC32FC7D03046314902
:10A6F000FFF7DEFD0028C1D02B460121304622782D
:10A70000FFF792FE0028B9D00123234A1660264A9B
:10A710001360B3E752212846FFF79EFC0028C7D0FC
:10A720005A2303FB08A71A460021384605F02EFBE2
:10A7300052222946384605F055FB3846FFF7C8FC3B
:10A7400008F101020028B3D03B795FFA82F813B117
:10A7500033780133337052355D4584F8008098D1E9
:10A76000A9E700988242FFF44DAF48E72C8D002006
:10A77000D896002090960020D49100208C91002043
:10A780004889002074850020248D00208C960020AC
:10A7900088960020288D002080960020208D0020A3
:10A7A000849600201C8D00207C960020484752543F
:10A7B00000E003080000040818FE000874AF002041
:10A7C000B2EF03088000010008B5084B1B788342F4
:10A7D0000AD903465A22DFF818C0084602FB03C113
:10A7E00005F000FB012008BD002008BD8496002074
:10A7F00074AF0020014B1878704700BF849600208A
:10A8000010B500240F491048FFF752FD0F4B104AB6
:10A81000104911481C70114B046014700C604622E2
:10A8200021460F481C7005F0B1FA21464FF48C62A6
:10A830000C4805F0ABFA2146BDE8104046220A4814
:10A8400005F0A4BA0000040800E003088C9600207C
:10A850008496002088960020809600201C8D002081
:10A86000909600202C8D00208C91002038B521F08E
:10A870000803522B01D0002038BD05460C46104677
:10A8800000215A2205F082FA2246294605F0AAFA4A
:10A89000012038BD30B545289BB03BD80546084659
:10A8A0000191FFF715FC044610B920461BB030BDDE
:10A8B0005A22019903A805F095FA45F603220023D0
:10A8C0001649DFF85CC0ADF83D2003910DF10B0295
:10A8D00019A812F8011F4B4082421CF80330F8D12E
:10A8E0008DF865305A230F481A4603A903FB05006B
:10A8F00005F078FA01220C4B5A5501F013FD0B4A72
:10A900000B4913780860AB42CFD820466B1C1370FC
:10A910001BB030BD002420461BB030BD324752541E
:10A9200018FE0008D8960020909600208C960020F3
:10A93000889600202DE9F043FF28C9B051D0044685
:10A94000462C4AD8714B1B7823B9714D2B78A34202
:10A9500000F0C0806F4D56220021284605F016FAFF
:10A9600045F6032200236C496C4EA5F82D2045F8CE
:10A97000041C6A1F05F1540012F8011F4B4090425D
:10A98000F35CF9D185F85530654BD3F80080F4B10C
:10A990005F4D00222E7863486349644B644F0DF18C
:10A9A000080C0AE09E460132D2B294424CF804EB05
:10A9B00001F15A0103F15A031BD010F801EBBEF16B
:10A9C000000FEFD196428CBF8E46BE46EBE7594949
:10A9D0005948FFF76DFC002850D1002049B0BDE870
:10A9E000F0834A4B4A4D1C782B789C4238BF1C465A
:10A9F000A6E75A2101FB04F3504F03F60F03A7EB20
:10AA0000D3274FEAC729DB0AB8F1000F16D001FBA4
:10AA100006F606F60F06474906F4784646448E4287
:10AA200028BF0E46B14559D24548804556D8D9026F
:10AA300001F1006101F5783188454DD23D493E482C
:10AA40000192FFF735FC0028C7D03E4F48463968D1
:10AA5000019A02AB0131FFF7E7FC0028BDD002AE3E
:10AA6000314B06EB8408184656F8041B5A2205F0B1
:10AA7000B9F9B04500F15A03F5D103E04FF00009F0
:10AA8000234D304F2C7000243B68254A01333B6036
:10AA90001E4D2D4B2146C2F80090224846221C60D4
:10AAA0002C7005F073F94FF48C622146274805F0AD
:10AAB0006DF946222146264805F068F94FF4757273
:10AAC0002146244805F062F94FF475722146224868
:10AAD00005F05CF9012081E7DFF85C9048460192BF
:10AAE000FFF7E6FB00283FF478AF164F4846396879
:10AAF000019A02AB0131FFF797FC00283FF46DAFDC
:10AB000031464046FFF7D4FBA9E700BF8C960020F2
:10AB1000849600201C8500203247525418FE0008FD
:10AB2000809600209096002074AF0020D8960020D8
:10AB3000188500200000040800E0030880000100E0
:10AB4000FFFF03087C960020889600202C8D0020B3
:10AB50008C910020488900207485002010B504469F
:10AB6000FFF798FE50B1064B601C1B78C0B29C42A8
:10AB700038BF1846BDE81040FFF7DCBE10BD00BF6F
:10AB80008496002030B5144D9BB02B7883421FD99A
:10AB90005A230446019111491A4603FB041103A8E4
:10ABA00005F020F9019B2046003B18BF012303A9B3
:10ABB0008DF81030FFF76EFE50B12B78601CC0B2DC
:10ABC0009C4238BF18461BB0BDE83040FFF7B2BE0C
:10ABD00000201BB030BD00BF8496002074AF002061
:10ABE0002DE9F04FDFF848A285B09AF80030002B2D
:10ABF00000F09A80064600258E4F8F4CDFF83C828D
:10AC0000DFF83C922379002B7FD094F83430002B6E
:10AC100000F0A380337A002B00F0898094F856303E
:10AC2000DB0740F1848094F853309A076DD4D9073C
:10AC30006BD494F84FB0BBF1010F00F09C80BBF1D6
:10AC4000020F00F09D806379022B02D032789A4285
:10AC50005BD1A27973789A4257D15A23764AD6F8B3
:10AC6000031003FB0523D3F80720D3F80B304A4029
:10AC70001A424AD1E37B002B40F08E805A226E4B61
:10AC800002FB0533B3F85130002B7ED1BB78002B8B
:10AC90003BD1BBF1010F16D0F279A2B106F1080346
:10ACA00002EB030C04F10F0106F1100E11F8012F55
:10ACB00013F801BF087A82EA0B02024225D16345EC
:10ACC00001D07345F2D15A225B4B5FFA85FB02FB40
:10ACD0000533B3F82F30327A23B994F84E30012B74
:10ACE00040F2938058462146FFF716FB5A22524BFA
:10ACF00002FB0533B3F851203AB13B8801339BB2D4
:10AD00009A423B809CBF0123BB709AF8002001351A
:10AD1000EBB29A4204F15A0407F10E0708F10E084B
:10AD200009F111093FF66EAF05B0BDE8F08F94F858
:10AD30003530022B02D032789A420ED1727894F8D4
:10AD400036309A4209D15A233B49D6F8032003FBF7
:10AD50000513D3F83730934222D094F85330980734
:10AD6000D3D4327A002A7FF462AF94F84FB0BBF1AB
:10AD7000010F7FF464AFB378002B7FF464AFC4E7B6
:10AD8000B378002B3FF45FAFBFE700232246314684
:10AD90003846FFF701FA79E7F2799A42B5D16DE7C3
:10ADA000B4F854B0BBF1000F3AD198F80230002B40
:10ADB000D3D194F83B200092002A00F0858004F162
:10ADC0003B0101940A46CDE902B1009C06F109005D
:10ADD00008E0C1B95FFA8EF39C4200F1010033D064
:10ADE000082B31D012F8011F03F1010E92F808C0B0
:10ADF0006145EFD896F807B09B45EAD903789942A8
:10AE000001D89C45E6D2019CA7E759462046FFF7AA
:10AE1000ABFA002852D00B4A13680133136065E780
:10AE20000123224631464046FFF7B6F9BDE700BF91
:10AE3000849600204889002074AF0020748500208B
:10AE4000DC910020288D0020F368D6F800C07068DF
:10AE5000B26849F808CC49F8040CC9F80020C9F8D0
:10AE60000430337C4FF0000EDDE902B189F8083080
:10AE70000123019C0194009C11F801CFDAB2087AF9
:10AE8000844588BF09F803E0944203F1010301D926
:10AE9000092BF1D1019C0123134A5355BBF1000F3B
:10AEA0003FF45BAFB8F800201A4492B29345A8F87B
:10AEB00000203FF652AF88F802304EE75846214650
:10AEC000327AFFF729FA11E7F36830687168B268DF
:10AED00049F8080C49F8041CC9F80020C9F80430E6
:10AEE000337C89F80830D6E78C9100202DE9F047B3
:10AEF000224F3B787BB3DFF88880002445464FF033
:10AF00005A09204E2B795FFA84FADBB195F8533059
:10AF10009B0717D509FB0483B3F8572032B9B3F860
:10AF20002F201AB995F84E30012B16D90022294648
:10AF30005046FFF7F1F909FB04827368B2F8572015
:10AF4000134473603A780134E3B29A4205F15A052A
:10AF500006F11006D6D8BDE8F08751462846FFF71F
:10AF600003FA094918B10B6801330B60EAE702469E
:10AF700029465046FFF7D0F9E4E700BF8496002049
:10AF800074AF00202C8D0020288D00202DE9F8437F
:10AF900001F0C8F92B4B05461A7832B143F69821D7
:10AFA000294A1268821A8A4244D8284CDFF8A090B5
:10AFB000DFF8A080284F04F58C6613E0637B132B29
:10AFC00033D9264A1368013313600022237A62734F
:10AFD000012B24D96289013B2A4423726260103418
:10AFE000B44220D02378002BF9D06368EB1AF6D452
:10AFF0005A20D9F800206178934200FB0180227B1F
:10B0000088BFC9F80030FFF7AFF90028D6D000227A
:10B010003B68627301333B60237A012BDAD82270DC
:10B020001034B442DED1BDE8F88301336A1C637387
:10B030006260D4E7002146220948197004F0A6FE98
:10B04000B3E700BF8C960020889600202C8D00204E
:10B05000208D002074AF0020288D0020248D00203A
:10B060009096002010B1064B1B68036011B1054B90
:10B070001B680B6012B1044B1B681360704700BF64
:10B08000288D0020208D0020248D0020014B187871
:10B09000704700BF1C8D00202DE9F041DFF8B8801B
:10B0A0002E48B8F80060002200EB061444F645452F
:10B0B00023468AB004F11001CDF80A20CDF80E2005
:10B0C000CDF81220ADF81620ADF808501A680433F8
:10B0D000013220D18B42F9D101F0CEF90DF10605F4
:10B0E0000DF1160721460023012035F8022F01F04B
:10B0F00017FA023450BBBD42F4D101F0D1F9184A1D
:10B1000001361368C6F3080601331360A8F800601F
:10B110000AB0BDE8F081F30900EBC325FDF764FB3D
:10B1200000230122CDE9063308950992019301F02D
:10B13000A3F906A801A901F045FA10B901F0B0F988
:10B14000CAE701F0ADF90AB0BDE8F0810AB0BDE888
:10B15000F04101F0A5B900BF10C8002000B00308FD
:10B1600008000020022928BF0221182838B534BF62
:10B17000044600240D4601F0D5F8DFF830C004EB9A
:10B1800044022A445CF822201AB1821AB2F5FA7FEE
:10B190000BD3012838BF012004EB44035919BDE843
:10B1A00038404CF82100FFF777BF38BD14C80020A5
:10B1B0002DE9F0414FF4907284B00021254804F04D
:10B1C000E5FD4FF0000C4FF0FF3644F6454765466D
:10B1D000DFF88480214C0DF10D0E08EB0C130FCB22
:10B1E0008DE80F00BDF80030BB4214D1DDF802003D
:10B1F00088B16A46002112F8013B4B407245E15C80
:10B20000F9D19DF80D308B4205D1A84228BF664682
:10B21000A84228BF05460CF1010CBCF5007FDCD12B
:10B22000731C14D0731C0135C3F308030C490D4A79
:10B230000B801560FDF75AF80446FDF751F82146DA
:10B240000246012004B0BDE8F041FFF78BBF0023A8
:10B250000125EBE714C8002000B0030818FF000820
:10B2600010C8002008000020FFF716BF2DE9F04F9E
:10B2700083468A4617464FF0000E44F64549234B55
:10B2800085B0B3F800C0DFF888800CF50076214D5A
:10B29000B6B20DF10D04774534D9CCF3080308EBB1
:10B2A00003130FCB8DE80F00BDF800304B4523D1C1
:10B2B000DDF8021001B36A46002012F8013B43405A
:10B2C000A242E85CF9D19DF80D30834214D18B4540
:10B2D00012D20EEB4E034AF82310DDF806200AEBDB
:10B2E00083035A60BDF80A200EF1010E1A819DF801
:10B2F0000C205FFA8EFE9A720CF1010C1FFA8CFC86
:10B30000B445C8D1704605B0BDE8F08F10C8002024
:10B3100000B0030818FF00082DE9F04387B0884605
:10B320009146054601F0A8F8FDF75EFA01210023D9
:10B330002F48CDE90133CDE9040102A801A9039307
:10B3400001F040F9A0BBFDF74FFA2A4EAC1E761B68
:10B3500005F11E0731190023012034F8022F01F0F6
:10B36000DFF828BBBC42F5D1234EA8F1020408F156
:10B370000E07A6EB080631190023012034F8022F2E
:10B3800001F0CEF8A0B9BC42F5D11C4EA9F10204DF
:10B3900009F50077A6EB090601E0BC420ED0311991
:10B3A0000023012034F8022F01F0BAF80028F4D06D
:10B3B00001F076F8002007B0BDE8F08301F070F8E6
:10B3C000202229460A4804F0D1FC0028F2D110229C
:10B3D00041460B4804F0CAFC0028EBD140F202229F
:10B3E0004946084804F0C2FCB0FA80F04009E2E7A0
:10B3F00000D8030802D8030822D8030832D803086B
:10B4000020D8030830D803086E4A38B56E4913684F
:10B410008B424FF0000359D16C4C6D4812F8011B60
:10B420004B408242E35CF9D1664AD17F994200F0F9
:10B430009580644A674B126A9A420ED10023664A8D
:10B44000664812F8011B4B408242E35CF9D15D4A29
:10B4500092F82F10994200F09F8000230121604D47
:10B460005C4A2B6045F8092C5E4A681D45F8052C9E
:10B4700005F8011CA5F10A02C5F8033012F8011FF6
:10B480004B409042E35CF9D1AB714E4B564A196B7D
:10B49000914203D193F83430022B4AD0534D40F2FD
:10B4A00002220021284604F071FC022200234E49AA
:10B4B0002A7129606A1E05F5007012F8011F4B40C1
:10B4C0009042E35CF9D185F8013238BD0920DFF8FC
:10B4D00020C1DFF820E14CF80E1C474942F201027E
:10B4E0000CF80A0CCCF80830CCF80B10BEE80300BE
:10B4F0004CF8090C18464CF8051C9EF80010334C0B
:10B50000ACF81030CCF80030ACF80F20CCF8043098
:10B51000ACF10F020CF110050CF8011C12F8011F20
:10B520004B409542E35CF9D1344A8CF811301070ED
:10B530007FE70023324A334812F8011B4B40824216
:10B54000E35CF9D11F4A92F831229A42A6D140F227
:10B5500002222B49254804F045FC38BD1379092BFC
:10B560003FF667AF937B0A2B3FF663AF537F0BBB6E
:10B57000937F002B7FF45DAF4FF0010E224DDFF87B
:10B5800044C0BCE80F000FC59CE80F0085E80F0021
:10B590001A4B83F800E04CE7938C002B3FF45DAF2F
:10B5A000D38C002B3FF459AF184D0B4B0FCB85E8D4
:10B5B0000F006AE7012B7FF43CAF937F202B7FF4D1
:10B5C00038AFD9E700D803083047464318000108D0
:10B5D0001FD803083058454320D803082FD8030844
:10B5E00045CB0020F401F401304D4E5438C9002001
:10B5F0005ACB00203C0101088304405734C9002085
:10B6000030D8030831DA03084CCB00203CCB0020B3
:10B61000004870474CCB0020014B1878704700BFA2
:10B6200034C9002070B509298AB0BDF83850BDF87A
:10B630003C4001D80A2B02D900200AB070BD4FF05F
:10B64000000C1646334ACDF821C08DF80C1002923A
:10B65000CDF80DC0CDF811C0CDF815C0CDF819C08A
:10B66000CDF81DC0CDF824C0002949D18DF8163081
:10B67000002B3ED1002345F2407E40F2834642F249
:10B6800001019D4208BF35469C4208BF7446DFF861
:10B6900088C00DF107020DF12600ADF82510ADF8B8
:10B6A0002150ADF8234012F8011F4B4082421CF894
:10B6B0000330F8D12022194902A88DF8273004F070
:10B6C00055FB10B901200AB070BD154A154902A8F2
:10B6D000FFF722FE0028AFD00122134B0F4D02AC22
:10B6E0001A700FCC0FC594E80F0085E80F000120F9
:10B6F000E9E71A4631460DF1170004F073FBB9E78C
:10B700000A4601460DF10D00019304F06BFB019B0D
:10B71000ACE700BF30474643180001084CCB00207F
:10B7200038C900203CCB002034C900200E4B58B94A
:10B7300098887D2807D009D8322804D011D80A2843
:10B7400001D014280AD17047D888F2E7B0F5FA7F03
:10B75000F9D0B0F57A7FF6D0FA28F4D04FF4FA7029
:10B7600070476428FAD1EEE73CCB002001285DD871
:10B7700000B57D2986468C4685B007D036D832295B
:10B7800004D041D80A2901D0142937D1284B0FCB36
:10B790008DE80F00BEF1000F33D0ADF806C00023D6
:10B7A000DFF890C00DF1FF320DF10E0012F8011F0D
:10B7B0004B4090421CF80330F8D11D4A00991268A2
:10B7C0008DF80F30914222D069461B4A1B48FFF783
:10B7D000A3FD98B19DE80F00DFF854C08CE80F007E
:10B7E0000122174B1A70012005B000BDB1F5FA7F98
:10B7F000CCD0B1F57A7FC9D0FA29C7D0002005B0E6
:10B8000000BDADF804C0CAE76429F7D1BEE7084B14
:10B81000019A5B689A42D7D10A4B02991A68914201
:10B82000D2D1039A5B689A42CED1DCE70020704700
:10B830003CCB00201800010838C900204CCB002068
:10B8400034C9002044CB002017288C4616D8104B52
:10B8500000EB4000C0EBC0001844421E002302E091
:10B860000133152B0CD012F8011F0029F8D1DBB2DF
:10B87000BCF1000F01D08CF800303BB900207047BC
:10B88000BCF1000F01D08CF800307047704700BF4A
:10B8900041C90020172821D8152A38B5964601D964
:10B8A000002038BD4FF0000C00EB40000C4CC0EB0A
:10B8B000C00000F10903181944F803C0C0F804C01F
:10B8C000C0F808C0C0F80CC0C0F810C080F814C0A0
:10B8D00012B109B104F086FA012038BD002070478A
:10B8E00038C900200221002300B50E4ADFF838E0F5
:10B8F000DFF838C0CEF800200EF500700EF1FF32F0
:10B900008EF8041012F8011F4B4090421CF80330CF
:10B91000F8D18EF80132044A054906485DF804EB77
:10B92000FFF7FABC304D4E5438C90020180001080A
:10B930003CCB00204CCB00200020704720280ED0AC
:10B94000212801D000207047072AFBD10A4B186834
:10B950009A889B7908608A8000208B717047072A3B
:10B96000F0D1054B8888D1F800C08A799880C3F857
:10B9700000C000209A7170471C000020F8B50E68C6
:10B980001EB3411E0546DFF84CC0DFF84CE01348FB
:10B99000741809E0BCF8002011F8017F92B2A142AE
:10B9A0008754ACF8003010D0BCF80030BEF800204E
:10B9B0000133C3F30A0392B29A42EBD1084A1368E7
:10B9C000013B33441D446D1A1560064804F004F829
:10B9D0000020F8BD82D3002080D3002084D3002033
:10B9E00070CB0020F401002008B50849084803F096
:10B9F000CDFF00230749084A05480B80138003F058
:10BA0000EBFF003818BF0120404208BDC4DB002016
:10BA1000F401002082D3002080D3002070B51F4B9A
:10BA20001F4C1B88228882B09B1AC3F30A03402B49
:10BA30001A4628BF402273B100211A481A4D2388A4
:10BA40000B44C3F30A03013115F803C08BB29A42C9
:10BA500000F801CBF3D8EFF3108672B6134DD5F88A
:10BA6000B83213B1D3F814321BB186F3108802B088
:10BA700070BD0C492846019203F07EFF284603F072
:10BA80008DFF86F310880028F1D12388019A1A448B
:10BA9000C2F30A02228002B070BD00BF7ECB00203C
:10BAA0007CCB002084DB002080CB0020F401002030
:10BAB000034A044B10881B88C01AC0F30A00704761
:10BAC00082D3002080D30020094B0A4A19881388AA
:10BAD00089B29BB2994209D0118813880648013374
:10BAE00089B2C3F30A03405C13807047002070479B
:10BAF00082D3002080D3002084D300200A4B0B4A3D
:10BB00001B88B2F800C0A3EB0C03C3F30A039842EE
:10BB100008D21288064B1044C0F30A001B5C0120B7
:10BB20000B7070470020704782D3002080D3002024
:10BB300084D3002091422DE9F8430F463CD2814640
:10BB40009046294DD5F8B842002C3AD000F0EAFBD7
:10BB5000064609E0FCF748FE00F0E4FB801B632882
:10BB600036D8D5F8B84264B3D4F81432012BF1D0EA
:10BB7000A8EB0704A4B2402C28BF402409EB07011E
:10BB800022461A4804F02EF9EFF3108672B6D5F863
:10BB9000B832A3B1D3F814328BB9224613491248F4
:10BBA00003F0EAFE104803F0F9FE86F3108840B96E
:10BBB0003C44A7B2B845C5D83846BDE8F88386F3FB
:10BBC00010880B4A3846136801331360BDE8F883C8
:10BBD0000849074A0B68384601330B601368013384
:10BBE0001360BDE8F88300BFF401002084DB00206F
:10BBF00078CB002074CB00200A4600B5002183B02A
:10BC00000192FFF797FF019A801A18BF012003B035
:10BC100000BD00BF70B5002936D00C464FF0000EB5
:10BC2000DFF86CC01B4D1C4E01380BE0BCF8002047
:10BC300010F8011F0EF1010E92B2A645B154ACF8F6
:10BC400000300ED0BCF800302A880133C3F30A0359
:10BC500092B29A42EAD1114BA4EB0E041A68144432
:10BC60001C60BCF800202B8892B29BB29A420AD08A
:10BC70000B4BD3F8B83233B1D3F814321BB9BDE84B
:10BC80007040FFF7CBBE70BDDFF804C0014DE8E7A0
:10BC90007ECB00207CCB002080CB002078CB002006
:10BCA000F4010020084A094B12881B8892B29BB20B
:10BCB0009A4208D0064BD3F8B83223B1D3F81432E5
:10BCC0000BB9FFF7ABBE70477ECB00207CCB0020CA
:10BCD000F4010020014B1868704700BF78CB0020AA
:10BCE000014B1868704700BF74CB002038B9094B6E
:10BCF0001A78FF2A02D01A7801321A707047012888
:10BD0000FCD1054B1A78FF2AF8D01A7801321A7044
:10BD1000F4E700BF6DCB00206CCB0020014B1878FE
:10BD2000704700BF6DCB0020014B1878704700BFF3
:10BD30006CCB0020014B1868704700BF70CB00200F
:10BD40002DE9F041194C82B0D4F8B83253B30193C5
:10BD5000074600F0E7FA164E8046164D019B02E0BA
:10BD6000D4F8B832F3B1D3F8140228B932882B884A
:10BD700092B29BB29A4216D0FCF736FD32882B88DD
:10BD800092B29BB29A4207D0D4F8B83223B1D3F81A
:10BD900014320BB9FFF742FE00F0C4FAA0EB080022
:10BDA000B842DDD3012002B0BDE8F081F4010020EB
:10BDB0007ECB00207CCB0020054A136833B9B0F558
:10BDC000806F03D801230348136070470020704739
:10BDD000E0E00020E4E00020034B984200D07047F0
:10BDE0000022024B1A607047E4E00020E0E00020EF
:10BDF0004FF4C05030B5022100250322194C87B002
:10BE0000A36943F00403A361A369029003F0040350
:10BE100000F18040CDE90315009302A900F57040C0
:10BE2000009B059200F02EFC4FF40072002302A943
:10BE30000D48CDE90223049500F024FC6369062136
:10BE400043F48053636163692A4603F4805301938A
:10BE50004320019B00F090FA432000F0BFFA07B0A6
:10BE600030BD00BF00100240000801400146D0F87C
:10BE7000D80401F29C4102F0FBBF00BF01EBC103FB
:10BE800000EB8303D3F86022D0F8D80403F026B87F
:10BE900001EBC10300EB83031A6AD0F8D80403F066
:10BEA0005FB800BFD0F8D80403F002B910B504465B
:10BEB0000020FFF71BFFD4F8D804012103F0E0F8BD
:10BEC000D4F8D804BDE8104003F0B2B8D0F8D804D4
:10BED00003F0DAB8D0F8D80403F0E0B8D0F8D8040A
:10BEE00003F0F6B8D0F8D80403F0F0B8D0F8D804CE
:10BEF00003F0F0B810B504460120FFF7F7FED4F8C0
:10BF0000D804BDE8104003F0E7B800BF70B50423C3
:10BF100000254FF0A0420226104CC4F8D804C0F807
:10BF2000C0422046237122606581E671A57300F04E
:10BF3000C1FC8021204601F00FFA2946402220460C
:10BF400001F0E4F980220121204601F0DFF94022CE
:10BF50003146204601F0DAF9284670BD04DC0020A5
:10BF600008B5D0F8C00200F00FFD002008BD00BFEA
:10BF7000944608B51A46D0F8C002634601F092F81C
:10BF8000002008BD08B5D0F8C00201F0C9F80020B3
:10BF900008BD00BF08B5D0F8C00201F031F900209B
:10BFA00008BD00BF08B5D0F8C00201F073F9002049
:10BFB00008BD00BF0A06D0F8C03206D401EBC101AB
:10BFC00003EB810393F85602704701F07F0101EB08
:10BFD000C10103EB8103987D704700BF08B5D0F81D
:10BFE000C00201F045F8002008BD00BF08B5D0F838
:10BFF000C00201F0EDF8002008BD00BF08B5D0F880
:10C00000C00201F0C3F8002008BD00BFD0F8C00294
:10C0100001F0D4B8122301480B807047440000207F
:10C02000042301480B8070474000002008B50A46F1
:10C030000248034903F018FB014808BD4801010804
:10C04000FCE4002008B50A460248034903F00CFB53
:10C05000014808BD64010108FCE4002008B50A4657
:10C060000248034903F000FB014808BD7C010108B8
:10C07000FCE4002010B582B00C46FFF7C9FA027943
:10C080008AB1411D01900C4803F0ACFE0020019BD9
:10C0900022461B79084C0949E054204603F0E4FA93
:10C0A000064802B010BD22460449054803F0DCFAF8
:10C0B000024802B010BD00BFE4E40020FCE4002010
:10C0C0008801010810B582B00C46FFF7A1FA827B07
:10C0D0008ABB4FF01A0C2149D1F8E837D1F8F007A4
:10C0E000A4F800C013EB000C02D11D4802B010BD33
:10C0F0001B4BD1F8ECE7194603F110044FEA1C7012
:10C10000092894BF303037308870CA7002318C42B1
:10C110004FEA0C1CF2D1002012494FEA1E72092A84
:10C1200094BF303237329A74D87402338B424FEA5C
:10C130000E1EF2D1D9E700F10F0101900A4803F079
:10C1400051FE0020019B22469B7B074C0749E0548F
:10C15000204603F089FA054802B010BD00F0FF1F29
:10C16000240000202C000020F0E40020FCE400204B
:10C17000704700BF70B5044616460846FCF7C8F87D
:10C180000A4AD4F818E0906A094B1FFA8EF21A6135
:10C1900085B24FEA104C4FEA1E425A6131469D610A
:10C1A0002046C3F81CC0FCF7D9F8FEE700ED00E01C
:10C1B000006C00401EF0040F0CBFEFF30880EFF39B
:10C1C000098001217246FFF7D5BF00BF1EF0040FA2
:10C1D0000CBFEFF30880EFF3098002217246FFF7EE
:10C1E000C9BF00BF1EF0040F0CBFEFF30880EFF3D0
:10C1F000098003217246FFF7BDBF00BF1EF0040F88
:10C200000CBFEFF30880EFF3098004217246FFF7BB
:10C21000B1BF00BF704700BF704700BF704700BF8D
:10C2200000F074B8014801F061BF00BFF084002045
:10C23000014801F05BBF00BFF0840020014801F01D
:10C2400055BF00BFF0840020014801F04FBF00BF80
:10C25000F0840020014801F049BF00BFC8840020DD
:10C26000014801F043BF00BFC8840020014801F02D
:10C270003DBF00BFC8840020014801F037BF00BFA8
:10C28000C8840020014800F095BB00BF04DC0020FA
:10C29000704700BF704700BF4FF47A7310B50F4965
:10C2A000044609780E4AB3FBF1F0126882B0B2FB83
:10C2B000F0F000F0A1F808B90F2C02D9012002B06B
:10C2C00010BD0246019021464FF0FF3000F054F8B7
:10C2D000044B01981C6002B010BD00BF7800002024
:10C2E000740000207C000020074A08B51368032072
:10C2F00043F01003136000F02DF80020FFF7CCFF8F
:10C30000FFF7C8FF002008BD00200240034A044B8D
:10C3100011681B780B441360704700BF3CE5002098
:10C3200078000020014B1868704700BF3CE50020F2
:10C3300038B50446FFF7F6FF631C054602D0044BF0
:10C340001B781C44FFF7EEFF401BA042FAD338BD18
:10C35000780000204FF6FF0C06490302CA6803F478
:10C36000E06302EA0C02134343F0BF6343F400337B
:10C37000CB60704700ED00E0164B00B5DB68C3F3FF
:10C380000223A3F1030CBCF1040F19D84FF0FF3EB8
:10C39000C3F107030EFA03F3DB430EFA0CFE22EAA5
:10C3A0000E02194001FA0CF1114300284FEA011165
:10C3B0000ADB00F1604000F5614080F8001300BD29
:10C3C00000220F239446ECE7034B00F00F00C31844
:10C3D000197600BD00ED00E0FCEC00E0002807DB72
:10C3E000012300F01F01034A40098B4042F820302E
:10C3F000704700BF00E100E00138B0F1807F01D359
:10C40000012070474FF0E02300224FF0F00C07218D
:10C410005861034880F823C09A611046196170473B
:10C4200000ED00E0124BDB6813F0100305D0102381
:10C430001049CA6942F00202CA610D4AD268500727
:10C4400006D50C4943F00403CA6942F00102CA61EF
:10C45000074AD169C90708D50648C16941F00401F6
:10C46000C161D16921F00101D161014AD3607047F6
:10C470000020024040E50020064B186910F08000C3
:10C4800006D00549054A59605A601869C0F3C010C2
:10C49000704700BF0020024023016745AB89EFCD04
:10C4A000034A0020136943F080031361704700BF03
:10C4B0000020024038B50446FFF734FF174AD3681E
:10C4C000DD070CD5651C1CD005462CB3FFF72AFFF1
:10C4D000401BA04220D8114AD368DB07F6D40F4B8B
:10C4E000DA68900644BF2022DA600C4BDA68D10685
:10C4F0000ED4DA69D2070BD4D86810F0040007D143
:10C5000038BDD368D907EAD5D368D907F9D4E6E7A7
:10C51000FFF788FF012038BD032038BD002002400E
:10C520002DE9F84F254E357E012D43D01C460123C1
:10C5300005464CF250308A4617463376FFF7BAFF6D
:10C54000A0BB012D03D0022D14BF042502254FF0FE
:10C550000009C846DFF868B00AEB4505C9F12003B9
:10C56000C6F81C8027FA09F004FA03F31843A9F16E
:10C570002002DBF8103024FA02F240EA020C43F009
:10C580000103CBF810304CF25030AAF800C0FFF78E
:10C5900091FFDBF810300AF1020A23F0010309F1E0
:10C5A0001009CBF8103008B9AA45D7D1002333764B
:10C5B000BDE8F88F0220BDE8F88F00BF40E50020FD
:10C5C000002002402DE9F8432C4E337E012B52D03F
:10C5D0000123337603688046022B89464CF25030A3
:10C5E0002ED0FFF767FF074668BB4FF0FF33C9F84F
:10C5F0000030D8E9025305EBC3239D4223D2204CDF
:10C6000007E005F50065D8E9023203EBC223AB422F
:10C610001AD9F76123694CF2503043F002032361C9
:10C620006561236943F040032361FFF743FF2369FA
:10C6300023F0020323610028E3D0C9F8005003E08F
:10C64000FFF738FF20B1012000233376BDE8F883DF
:10C650000B4CF06123694CF2503043F0040323612A
:10C66000236943F040032361FFF724FF236923F08C
:10C6700004032361E8E70220BDE8F88340E50020D9
:10C68000002002402DE9F04F0E6883B0002E00F02C
:10C69000AC800022044601254FF00F089246134655
:10C6A000784F06E0013336FA03F002F1040200F09D
:10C6B0009C8005FA03F030EA060E00EA060CF1D180
:10C6C0004E68122E00F29980122E0DD8DFE806F087
:10C6D000A70AB3D70C0C0C0C0C0C0C0C0C0C0C0C8F
:10C6E0000CBBB700D1F80CA0BCF1FF0F99BFA64658
:10C6F000164604F1040EA2F12006DEF8000008FA46
:10C7000006F920EA09000AFA06F63043CEF80000DE
:10C710004868C6006FD5BE6903F0030946F00106FC
:10C72000BE61BE694FEA890906F001060196019EC5
:10C7300023F0030606F1804606F58036D6F808E0B9
:10C7400008FA09FB2EEA0B0EDFF83CB15C4513D06A
:10C750000BF5806B5C457AD0DFF830B15C4563D077
:10C76000DFF82CB15C450CBF4FF0030B4FF0040B0E
:10C770000BFA09F94EEA090EC6F808E0DFF814E1F1
:10C7800010F4801FDEF8086014BF46EA0C0626EAA3
:10C790000C06CEF80860DFF8FCE010F4001FDEF8AD
:10C7A0000C6014BF46EA0C0626EA0C06CEF80C60B4
:10C7B000DFF8E0E010F4003FDEF8046014BF46EA62
:10C7C0000C0626EA0C06CEF80460324E10F4803FC8
:10C7D00030680DD040EA0C0030600E68013336FA44
:10C7E00003F002F104027FF464AF03B0BDE8F08F00
:10C7F00020EA0C0030600E6854E7DFF89CE07645D4
:10C800000DD02BD8AEF5801E764508D00EF5702ED3
:10C81000764504D0AEF5801E76457FF465AF8E6810
:10C8200036BB4FF0040A5FE74FF0020B0BFA09F931
:10C830004EEA090EA0E7C86800F1080A54E7C86884
:10C8400000F10C0A50E7C86800F1040A4CE74FF009
:10C85000010B0BFA09F94EEA090E8DE7DFF83CE00F
:10C860007645DCD00EF5803E76457FF43DAFD6E7C9
:10C87000012E4FF0080A0CBF2061606134E74FF0D1
:10C88000000A31E70010024000080140001001409A
:10C89000001401400004014000002210000031108B
:10C8A0008368194214BF01200020704702B90904AF
:10C8B0000161704730B583B0D8B190F89534044623
:10C8C00003F0FF02002B5AD00322002384F89524A2
:10C8D000A371206801F044FE237C251D8DF80030F3
:10C8E000206895E80E0001F085FD30B1022384F840
:10C8F00095340125284603B030BD0146206801F07B
:10C9000037FE0028F2D194F804C0BCF1000F21D00A
:10C91000234622464FF0010E01461075D0850130A6
:10C920006045C2E9071182F815E0117642F8241F2C
:10C93000F3D100210A4683F8541201316145C3E95D
:10C94000972283F8552283F85822C3F8642203F112
:10C950002403F0D1237C20688DF8003095E80E0088
:10C9600001F08AFE05460028C0D1012360742068CA
:10C9700084F8953402F0D2F9284603B030BD80F82F
:10C980009424FFF735FA9FE790F89434012B0FD0E9
:10C9900010B501230446006884F8943401F0D8FDF2
:10C9A000206802F0ABF9002384F89434184610BDD7
:10C9B000022070472DE9F04F0668044687B03046E4
:10C9C00002F0EAF910B107B0BDE8F08F0546206823
:10C9D00002F0B4F90028F6D0D6F808382068C3F37E
:10C9E0000D23C4F8D43402F0A9F98107236806F5B1
:10C9F000006903D55A6902F002025A61184602F032
:10CA00009DF9C206236814D59A6922F010029A6132
:10CA1000376A07F4F012B2F5802F07F00F0800F024
:10CA2000DB82B2F5402F00F0FD819A6942F01002DE
:10CA30009A61184602F082F9070300F1918120689B
:10CA400002F07CF910F4802F206840F0458102F05C
:10CA500075F90028C0F2A582206802F06FF903057D
:10CA600000F18480206802F069F910F4805F20688A
:10CA700040F0E48002F062F910F4005F206840F0BA
:10CA8000BD8002F05BF9000700F1AF80206802F082
:10CA900055F901061DD5B36923F08003B3612279EE
:10CAA000012A16D92746012504E00135AA4207F1DB
:10CAB00024070ED997F87B32012BF6D105EBC5017F
:10CAC00004EB8101206801F5157102F025F8227947
:10CAD000EBE7206802F032F9C20245D52279012A3B
:10CAE00025D906F512632746B046012526461C4681
:10CAF00006E00135AA4204F1200407F1240714D905
:10CB000097F83C302168012BF3D10029F1DA05F0C8
:10CB10000F0101EBC10187F83B3006EB8101306862
:10CB2000143101F0F9FF3279E3E7344646462068D4
:10CB3000436903F48013436102F000F9830220D4B7
:10CB4000206802F0FBF840006FD4206802F0F6F88D
:10CB500041077FF538AF23685D686A0700F15B82A3
:10CB60005A682A435A602EE72068E5E7D9F808306A
:10CB7000DF0700F155822068436903F400634361D5
:10CB800071E794F804C0BCF1010F28D923460121B4
:10CB900006F5326203E0614503F124031FD093F8E8
:10CBA0007C021568012801F1010102F12002F2D195
:10CBB000002DF0DAD4F8D47487EA1547FF07EAD4D9
:10CBC00083F87B02B06940F08000B06170690506AF
:10CBD000E1D4D9F8043043F40073C9F80430206874
:10CBE000436903F400134361ABE72046FFF75AF9AA
:10CBF0002068436903F00803436148E702F0D0F876
:10CC0000206801F0DDFDE071256800F0EFFEE279BB
:10CC10000146284601F022FC2046FFF747F920682C
:10CC2000436903F4005343612BE72046FFF75EF9A5
:10CC30002068436903F08043436187E7D9F80430F3
:10CC4000102123F00103C9F8043001F0C7FC20795A
:10CC5000D8B14FF67F3106F5106399601A68013537
:10CC600022F400121A60C3F80812D3F80022854299
:10CC700022F40012C3F80022D3F8002203F12003AB
:10CC800042F00062C3F8E021E7D1D9F81C3043F04C
:10CC90000113C9F81C30E37B002B00F0B480D9F8F5
:10CCA000843043F00B03C9F88430D9F8443043F0A2
:10CCB0000B03C9F84430D6F80038206823F4FE632B
:10CCC000C6F8003804F29C4102F07AF82068436903
:10CCD00003F480534361CDE602F03CF8002800F0F5
:10CCE000B480804602950022B3462546206806F5AA
:10CCF000106704E001324FEA58082434203718F056
:10CD0000010F07D101324FEA58082434203718F0B8
:10CD1000010FEFD0D6B23146019202F02DF810F09B
:10CD2000010F0346019A40F0F980190744BF08211A
:10CD3000B960D80644BF1021B960590644BF4021EC
:10CD4000B960980700F1DB80190600F18880286837
:10CD50005FEA580398467ED0013224342037D6E764
:10CD6000206801F0EFFF074600283FF468AE214637
:10CD7000A0460295B34600250B4606F5306403E055
:10CD800001357F0820342433F80705D401357F08A6
:10CD900020342433F807F3D5D8F80000E9B2019322
:10CDA00001F0E0FF10F0010F0646019B5FFA85FAE3
:10CDB00040F0C880310700F1DA80F20644BF10224B
:10CDC000A260B00710D5DBF81420110605D5D9F8FC
:10CDD000042042F48062C9F8042093F85722012A03
:10CDE00000F02C810222A260B20644BF2022A26081
:10CDF000B60444BF4FF40052A2607F0827D001352B
:10CE000020342433C6E7D9F8143043F4005343F0F8
:10CE10002B03C9F81430D9F8103043F00B03C9F8CC
:10CE2000103048E7082204F29C41304601F0D2FE5F
:10CE300008EBC80204EB8202D2F86812C7F30A13A7
:10CE40000B44C2F868322368EFE52068FFE55E46D0
:10CE50004446029DF3E52C465E46029DF7E5D4E983
:10CE6000091E8E453FF673AFE069A1EB0E0C8445B9
:10CE700028BF844628680CF1030C00F5106303EB0F
:10CE800042139A469B6905909BB2B3EB9C0FC0F08E
:10CE9000D18001970495374673460E4605460392A6
:10CEA00018E0E3693A469E4228BF1E462846B3B2C0
:10CEB000216A01F07FFE236AF01C33442362A36AD7
:10CEC0003344A362DAF81820666A92B2B2EB900F8C
:10CED000C0F0AA80B342A6EB0306E2D3DDE9032546
:10CEE000019F28680126059B02F00F0ED3F8341825
:10CEF00006FA0EF621EA0601C3F8341828E71146AF
:10CF000058460393019201F069FBE17D019A0129E2
:10CF1000039B00F09D800221B96015E702F00F0E1F
:10CF20000122D9F834C002FA0EFE2CEA0E0C03904E
:10CF3000C9F834C03146BA602846FEF7A9FF039B02
:10CF4000019AF2E60122A260D8F800204649106C4E
:10CF500002F5306202EB45128842D2F808C034D1A3
:10CF60001CF4004F2CD04FF40041916022E70822BE
:10CF7000A260D8F800203D49106C02F5306202EB47
:10CF800045128842D2F808C005D91CF4004F1CBFD6
:10CF90004FF40041916040460193FEF767FF019B0B
:10CFA0000BE7D9F80430204623F00103C9F8043018
:10CFB000FEF790FF2068436903F0004343614CE5AE
:10CFC0001CF0200F1CBF2021916051464046019368
:10CFD000FEF754FF019BEDE647F6F07217423FF46F
:10CFE00024ADC7F30A12174608EBC80304EB83030A
:10CFF000D3F860123046019301F0ECFD019BD3F8A9
:10D0000060223A44C3F86022D3F868223A44C3F855
:10D010006822236809E52046FEF76CFF23689FE538
:10D020002046FEF753FFA6E59E463146049D019F2C
:10D03000039A286871453FF68BAE53E700225146AC
:10D0400083F8572240460193FEF748FF019BC9E64B
:10D0500000212846E175314603920193FEF742FF15
:10D06000039A019B57E700BF0A31544F0A30544FCF
:10D07000034690F89404012811D04FF0010C00B53C
:10D08000186883B0597483F894C4019301F024FEA6
:10D0900000221046019B83F8942403B000BD0220B7
:10D0A000704700BF10B501F00F0E0EEBCE0C090655
:10D0B00082B04FEA8C0C26D44FF000040CF51571A9
:10D0C00084448CF8554201448A604A7881F800E033
:10D0D0000B710AB1A1F81AE0022B04BF00234B71B7
:10D0E00090F89434012B17D003460122006883F88E
:10D0F0009424019301F06CFB00221046019B83F8FD
:10D10000942402B010BD4FF001040CF114018444CA
:10D110008CF815400144D7E7022002B010BD00BFD3
:10D1200001F00F0202EBC20309064FEA83031DD48C
:10D130004FF0000C03F515710144034483F855C208
:10D140000A7090F89434012B1DD00346012200B5DB
:10D15000006883B083F89424019301F081FB0022DE
:10D160001046019B83F8942403B000BD4FF0010CDE
:10D1700003F114010144034483F815C00A7090F8C8
:10D180009434012BE1D10220704700BF10B5002478
:10D1900001F00F0101EBC10E00EB8E0C8CF8541264
:10D1A0008CF855420068CCF86022CCE999340CF533
:10D1B000157101F0B7FB204610BD00BF01F00F0153
:10D1C00001EBC10100EB8100D0F86802704700BF9D
:10D1D00038B50125002401F00F0101EBC10E00EB71
:10D1E0008E0C8CF814108CF815500068CCF82020A8
:10D1F000CCE909340CF1140101F094FB204638BD50
:10D20000037901F00F02934234D30B0626D44FF07A
:10D21000000C01EBC1018B0003F5157103440144BF
:10D2200083F855C24FF0010C0A7081F802C090F8E3
:10D23000943463452CD0034600B5006883B083F86E
:10D2400094C4CDE9003201F0EDFCDDE900329AB181
:10D250000022104683F8942403B000BD4FF0010C67
:10D2600002EBC2039B0003F114010344014483F861
:10D2700015C0D7E70120704703F29C41186801F000
:10D280009FFD00221046009B83F8942403B000BD4C
:10D2900002207047037901F00F02934233D310B597
:10D2A00002EBC203090682B04FEA83031BD40024B9
:10D2B00003F51571034483F85542002401440A70B4
:10D2C0008C7090F89434012B1AD003460122006828
:10D2D00083F89424019301F0D3FC2046019B83F84A
:10D2E000944402B010BD012403F1140103445C75A1
:10D2F000002401440A708C7090F89434012BE4D11E
:10D30000022002B010BD0120704700BF00B5D0F868
:10D3100000E0DEF8243029B943EA02430020CEF8C9
:10D32000283000BDDEF82800013903EB104C09D08D
:10D3300000230EEB8300D0F8040101338B420CEB89
:10D34000104CF6D140314CEA02420EEB810E002027
:10D35000CEF8042000BD00BF03461B6800205962C0
:10D36000704700BF002800F0F38170B503680446E1
:10D37000D80782B035D598494A6802F00C02042AD1
:10D3800000F044814A6802F00C02082A00F03A8159
:10D39000A368B3F5803F10D0002B00F06281B3F595
:10D3A000A02F00F0D7818C4B1A6822F480321A60CB
:10D3B0001A6822F480221A6004E0874A136843F452
:10D3C00080331360FEF7AEFF054605E0FEF7AAFFC7
:10D3D000401B642800F242817F4B1B689B03F5D5FC
:10D3E0002368980729D57C4A516811F00C0F00F08A
:10D3F000E180516801F00C01082900F0D7806369D1
:10D40000002B00F066810122744B1A60FEF78AFF40
:10D41000054605E0FEF786FF401B022800F21E814C
:10D420006D4B1B689E07F5D56B49A2690B6823F00D
:10D43000F80343EAC2030B602368190729D45E0787
:10D440004DD5654BDA69D50000F1DA800126DA693D
:10D4500042F08052DA61DB6903F080530093009B55
:10D460005F4B1B68D80540F1E7802369012B00F072
:10D470005781002B00F00C81052B574B1A6A00F0E6
:10D48000AD8122F001021A621A6A22F004021A62C5
:10D490004BE1E369002B00F0978001224F4BC3F86A
:10D4A0008024FEF73FFF054605E0FEF73BFF401BEB
:10D4B000022800F2D380484B5B6A9A07F5D5494BA6
:10D4C000494A1B68A2FB03235B0A019300BF019B2F
:10D4D0005A1E0192002BF9D123685E07B1D4E36A8A
:10D4E000002B44D03C4A5168C80305D5516801F06F
:10D4F0000C01082900F08C81022B40F0FB80364B98
:10D500001A68D20005D5DB6A626B03F0F003934220
:10D5100057D10022314B9A66FEF704FF054605E01D
:10D52000FEF700FF401B642800F298802A4B1B681E
:10D530001B01F5D401212848626BC36A23F0F00374
:10D540001343C362C36A226B23F470631343234AF9
:10D55000C3629166FEF7E6FE054604E0FEF7E2FED2
:10D56000401B64287AD81C4B1B681E01F6D5236A21
:10D57000CBB1194A526802F00C02082A00F0368139
:10D580000022022B154B1A6600F0F180FEF7CAFE4E
:10D59000044604E0FEF7C6FE001B02285ED80E4BD0
:10D5A0001B689B01F6D4002002B070BD5268D10305
:10D5B0003FF525AF084A1268920731D56269012A02
:10D5C0002ED0012002B070BD044AC2F88034FEF7AC
:10D5D000A9FE05460FE000BF0010024000004242D5
:10D5E0000070004074000020D34D6210FEF79AFED8
:10D5F000401B022832D8894B5B6A9B07F6D46BE745
:10D6000000262DE74A68D1037FF5C2AE834A12682F
:10D6100092037FF5E6AEA268002A7FF4E2AED0E77F
:10D620007E49A0690A6822F0F80242EAC0020A6054
:10D6300019077FF504AF2CE7794A136843F4807328
:10D640001360FEF76FFE0546754B1B68D9053FF565
:10D650000CAFFEF767FE401B6428F5D9032002B02B
:10D6600070BD6E4A136823F480331360136823F48B
:10D6700080231360FEF756FE054604E0FEF752FED7
:10D68000401B6428EAD8654B1B689E03F6D4A7E6C6
:10D69000624A136A23F001031362136A23F004033E
:10D6A0001362FEF73FFE054606E0FEF73BFE41F241
:10D6B0008833401B9842D1D8584B1B6A9B07F4D43F
:10D6C000002E3FF40CAF554AD36923F08053D36149
:10D6D00005E7544A1360FEF725FE054604E0FEF711
:10D6E00021FE401B0228B9D84C4B1B689807F6D482
:10D6F0002368A2E6002149484A4AC36A23F48033DA
:10D70000C3629166FEF70EFE054604E0FEF70AFED0
:10D71000401B6428A2D8414B1B681801F6D426E7A9
:10D720003E4A136A43F001031362FEF7FBFD054610
:10D7300006E0FEF7F7FD41F28833401B98428DD892
:10D74000364B1B6A9A07F4D5002E3FF4C8AEBAE7F1
:10D750000120704703F18043A3F53C331A6842F47B
:10D7600080221A601A6842F480321A602AE6FEF7B4
:10D77000D9FD054605E0FEF7D5FD401B02283FF622
:10D780006DAF264B1B689901F5D4636AB3F5803FF2
:10D790000AD122486168C26A0A43C262C26AE16869
:10D7A00022F00F020A43C2620120A16A1B4C0B4304
:10D7B00062681C4922F47412134363600866FEF722
:10D7C000B1FD044605E0FEF7ADFD001B02283FF663
:10D7D00045AF124B1B689A01F5D5E4E642F004020E
:10D7E0001A621A6A42F001021A629EE7012B3FF4A4
:10D7F000E8AE0A4B626A5B6803F4803191427FF4C1
:10D80000E0AEA06A03F47013181A18BF0120CBE62B
:10D81000D26AD1033FF5D5AE6EE600BF00100240DC
:10D8200000700040000042421B494B6803F00C02AC
:10D83000082A01D0194870471948C3F3834210F8E9
:10D8400002C0DA0310B5644610D5CB6A154AC86A1F
:10D8500003F00F03D25CC3030CD4104804FB00F0A8
:10D86000B0FBF2F00D2C00D1400810BD0E4800FBBB
:10D870000CF010BDCB6AC96AC3F30313C1F30321D3
:10D880000231A1FB0C1005480133A3FB0223A1FBCD
:10D890000001FAF7A7FCE5E70010024000127A0049
:10D8A000D0010108C001010800093D0078B14A4AD1
:10D8B000136803F007038B420BD2136823F00703AE
:10D8C0000B431360136803F007038B4201D0012060
:10D8D000704703682DE9F0419A0714D55F0704D516
:10D8E0003E4C626842F4E06262601E0704D53B4C25
:10D8F000626842F460526260384C8568626822F067
:10D90000F0022A436260DD078846074620D5426858
:10D91000324B012A1B6859D0022A54D0990728D5C6
:10D920002E4C41F28835636823F003031343636090
:10D93000FEF7F8FC064604E0FEF7F4FC801BA84264
:10D9400047D863687A6803F00C03B3EB820FF3D116
:10D95000214A136803F0070343450DD9136823F0E8
:10D96000070343EA08031360136803F00703434502
:10D9700002D00120BDE8F0813B685A0706D517495F
:10D98000F8684A6822F4E06202434A601B0707D540
:10D99000124A3969536823F4605343EAC103536060
:10D9A000FFF742FF03460D4A0D4952680D48C2F386
:10D9B0000312895C0C4ACB4000681360FEF76CFCD4
:10D9C0000020BDE8F0819801AAD4D2E79C03A7D437
:10D9D000CFE70320CEE700BF002002400010024046
:10D9E000B00101087C00002074000020014B186881
:10D9F000704700BF740000202DE9F0410368044621
:10DA0000DE0782B02FD5634BDA69D50040F18E80F6
:10DA1000614D00272B68D80540F197805D4D616806
:10DA20002B6A13F4407312D001F440729A420ED064
:10DA3000012600202B6A594A23F44071C2F8406441
:10DA4000C2F84004DA07296200F193806168514A04
:10DA5000136A23F440730B4313621FB1D36923F09D
:10DA60008053D36123689E0706D54A49A0684A6857
:10DA700022F4404202434A605D0706D54549E0680A
:10DA8000CA6A22F400320243CA62180706D5414925
:10DA90002069CA6A22F480220243CA623D4AD16ADE
:10DAA00089030FD4D26A57030CD4DB0606D5394A52
:10DAB000E169536823F480030B435360002002B0F4
:10DAC000BDE8F081334A1168CE0025D413680120E7
