:04000005080081E48A
:020000040800F2
:108000000000012091E40008F5AC0008F9AC00087C
:10801000FDAC000801AD000805AD0008000000003F
:1080200000000000000000000000000009AD000892
:108030000DAD00080000000011AD000815AD0008EE
:10804000D9E40008D9E40008D9E40008D9E400081C
:10805000D9E40008D9E40008D9E40008D9E400080C
:10806000D9E40008D9E40008D9E40008D9E40008FC
:10807000D9E40008D9E40008D9E40008D9E40008EC
:10808000D9E40008D9E40008D9E4000819AD0008D3
:1080900025AD000831AD00083DAD0008D9E4000869
:1080A000D9E40008D9E40008D9E40008D9E40008BC
:1080B000D9E40008D9E40008D9E40008D9E40008AC
:1080C000D9E40008D9E40008D9E40008D9E400089C
:1080D000D9E40008D9E40008D9E40008D9E400088C
:1080E000D9E40008D9E40008D9E400080000000041
:1080F0000000000000000000000000000000000080
:108100000000000000000000D9E40008D9E40008E5
:10811000D9E40008D9E40008D9E40008D9E400084B
:10812000D9E40008D9E40008D9E40008D9E400083B
:10813000D9E40008000000000000000049AD00087C
:1081400055AD000861AD00086DAD000879AD0008BF
:10815000000000000000000000000000000000001F
:10816000000000000000000000000000000000000F
:1081700000000000000000000000000000000000FF
:1081800000000000000000000000000000000000EF
:1081900000000000000000000000000000000000DF
:1081A00000000000000000000000000000000000CF
:1081B00000000000000000000000000000000000BF
:1081C00000000000000000000000000000000000AF
:1081D000000000000000000000000000000000009F
:1081E0005FF8E0F153B94AB9002908BF00281CBF65
:1081F0004FF0FF314FF0FF3000F00CB8ADF1080C3C
:108200006DE904CE06F06AF9DDF804E0DDE9022349
:1082100004B07047704700BF034613F8012B002AD3
:10822000FBD1181A013870470348044B834202D02F
:10823000034B03B1184770478801002088010020D4
:10824000000000000548064B1B1AD90F01EBA301E3
:10825000491002D0034B03B1184770478801002032
:10826000880100200000000010B5064C237843B9B7
:10827000FFF7DAFF044B13B10448AFF3008001238A
:10828000237010BD880100200000000088E800086D
:1082900008B5054B1BB105490548AFF30080BDE8A3
:1082A0000840FFF7CFBF00BF000000008C01002096
:1082B00088E8000870B59CB002F090FD34220021DF
:1082C0000FA806F0A7FA0021202206A8CDE9011187
:1082D000CDE90311059106F09DFA02204FF480319B
:1082E00001244FF480324FF4E013CDE916010EA8BB
:1082F0000E941092189303F0AFFD08B172B6FEE72A
:1083000010230D9006A8069304F0F0F8034608B178
:1083100072B6FEE70F220221039305934FF48063A8
:1083200001A801920291049304F03AF808B172B6E0
:10833000FEE7564B56499A69022642F001029A61BD
:108340009A69054602F001020692069A4A6822F0EE
:10835000E06242F000724A609A690EA942F004029B
:108360009A619A6902F004020092009A9A6942F0B6
:1083700010029A619B694FF4005203F010030193BD
:10838000019B012310904348CDE90E23119602F082
:10839000F3FE22464FF400513E4803F001F84FF43B
:1083A000007200233C480EA9CDE90E23109502F07F
:1083B000E3FE4FF48063CDE90F454FF40064354888
:1083C0000EA90E93119602F0D7FE2A464FF4806153
:1083D000304802F0E5FF2F480EA90E9402F0CCFEC3
:1083E00021464FF480542A462A4802F0D9FF2948F2
:1083F0000EA90E9402F0C0FE21464FF400442A4616
:10840000244802F0CDFF24480EA90E9402F0B4FED9
:1084100021462A46204802F0C3FF032240F2E143EE
:108420001E481F498360C0E9001204F0F3FC0446B3
:1084300050BB02F049F801F03BFB1A4B186801F001
:108440000DF80221204600F0F7FD22461649174894
:1084500005F016FA1649154805F028FA154913488B
:1084600005F0C4FF114805F02BFA0C4804F0FEFC9F
:108470004FF40071084802F08DFF00F02DFF01F06D
:1084800099FF00F0E3FDF0E772B6FEE7001002404E
:10849000000001400010014000080140A801002038
:1084A000003000400000002050000020B4010020F7
:1084B0004401002004000020BFF34F8F0549064B04
:1084C000CA6802F4E0621343CB60BFF34F8F00BF72
:1084D000FDE700BF00ED00E00400FA05002000B554
:1084E000114B83B0DA69DFF844C042F08052DA61A0
:1084F000DA690F4902F080520092009ADA6942F07C
:108500000062DA61DB690B4A03F000630193019BAF
:10851000DCF8003043F48073CCF80030C2F8F00F80
:108520004860FFF7C9FF00BF001002400070004024
:10853000006C00400040002070B51030C2B01C46F6
:108540008DF804008DF805108DF8063033B12AB18E
:1085500011460DF107001A4606F088F902F05CFC9E
:108560000334064605E002F057FC801BB0F5FA7FA5
:1085700005D2214601A802F0A1F90028F3D142B0AA
:1085800070BD00BF2DE9F04FADF51F7D02F054F92D
:1085900020B900200DF51F7DBDE8F08F02900DF190
:1085A0001601002002F06EF99DF81640029A002C88
:1085B0003CD1162A174628BF16279046BC4E5DAD03
:1085C000BFB22946A0B202F05DF932782B789A4208
:1085D00029D10134A74206F10106F2D1B8F1150FF5
:1085E000D7D94BF6EF64B34BB349DA69B34842F0DD
:1085F0008052DA61DA6902F080521C921C9ADA69C0
:1086000042F00062DA61DB69AD4A03F000632B607F
:108610002B680B6843F480730B60AA4B4460C2F86C
:10862000F03FFFF749FF42469DF81640A02C00F0AE
:10863000F28040F28280BE2C00F2A380BA2C40F27D
:108640009B80BC2C00F0F380BE2C00F03983042A00
:108650009FD90DF11705B4F1BB09294606AF4FF0BC
:108660000100029218BF4FF0010902F00BF93946E0
:10867000022002F007F9394603209DF8184002F065
:1086800001F904204FF005084FF0000A83469DF8D9
:108690001810029A44EA012407A9029202F0F2F8A3
:1086A0009DF81C30029A082B66D8B9F1000F00D152
:1086B000984408F1010393423FF66BAF1CAACDE941
:1086C00002251646254600271C463146B8B201371A
:1086D00002F0D8F8A74206F10106F6D100212346A0
:1086E0001CA82C46029A039D00EB080712F8010B08
:1086F000974281EA0001F9D11CA810F808208A42AB
:108700003AD129789DF81C208DF874118DF87C21C0
:108710008DF875A15E948DF87691B9F1000F00F097
:10872000D2820022CDF87D21CDF881215DA802936F
:1087300001F00CF8BDF808002CE7902C5ED0922CCC
:108740001AD101F03BFF932305468DF87431827BEB
:1087500000F10F010DF5BB708DF8752106F086F85C
:10876000FF23594AA97B5DAC127820460C44A270C5
:10877000E370043102F0A2F801200DF51F7DBDE881
:10878000F08F4034E4B20D2CF6D8012A3FF401AF4B
:1087900001200DF11701029202F074F89DF8170004
:1087A000029A841CA242FFF4F4AE002800F09682E4
:1087B00000261CAFB01C394680B202F063F89DF869
:1087C00017300136B342184607F10107F2D89DF879
:1087D0001610A1F1C0020D2A00F21284DFE812F097
:1087E000F8018C016301DD01BD01B50087004E0277
:1087F0004001F300D40026021B024D0091233249B0
:10880000324A0C7812785DA803214470827003709C
:1088100002F054F8B0E7A1222D4B5DA81B6803219C
:108820001C0A44708370027002F048F8A4E74FF00D
:108830000009062A7FF6ADAE002634460DF1170575
:1088400029460120029202F01DF8DDF8088006AFEB
:10885000B01C394680B202F015F83B78F2000136C0
:108860009340042E44EA0304F2D1062042464FF01E
:10887000010A4FF0070883460EE7022B40F25682AA
:108880009DF870000138C0B2012800F24F829DF8B7
:1088900072209DF8711000F0A9FDDD220023ADF8D3
:1088A00074218DF8763102F0B7FA064618E000BF61
:1088B00020EB00080010024000700040006C0040F7
:1088C00000400020EFBEADDE7904002078040020D7
:1088D0000000002002F0A0FA831BB3F5FA7F32D229
:1088E00003215DA801F0EAFF0028F3D12BE0002B63
:1088F00000F0F6819DF87060013EF6B2012E00F2A4
:10890000EF81002507AF39463046079500F018FD86
:108910008046304600F02AFD2F460246079E68F347
:10892000070762F30F2766F317472946350A5DAA42
:1089300065F31F67350C360E0623C62017601571C8
:108940005671FFF7F9FDA0B224E6012B04D99DF87A
:108950007000452840F2978240F2D5120023ADF80E
:1089600074218DF8763102F057FA064605E002F0E0
:1089700053FA831BB3F5FA7FE5D203215DA801F01A
:108980009DFF0028F3D1DEE7522B04D99DF87050EB
:10899000452D40F251824FF4ED720023ADF8742161
:1089A0008DF8763102F038FA064605E002F034FA26
:1089B000831BB3F5FA7FC6D203215DA801F07EFFC9
:1089C0000028F3D1BFE701F0F9FD36220646002169
:1089D0000DF5BB7005F01EFF0123C74A8DF87531F8
:1089E00011780A228DF874118DF87731737F8DF824
:1089F0007831B37F8DF87A218DF8793101F0E2FD7D
:108A00004FF48071BD4A8DF87B01ADF87611BC4BF7
:108A100012689A4200F08182BA4ABB4F61AB07AE3E
:108A200007CAB64683E807000FCF0FC697E80300D2
:108A300046F8040B31700646BEE80F000DF5C87C01
:108A4000ACE80F00B14BCCF8006093E803005DAADE
:108A5000CDE9690138230021C920FFF76DFD72E7D8
:108A6000002606AF07A93846CDE9066601F0E2FC0C
:108A7000DDE90623CDE95D2301F0EAFC8DF87C01F8
:108A800001F0A0FD8DF87D0101F04EF94622074668
:108A90008DF87F210C23C82031465DAA8DF87E71A8
:108AA000FFF74AFD4FE701F045F901F00FFED22331
:108AB0008DF87431B0FA80F300225B095B00074641
:108AC0008DF876218DF8753102F0A6F9064605E09D
:108AD00002F0A2F9831BB3F5FA7F05D203215DA84A
:108AE00001F0ECFE0028F3D1002F3FF42CAF322030
:108AF00002F098F9FFF7F2FC012B40F214829DF886
:108B000070101CAE092900F263814B1C834200F2F5
:108B10005F8100F05C82F35C0A2B05D88A1C9D18EB
:108B20002F1D874240F21F8240F2D1120023ADF880
:108B300074218DF8763102F06FF9064606E002F0F6
:108B40006BF9831BB3F5FA7FBFF4FDAE03215DA87B
:108B500001F0B4FE0028F2D1F5E6522B04D99DF8BD
:108B60007050452D40F2B1814FF4EA720023ADF808
:108B700074218DF8763102F04FF9064606E002F0D6
:108B80004BF9831BB3F5FA7FBFF4DDAE03215DA87B
:108B900001F094FE0028F2D1D5E6002B40F0F880D9
:108BA00040F2D3128DF87631ADF8742102F034F929
:108BB000064606E002F030F9831BB3F5FA7FBFF4F6
:108BC000C2AE03215DA801F079FE0028F2D1BAE619
:108BD00001F0F4FC05460279411D0DF275108DF887
:108BE000742105F043FE2B795DAEAA7B9F1C3344B4
:108BF0005A7005F10F01F01905F038FEAB7BD5F87E
:108C000019203B44F25004330021C0203246DBB22D
:108C1000FFF792FC97E601F093FE05465DAA042358
:108C20000021CC201560FFF787FC8CE6012B00F2B9
:108C3000EA80002B00F0E5809DF8700001F0E8F874
:108C4000B0FA80F3DB2100225B095B008DF8741120
:108C50008DF876218DF8753102F0DEF8064606E0D3
:108C600002F0DAF8831BB3F5FA7FBFF46CAE032190
:108C70005DA801F023FE0028F2D164E6002B6ED03F
:108C80009DF870000138C0B2012868D807A900F02B
:108C9000E9FADDE908325F920A9A60920B9A6192D2
:108CA0000C9A6292079ACDE95D2300F049FD1923E1
:108CB0008DF88C010021C7205DAAFFF73DFC42E63C
:108CC0004FF00109B5E502930BF101011CAB19440A
:108CD0000DF27D1005F0CAFD029B27E5034676E5FF
:108CE0004FF4EB720023ADF874218DF8763102F069
:108CF00093F8064613E000BF7804002000D0030874
:108D000031505041E8F7FF1FACEA0008A0EA000824
:108D100002F082F8831BB3F5FA7FBFF414AE03218F
:108D20005DA801F0CBFD0028F2D10CE640F2DD1287
:108D30000023ADF874218DF8763102F06DF8064607
:108D400006E002F069F8831BB3F5FA7FBFF4FBADD0
:108D500003215DA801F0B2FD0028F2D1F3E540F255
:108D6000D7120023ADF874218DF8763102F054F853
:108D7000064606E002F050F8831BB3F5FA7FBFF415
:108D8000E2AD03215DA801F099FD0028F2D1DAE5FA
:108D90009DF8700007A900F0B1FF002840F0DC80CA
:108DA00040F2D3138DF87601ADF8743102F034F847
:108DB000064606E002F030F8831BB3F5FA7FBFF4F5
:108DC000C2AD03215DA801F079FD0028F2D1BAE51A
:108DD00040F2D1120023ADF874218DF8763102F003
:108DE0001BF8064606E002F017F8831BB3F5FA7F7E
:108DF000BFF4A9AD03215DA801F060FD0028F2D108
:108E0000A1E5FF201AE740F2DB120023ADF8742140
:108E10008DF8763102F000F8064606E001F0FCFF1E
:108E2000831BB3F5FA7FBFF48EAD03215DA801F07B
:108E300045FD0028F2D186E552220DF1710107A807
:108E400005F014FD07A9284600F09CFFB0FA80F356
:108E5000DA2100225B098DF874118DF876218DF8E6
:108E6000753101F0D9FF064606E001F0D5FF831BFE
:108E7000B3F5FA7FBFF467AD03215DA801F01EFDD5
:108E80000028F2D15FE59DF8711001F03FF9B0FACA
:108E900080F3D52100225B095B008DF874118DF8F9
:108EA00076218DF8753101F0B7FF064606E001F036
:108EB000B3FF831BB3F5FA7FBFF445AD03215DA873
:108EC00001F0FCFC0028F2D13DE552220DF17101C8
:108ED00007A805F0CBFC07A9284601F003F9B0FA72
:108EE00080F3D42100225B095B008DF874118DF8AA
:108EF00076218DF8753101F08FFF064606E001F00E
:108F00008BFF831BB3F5FA7FBFF41DAD03215DA872
:108F100001F0D4FC0028F2D115E5464A92E803009E
:108F2000CDE95F0178E540F2D1120023ADF874215C
:108F30008DF8763101F070FF064606E001F06CFF17
:108F4000831BB3F5FA7FBFF4FEAC03215DA801F0EB
:108F5000B5FC0028F2D1F6E452230021C32007AA71
:108F6000FFF7EAFAEFE40DF17300475D0DF17200CF
:108F7000405D324440EA072001900DF17100765DBA
:108F8000455D46EA0525009501F022FBD1238DF8C9
:108F90007431B0FA80F300225B095B0006468DF85D
:108FA00076218DF8753101F037FF074605E001F0B5
:108FB00033FFC31BB3F5FA7F05D203215DA801F08F
:108FC0007DFC0028F3D1002E3FF4BDAC8FE540F2CC
:108FD000D1120023ADF874218DF8763101F01CFF19
:108FE000064606E001F018FF831BB3F5FA7FBFF4D5
:108FF000AAAC03215DA801F061FC0028F2D1A2E433
:109000000322002310318DF874118DF875218DF82D
:10901000763101F001FF064603215DA801F04EFC08
:1090200000283FF490AC01F0F7FE831BB3F5FA7F04
:10903000F2D388E408D00308024A034B1070197079
:10904000704700BF79040020780400202DE9F04328
:1090500020268BB0FFF796FA054648B1002401346C
:1090600001F0F6FBA542FAD1013EB6B2002EF1D1D5
:1090700000276E464025384605A900F0BFF880B3AA
:1090800005A801F06BF89DF816209DF8153082B305
:10909000002B72D1AC2205240621B0469DF8143075
:1090A000BDF818C09DF81C0001338DF80130ADF8F3
:1090B00002C08DF804008DF80020002240461346BF
:1090C00010F801CB01339C428CEA0202F8D8013D32
:1090D00040466C4489B2ADB2227001F0EFFB002D26
:1090E000C9D17B1C022B4FF00107C3D10BB0BDE8E7
:1090F000F08313BBAA22052406219DF81430BDF885
:1091000018009DF81C9001338DF80130ADF8020075
:109110008DF804908DF80020B9F1000F2BD00DF1DF
:109120001D0130194A4605F0A1FB09F1FF31C9B212
:109130002144B04602314C44BFE7069B4FF0AB0CD4
:1091400018469DF814101C0A01318DF801108DF895
:1091500000C09DF81C90190C1B0E8DF804108DF8A2
:109160000340082107248DF805308DF802008DF8A2
:109170000690002AD0D0B0469FE74FF0AD0C9DF886
:109180001410069B013118468DF801101C0A8DF849
:1091900000C0DEE7642908B52AD01BD814292BD0DB
:1091A000322923D00A2914BF0422C82200234FF4F5
:1091B000602C4FF4801142604FF00122C0E902336D
:1091C000C0E904C18261838303F066FAB0FA80F0DB
:1091D000400908BDFA290DD0B1F57A7F04D07D2968
:1091E00014BF04221022E1E70222DFE72822DDE794
:1091F0001422DBE70822D9E76422D7E70128F0B57B
:109200002AD845F2100245F2020402FB00F0144B8A
:109210001D1805F5A042B2F800C02A5B1FFA8CFCAD
:1092200092B2944518D08E4601272A5B92B202EB87
:10923000820200EB820003EB000C2B5B0133C3F3D3
:109240000906BCE80F00AEE80F00DCF80030384635
:10925000CEF800302E53F0BD00273846F0BD00BFD9
:10926000B004002021B3012823D800B545F2100E28
:1092700045F2080C45F20C02124B0EFB003353F87A
:109280000CC0C1F800C0DFF840C05CF820C09B589B
:109290000E4AC1F804C08B6052F820C00C4B0D4A36
:1092A00052F8202053F82030C1E903C24B6100BDC1
:1092B000704700230B604B608B60CB600B614B6190
:1092C000704700BFB0040020A804002090040020D4
:1092D0008004002088040020144B1B782BB300B5B9
:1092E000134A144983B0CDE9001200236A46DFF81F
:1092F00048C01CF80310581C29B111680968896915
:1093000011F0040107D002284FF0010302F104021A
:10931000EFD103B000BDDFF824E00CF803105EF8D5
:10932000231001314EF82310EDE770477A04002036
:10933000D0A40020F8A400207C0400208004002099
:10934000012803460CD84FF0000C064A105C02F8C6
:1093500003C0C0B229B1044A52F823300B607047F1
:1093600000207047A4040020980400200128034630
:1093700005D80021034A105CD154C0B270470020C8
:10938000704700BFA00400200368114910B55B1AA4
:1093900018BF01230124416A0E4ADFF83CE0DFF8E0
:1093A0003CC04EF82310D4545CF8232022444CF8DF
:1093B00023204A0709D50A4A0A49D45451F82320E0
:1093C000224441F82320084AD4540023436210BDAC
:1093D00000640040A40400209804002090040020B1
:1093E000A0040020880400207C0400202DE9F04126
:1093F00090460C4684B048BB80210826154F15487E
:10940000019101F0C7FF0546221E18BF0122114835
:10941000019901F0C5FFB8F1000218BF01223146E1
:10942000384601F0BDFF012D0DD164B90394039BB3
:10943000B3F5B47F07D200BF039B01330393039BB3
:10944000B3F5B47FF7D304B0BDE8F0811021042652
:10945000014FD4E7000C0140001401402DE9F04712
:10946000002494B082464AF220020021A34805F06D
:10947000D1F9A34DA348A449A44BA54A1C80A54FEC
:109480002C80A54B046044600C604C60A349DFF85D
:1094900090821460099454603C701C605C600C8085
:1094A000D8F818309F4A43F00103C8F81830D8F8AC
:1094B0001830012503F001030293029B53689A4878
:1094C00023F4C04343F0E06343F4804353605368A4
:1094D00006A943F0E8635360D8F818304FF480725F
:1094E00043F00803C8F81830D8F81830032603F002
:1094F00008030393039BD8F818304FF0020943F098
:109500002003C8F81830D8F8183003F0200304936B
:10951000049B0023CDE90623089501F02DFE4FF4AE
:1095200000720223804806A9CDE90623099601F0BE
:1095300023FE202200237C4806A9CDE906230895B6
:1095400001F01AFE40220223774806A9CDE906233E
:10955000099601F011FE802201231026D8F8181078
:10956000714841F01001C8F81810D8F81810CDE96A
:109570000A2301F0100105910AA9059BCDE90C49C8
:1095800001F0FAFD22468021674801F009FF664894
:109590000AA90A9601F0F0FD3146082622466248E3
:1095A00001F0FEFE60480AA90A9601F0E5FD314689
:1095B000042622465C4801F0F3FE5C480AA90A969C
:1095C00001F0DAFD22463146584801F0E9FED8F8AC
:1095D0001C30574943F00073C8F81C30D8F81C30D1
:1095E000544803F000730193019BD8F81C30524A91
:1095F00043F08063C8F81C30D8F81C3001604F4934
:1096000003F080630A6006935146069BFFF7C2FD94
:1096100020B90026304614B0BDE8F08751464748CF
:10962000FFF7B8FD06460028F3D0CDE90A44CDE99E
:109630000C44CDE90E44CDE910450E243D480AA95D
:109640001295139403F0AAF80028E2D13B480AA926
:109650000F9403F0A3F80028DBD1364803F038F963
:109660000028D6D1354803F033F90028D1D1494636
:10967000304803F057FA0028CBD149462F4803F071
:1096800051FA0028C5D14FF40C412A4803F04AFA98
:109690000028BED14FF40C41284803F043FA0028BB
:1096A000B7D102460521142001F0E0FB142001F09F
:1096B0000FFC00220621162001F0D8FB162001F035
:1096C00007FC00220521402001F0D0FB402001F0E2
:1096D000FFFB00220621422001F0C8FB422001F0DE
:1096E000F7FB002211461046FFF780FE0022012002
:1096F0001146FFF77BFE01233B708BE7B00400208F
:10970000A00400209804002090040020A40400205D
:10971000880400207A040020800400207C040020BB
:109720000010024000000140000C01400014014004
:1097300000640040F8A4002000680040D0A400208D
:10974000014B1878704700BF7A040020284B1B7823
:10975000002B4AD0002848D0F0B5037889B0013BEF
:10976000DBB2012B1E4633D8002B34D04378214D79
:109770004268002B34D1C2F30A011A46CDE9021324
:1097800083780492003B18BF01230022017A5B001A
:1097900007464FF4FA7406918DF81C20059301E0FA
:1097A000013C15D0284603F019F90028F8D02846C6
:1097B00001AB07F1090202A903F0B8F840B9012092
:1097C0000D4A52F82630034442F8263009B0F0BD65
:1097D000002009B0F0BD4378084D4268002BCAD084
:1097E00022F0604300210422C8E70020704700BF38
:1097F0007A040020D0A40020A8040020F8A40020AF
:1098000010B58CB000210DF1090305AA044603F040
:10981000F9F800285CD122683249089B521AA3F15A
:10982000020318BF0122B3FA83F307995B090429E5
:109830008DF800204ED005998DF801008DF802308A
:1098400045F2100045F20204274B019100FB023162
:10985000DDF824C001F5A0408DF808C0B0F800C0C4
:10986000085B0CF1010CCCF3090C80B2844510D1DB
:10987000085B45F20C0E0130C0F30900085345F2B5
:1098800004004FF001040C5451F80E00013041F86F
:109890000E0045F2100145F20804EE4601FB02F20B
:1098A000991808590130085101F5A0400188A0F825
:1098B00000C089B201EB810102EB810203EB020CD3
:1098C000BEE80F00ACE80F00DEF80030CCF8003046
:1098D0000CB010BD012006998DF802308DF8010002
:1098E000AEE700BF00640040B0040020002853D061
:1098F0004379022B4ED890F82030022B4AD8837936
:10990000012B47D890F82120012A43D8C17B082990
:1099100040D890F8261008293CD890F83310012937
:1099200038D890F84F10022934D890F83410012913
:1099300030D890F8351002292CD890F8361001292B
:1099400028D890F83BC0BCF1080F23D840F2FF7C28
:10995000002B0CBF63466FF0604300B5002AD0F8BF
:1099600007E00CBF62466FF06042002918BF6FF03D
:10997000604C9E4511D8D0F80B1099420DD8D0F804
:109980002230934209D8D0F8370060458CBF0020C0
:10999000012000BD002070477047002000BD00BFBF
:1099A000F0B587B001F0E2FA0026124C124D134FC9
:1099B0002B4601E09C420ED01A6804330132F9D0E4
:1099C000012302A801A9CDE9026604950196059339
:1099D00001F072FB50B905F50065BD4204F5006465
:1099E000E6D101F0D7FA012007B0F0BD01F0D2FABC
:1099F0000020F9E700E8030800E00308000004087D
:109A000030B590F83430844687B013B3264B5C5C95
:109A1000E4B1264B01EB810101AC03EB810EBEE802
:109A20000F000FC49CF82020DEF8003012F0FD0F6C
:109A3000236001AD64462AD1012228468DF8042016
:109A4000FFF784FE94F8202004460ABB204607B0A6
:109A500030BD90F8212090F83330D0F822008DF8F6
:109A60000520DCF827209CF82610CDF80D209CF866
:109A700020208DF80630DCF82B3012F0FD0F644604
:109A800002908DF80C10CDF8113001ADD4D0002427
:109A9000022228468DF80420FFF758FE40EA04030E
:109AA000DCB2204607B030BDC4A800200CA90020BD
:109AB0002DE9F04F4FF4527283B000217C4804F03E
:109AC000A9FE41F26C6200217A4804F0A3FE46220E
:109AD0000021794804F09EFE4FF4AF6200217748E0
:109AE00004F098FE46220021754804F093FE0022FF
:109AF000744C9346226014467348DFF8D091744941
:109B0000744FDFF8D481754B754E764D02600A7044
:109B100089F800203A6088F800201A68B24224D1FF
:109B20001A79032A21D1597946291ED8522003F1E6
:109B3000100200FB01226B498A4216D81946002206
:109B4000DFF8A4E103F10F0C11F8010B424061456D
:109B50001EF80220F8D1D97B914206D1D3F8072014
:109B6000002C40F0A08093461C4603F50063AB42F6
:109B7000D3D1002C44D06679002E3CD052236034DF
:109B800003FB0646584D54F8503C584AA4F1500A7D
:109B900093422DD10023A4F1510111F8012F53401C
:109BA000A142EB5CF9D19AF851209A4220D19AF85F
:109BB0003130002B6CD19AF83230CBB95046FFF7D8
:109BC00095FEA8B1522299F800304948514602FB4F
:109BD0000300019304F04AFE019B9AF8042001332C
:109BE00089F8003022B198F80030013388F800304D
:109BF0005234A642C7D1C7F800B003B0BDE8F08F19
:109C00003C4C3A4F384D3C4E54F8503CA4F1500A6D
:109C1000BB421BD10023A4F1510212F8011F4B409B
:109C20009442EB5CF9D19AF851209A420ED19AF8FD
:109C3000313033BB9AF8323043B95046FFF756FE05
:109C400020B199F800B0BBF1450F05D95234B442A8
:109C5000DAD103B0BDE8F08F52222548514602FB0D
:109C60000B0004F003FE9AF804300BF1010B89F8A5
:109C700000B0002BEAD098F80030013388F80030AB
:109C8000E4E7022BE2D19AF83230522BDED1D4E74E
:109C9000022BADD19AF83230522B8FD05234A642DB
:109CA0007FF471AFA7E793453FF65FAF5BE700BF77
:109CB0007CA50020D8AE002090AE00200CA900208A
:109CC000C4A8002078A5002074A5002088AE00203C
:109CD00089AE002084AE002072A5002000E00308B9
:109CE0004847525400000408A0E800083247525484
:109CF00044C5002050E0030802F0030808B5084BF3
:109D00001B7883420AD903465222DFF818C008465E
:109D100002FB03C104F0AAFD012008BD002008BD1C
:109D200088AE002044C50020014B1878704700BF62
:109D300088AE002010B50024FFF732FE0B490C4A14
:109D40000C4B0C701470214646220B481C7004F01A
:109D500061FD21464FF45272084804F05BFD214634
:109D6000BDE810404622064804F054BD88AE0020ED
:109D700089AE002072A5002090AE00207CA50020B6
:109D8000C4A8002030B5452899B033D80446084609
:109D90000191FFF7ABFD054648B35222019903A894
:109DA00004F064FD45F20222002314491448ADF882
:109DB0003D2003910DF10B020DF15C0C12F8011F17
:109DC0004B406245C35CF9D18DF85D3052230D489C
:109DD0001A4603FB040003A904F048FD01200A4BC6
:109DE0000A491A780855A24201D804441C70284632
:109DF00019B030BD0025284619B030BD3247525445
:109E0000A0E80008D8AE002089AE002090AE002067
:109E10002DE9F04FFF28D1B052D00546462D4BD842
:109E2000A24B1B7823B9A24B1B78AB4200F0E18018
:109E3000A04C4E220021204604F0ECFC45F2022208
:109E400000239D499D4F44F8041CA4F82D20611F58
:109E500004F14C0011F8012F53408142FB5CF9D111
:109E600084F84D30002D00F0A380914B0DF12808AF
:109E7000C44600249E4693F800A091499148924A16
:109E8000DFF848920AE013460134E4B2A5424CF8E8
:109E9000043B01F1520102F1520208D010F8013BDB
:109EA000002BF0D1A2458CBF0B464B46ECE7CDF81A
:109EB00004E0FFF775FD58B9002051B0BDE8F08F00
:109EC0007A4A7B4B15781B789D4238BF1D46A5E723
:109ED00052204FF0030E4FF0000C05FB00F0DFF8AE
:109EE000F0A17C4A00F60F00DAF800108DF81CE0B3
:109EF000A2EBD02E4FEACE23DFF8DC9101310293A2
:109F0000019BCDF81EC0CDF822C06046ADF826C03A
:109F1000CDF81F10CDF818908DF81D500DF11701D8
:109F20000DF1260C11F8012F50408C45385CF9D109
:109F300001938DF8270001F019F8029B04941F4645
:109F400010339B463C46019F0DF1160903932146B1
:109F50000023012039F8022F01F05CF8023420BB05
:109F60005C45F4D14646AC463B462746049C5449E2
:109F700008EB85090194CDF810A03268BB4607F1C3
:109F80005205CDF81480E24688461F46941E01E033
:109F9000AB4530D059460023012034F8022F01F0A0
:109FA00039F80BF1020B0028F2D000F0F3FF83E741
:109FB000FFF7F6FC00283FF47FAF3D4BDFF810A120
:109FC0000024DAF800101D700131384B4622CAF81F
:109FD00000103C4821461C7004F01CFC4FF45272E7
:109FE00021463E4804F016FC462221463C4804F037
:109FF00011FC012061E704364E4541463B46D446FC
:10A000005F46DDF81480B8D10E46019C0593554695
:10A010000190DDF810A000F0BDFF029B069F1868BC
:10A020000199B842059B7FF447AF029F07987A6871
:10A03000043782427FF440AF089857F8042F8242D9
:10A040007FF43AAF7F68099887427FF435AFCDF847
:10A0500004A00F46AA46C14625461C46DDF80CB0B2
:10A060005222D9F80010584604F0C4FB01370BF116
:10A070005203FAB209F10409039300287FF41CAFDC
:10A080009542EBD80746A1462C465546DDF804A07C
:10A090003046522258F8041B013704F0E7FBFBB2AC
:10A0A0009C4206F15206F3D84B4689E789AE002060
:10A0B00088AE002024A5002032475254A0E80008B2
:10A0C00044C5002090AE0020D8AE002020A500207E
:10A0D00084AE002080000100484752547CA5002037
:10A0E000C4A8002010B50446FFF74CFE50B1064B43
:10A0F000601C1B78C0B29C4238BF1846BDE81040B7
:10A10000FFF786BE10BD00BF88AE002030B5114BF2
:10A1100099B01C78844219D9034652220D460E4943
:10A1200003A802FB0311019304F0A0FB2A1E18BF31
:10A130000122019803A98DF81020FFF723FE28B112
:10A14000204619B0BDE83040FFF762BE002019B0CC
:10A1500030BD00BF88AE002044C500208F4B1B7867
:10A16000002B00F01A812DE9F04FDFF83482814690
:10A17000C2464FF0000B8B4C8B4F89B09AF80430DD
:10A18000002B79D09AF83430BBB19AF83530022BD5
:10A1900003D099F800209A420FD19AF8362099F806
:10A1A00001309A4209D1522303FB0B83D9F80420D2
:10A1B000D3F83730934200F082809AF84F30012B69
:10A1C0006CD0022B6FD09AF80520022A03D099F8A0
:10A1D0000010914250D19AF8061099F8012091424E
:10A1E0004AD1522202FB0B82D9F80400D2F80710A0
:10A1F000D2F80B20414011423ED19AF80F20002A9C
:10A2000056D1012B15D099F8080090B109F1080337
:10A2100018440AF10F0109F1100C11F8012F13F87D
:10A22000016F0D7A72402A4226D1834201D09C45AB
:10A23000F3D1522303FB0B83B3F82F305FFA8BF17A
:10A2400023B99AF84E30012B40F29C804FF0010365
:10A250006170237000F0E0FD52229AF84E3002FB4C
:10A260000B82012B38BF0123B2F82F202372BAF8DA
:10A270004C30024462606381484B0BF1010B1A7849
:10A280005FFA8BF39A420AF1520A04F10C0407F1C7
:10A2900014073FF673AF09B0BDE8F08F99F80220BC
:10A2A000002A90D1E8E799F80220002A8BD0E3E752
:10A2B00099F808009042DFD1012BA7D1B9E79AF8AD
:10A2C0003B300193002B51D0002399F8082009F16D
:10A2D0000900CDE904BA02920694CDF80C900AF177
:10A2E0003B041E461A469E461D469A4699460797C7
:10A2F00000904FEA052C14F8015F029F4FEA0920F5
:10A300004FEA0A214CEA1E6C45EA0E2E257A40EAF5
:10A31000166041EA136102F1010B974245EA0626F5
:10A32000814665468A464FEA03235FFA8BF204D9D9
:10A33000009F97F800B04BEA0303019F9742009FEC
:10A3400007F10107009701D0082AD2D1DDE904BA4C
:10A35000DDE90647734571EB0C02DDF80C90FFF464
:10A360002CAF9E4270EB0101FFF427AF3D464E46F5
:10A370000FCE0FC54FF0010233682B600B4B03F873
:10A380000B201AE75046FFF73BFB00283FF474AF61
:10A39000074A1368013313606EE7704788AE0020E8
:10A3A00044C500207CA500200CA90020C4A80020E2
:10A3B00078A500202DE9F84300F02EFD194C054644
:10A3C000DFF86490194F1A4E04F5527806E062895E
:10A3D00023722A4462600C34444520D02378002B39
:10A3E000F9D06368EB1AF6D45220D9F800206178CE
:10A3F000934200FB017088BFC9F80030FFF700FBF3
:10A4000010B1336801333360237A012B03F1FF333A
:10A41000DDD800230C3404F80C3C4445DED1BDE803
:10A42000F88300BF7CA5002074A5002044C500204F
:10A4300078A5002010B1044B1B68036011B1034BD9
:10A440001B680B60704700BF78A5002074A5002032
:10A45000014B1878704700BF72A50020F0B587B097
:10A46000074600F083FD0121002315480293CDE942
:10A47000040102A801A90193039300F01DFED0B9C5
:10A48000104DBC1E07F11E06ED1B291900230120EB
:10A4900034F8022F00F0BEFD68B9B442F5D100F0E7
:10A4A00079FD20223946064804F0A4F9B0FA80F07C
:10A4B000400907B0F0BD00F06DFD002007B0F0BD11
:10A4C00000D8030802D80308334A344B116830B56A
:10A4D000994242D10023DFF8C8E0324812F8011B4C
:10A4E0004B4082421EF80330F8D12B4AD17F99426B
:10A4F00036D00023092542F20104DFF8ACC0274919
:10A500002A4A4CF80E1C03CA12784CF8090C0CF8B5
:10A51000012C274ACCF80830ACF81030CCF80B20CE
:10A520004CF8051CCCF80030CCF804300CF80A5C70
:10A53000ACF80F40ACF10F020CF1100012F8011F43
:10A540004B4090421EF80330F8D14FF0000E8CF8CB
:10A550001130184B83F800E030BDDFF844E0C8E765
:10A560001379092BC5D8937B0A2BC2D8537F6BB9BB
:10A57000937F002BBDD1104C074D4FF0010E0FCD36
:10A580000FC495E80F0084E80F00E2E7012BB0D17B
:10A59000937F202BADD1EEE700D803083047464328
:10A5A000A0E900081FD80308C2DB0020C4EA0008A5
:10A5B00083044057B0DB0020B4DB00200048704724
:10A5C000B4DB0020014B1878704700BFB0DB0020DF
:10A5D00070B509298AB0BDF83850BDF83C4001D8A3
:10A5E0000A2B02D900200AB070BD4FF0000C1646AD
:10A5F000324ACDF821C08DF80C100292CDF80DC072
:10A60000CDF811C0CDF815C0CDF819C0CDF81DC0DA
:10A61000CDF824C0002947D18DF81630002B3CD14D
:10A62000002345F2407E40F2834642F201019D4202
:10A6300008BF35469C4208BF7446DFF884C00DF160
:10A6400007020DF12600ADF82510ADF82150ADF848
:10A65000234012F8011F4B4082421CF80330F8D10E
:10A660002022184902A88DF8273004F0C3F810B949
:10A6700001200AB070BD02A8FFF7F0FE0028B1D09B
:10A680000122114B0F4D02AC1A700FCC0FC594E88C
:10A690000F0085E80F000120EBE71A4631460DF167
:10A6A000170004F0E3F8BBE70A4601460DF10D0080
:10A6B000019304F0DBF8019BAEE700BF304746434F
:10A6C000A0E90008B4DB0020B0DB0020002242F249
:10A6D0000101092310B5204888B0204C0090204883
:10A6E000CDF81620ADF81E20CDF81900ADF81D10DC
:10A6F00003CCCDF809102178DFF868E08DF804303C
:10A70000CDF80E201346CDF812200DF11E0C0DF1E0
:10A71000FF32CDF805008DF80D1012F8011F4B40E7
:10A7200094451EF80330F8D168468DF81F30FFF7C6
:10A7300095FE044668B10122EC460B4BDFF82CE095
:10A740001A70BCE80F00AEE80F009CE80F008EE81E
:10A750000F00204608B010BD30474643C4EA000849
:10A7600083044057A0E90008B0DB0020B4DB0020E0
:10A770000020704720280ED0212801D000207047EB
:10A78000072AFBD10A4B18689A889B7908608A804F
:10A7900000208B717047072AF0D1054B8888D1F8CB
:10A7A00000C08A799880C3F800C000209A71704771
:10A7B0001400002038B50B68BBB101380D490E4CB0
:10A7C0000E4D00EB030E08E00A8810F801CF92B29C
:10A7D000704505F802C00B8007D00B882288013332
:10A7E000C3F30A0392B29A42EED1054803F038FE51
:10A7F000002038BDDADB0020D8DB0020DCDB0020C5
:10A80000B401002008B50849084803F003FE0023FE
:10A810000749084A05480B80138003F021FE0038E1
:10A8200018BF0120404208BD1CE40020B4010020F4
:10A83000DADB0020D8DB0020034A044B10881B8899
:10A84000C01AC0F30A007047DADB0020D8DB002012
:10A85000094B0A4A1988138889B29BB2994209D0D8
:10A86000118813880648013389B2C3F30A03405C98
:10A870001380704700207047DADB0020D8DB00200F
:10A88000DCDB00200A4B0B4A1B88B2F800C0A3EBAC
:10A890000C03C3F30A03984208D21288064B1044F3
:10A8A000C0F30A001B5C01200B707047002070474A
:10A8B000DADB0020D8DB0020DCDB0020B9B32DE997
:10A8C000F84381460F460026DFF86880D8F8B84282
:10A8D000D4B9BD1BADB2402D28BF402509EB060100
:10A8E0002A46154803F0C2FF2A464046124903F0A3
:10A8F00087FD404603F096FD90B93544AEB2B742AD
:10A90000E6D80020BDE8F88300F086FA0546D4F8C2
:10A910001432012BDDD100F07FFA401B6328F6D9F9
:10A92000064A0120136801331360BDE8F883002054
:10A93000704700BFB4010020DCE30020D4DB00201E
:10A94000014B1868704700BFD4DB0020054A13682C
:10A9500033B9B0F5806F03D8012303481360704703
:10A960000020704738E900203CE90020034B984262
:10A9700000D070470022024B1A6070473CE900206B
:10A9800038E900204FF4C05030B5022100250322E1
:10A99000194C87B0A36943F00403A361A369029033
:10A9A00003F0040300F18040CDE90315009302A9F0
:10A9B00000F57040009B059200F0DEFB4FF4007242
:10A9C000002302A90D48CDE90223049500F0D4FB31
:10A9D0006369062143F48053636163692A4603F483
:10A9E000805301934320019B00F040FA432000F084
:10A9F0006FFA07B030BD00BF0010024000080140F0
:10AA00000146D0F8D80401F29C4102F075BF00BFA6
:10AA100001EBC10300EB8303D3F86022D0F8D80424
:10AA200002F0A0BF01EBC10300EB83031A6AD0F868
:10AA3000D80402F0D9BF00BFD0F8D80403F07CB826
:10AA400010B504460121D0F8D80403F05DF8D4F81D
:10AA5000D804BDE8104003F02FB800BFD0F8D804E8
:10AA600003F056B8D0F8D80403F05CB8D0F8D80496
:10AA700003F072B8D0F8D80403F06CB8D0F8D8045A
:10AA800003F06CB8D0F8D80403F06AB8F8B54FF00A
:10AA9000A0420423002502260127114CC4F8D80443
:10AAA000C0F8C0422046237122606581E671A77319
:10AAB00000F07AFC8021204601F0C8F929464022A6
:10AAC000204601F09DF939468022204601F098F990
:10AAD00040223146204601F093F92846F8BD00BFD8
:10AAE0005CE4002008B5D0F8C00200F0C7FC0020EC
:10AAF00008BD00BF944608B51A46D0F8C0026346A8
:10AB000001F04AF8002008BD08B5D0F8C00201F0F5
:10AB100081F8002008BD00BF08B5D0F8C00201F0E0
:10AB2000E9F8002008BD00BF08B5D0F8C00201F068
:10AB30002BF9002008BD00BF0A06D0F8C03206D4A9
:10AB400001EBC10103EB810393F85602704701F05A
:10AB50007F0101EBC10103EB8103987D704700BFCA
:10AB600008B5D0F8C00200F0FDFF002008BD00BF0E
:10AB700008B5D0F8C00201F0A5F8002008BD00BF5C
:10AB800008B5D0F8C00201F07BF8002008BD00BF76
:10AB9000D0F8C00201F08CB8122301480B80704736
:10ABA0003C000020042301480B807047380000203F
:10ABB00008B50A460248034903F09AFA014808BD5D
:10ABC000D0EA000854ED002008B50A4602480349BF
:10ABD00003F08EFA014808BDECEA000854ED0020AD
:10ABE00008B50A460248034903F082FA014808BD45
:10ABF00004EB000854ED002010B582B00C46FFF7BE
:10AC0000DDFC02798AB1411D01900C4803F02EFE53
:10AC10000020019B22461B79084C0949E05420463C
:10AC200003F066FA064802B010BD22460449054802
:10AC300003F05EFA024802B010BD00BF3CED0020F8
:10AC400054ED002010EB000810B582B00C46FFF761
:10AC5000B5FC827B8ABB4FF01A0C2149D1F8E8374A
:10AC6000D1F8F007A4F800C013EB000C02D11D4886
:10AC700002B010BD1B4BD1F8ECE7194603F11004EC
:10AC80004FEA1C70092894BF303037308870CA7082
:10AC900002318C424FEA0C1CF2D1002012494FEADB
:10ACA0001E72092A94BF303237329A74D874023334
:10ACB0008B424FEA0E1EF2D1D9E700F10F0101904D
:10ACC0000A4803F0D3FD0020019B22469B7B074CE2
:10ACD0000749E054204603F00BFA054802B010BDC6
:10ACE00000F0FF1F1C0000202400002048ED002081
:10ACF00054ED0020704700BFFEE700BFFEE700BF35
:10AD0000FEE700BFFEE700BF704700BF704700BF0F
:10AD1000704700BF00F074B8014801F02BBF00BFBE
:10AD2000F8A40020014801F025BF00BFF8A40020CE
:10AD3000014801F01FBF00BFF8A40020014801F046
:10AD400019BF00BFF8A40020014801F013BF00BFE5
:10AD5000D0A40020014801F00DBF00BFD0A4002006
:10AD6000014801F007BF00BFD0A40020014801F056
:10AD700001BF00BFD0A40020014800F095BB00BF78
:10AD80005CE40020704700BF704700BF4FF47A7347
:10AD900010B50F49044609780E4AB3FBF1F012686A
:10ADA00082B0B2FBF0F000F0A1F808B90F2C02D984
:10ADB000012002B010BD0246019021464FF0FF3045
:10ADC00000F054F8044B01981C6002B010BD00BFA5
:10ADD000700000206C00002074000020074A08B5B5
:10ADE0001368032043F01003136000F02DF80020D7
:10ADF000FFF7CCFFFFF7C8FF002008BD002002408E
:10AE0000034A044B11681B780B441360704700BF62
:10AE100094ED002070000020014B1868704700BFBF
:10AE200094ED002038B50446FFF7F6FF631C054695
:10AE300002D0044B1B781C44FFF7EEFF401BA042DE
:10AE4000FAD338BD700000204FF6FF0C064903020C
:10AE5000CA6803F4E06302EA0C02134343F0BF63E1
:10AE600043F40033CB60704700ED00E0164B00B5B3
:10AE7000DB68C3F30223A3F1030CBCF1040F19D860
:10AE80004FF0FF3EC3F107030EFA03F3DB430EFA64
:10AE90000CFE22EA0E02194001FA0CF111430028BF
:10AEA0004FEA01110ADB00F1604000F5614080F8D3
:10AEB000001300BD00220F239446ECE7034B00F083
:10AEC0000F00C318197600BD00ED00E0FCEC00E0B7
:10AED000002807DB012300F01F01034A40098B40D3
:10AEE00042F82030704700BF00E100E00138B0F1C7
:10AEF000807F01D3012070474FF0E02300224FF004
:10AF0000F00C07215861034880F823C09A6110466D
:10AF10001961704700ED00E0124BDB6813F010037D
:10AF200005D010231049CA6942F00202CA610D4AD5
:10AF3000D268500706D50C4943F00403CA6942F0B1
:10AF40000102CA61074AD169C90708D50648C16923
:10AF500041F00401C161D16921F00101D161014ACF
:10AF6000D36070470020024098ED0020064B18691E
:10AF700010F0800006D00549054A59605A601869EA
:10AF8000C0F3C010704700BF002002402301674596
:10AF9000AB89EFCD034A0020136943F080031361AE
:10AFA000704700BF0020024038B50446FFF734FF69
:10AFB000174AD368DD070CD5651C1CD005462CB399
:10AFC000FFF72AFF401BA04220D8114AD368DB07B5
:10AFD000F6D40F4BDA68900644BF2022DA600C4B9F
:10AFE000DA68D1060ED4DA69D2070BD4D86810F02B
:10AFF000040007D138BDD368D907EAD5D368D9078B
:10B00000F9D4E6E7FFF788FF012038BD032038BDFB
:10B01000002002402DE9F84F254E357E012D43D00A
:10B020001C46012305464CF250308A4617463376BB
:10B03000FFF7BAFFA0BB012D03D0022D14BF0425DA
:10B0400002254FF00009C846DFF868B00AEB450555
:10B05000C9F12003C6F81C8027FA09F004FA03F3AB
:10B060001843A9F12002DBF8103024FA02F240EA7A
:10B07000020C43F00103CBF810304CF25030AAF828
:10B0800000C0FFF791FFDBF810300AF1020A23F04D
:10B09000010309F11009CBF8103008B9AA45D7D13E
:10B0A00000233376BDE8F88F0220BDE8F88F00BF9B
:10B0B00098ED0020002002402DE9F8432C4E337E0D
:10B0C000012B52D00123337603688046022B894638
:10B0D0004CF250302ED0FFF767FF074668BB4FF0A9
:10B0E000FF33C9F80030D8E9025305EBC3239D4272
:10B0F00023D2204C07E005F50065D8E9023203EBC6
:10B10000C223AB421AD9F76123694CF2503043F0A5
:10B11000020323616561236943F040032361FFF764
:10B1200043FF236923F0020323610028E3D0C9F819
:10B13000005003E0FFF738FF20B1012000233376F1
:10B14000BDE8F8830B4CF06123694CF2503043F0BA
:10B1500004032361236943F040032361FFF724FFC5
:10B16000236923F004032361E8E70220BDE8F883A4
:10B1700098ED0020002002402DE9F04F0E6883B0CA
:10B18000002E00F0AC800022044601254FF00F088D
:10B1900092461346784F06E0013336FA03F002F187
:10B1A000040200F09C8005FA03F030EA060E00EA83
:10B1B000060CF1D14E68122E00F29980122E0DD895
:10B1C000DFE806F0A70AB3D70C0C0C0C0C0C0C0C27
:10B1D0000C0C0C0C0CBBB700D1F80CA0BCF1FF0F91
:10B1E00099BFA646164604F1040EA2F12006DEF829
:10B1F000000008FA06F920EA09000AFA06F63043C8
:10B20000CEF800004868C6006FD5BE6903F0030998
:10B2100046F00106BE61BE694FEA890906F00106E3
:10B220000196019E23F0030606F1804606F580365E
:10B23000D6F808E008FA09FB2EEA0B0EDFF83CB15D
:10B240005C4513D00BF5806B5C457AD0DFF830B1EC
:10B250005C4563D0DFF82CB15C450CBF4FF0030BAD
:10B260004FF0040B0BFA09F94EEA090EC6F808E094
:10B27000DFF814E110F4801FDEF8086014BF46EA1E
:10B280000C0626EA0C06CEF80860DFF8FCE010F4A5
:10B29000001FDEF80C6014BF46EA0C0626EA0C0616
:10B2A000CEF80C60DFF8E0E010F4003FDEF8046058
:10B2B00014BF46EA0C0626EA0C06CEF80460324EAD
:10B2C00010F4803F30680DD040EA0C0030600E680A
:10B2D000013336FA03F002F104027FF464AF03B0E5
:10B2E000BDE8F08F20EA0C0030600E6854E7DFF80C
:10B2F0009CE076450DD02BD8AEF5801E764508D063
:10B300000EF5702E764504D0AEF5801E76457FF49E
:10B3100065AF8E6836BB4FF0040A5FE74FF0020B53
:10B320000BFA09F94EEA090EA0E7C86800F1080A0D
:10B3300054E7C86800F10C0A50E7C86800F1040A35
:10B340004CE74FF0010B0BFA09F94EEA090E8DE7B5
:10B35000DFF83CE07645DCD00EF5803E76457FF4A4
:10B360003DAFD6E7012E4FF0080A0CBF20616061A7
:10B3700034E74FF0000A31E70010024000080140B6
:10B3800000100140001401400004014000002210A0
:10B39000000031108368194214BF0120002070475B
:10B3A00002B909040161704730B583B0D8B190F893
:10B3B0009534044603F0FF02002B5AD003220023E9
:10B3C00084F89524A371206801F00EFE237C251DCE
:10B3D0008DF80030206895E80E0001F04FFD30B187
:10B3E000022384F895340125284603B030BD014678
:10B3F000206801F001FE0028F2D194F804C0BCF1ED
:10B40000000F21D0234622464FF0010E0146107551
:10B41000D08501306045C2E9071182F815E0117648
:10B4200042F8241FF3D100210A4683F85412013157
:10B430006145C3E9972283F8552283F85822C3F85F
:10B44000642203F12403F0D1237C20688DF80030BE
:10B4500095E80E0001F054FE05460028C0D10123F6
:10B460006074206884F8953402F09CF9284603B093
:10B4700030BD80F89424FFF785FA9FE790F8943464
:10B48000012B0FD010B501230446006884F89434D2
:10B4900001F0A2FD206802F075F9002384F89434CD
:10B4A000184610BD022070472DE9F04F066804468B
:10B4B00087B0304602F0B4F910B107B0BDE8F08FA4
:10B4C0000546206802F07EF90028F6D0D6F8083844
:10B4D0002068C3F30D23C4F8D43402F073F9810754
:10B4E000236806F5006903D55A6902F002025A6121
:10B4F000184602F067F9C206236814D59A6922F04B
:10B5000010029A61376A07F4F012B2F5802F07F043
:10B510000F0800F0DB82B2F5402F00F0FD819A6940
:10B5200042F010029A61184602F04CF9070300F14C
:10B530009181206802F046F910F4802F206840F0D5
:10B54000458102F03FF90028C0F2A582206802F090
:10B5500039F9030500F18480206802F033F910F412
:10B56000805F206840F0E48002F02CF910F4005F66
:10B57000206840F0BD8002F025F9000700F1AF809F
:10B58000206802F01FF901061DD5B36923F080037E
:10B59000B3612279012A16D92746012504E0013535
:10B5A000AA4207F124070ED997F87B32012BF6D176
:10B5B00005EBC50104EB8101206801F5157101F06F
:10B5C000EFFF2279EBE7206802F0FCF8C20245D5D4
:10B5D0002279012A25D906F512632746B0460125AE
:10B5E00026461C4606E00135AA4204F1200407F174
:10B5F000240714D997F83C302168012BF3D1002996
:10B60000F1DA05F00F0101EBC10187F83B3006EBE1
:10B6100081013068143101F0C3FF3279E3E7344629
:10B6200046462068436903F48013436102F0CAF878
:10B63000830220D4206802F0C5F840006FD420684F
:10B6400002F0C0F841077FF538AF23685D686A07EC
:10B6500000F15B825A682A435A602EE72068E5E7CA
:10B66000D9F80830DF0700F155822068436903F4F8
:10B670000063436171E794F804C0BCF1010F28D95D
:10B680002346012106F5326203E0614503F12403FC
:10B690001FD093F87C021568012801F1010102F125
:10B6A0002002F2D1002DF0DAD4F8D47487EA1547DD
:10B6B000FF07EAD483F87B02B06940F08000B061F4
:10B6C00070690506E1D4D9F8043043F40073C9F871
:10B6D00004302068436903F400134361ABE720465C
:10B6E000FFF7AAF92068436903F00803436148E7BC
:10B6F00002F09AF8206801F0A7FDE071256800F0DB
:10B70000EFFEE2790146284601F0ECFB2046FFF708
:10B7100097F92068436903F4005343612BE72046FF
:10B72000FFF7ACF92068436903F08043436187E782
:10B73000D9F80430102123F00103C9F8043001F0D6
:10B7400091FC2079D8B14FF67F3106F510639960EE
:10B750001A68013522F400121A60C3F80812D3F8EF
:10B760000022854222F40012C3F80022D3F80022FE
:10B7700003F1200342F00062C3F8E021E7D1D9F8D9
:10B780001C3043F00113C9F81C30E37B002B00F0A0
:10B79000B480D9F8843043F00B03C9F88430D9F869
:10B7A000443043F00B03C9F84430D6F80038206821
:10B7B00023F4FE63C6F8003804F29C4102F044F81A
:10B7C0002068436903F480534361CDE602F006F834
:10B7D000002800F0B480804602950022B34625463A
:10B7E000206806F5106704E001324FEA5808243457
:10B7F000203718F0010F07D101324FEA58082434DE
:10B80000203718F0010FEFD0D6B23146019201F087
:10B81000F7FF10F0010F0346019A40F0F980190775
:10B8200044BF0821B960D80644BF1021B960590649
:10B8300044BF4021B960980700F1DB80190600F190
:10B84000888028685FEA580398467ED00132243405
:10B850002037D6E7206801F0B9FF074600283FF4FB
:10B8600068AE2146A0460295B34600250B4606F574
:10B87000306403E001357F0820342433F80705D411
:10B8800001357F0820342433F807F3D5D8F80000B9
:10B89000E9B2019301F0AAFF10F0010F0646019BE7
:10B8A0005FFA85FA40F0C880310700F1DA80F206CD
:10B8B00044BF1022A260B00710D5DBF81420110697
:10B8C00005D5D9F8042042F48062C9F8042093F821
:10B8D0005722012A00F02C810222A260B20644BF46
:10B8E0002022A260B60444BF4FF40052A2607F0839
:10B8F00027D0013520342433C6E7D9F8143043F477
:10B90000005343F02B03C9F81430D9F8103043F03A
:10B910000B03C9F8103048E7082204F29C41304676
:10B9200001F09CFE08EBC80204EB8202D2F8681218
:10B93000C7F30A130B44C2F868322368EFE52068A6
:10B94000FFE55E464446029DF3E52C465E46029DB9
:10B95000F7E5D4E9091E8E453FF673AFE069A1EB28
:10B960000E0C844528BF844628680CF1030C00F5B2
:10B97000106303EB42139A469B6905909BB2B3EBAD
:10B980009C0FC0F0D18001970495374673460E4650
:10B990000546039218E0E3693A469E4228BF1E46D8
:10B9A0002846B3B2216A01F049FE236AF01C3344F1
:10B9B0002362A36A3344A362DAF81820666A92B25B
:10B9C000B2EB900FC0F0AA80B342A6EB0306E2D31D
:10B9D000DDE90325019F28680126059B02F00F0E73
:10B9E000D3F8341806FA0EF621EA0601C3F8341823
:10B9F00028E7114658460393019201F033FBE17D9D
:10BA0000019A0129039B00F09D800221B96015E78E
:10BA100002F00F0E0122D9F834C002FA0EFE2CEA11
:10BA20000E0C0390C9F834C03146BA602846FEF7C0
:10BA3000F9FF039B019AF2E60122A260D8F80020E8
:10BA40004649106C02F5306202EB45128842D2F88A
:10BA500008C034D11CF4004F2CD04FF40041916049
:10BA600022E70822A260D8F800203D49106C02F5B8
:10BA7000306202EB45128842D2F808C005D91CF4A6
:10BA8000004F1CBF4FF40041916040460193FEF708
:10BA9000B7FF019B0BE7D9F80430204623F00103E0
:10BAA000C9F80430FEF7DEFF2068436903F0004365
:10BAB00043614CE51CF0200F1CBF202191605146D2
:10BAC00040460193FEF7A4FF019BEDE647F6F072B6
:10BAD00017423FF424ADC7F30A12174608EBC80318
:10BAE00004EB8303D3F860123046019301F0B6FDF6
:10BAF000019BD3F860223A44C3F86022D3F868224D
:10BB00003A44C3F86822236809E52046FEF7BAFFE5
:10BB100023689FE52046FEF7A1FFA6E59E46314635
:10BB2000049D019F039A286871453FF68BAE53E749
:10BB30000022514683F8572240460193FEF796FFB4
:10BB4000019BC9E600212846E17531460392019325
:10BB5000FEF790FF039A019B57E700BF0A31544F4D
:10BB60000A30544F034690F89404012811D04FF046
:10BB7000010C00B5186883B0597483F894C401931C
:10BB800001F0EEFD00221046019B83F8942403B0DF
:10BB900000BD0220704700BF10B501F00F0E0EEB84
:10BBA000CE0C090682B04FEA8C0C26D44FF000046C
:10BBB0000CF5157184448CF8554201448A604A782A
:10BBC00081F800E00B710AB1A1F81AE0022B04BF62
:10BBD00000234B7190F89434012B17D003460122B7
:10BBE000006883F89424019301F036FB002210468C
:10BBF000019B83F8942402B010BD4FF001040CF1B6
:10BC0000140184448CF815400144D7E7022002B0A7
:10BC100010BD00BF01F00F0202EBC20309064FEA9C
:10BC200083031DD44FF0000C03F515710144034448
:10BC300083F855C20A7090F89434012B1DD0034646
:10BC4000012200B5006883B083F89424019301F0C9
:10BC50004BFB00221046019B83F8942403B000BDE7
:10BC60004FF0010C03F114010144034483F815C0A3
:10BC70000A7090F89434012BE1D10220704700BF84
:10BC800010B5002401F00F0101EBC10E00EB8E0C8A
:10BC90008CF854128CF855420068CCF86022CCE93C
:10BCA00099340CF5157101F081FB204610BD00BFE1
:10BCB00001F00F0101EBC10100EB8100D0F8680237
:10BCC000704700BF38B50125002401F00F0101EBDA
:10BCD000C10E00EB8E0C8CF814108CF81550006817
:10BCE000CCF82020CCE909340CF1140101F05EFB02
:10BCF000204638BD037901F00F02934234D30B067E
:10BD000026D44FF0000C01EBC1018B0003F5157137
:10BD10000344014483F855C24FF0010C0A7081F8C6
:10BD200002C090F8943463452CD0034600B50068F7
:10BD300083B083F894C4CDE9003201F0B7FCDDE9AB
:10BD400000329AB10022104683F8942403B000BD5B
:10BD50004FF0010C02EBC2039B0003F114010344FA
:10BD6000014483F815C0D7E70120704703F29C41D6
:10BD7000186801F069FD00221046009B83F89424A6
:10BD800003B000BD02207047037901F00F02934217
:10BD900033D310B502EBC203090682B04FEA830326
:10BDA0001BD4002403F51571034483F85542002485
:10BDB00001440A708C7090F89434012B1AD0034619
:10BDC0000122006883F89424019301F09DFC204631
:10BDD000019B83F8944402B010BD012403F11401C7
:10BDE00003445C75002401440A708C7090F894340C
:10BDF000012BE4D1022002B010BD0120704700BF2A
:10BE000000B5D0F800E0DEF8243029B943EA024357
:10BE10000020CEF8283000BDDEF82800013903EB01
:10BE2000104C09D000230EEB8300D0F8040101333D
:10BE30008B420CEB104CF6D140314CEA02420EEB37
:10BE4000810E0020CEF8042000BD00BF03461B6811
:10BE500000205962704700BF002800F0F38170B5E0
:10BE600003680446D80782B035D598494A6802F07D
:10BE70000C02042A00F044814A6802F00C02082AED
:10BE800000F03A81A368B3F5803F10D0002B00F09A
:10BE90006281B3F5A02F00F0D7818C4B1A6822F491
:10BEA00080321A601A6822F480221A6004E0874AFD
:10BEB000136843F480331360FEF7AEFF054605E0D8
:10BEC000FEF7AAFF401B642800F242817F4B1B68EB
:10BED0009B03F5D52368980729D57C4A516811F052
:10BEE0000C0F00F0E180516801F00C01082900F00E
:10BEF000D7806369002B00F066810122744B1A60C1
:10BF0000FEF78AFF054605E0FEF786FF401B022884
:10BF100000F21E816D4B1B689E07F5D56B49A26927
:10BF20000B6823F0F80343EAC2030B602368190788
:10BF300029D45E074DD5654BDA69D50000F1DA806A
:10BF40000126DA6942F08052DA61DB6903F080533E
:10BF50000093009B5F4B1B68D80540F1E780236985
:10BF6000012B00F05781002B00F00C81052B574B63
:10BF70001A6A00F0AD8122F001021A621A6A22F0F8
:10BF800004021A624BE1E369002B00F09780012262
:10BF90004F4BC3F88024FEF73FFF054605E0FEF750
:10BFA0003BFF401B022800F2D380484B5B6A9A0794
:10BFB000F5D5494B494A1B68A2FB03235B0A019351
:10BFC00000BF019B5A1E0192002BF9D123685E0726
:10BFD000B1D4E36A002B44D03C4A5168C80305D56C
:10BFE000516801F00C01082900F08C81022B40F00F
:10BFF000FB80364B1A68D20005D5DB6A626B03F012
:10C00000F003934257D10022314B9A66FEF704FFAA
:10C01000054605E0FEF700FF401B642800F298800B
:10C020002A4B1B681B01F5D401212848626BC36AA7
:10C0300023F0F0031343C362C36A226B23F47063DB
:10C040001343234AC3629166FEF7E6FE054604E009
:10C05000FEF7E2FE401B64287AD81C4B1B681E01C9
:10C06000F6D5236ACBB1194A526802F00C02082AAD
:10C0700000F036810022022B154B1A6600F0F18089
:10C08000FEF7CAFE044604E0FEF7C6FE001B0228C7
:10C090005ED80E4B1B689B01F6D4002002B070BD29
:10C0A0005268D1033FF525AF084A1268920731D58F
:10C0B0006269012A2ED0012002B070BD044AC2F884
:10C0C0008034FEF7A9FE05460FE000BF00100240D5
:10C0D00000004242007000406C000020D34D62100E
:10C0E000FEF79AFE401B022832D8894B5B6A9B07F9
:10C0F000F6D46BE700262DE74A68D1037FF5C2AE80
:10C10000834A126892037FF5E6AEA268002A7FF4A4
:10C11000E2AED0E77E49A0690A6822F0F80242EA5E
:10C12000C0020A6019077FF504AF2CE7794A13684B
:10C1300043F480731360FEF76FFE0546754B1B6872
:10C14000D9053FF50CAFFEF767FE401B6428F5D913
:10C15000032002B070BD6E4A136823F4803313606D
:10C16000136823F480231360FEF756FE054604E0AF
:10C17000FEF752FE401B6428EAD8654B1B689E03FD
:10C18000F6D4A7E6624A136A23F001031362136A26
:10C1900023F004031362FEF73FFE054606E0FEF7B8
:10C1A0003BFE41F28833401B9842D1D8584B1B6A62
:10C1B0009B07F4D4002E3FF40CAF554AD36923F00B
:10C1C0008053D36105E7544A1360FEF725FE054608
:10C1D00004E0FEF721FE401B0228B9D84C4B1B6837
:10C1E0009807F6D42368A2E6002149484A4AC36A60
:10C1F00023F48033C3629166FEF70EFE054604E029
:10C20000FEF70AFE401B6428A2D8414B1B681801A8
:10C21000F6D426E73E4A136A43F001031362FEF7A1
:10C22000FBFD054606E0FEF7F7FD41F28833401BB3
:10C2300098428DD8364B1B6A9A07F4D5002E3FF4EE
:10C24000C8AEBAE70120704703F18043A3F53C3341
:10C250001A6842F480221A601A6842F480321A6026
:10C260002AE6FEF7D9FD054605E0FEF7D5FD401BA1
:10C2700002283FF66DAF264B1B689901F5D4636A1F
:10C28000B3F5803F0AD122486168C26A0A43C2629C
:10C29000C26AE16822F00F020A43C2620120A16A69
:10C2A0001B4C0B4362681C4922F4741213436360F5
:10C2B0000866FEF7B1FD044605E0FEF7ADFD001B84
:10C2C00002283FF645AF124B1B689A01F5D5E4E60C
:10C2D00042F004021A621A6A42F001021A629EE7F0
:10C2E000012B3FF4E8AE0A4B626A5B6803F48031CD
:10C2F00091427FF4E0AEA06A03F47013181A18BFDD
:10C300000120CBE6D26AD1033FF5D5AE6EE600BF81
:10C310000010024000700040000042421B494B6880
:10C3200003F00C02082A01D0194870471948C3F3DA
:10C33000834210F802C0DA0310B5644610D5CB6A08
:10C34000154AC86A03F00F03D25CC3030CD410482B
:10C3500004FB00F0B0FBF2F00D2C00D1400810BD42
:10C360000E4800FB0CF010BDCB6AC96AC3F303137F
:10C37000C1F303210231A1FB0C1005480133A3FBDB
:10C380000223A1FB0001FBF72DFFE5E700100240AF
:10C3900000127A0058EB000848EB000800093D0045
:10C3A00078B14A4A136803F007038B420BD2136833
:10C3B00023F007030B431360136803F007038B425A
:10C3C00001D00120704703682DE9F0419A0714D588
:10C3D0005F0704D53E4C626842F4E06262601E076B
:10C3E00004D53B4C626842F460526260384C856808
:10C3F000626822F0F0022A436260DD078846074641
:10C4000020D54268324B012A1B6859D0022A54D0E9
:10C41000990728D52E4C41F28835636823F0030331
:10C4200013436360FEF7F8FC064604E0FEF7F4FCF5
:10C43000801BA84247D863687A6803F00C03B3EB0B
:10C44000820FF3D1214A136803F0070343450DD946
:10C45000136823F0070343EA08031360136803F02B
:10C460000703434502D00120BDE8F0813B685A072D
:10C4700006D51749F8684A6822F4E06202434A6028
:10C480001B0707D5124A3969536823F4605343EAFE
:10C49000C1035360FFF742FF03460D4A0D4952683E
:10C4A0000D48C2F30312895C0C4ACB40006813604C
:10C4B000FEF76CFC0020BDE8F0819801AAD4D2E719
:10C4C0009C03A7D4CFE70320CEE700BF00200240A3
:10C4D0000010024038EB0008740000206C000020BF
:10C4E000014B1868704700BF6C0000202DE9F04137
:10C4F00003680446DE0782B02FD5634BDA69D500A6
:10C5000040F18E80614D00272B68D80540F197805F
:10C510005D4D61682B6A13F4407312D001F44072D0
:10C520009A420ED0012600202B6A594A23F440710A
:10C53000C2F84064C2F84004DA07296200F193802F
:10C540006168514A136A23F440730B4313621FB1AD
:10C55000D36923F08053D36123689E0706D54A49E7
:10C56000A0684A6822F4404202434A605D0706D54B
:10C570004549E068CA6A22F400320243CA621807D9
:10C5800006D541492069CA6A22F480220243CA6260
:10C590003D4AD16A89030FD4D26A57030CD4DB0613
:10C5A00006D5394AE169536823F480030B4353608D
:10C5B000002002B0BDE8F081334A1168CE0025D4D6
:10C5C000136801205D01A16904D5D36A03F0F0036B
:10C5D0008B42EED12C4DEB6A23F0F0030B43EB6260
:10C5E000EB6A626923F470431343294AEB621067D4
:10C5F000FEF712FC064604E0FEF70EFC801B6428E2
:10C600002DD82B689A00F7D52368C8E7D26A6169EC
:10C6100002F470428A42C2D0012002B0BDE8F0812B
:10C62000DA691A4D42F08052DA61DB69012703F0C2
:10C6300080530193019B2B68D8053FF569AF2B68A8
:10C6400043F480732B60FEF7E7FB06462B68D905A1
:10C650003FF55EAFFEF7E0FB801B6428F6D90320B0
:10C6600002B0BDE8F081FEF7D7FB41F28836804684
:10C670002B6A9B073FF564AFFEF7CEFBA0EB0800EB
:10C68000B042F5D9EBE700BF001002400070004057
:10C6900000004242704700BF00287DD038B590F8B6
:10C6A00020300446002B74D02268136843F0010345
:10C6B0001360FEF7B1FB054604E0FEF7ADFB401B3F
:10C6C0000A285DD823685A68D107F6D51A6822F07F
:10C6D00002021A60FEF7A0FB054604E0FEF79CFB91
:10C6E000401B0A284CD823685A689207F6D4227E49
:10C6F0000025012A1A684FF0010C0CBF42F080029D
:10C7000022F080021A60627E2846012A1A680CBF55
:10C7100042F0400222F040021A60A27E012A1A680A
:10C720000CBF42F0200222F020021A60E27E012AB1
:10C730001A680CBF22F0100242F010021A60227F29
:10C74000012A1A680CBF42F0080222F008021A609F
:10C75000627F012A1A680CBF42F0040222F0040230
:10C760001A60D4E902210A4321690A4361690A4334
:10C77000616801390A43DA61656284F820C038BD16
:10C780000522636A012043F40033636284F82020A9
:10C7900038BDFFF77FFF87E70120704790F8202022
:10C7A0000346013A012A4FF0010004D95A6A42F4C3
:10C7B00080225A627047454BD3F800220243C3F8E7
:10C7C0000022D3F8002222F47C52C3F80022D3F8CE
:10C7D0000022D1F824C042EA0C22C3F800224A69A0
:10C7E00002F01F0C00FA0CF0D3F81CC22CEA000C6B
:10C7F000C3F81CC2D1F81CC0BCF1000F48D1D3F85B
:10C800000CC2D2002CEA000CC3F80CC2D1F80CC048
:10C810008B8802F1804243EA0C4302F5C842D1F80A
:10C8200008C0C2F840320B8843EA0C43C2F84432D5
:10C830008B69264A33BBD2F8043223EA0003C2F8DC
:10C8400004320B69214ABBB9D2F8143223EA00033F
:10C85000C2F814320B6A012B05D11C4AD2F81C32E3
:10C860000343C2F81C32194A0020D2F8003223F0E8
:10C870000103C2F800327047D2F814320343C2F801
:10C880001432E7E7D2F804320343C2F80432D8E79F
:10C89000BCF1010FCCD1D3F80CC2D2004CEA000C91
:10C8A000C3F80CC2D1F800C08B8802F1804243EA81
:10C8B0000C4302F5C842D1F808C0C2F840328B8957
:10C8C00043EA0C43C2F84432B2E700BF00640040C0
:10C8D00038B590F820300446012B05D0436A43F464
:10C8E00000234362012038BD0223026880F8203013
:10C8F000136823F001031360FEF78EFA054604E087
:10C90000FEF78AFA431B0A2B07D823685B6813F0EB
:10C910000103F5D11846636238BD0522636A43F40A
:10C920000033636284F82020DCE700BF10B590F884
:10C9300020E0D0F800C00EF1FF3EBEF1010F1C4612
:10C94000DCF8083033D813F0E05F42D04FF0010E2E
:10C95000C3F301600EFA00F32360D1E9023E63BB2A
:10C960000B684EEA435300F1180E4FEA0E1E4CF8C6
:10C970000E300C690CEB0013C3F88441097D0129CA
:10C9800005D1D3F8841141F48071C3F88411516842
:10C990000CEB001CCCF88C1112680020CCF888211C
:10C9A000D3F8802142F00102C3F8802110BD436A10
:10C9B00043F480234362012010BD4C6843EA0E0318
:10C9C00000F1180E43EAC4034FEA0E1E4CF80E3075
:10C9D000CFE7436A43F400134362ECE790F820305A
:10C9E000013B012B01D900207047036898689A68C1
:10C9F0009B681201C0F3806048BF0130DB00F3D5B3
:10CA00000130704790F820C00CF1FF3CBCF1010FE1
:10CA100078D830B5D0F800C051B9DCF80CE01EF081
:10CA2000030F0AD1436A43F400134362012030BD6F
:10CA3000DCF810E01EF0030FF4D00CEB011EDEF862
:10CA4000B04104F004049460002C61D0DEF8B041E1
:10CA5000E4085460DEF8B0410CEB011C04F0020461
:10CA6000D460DEF8B44124074EBF0824DEF8B44198
:10CA700004F00F041461DEF8B441DEF8B4E1DCF830
:10CA8000B8514FEA1E4EC4F3072CC2F818C0C2F8C2
:10CA900014E01D70026802EB0112D2F8B821120AEC
:10CAA0005A70026802EB0112D2F8B821120C9A7087
:10CAB000026802EB0112D2F8B821120EDA70026895
:10CAC00002EB0112D2F8BC211A71026802EB0112CA
:10CAD000D2F8BC21120A5A71026802EB0112D2F894
:10CAE000BC21120C9A71026802EB0112D2F8BC212F
:10CAF000120EDA71036881B9DA6842F02002DA6056
:10CB0000002030BD436A43F4802343620120704714
:10CB1000DEF8B041640D14609CE71A6942F020020F
:10CB20001A61EDE790F820200346013A012A05D961
:10CB30005A6A012042F480225A627047026800203B
:10CB400053690B4353617047704700BF704700BF84
:10CB5000704700BF704700BF704700BF704700BFFD
:10CB6000704700BF704700BF704700BF704700BFED
:10CB7000704700BF03682DE9F0435C695F689A68FD
:10CB8000D9681E690546B0469E6983B0B14614F067
:10CB900001061FD0D60700F182800026D0050BD5F4
:10CBA0004FF480702B689860930500F1BA805005AF
:10CBB00040F1D88046F40056D0030BD54FF48030B6
:10CBC0002B689860930300F19F80500340F1CF8061
:10CBD00046F40046230701D5C8065AD4620701D59A
:10CBE0000B0771D4A00703D52B68DB68990772D1B6
:10CBF000620602D518F0100F5CD1A30602D518F01A
:10CC0000080F73D1E00603D52B681B69990757D12C
:10CC1000A20301D5FB0662D4E00301D539076CD429
:10CC2000220431D57B072A682CD509F0010314F4BE
:10CC3000807F43EA060318BF1E46A70517D519F0E3
:10CC4000020F14D0600546F0020604F4006372D5AA
:10CC500019F0040F6DD193B9042353606B6A284611
:10CC600033436B62FCF790FB03B0BDE8F0836105D2
:10CC700004F4006302D519F0040F5AD113B119F06E
:10CC800070035DD104235360002EE7D103B0BDE8EB
:10CC9000F08310222B6846F40076DA609EE70126C6
:10CCA0009E60960736D4530766D4160774D54FF4A2
:10CCB000805673E710222B6846F480661A619CE761
:10CCC0002846FFF74FFFA3E708222B682846DA60C3
:10CCD000FFF746FF86E72846FCF792FD88E710221B
:10CCE0002B6828465A60FFF741FF95E708222B681A
:10CCF00028461A61FFF738FF84E708222B68284688
:10CD00005A60FFF735FF8BE728460091FFF720FFB9
:10CD100000995FE7CDE90021FFF716FFDDE900216B
:10CD20003BE72846CDE90021FFF710FFDDE90021B0
:10CD300042E746F00406002B8ED019F070038BD02A
:10CD4000402B43D01BD8202B5BD0302B50D0102B46
:10CD500037D10421936946F0080623F070039361EC
:10CD600051607BE7130524D546F4804624E712037F
:10CD700019D546F480362DE74FF400660EE7502BA8
:10CD80002DD0602B1DD10421936946F4807623F0C9
:10CD900070039361516061E7CDE90021FFF7DAFE8E
:10CDA000DDE90021F9E628460091FFF7D7FE00995A
:10CDB00010E72846CDE90021FFF7CEFEDDE900218E
:10CDC000FAE6936923F0700393615BE704219369AA
:10CDD00046F0400623F07003936151603EE7042162
:10CDE000936946F0800623F070039361516035E744
:10CDF0000421936946F0200623F07003936151608B
:10CE00002CE70421936946F0100623F07003936128
:10CE1000516023E730B370B504464CF6CC45D4E9F5
:10CE2000003145F25550A2681D60186059609A6043
:10CE3000FDF7F2FF23680546DA6890070DD041F24E
:10CE40003C36FDF7E9FF401BB042236802D9DA689F
:10CE5000910709D1DA689207F3D14AF6AA22002095
:10CE60001A6070BD01207047032070BD03464AF66A
:10CE7000AA221B6800201A60704700BF84B082B0ED
:10CE80000DF10C0C8CE80E000021C368024643F043
:10CE90004003C360019102E01369002B0EDB019B8C
:10CEA00001330193019BB3F1706FF5D90320936BAC
:10CEB00043F48033936302B004B0704700230193BE
:10CEC000136943F00103136103E0106910F00100DE
:10CED000EDD0019B01330193019BB3F1706FF4D945
:10CEE000E4E700BF022A03460AD04FF41051DA6883
:10CEF000002022F47052DA60DA680A43DA60704780
:10CF0000264A27488A18824232D9264A26488A1851
:10CF1000824230D92548A1F57402A2F5105282420E
:10CF20002CD92348A1F18372A2F5E742824228D38B
:10CF3000204A21488A18824226D9204A20488A1845
:10CF4000824224D31F4A20488A188242CDD31F48E8
:10CF5000A1F1B772A2F5585282421BD31C4A1D4858
:10CF60008A1882422CBF4FF4C0514FF4E051BEE703
:10CF70004FF47051BBE74FF46051B8E74FF4505194
:10CF8000B5E74FF44051B2E74FF43051AFE74FF4FB
:10CF90002051ACE74FF40051A9E700BF405327FFF1
:10CFA000FF340C00401E1BFF3F420F007F4F12005A
:10CFB00020D6130060B6E5FE5FE3160000D3CEFE78
:10CFC00040771B00C05BB3FEC09121002075380084
:10CFD000E05459FEE09C410003469A68002042F06C
:10CFE00001029A60704700BF03469A68002022F051
:10CFF00001029A60704700BF38B5C368012923F069
:10D00000C0430546C36017D0A1B9C3680C4643F0BE
:10D010008043C36001E0C82C0CD00A20FDF702FF5A
:10D020006B690A34DB07F6D4A4F1C800B0FA80F0CB
:10D03000400938BD012038BDC368002443F00053C7
:10D04000C36001E0C82CF5D00A20FDF7EBFE6B6948
:10D050000A34DA07F6D5A4F1C800B0FA80F0400926
:10D06000E7E700BF002382B0019302E00369002BD1
:10D0700009DB019B01330193019BB3F1706FF5D97B
:10D08000032002B070470023890141F02001019381
:10D09000016103E0036913F0200307D0019B013312
:10D0A0000193019BB3F1706FF4D9E9E7184602B020
:10D0B000704700BF002382B0019302E00369002B98
:10D0C00009DB019B01330193019BB3F1706FF5D92B
:10D0D000032002B07047002210230192036103E095
:10D0E000036913F0100307D0019B01330193019BE7
:10D0F000B3F1706FF4D9EBE7184602B0704700BF88
:10D1000084B0F8B507AD85E80E00002304461D463F
:10D110009DF81C6004EB830201330F2BC2F804510D
:10D12000F8D1A36B102143F40023A363C4F8005E7D
:10D13000D4F80038204643F00303C4F80038FFF762
:10D1400091FF01462046FFF7B5FF41EA000C5FFA68
:10D150008CFCBCF1000C04F500673D6118BF4FF07A
:10D16000010C7D61FD61002E39D0D4F8002904F551
:10D170001063002A5ADB00220021196000254FF6B7
:10D180007F310132B2421D6199600BD053F8200FFC
:10D190000028F1DA4FF090400132B24218601D6170
:10D1A0009960F3D1D4F8002B04F53063002A43DBF7
:10D1B00000220021196000204FF67F350132B24273
:10D1C00018619D600BD053F8201F0029F1DA4FF051
:10D1D00090410132B242196018619D60F3D16FF045
:10D1E000804200203B699DF8221023F480733B614C
:10D1F000A0616261A269134B42F01002A261A269B0
:10D200001343A36119B1A36943F00803A3619DF817
:10D210002630012B05D1A36943F0804343F004037A
:10D22000A3616046BDE8F84004B070474FF000616C
:10D230000022C4F80019A1E74FF000610022C4F8F1
:10D24000001BB8E700383C80D0F8083813F0020F14
:10D2500014BF02200F207047012310B50A7891F8FF
:10D2600001E002F00F04BEF1010F00F5006C03FABB
:10D2700004F300EB42101AD0DCF81C2042EA03430E
:10D28000CCF81C30D0F8003B1B040ED48B68D0F8CF
:10D29000004B0A79C3F30A03234343EA824343F072
:10D2A000805343F40043C0F8003B002010BDDCF87D
:10D2B0001C402343CCF81C30D0F800391C04F4D4B3
:10D2C0008B68D0F800490979C3F30A03234343EA82
:10D2D000814343EA825343F0805343F40043C0F850
:10D2E0000039002010BD00BF00B50A78497800EB76
:10D2F000421301292CD0D3F8001B00291BDB4FF46B
:10D300008031D0F83CE802F00F0201FA02F22EEA76
:10D310000201C0F83C18D0F81C18DFF888C021EAD8
:10D320000202C0F81C28D3F8002B002002EA0C0CE3
:10D33000C3F800CB00BDD3F8001B41F00061C3F877
:10D34000001BD3F8001B41F08041C3F8001BD6E757
:10D35000D3F8001900290BDAD3F8001941F0006165
:10D36000C3F80019D3F8001941F08041C3F800193F
:10D370000121D0F83CE802F00F0201FA02F22EEA95
:10D380000201C0F83C18D0F81C1821EA0202C0F8CB
:10D390001C28D3F8002904481040C3F800090020D5
:10D3A00000BD00BF0078F3EF007833EC70B591F862
:10D3B00001C00D78BCF1010F0A690C7900EB45132F
:10D3C00055D0D3F810CB03F5306E6FF3120CC3F8C1
:10D3D00010CBD3F810CB6FF3DC4CC3F810CBD1F8E3
:10D3E00008C04DBB0AB1C1F810C0C1F820C0DEF8BA
:10D3F0001020CCF3120C4CEA0202CEF81020DEF81A
:10D40000102042F40022CEF81020012C0CD1D0F8CC
:10D41000082812F4807FD3F8002B0CBF42F0005292
:10D4200042F08052C3F8002BD3F8002B42F00442A4
:10D43000C3F8002B002070BD002AD8D06244013A06
:10D44000B2FBFCF295B20CFB05F2DFF850C1DEF83E
:10D4500010600CEAC54535430A62CEF81050DEF87C
:10D460001010C2F312020A43CEF81020CDE703F5E4
:10D47000106CDCF810E0AAB36FF3120ECCF810E0D9
:10D48000DCF810E06FF3DC4ECCF810E0D1F808E0E7
:10D49000002D60D196453CBFC1F810E07246DCF823
:10D4A00010E04EF4002ECCF810E0DCF81060C2F36F
:10D4B000120E4EEA060E012CCCF810E05AD0D3F82A
:10D4C000001941F00441C3F80019002AB2D0012329
:10D4D000D0F8342805F00F05AB401343C0F83438BA
:10D4E000002070BD6FF3DC4ECCF810E0DCF810E0EB
:10D4F000012C4EF4002ECCF810E0DCF810E06FF3B5
:10D50000120ECCF810E0D3F800C94CF0044CC3F86C
:10D5100000C98FD1D0F8084892B214F4807FD3F8B4
:10D52000004902F103020CBF44F0005444F080545F
:10D530009208C3F800493FF47DAFCB6800EB053596
:10D5400005F5805503EB820153F8042B99422A60BC
:10D55000FAD1002070BD0EEB0206013EB6FBFEFEC6
:10D560000E4E06EACE4EDCF810604EEA060ECCF8FF
:10D5700010E09AE7DCF8104024F0C044CCF81040EA
:10D58000DCF8104044F00054CCF81040D3F80049C7
:10D5900044F00444C3F80049BCE700BF0000F81F92
:10D5A0004FF0000C4A780B7882B0012ACDF804C005
:10D5B0004FEA431323D000F53060C158C218002948
:10D5C00002DB002002B0704750F803C042F2107135
:10D5D0004CF0006C40F803C050F803C04CF0804C95
:10D5E00040F803C002E01368002BEADA019B013324
:10D5F0000193019B8B42F6D9012002B0704700F5E0
:10D600001060C158C2186145DBDA50F803C042F21D
:10D6100010714CF0006C40F803C050F803C04CF09F
:10D62000804C40F803C002E01368002BC9DA019B6C
:10D6300001330193019B8B42F6D9DDE703339B084D
:10D6400009D0013200EB023001EB830251F8043BB8
:10D650008A420360FAD10020704700BF70B55FEACC
:10D66000920E054602F003061ED08C46002300F5FC
:10D6700080541846226801339E454CF8042BF8D19B
:10D68000043101EB800076B10346002205F5805598
:10D690002C68811924FA02F003F8010B8B4202F185
:10D6A0000802F7D1184670BD0846ECE74A780B78B7
:10D6B000012A00EB43100CD0D0F8002B002A00DB2D
:10D6C000D3B9D0F8003B43F40013C0F8003B00206E
:10D6D0007047D0F80029002A06DB2BB1D0F80039BA
:10D6E00023F08043C0F80039D0F8003943F4001328
:10D6F000C0F8003900207047D0F8003B23F0804389
:10D70000C0F8003BDDE700BF0B794A7891F800C014
:10D71000023B012A00EB4C10DBB211D0D0F8002BF9
:10D72000012B22F40012C0F8002B01D90020704711
:10D73000D0F8003B43F08053C0F8003B0020704716
:10D74000D0F80029012B22F40012C0F80029EDD8EE
:10D75000D0F8003943F08053C0F8003900207047FA
:10D760000346D3F80028090122F4FE62C3F800281A
:10D77000D3F8002801F4FE6111430020C3F800181B
:10D78000704700BF03461946D3F8002E002022F050
:10D790000302C3F8002ED3F8043823F00203C1F8C3
:10D7A0000438704703461946D3F8002E002022F0B3
:10D7B0000302C3F8002ED3F8043843F00203C1F883
:10D7C000043870474269806910407047D0F81838B3
:10D7D000D0F81C081840000C704700BFD0F818386B
:10D7E000D0F81C08184080B2704700BF034600EB19
:10D7F0004110D0F8080BD3F814381840704700BF18
:10D80000D0F81028D0F8343800EB411001F00F01A7
:10D81000CB40DB01D0F80809DBB213431840704756
:10D82000406900F00100704703461946D3F800290B
:10D8300000206FF30A02C3F80029D3F8043843F438
:10D840008073C1F8043870470C4A016C00F53063EE
:10D85000914203D9D0F8002B002A0DDB00221A6177
:10D860001A6942F400221A611A6942F018021A6118
:10D870001A6942F0C0421A61002070470A30544FC2
:10D8800088B108B5D0F8B43213B10023C0F8B4326F
:10D8900009B1C0F8B0120123027080F89C32FDF784
:10D8A000F5F8002008BD0220704700BF21B1002319
:10D8B000C0F8B4121846704702231846704700BFDC
:10D8C00008B5FDF70FF9002008BD00BF08B5D0F876
:10D8D000B43233B11B689847003818BF01204000AC
:10D8E00008BD022008BD00BF08B5D0F8B4325B689F
:10D8F0009847002008BD00BF10B5044682B000F56F
:10D900002A70019000F0DCFB012394F8A812B4F80F
:10D91000AE22C4F8943201F01F03012B0198C4F821
:10D92000982210D0022B07D0A3B90146204600F060
:10D9300069F9002002B010BD0146204600F00EFB40
:10D94000002002B010BD0146204600F0CFFA0020B2
:10D9500002B010BD204601F08001FDF7DDF8002087
:10D9600002B010BD00B5034683B061B9D0F894E2AF
:10D97000BEF1030F16D0BEF1050F0DD1C0F8941201
:10D98000FDF7CAF808E0D0F8B42292693AB190F8ED
:10D990009C32032B03D19047002003B000BD02202E
:10D9A00003B000BDD0E958E18E450ED8D0F8B422BE
:10D9B000126932B190F89C12032902D1019090476C
:10D9C000019B184600F006F9E6E7AEEB010E714543
:10D9D00028BF71468C46C0F860E111461FFA8CF2F0
:10D9E00000F0F0F8D8E700BF10B5044682B091B956
:10D9F000D0F894C2BCF1020F1CD03CF0040302D159
:10DA00008021FDF789F894F8A032012B0CD1002376
:10DA100084F8A03208E0D0F8B4325B693BB190F8EA
:10DA20009C22032A03D19847002002B010BD022097
:10DA300002B010BDD0E908ECE64528D8C269B2FBB7
:10DA4000FCF30CFB132393B9944510D8D0F898C27B
:10DA500062450CD21A46019300F09CF8019B2046C7
:10DA60001A461946C4F89832FDF78AF8CBE7D4F87D
:10DA7000B432DB681BB194F89C22032A18D08021B1
:10DA80002046FDF749F8204600F0B0F8BBE7AEEBC2
:10DA90000C0E0191C0F820E011461FFA8EF200F042
:10DAA00079F8019B20461A461946FDF769F8AAE75E
:10DAB00020469847E3E700BF002238B511464023CF
:10DAC00004460125FDF716F8402300228021C4F802
