:04000005080091E47A
:020000040800F2
:108800003150504101000000D08900000DDDF050D2
:10881000FFFFFFFFFFFFFFFFFFFFFFFFFFFFFFFF68
:10882000FFFFFFFFFFFFFFFFFFFFFFFFFFFFFFFF58
:10883000FFFFFFFFFFFFFFFFFFFFFFFFFFFFFFFF48
:10884000FFFFFFFFFFFFFFFFFFFFFFFFFFFFFFFF38
:109000000000012039100108A1D70008E5D70008A9
:10901000FDD7000815D800082DD800080000000072
:1090200000000000000000000000000045D800081B
:1090300049D80008000000004DD8000851D80008A9
:1090400081100108811001088110010881100108B8
:1090500081100108811001088110010881100108A8
:109060008110010881100108811001088110010898
:109070008110010881100108811001088110010888
:1090800081100108811001088110010855D80008DD
:1090900061D800086DD8000879D80008811001084F
:1090A0008110010881100108811001088110010858
:1090B0008110010881100108811001088110010848
:1090C0008110010881100108811001088110010838
:1090D0008110010881100108811001088110010828
:1090E00081100108811001088110010800000000B2
:1090F0000000000000000000000000000000000070
:10910000000000000000000081100108811001082B
:1091100081100108811001088110010881100108E7
:1091200081100108811001088110010881100108D7
:1091300081100108000000000000000085D8000830
:1091400091D800089DD80008A9D80008B5D8000813
:10915000000000000000000000000000000000000F
:1091600000000000000000000000000000000000FF
:1091700000000000000000000000000000000000EF
:1091800000000000000000000000000000000000DF
:1091900000000000000000000000000000000000CF
:1091A00000000000000000000000000000000000BF
:1091B00000000000000000000000000000000000AF
:1091C000000000000000000000000000000000009F
:1091D000000000000000000000000000000000008F
:1091E0005FF8E0F153B94AB9002908BF00281CBF55
:1091F0004FF0FF314FF0FF3000F00CB8ADF1080C2C
:109200006DE904CE07F03EFFDDF804E0DDE902235E
:1092100004B07047704700BF034613F8012B002AC3
:10922000FBD1181A013870470348044B834202D01F
:10923000034B03B1184770479001002090010020B4
:10924000000000000548064B1B1AD90F01EBA301D3
:10925000491002D0034B03B118477047900100201A
:10926000900100200000000010B5064C237843B99F
:10927000FFF7DAFF044B13B10448AFF3008001237A
:10928000237010BDB8010020000000003014010858
:1092900008B5054B1BB105490548AFF30080BDE893
:1092A0000840FFF7CFBF00BF00000000BC01002056
:1092B000301401080849094A914238BF084603D3CF
:1092C00008E00430904203D20368B3F1C53FF8D000
:1092D000401A704700207047D4E5002000000120AC
:1092E000014B1868704700BFDC010020074A084B9B
:1092F00012681868904201D300207047642101FB76
:1093000000F0B0FBF2F0081AC0B27047D80100209C
:10931000DC0100200E490F48884228BF002309D2F3
:10932000034602E004338B4203D21A68B2F1C53F10
:10933000F8D01B1A084A9A4207D96421D01A01FBB7
:1093400000F0B0FBF2F0C0B270470020704700BFE1
:1093500000000120D4E5002000000100014B187836
:10936000704700BFF1010020014B1878704700BF23
:10937000F0010020014B1868704700BFEC0100208D
:10938000014B1868704700BFE80100200F4B82B006
:10939000DA69DFF83CC042F08052DA61DA690D49DF
:1093A00002F080520092009ADA6942F00062DA61BB
:1093B000DB6903F000630193019BDCF8003043F4A8
:1093C0008073CCF80030C86002B0704700100240D3
:1093D00000700040006C004030B504468E46104AD4
:1093E0001049DFF844C01160DCF80430646980691A
:1093F0001361DCF82850C2E901046B405561C2F8E2
:109400000CE06340DCF82C40DCF8385063406B40E3
:1094100083EA0E0343404B409461D561136230BD33
:10942000900100204853524300ED00E00D480E4BE0
:1094300002689A4214D14368C1685340826810B4EC
:109440005340026944694B4053406340D0E90621D0
:109450005340026A4B409A4218BF002010BC70472C
:109460000020704790010020485352432DE9F04FEF
:109470009FB004F051FA6B464248A3F14002824289
:1094800007D91A1A413A22F00302C521043207F023
:1094900095FF3D4A3D48D1693D4B41F08051D16136
:1094A000D1693C4C01F0805100910099D1693A4D4D
:1094B00041F00061D161D269384902F00062019245
:1094C000019A0268364F42F4807202609A680A700C
:1094D000DA68D2B222705969186940EA0140002165
:1094E0002860DE69986940EA06402E4E3060186AAE
:1094F0003870196222B1D960196159619961D961D5
:109500003422002111A807F059FF202200210DEB81
:109510000200CDE90311CDE90511079107F04EFFD7
:109520004FF4803312934FF4E0134FF001080222FE
:109530001A934FF4803310A8CDE91823CDF840805A
:1095400005F028FA08B172B6FEE710230F9008A8BC
:10955000089305F069FD034608B172B6FEE74FF0C7
:10956000020B059307934FF4806A0F23594603A813
:10957000CDE9033BCDF818A005F0B0FC814698B1C9
:1095800072B6FEE7D4E500200010024000700040F3
:10959000006C0040F0010020EC010020F1010020EF
:1095A000E4010020E8010020B24BB3499A6942F07F
:1095B00001029A619A6902F001020892089A4A68C7
:1095C00022F0E06242F000724A609A6910A942F00B
:1095D00004029A619A6902F004020292029A9A695C
:1095E00042F010029A619B694FF4005203F010039D
:1095F0000393039B01231290A048CDE91023CDF8DB
:109600004CB004F057FB42464FF400519B4804F025
:1096100065FC00234FF40072994810A9CDE910238E
:10962000CDF8489004F046FBCDF844804FF4006834
:10963000924810A9CDE9129BCDF840A004F03AFB66
:109640004A4651468D4804F049FC8C4810A9CDF893
:10965000408004F02FFB41464FF480584A4687482B
:1096600004F03CFC854810A9CDF8408004F022FBB2
:1096700041464FF400484A46804804F02FFC804899
:1096800010A9CDF8408004F015FB41464A467C48BD
:1096900004F024FC03237B4A536040F2E1439360CF
:1096A000794B1046136006F089F98046002840F097
:1096B000B78002F057FE754B754AD3F800180D209D
:1096C000914218BF43464FF003014FF0070208BF15
:1096D000D3F80C3802F0A2FE2178002940F0A280D5
:1096E00001276C4D03262F6202F0E4FF02232B6258
:1096F00001F0EAFF03F006FB2E62002003F0C0F940
:10970000654CDFF898912060384603F0B9F90146BE
:109710006060206801F0FAFA0423314600202B62D1
:1097200000F0E0FE052300222B625D495D4806F053
:109730007BFE5D495B4806F08DFE5C49594807F0A9
:1097400029FC584806F090FE06232B6201F004FC29
:1097500007232B6202F0A4FC03F0F8FD064603F099
:10976000FBFD804603F0FEFD08232B62044604F057
:10977000F1F84F4FDFF83CB1DFF83CA1C9F8000029
:10978000404806F047F93B6801333B6004F0E2F8DB
:10979000D9F80030C31AB3F57A7F0CD33B68DAF8F6
:1097A0000020CBF80030934288BFCAF80030002375
:1097B000C9F800003B6003F0C9FD8642054604D0AD
:1097C0000246FF21072002F0A7FD03F0C5FD8045FA
:1097D000064604D00246FF21082002F09DFD03F05A
:1097E000C1FD8442804608D0021BFF2A28BFFF2209
:1097F000FF210A20D2B202F08FFD4FF40071204801
:1098000004F066FB444601F0C5F8B04602F098FC4F
:109810002E4603F03DFB00F06FFE03F05BFDAFE76B
:1098200072B6FEE72B680C20727802F0F7FDFFF7A6
:10983000FDFD0546B8B14369C27E21780F2002F0D4
:10984000EDFD00221020EB69297B02F0E7FD29697C
:10985000AB68C1F307221120C9B202F0DFFD00227C
:10986000164B1A601A6200220E20397802F054FD5D
:1098700036E700BF00100240000001400010014028
:1098800000080140F801002000300040008000087E
:1098900031505041006C004000000020D4010020F5
:1098A00058000020040200204C0100200C00002081
:1098B000E0010020DC010020D80100209001002000
:1098C000014806F0A7B800BFF8010020BFF34F8F92
:1098D0000549064BCA6802F4E0621343CB60BFF34C
:1098E0004F8F00BFFDE700BF00ED00E00400FA0568
:1098F000002000B5114B83B0DA69DFF844C042F0B4
:109900008052DA61DA690F4902F080520092009ABF
:10991000DA6942F00062DA61DB690B4A03F0006346
:109920000193019BDCF8003043F48073CCF80030E5
:10993000C2F8F00F4860FFF7C9FF00BF00100240F7
:1099400000700040006C004000400020F0B5103076
:10995000C3B01D468DF804008DF805108DF8063053
:1099600033B12AB111460DF107001A4607F052FD36
:1099700003F0F0FF00240746033507E0FFF7A0FFE0
:1099800003F0E8FFC01BB0F5617F07D221462A46ED
:1099900001A803F0E7FB85420446EFD843B0F0BDD1
:1099A0002DE9F04FADF5537D03F09AFB30B9B34B81
:1099B000186000200DF5537DBDE8F08F05900DF186
:1099C0002601002003F0B2FB9DF82640059A4CBB0F
:1099D000162A174628BF16279046A94D8DAEBFB24E
:1099E0003146A0B203F0A2FB2A7833789A4216D10E
:1099F0000134A74205F10105F2D1B8F1150F00F2CB
:109A0000F48403F0A7FF9D4A1368002B00F0DC8369
:109A1000C01AB0F5FA7FCCD300231360A3E042460E
:109A20009DF82640A02C00F0F6807DD9BE2C00F2D7
:109A30009F80BA2C40F29780BC2C00F0FA80BE2C9C
:109A400000F0D583042A40F2C2830AAB1946B4F170
:109A5000BB094FF001000693059218BF4FF00109B2
:109A600003F064FB0BA9022003F060FB03200BA9A9
:109A70009DF82C7003F05AFB04204FF005084FF0BE
:109A8000000B9DF82C30059A47EA032707900CA994
:109A9000059203F04BFB9DF83030082B63D8059AF4
:109AA000B9F1000F00D1984408F10105AA42C0F0B5
:109AB0008E834CAA1446002605922146B0B2013688
:109AC00003F034FBB54204F10104F6D100234CA9A4
:109AD000059A01EB080012F8011B824283EA010398
:109AE000F9D14CA911F808209A423CD1069B9DF867
:109AF0003020197800238DF834128DF835B2CDF866
:109B000037728DF836928DF83B228DF83C32B9F1E0
:109B1000000F00F06F83CDF83D32CDF841328DA8B3
:109B200001F09EFAA8B245E7902C67D0922C1AD18A
:109B300002F018FF932305468DF83432827B00F142
:109B40000F010DF236208DF8352207F063FCFF235C
:109B50004C4AA97B8DAC127820460C44A270E3706D
:109B6000043103F061FB01200DF5537DBDE8F08F5A
:109B70004034E4B2132CF6D8012A00F089800DF1AC
:109B8000270739460120059203F0D0FA3B78059A61
:109B90009C1CA2427CD363B100254CAEA81C31466C
:109BA00080B203F0C3FA3B780135AB4206F10106FF
:109BB000F4D8354E33680133336003F0CBFE0546ED
:109BC0009DF826003B78A0F1C002132A00F27684AB
:109BD000DFE812F0840160015201D201C401EA0100
:109BE000170149022402810244011002F801000118
:109BF000E60093008A00D4007E006E009123214984
:109C0000224A0C7812788DA8032144708270037068
:109C100003F00AFBA7E7002001F012FA0346A12493
:109C20001A0A8DA8032104704270837003F0FCFAB5
:109C300099E74FF00009062A40F2C98200252F4615
:109C40000AAB194601200693059203F06FFA059EB0
:109C5000A81C80B20BA903F069FA9DF82C30EA0029
:109C600001359340042D47EA0307F1D1062032461F
:109C70004FF007084FF0010B079008E7C8040020D9
:109C8000C8170108D9040020D4040020D8040020FB
:109C900003F060FEC14B1A68002A00F0A582801A0A
:109CA000B0F5FA7FFFF485AE002201201A6081E64C
:109CB0000E2B00F2E68200230121D3201A46FFF783
:109CC00045FE03F047FEB64A431B1360A0B271E69F
:109CD00002F0EEFFB0FA80F100234909D2201A46C3
:109CE0004900FFF733FEECE7002B40F0B2821A4642
:109CF0000121D020FFF72AFEE3E7032B40F2A682E2
:109D0000042B4C9800F0DC829DF83421002A00F0EE
:109D1000D782172A28BF17228DA902F081FB8DF860
:109D20003000002800F0268300EB800100EB4101A9
:109D30000DF131038DAA1944870016680B3343F8DF
:109D40000B6C56680C3243F8076C12F8046C03F87D
:109D5000036C12F8036C03F8026C12F8026C03F83F
:109D6000016C9942E9D1074400EB47077B1C0021B5
:109D7000CF200CAADBB2FFF7E9FDA2E7012B08D93F
:109D80009DF83121152A04D8911CC9B28B4280F06C
:109D9000F98200230121D1201A46FFF7D7FD90E771
:109DA000022B40F237829DF83061013EF6B2012E5F
:109DB00000F23082BDF831713046394601F0F6F8D4
:109DC0000346002840F0048302460221CE20FFF71C
:109DD000BDFD76E7022B40F216829DF83001013876
:109DE000C0B2012800F20F829DF832219DF8311196
:109DF00000F054FF0023CD201A461946FFF7A6FDB8
:109E00005FE7002B00F00D829DF83071013FFFB23B
:109E1000012F00F2068200260CA90E60384600F0E1
:109E2000E3FE8046384600F0F9FEB44602460C9F39
:109E300068F3070C62F30F2C314667F3174C3E0AA8
:109E40008DAA66F31F6C3E0C3F0E0623C620C2F897
:109E500000C016715771FFF779FD32E7522B04D914
:109E60009DF83021452A40F29C8200230121CA201E
:109E70001A46FFF76BFD24E7042B04D1494B4C9A9B
:109E80009A4200F0D98200230121C2201A46FFF72E
:109E90005DFD16E7012B1AD99DF830114CA8092950
:109EA00015D84A1C9A4212D811D0875C0A2F0ED8B6
:109EB0008A1CBE1806F1040C634508D3A3EB0C03FF
:109EC000022B04D110F80C30A52B00F0C282002325
:109ED0000121C1201A46FFF739FDF2E602F042FDEA
:109EE0000279411D05908DF834220DF2352007F0DE
:109EF00091FA059B8DAE19799A7B8F1C31444A707B
:109F0000F01903F10F0107F085FA0020059B9A7BF9
:109F10001744B3F81920F119F255B3F81920053791
:109F2000120A4A70B3F81B208A70B3F81B308DF800
:109F300030001B0ACB700CA8059102F087FE9DF83B
:109F4000302005990A7110B1002A40F0ED813246A7
:109F50000021C020FBB2FFF7F9FCB2E6522B04D976
:109F60009DF83021452A40F2ED8100230121C420D3
:109F70001A46FFF7EBFCA4E6002B00F060819DF889
:109F800030018DA901F0F2FC002800F058815A231D
:109F90000021C3208DAAFFF7D9FC92E6C804002057
:109FA000D004002046434C52012B04D99DF83001C7
:109FB000452840F2878100230121C5201A46FFF77A
:109FC000C5FC7EE603F09EF9804603F0A1F98646C3
:109FD000CC4B3668D3F800C0CB4B8DAA1F6800214C
:109FE0001423CC20C2E9008EC2E9026C1761FFF78E
:109FF000ADFC66E6012B00F07381022B07D19DF8C2
:10A00000300120B99DF83131A52B00F06E8100237D
:10A010000121CB201A46FFF799FC52E600270CAA33
:10A0200017600AA80BA907600B9702F0F5F8DDE9A5
:10A030000A13CDE98D1302F003F98DF83C0202F00A
:10A0400095FC8DF83D0201F0A7FC46220C9B8DF893
:10A050003E0290938DF83F2210233946C8208DAAE6
:10A06000FFF774FC2DE6002B00F0E2809DF8300134
:10A070004CAF0138C0B2012800F2DA800CA900F020
:10A0800045FCDDE91023DDE90E01DDF830C0CDE946
:10A090009012CDF834C2DDF834C09293CDE98EC071
:10A0A00000F0D8FF8DF84C0238780138C0B200F0CB
:10A0B000C7FF020A8DF84E22139A8DF84D02CDF893
:10A0C0005322129A2323CDF84F220021C7208DAAB4
:10A0D000FFF73CFCF5E502F045FC00210746522263
:10A0E0000DF2362007F06AF90922884B8DF83522E7
:10A0F0001B780A228DF8343201238DF837327B7FAA
:10A100008DF83832BB7F8DF83A228DF8393202F063
:10A110002DFC4FF480717E4A8DF83B02ADF836126B
:10A120007C4BD2F800289A4200F026817A4ADFF868
:10A13000ECC191AB0CAF07CAB84683E80700BCE896
:10A140000F000FC79CE8030047F8040B397007465F
:10A15000B8E80F000DF5147EAEE80F00704BCEF896
:10A16000007093E80300CDE99901FFF7F7F88DF847
:10A170006C0203F0EBF88DF86D0203F0EDF88DF84A
:10A180006E02FFF7F1F88DF86F0203F0EBF89C9088
:10A19000FFF790F89D90FFF7EDF80746FFF7F0F80E
:10A1A000CDE99E70FFF79CF8A090FFF79FF88DF81F
:10A1B0008402FFF7AFF854238DF885020021C920EF
:10A1C0008DAAFFF7C3FB7CE51060FFF7F2BB03F03D
:10A1D000C1FB544B1A683AB1801AB0F5FA7FFFF40C
:10A1E000E8AB00221A60BEE41860FFF7E2BB4FF054
:10A1F000010920E507994CAB013119440DF23D20CE
:10A2000007F008F98BE400230121CD201A46FFF75F
:10A210009DFB56E500230121CE201A46FFF796FB51
:10A220004FE500230121C6201A46FFF78FFB48E5C2
:10A2300000230121C7201A46FFF788FB41E50023D0
:10A240000121C3201A46FFF781FB3AE500201722BF
:10A2500062E500230CA99DF830018DF8303002F042
:10A26000A7FC9DF8307001468DF8347208B1002FBC
:10A2700062D17B1C0021D0208DAADBB2FFF766FBE8
:10A280001FE5DDF83B219DF83A319DF83111CDE90C
:10A290000232BDF83821BDF836319DF83001CDE9E4
:10A2A0000032BDF83431BDF8322102F041FD002307
:10A2B000B0FA80F11A46D3204909FFF747FB00E5C1
:10A2C000172229E59DF8311101F02EFDB0FA80F139
:10A2D00000234909C5201A464900FFF737FBF0E47F
:10A2E0009DF8300100283FF492AE01F0F5FBB0FA82
:10A2F00080F100234909CB201A464900FFF726FBCD
:10A30000DFE400BFD0040020CC040020D8040020EB
:10A310000080000831505041E8F7FF1F5417010832
:10A3200048170108C80400200146F019059207F0FB
:10A3300071F8059A17440AE63A460DF2352007F0FF
:10A3400069F896E7591E8DAA0DF2311001F060FBF5
:10A3500000283FF40AAE8DA99DF8300101F0D0FC31
:10A36000B0FA80F100234909C4201A464900FFF7DA
:10A37000EDFAA6E40746F6E4544A92E80300CDE974
:10A380008F01D3E60DF599719DF8300102F036FC8E
:10A390000023B0FA80F11A46D1204909FFF7D6FA16
:10A3A0008FE4591E8DAA0DF2311001F031FB002807
:10A3B0003FF45BAD8DA99DF8300101F03DFB00231A
:10A3C000B0FA80F11A46CA204909FFF7BFFA78E4CB
:10A3D0003946304602F078FB0346002862D1024637
:10A3E0000321CE20FFF7B2FA6BE44BF6EF60384B57
:10A3F0003849DA69384C42F08052DA61DA6902F0A1
:10A4000080524C924C9ADA6942F00062DA61DB6960
:10A41000324A03F00063336033680B6843F480739F
:10A420000B602F4B5060FF210022C4F8F03F0B203F
:10A4300001F072FFFFF74AFA01F0B4FA0023C220DC
:10A440001A461946FFF782FAC82002F091FFFFF77B
:10A450004FFA0DF235139B5D5A2B7FF438AD3B4616
:10A460000DF2331717F806C00DF59977BF5D02445A
:10A4700047EA0C270197875D0DF23110865D47EAA8
:10A480000626009602F078FA0646B6FA86F1002310
:10A490004909C1201A464900FFF758FA002E3FF437
:10A4A00010ACD1E7304600F0CBFD06468DAA022362
:10A4B0000021CE201680FFF749FA02E40023032191
:10A4C0001A46FFF743FAFFF7FCBB00BF08880008F5
:10A4D000001002400070004000400020006C00406E
:10A4E000EFBEADDE024A034B10701970704700BF1B
:10A4F000D9040020D80400202DE9F04320264FF095
:10A500000008624A624F13688BB001331360FFF793
:10A5100047FA054658B10024C7F80080013402F01C
:10A52000EBFDAC42FAD1013EB6B2002EEFD14FF0B6
:10A53000000840266F4602F0D3FD00285DD140465A
:10A5400005A900F075F9002851D005A801F01AFC02
:10A550009DF816109DF81530002951D0002B59D0C8
:10A560004FF0AD0C9DF81C40003CDDF8173018BFD3
:10A5700001241D469DF81420180A013242EAC41233
:10A580009DF81B408DF801201A0C1B0E8DF800C0A1
:10A590008DF804208DF805308DF803008DF80250F9
:10A5A0008DF8064091BB07250821E9465CB1B94604
:10A5B0000DF11D017819224606F02CFF611EC9B26B
:10A5C00029440231254400224846134610F8014B25
:10A5D00001339D4282EA0402F8D8013E48466D44A8
:10A5E00089B2B6B22A7002F02DFE002EA3D108F176
:10A5F0000103022B4FF001089BD10BB0BDE8F083A3
:10A6000033B34FF0AB0C9DF81C40ADE70821072594
:10A61000B946D8E79DF81C20AC24003A18BF0122A7
:10A620009DF81430DDF817009DF81B500133010A26
:10A6300043EAC2138DF803108DF804500621052556
:10A64000B9468DF802008DF800408DF80130BAE768
:10A650009DF81C20AA20003A18BF01229DF8143052
:10A66000DDF817109DF81B4001330D0A43EAC213B1
:10A670008DF803508DF80210052506218DF8044051
:10A680008DF800008DF801308FE700BFCC0400206A
:10A69000C8040020642908B534D009D832292DD047
:10A6A00027D80A2921D0142914BF0422642208E0E3
:10A6B000FA2925D0B1F57A7F19D07D2914BF04225B
:10A6C000102200234FF4602C4FF4801142604FF0B1
:10A6D0000122C0E90233C0E904C18261838304F02E
:10A6E00079FDB0FA80F0400908BDC822E9E70222EE
:10A6F000E7E7532914BF04221822E2E72822E0E703
:10A700000822DEE71422DCE700234FF00E0C10B520
:10A710008AB00122CDE90133CDE9033300930693DA
:10A72000994218BF634669460446CDE90722CDF831
:10A7300024C0059304F0D0FD18B9204604F066FE4D
:10A7400010B100200AB010BD0221204604F0BEFF67
:10A75000B0FA80F040090AB010BD00BF43F6903255
:10A76000324BF0B502FB003202F56E52B2F800C077
:10A7700043F682341FFA8CFC0CF1010CBCF5607FAF
:10A7800038BFB2F800E043F6903228BF4FF0000E19
:10A7900002FB003232F804C03CBF0EF1010E1FFA7A
:10A7A0008EFE1FFA8CFCF4451FD132F804C043F62C
:10A7B00084361FFA8CFC0CF1010CBCF5607F38BFAD
:10A7C000145B43F6903228BF00244FF0010C43F68F
:10A7D000823743F68C3502FB003238BF0134D45344
:10A7E00002F806C054596444545143F6903243F67B
:10A7F000883400FB02F29818055900F56E5C0135AB
:10A800000551BCF800000E6880B200EB00104D68E6
:10A810008C681044CA681E5003445D609C60DA6016
:10A820000A7CACF800E01A74F0BD00BFB80D00203F
:10A83000012863D840F2444200FB02F2F0B5DFF891
:10A84000C4E00EEB020CBCF84234BCF840449C421D
:10A850003CD143F6903E43F682372B4A0EFB002C48
:10A860000CF56E531B889CB23CF807309BB29C429F
:10A8700046D03CF807309BB203EB03130EFB0033CA
:10A8800002EB030ED458DEF80450DEF80C30DEF88C
:10A8900008600C604D608E60CB609EF810300B74C9
:10A8A0003CF8073043F682319BB20133B3F5607F49
:10A8B00038BF3CF8073043F6903C28BF00230CFB20
:10A8C000002238BF013353520120F0BD03EB0310C7
:10A8D00010440EEB00025EF800405568D2F808E024
:10A8E000D0680C604D60C1F808E0C860127C01338C
:10A8F00003F03F030A74ACF84234E5E700207047E8
:10A900000020F0BD20050020B80D002099B30128DB
:10A910008C4603462AD800B543F6903E43F688306D
:10A9200043F68C31144A0EFB03221058CCF8000079
:10A93000124850F8230052581149CCF80820114A07
:10A94000CCF8040051F8230052F823200E49CCE93A
:10A9500003020E4A0E4851F8231052F8232050F8F3
:10A960002330CCE90512CCF81C3000BD2022002198
:10A97000604606F023BD7047B80D0020B00D0020E2
:10A980000805002000050020F8040020A80D002084
:10A99000EC040020884B1B78002B00F0FA802DE996
:10A9A000F04F864B8FB000251E46E946844ADFF8FB
:10A9B00014A2CDE90032DFF810823368ECB2D3F88C
:10A9C00018B01AF805301BF0040271D003F0FF0232
:10A9D000002B00F0B5801BF070027AD11BF0030F42
:10A9E00010D00123794A1BF0010F535506D0784A45
:10A9F00052F8253043F0010342F825301BF0020FD6
:10AA000040F09680002730461BE0079A8DF8090039
:10AA10008DF80A300B9B204602A9CDF80B208DF84B
:10AA20000F308DF81070FFF799FE58F8253006208A
:10AA300001330022214648F8253001F06DFCD9F899
:10AA40000000002104F030FE00B3EFF3108672B670
:10AA50000021D9F800000DF1110307AA04F094FDBC
:10AA600086F3108890B9DDE90923A3F10203B3FA54
:10AA700083F3042A4FEA53138DF80840C5D101210E
:10AA8000089A8DF80A308DF80910C3E743F6903321
:10AA900043F6843100224F4803FB0503585C5A54A7
:10AAA000002840D1002D3BD1012559F8046F84E7DF
:10AAB000002B90D048480AF8052050F82530214650
:10AAC000013340F82530042001F026FC1BF0700211
:10AAD00084D0012741483D4950F82530402A3B4465
:10AAE00040F825304F5560D056D8202A52D0302A11
:10AAF0005DD0A2F11007B7FA87F77F09FF0034484D
:10AB0000120950F8253021463B4340F825300220F9
:10AB100001F002FC3268936923F0700393615DE7F2
:10AB20000FB0BDE8F08F2146052001F0F5FBB9E735
:10AB3000274A52F8253043F0020342F8253061E7F6
:10AB40000127DFF89CE00AF805705EF825C01F4B6E
:10AB5000BC444EF825C0DFF88CC021460CF80570C7
:10AB6000DFF86CC05F555CF82530032043F0040328
:10AB70004CF8253001F0D0FB3946304604F0CCFCCF
:10AB80000221304604F0C8FC0421304604F0C4FC25
:10AB900021E770471027B2E7502A0AD0A2F16007D8
:10ABA000B7FA87F77F093F02A9E71746A7E72027EB
:10ABB000A5E78027A3E700BFE80400200085002068
:10ABC000D8840020F4040020EC0400201C050020A0
:10ABD00010050020B80D0020F80400200805002012
:10ABE00000050020180500200128034610D84FF06A
:10ABF000000C084A105C02F803C0C0B2064A19B142
:10AC000052F823C0C1F800C0002142F82310704759
:10AC1000002070471C050020100500200128034675
:10AC200005D80021034A105CD154C0B270470020FF
:10AC3000704700BF180500200368114910B55B1A62
:10AC400018BF01230124416A0E4ADFF83CE0DFF817
:10AC50003CC04EF82310D4545CF8232022444CF816
:10AC600023204A0709D50A4A0A49D45451F8232017
:10AC7000224441F82320084AD4540023436210BDE3
:10AC8000006400401C05002010050020080500207D
:10AC90001805002000050020F40400202DE9F041F3
:10ACA00090460C4684B048BB80210826154F1548B5
:10ACB000019103F00DF90546221E18BF012211482B
:10ACC000019903F00BF9B8F1000218BF01223146D7
:10ACD000384603F003F9012D0DD164B90394039BA9
:10ACE000B3F5B47F07D200BF039B01330393039BEB
:10ACF000B3F5B47FF7D304B0BDE8F081102104268A
:10AD0000014FD4E7000C0140001401402DE9F04749
:10AD100000248CB0814647F220728A467B4800218D
:10AD200006F04CFB40F688020021794806F046FB0D
:10AD3000784D794B79481C802C8001257849794AD7
:10AD40000460794B4460794E0C604C601460546030
:10AD5000774A784F1C6007945C6034701480BB693C
:10AD6000754A43F00103BB61BB6974482B400093F3
:10AD7000009B536804A923F4C04343F0E06343F409
:10AD80008043536053684FF0030843F0E863536017
:10AD9000BB694FF4807243F00803BB61BB6903F0E9
:10ADA00008030193019BBB6943F02003BB61BB69AE
:10ADB00003F020030293029B0023CDE904230695B0
:10ADC00002F078FF4FF4007202235C4804A9CDE939
:10ADD0000423CDF81C8002F06DFF20220023574889
:10ADE00004A9CDE90423069502F064FF4022022362
:10ADF000524804A9CDE90423CDF81C8002F05AFF83
:10AE00004FF0020C802201234FF01008B9694B4823
:10AE100041F01001B961B969CDF82CC001F0100101
:10AE2000039108A9CDE908230A94039B02F042FF8D
:10AE300022468021414803F051F8404808A9CDF846
:10AE4000208002F037FF41464FF0080822463B4879
:10AE500003F044F8394808A9CDF8208002F02AFF11
:10AE600041464FF004082246344803F037F834488E
:10AE700008A9CDF8208002F01DFF22464146304847
:10AE800003F02CF8FB692F4943F00073FB61FB6969
:10AE90002D4803F000730493049BFB692B4A43F095
:10AEA0008063FB61FB690160294903F080630A60EC
:10AEB00008934946089BFFF7EDFB20B90027384669
:10AEC0000CB0BDE8F08751462148FFF7E3FB0028AE
:10AED000F4D0204B21461C48C3E9009AFFF714FC2C
:10AEE0000028EBD029461A48FFF70EFC0746002839
:10AEF000E4D0224621462046FFF7D0FE22462146D6
:10AF00002846FFF7CBFE3570D9E700BFB80D00200B
:10AF100020050020180500201C0500201005002039
:10AF20000805002000050020F8040020E8040020A7
:10AF3000F40400200010024000000140000C014019
:10AF400000140140006400400085002000680040BB
:10AF5000D8840020E004002008B5134B1B7803B907
:10AF600008BD00220521142002F01EFD142002F06D
:10AF70004DFD00220621162002F016FD162002F0DB
:10AF800045FD00220521402002F00EFD402002F088
:10AF90003DFD42200022062102F006FDBDE80840EA
:10AFA000422002F033BD00BFE8040020204B1B7894
:10AFB0005BB1012809D8642911D008D832290ED0F4
:10AFC00031D80A290BD0142909D000207047B1F5D7
:10AFD000FA7F04D023D87D2901D0FA29F5D1154B69
:10AFE00053F820208A4221D030B583B0A8B9124A44
:10AFF000054610460C460192FFF74CFB50B129461E
:10B000000198FFF781FB28B101200A4B43F8254046
:10B0100003B030BD002003B030BD084AE8E7B1F509
:10B020007A7FD2D1DBE75329CFD1D8E7012070470F
:10B03000E8040020E004002000850020D8840020DF
:10B0400001289ABF024B53F820000020704700BF30
:10B05000E0040020014B1878704700BFE80400208E
:10B06000444B1B78002B54D0002852D0F0B5067802
:10B070008DB0013EF6B2012E3DD8002E3ED0437871
:10B080003D4DD0F80320002B3ED1C2F30A011A46F1
:10B09000CDE9061383780892003B18BF01230022F4
:10B0A000C1795B0007464FF4FA740A918DF82C20A1
:10B0B000099301E0013C18D0284604F051FA002819
:10B0C000F8D028466B4607F1090206A904F0CCF92E
:10B0D00058B92A4A3C7A52F82630072C03F101036A
:10B0E00042F8263017D9012006E0254A52F82630CA
:10B0F000013342F8263000200DB0F0BD4378214DD9
:10B10000D0F80320002BC0D022F06043002104229D
:10B11000BEE70020704740F2444C38687968FB680D
:10B12000BA68DFF864E001AD0FC50CFB06E03B7CBC
:10B130002B70B0F84034B0F84254591C01F03F0174
:10B140008D42D0D0013403EB03138DF80C400CFB7F
:10B1500006348DF8046001ADA0F840140FCD4EF810
:10B16000040028780EEB04067160B260F36030745E
:10B17000B9E700BFE8040020D8840020B00D00200B
:10B18000A80D0020008500202005002010B58CB0FF
:10B1900000210DF1090305AA044604F0F5F908BBE6
:10B1A00015492368089A5B1AA2F1020218BF01230D
:10B1B000B2FA82F20799520904298DF8003013D0AF
:10B1C000DDF814C08DF801008DF802200022184629
:10B1D000099B6946CDF803C08DF807308DF808202B
:10B1E000FFF7BCFA0CB010BD0121DDF818C08DF8D6
:10B1F00002208DF80110E9E7006400401B4B026853
:10B200009A420CD1844600B590F831009CF8322067
:10B2100038B1022822D1522A24D0002000BD0020BB
:10B220007047002AFAD1012911D00022481E0CF1E2
:10B23000FF318B1C11F801EFA3EB0C0382EA0E0225
:10B24000DFF82CE098421EF80220F2D884449CF8E3
:10B250000000801AB0FA80F0400900BD0328DCD15C
:10B260005A2ADAD18A42D8D1DFE700BF3247525496
:10B270004814010800285DD04379022B58D890F873
:10B280002030022B54D88379012B51D890F82120FB
:10B29000012A4DD8C17B08294AD890F826100829E0
:10B2A00046D890F83310012942D890F84F1002295F
:10B2B0003ED890F8341001293AD890F83510022978
:10B2C00036D890F83610012932D890F83BC0BCF13E
:10B2D000080F2DD890F853C0BCF11F0F28D890F854
:10B2E00056C0BCF1030F23D840F2FF7C002B0CBFEB
:10B2F00063466FF0604300B5002AD0F807E00CBF4A
:10B3000062466FF06042002918BF6FF0604C9E45A6
:10B3100011D8D0F80B1099420DD8D0F822309342B2
:10B3200009D8D0F8370060458CBF0020012000BD4F
:10B33000002070477047002000BD00BF2DE9F04F8E
:10B340009046CA799946C378082A28BF082283B054
:10B3500013B10379934217D0451D01F1090A034641
:10B3600000245146C3F8054028466C6001920093C2
:10B3700006F050F8DDE900324FF480711A711C803C
:10B38000598003B0BDE8F08F01F10904451DA246C4
:10B390002B464FF0000C08F11801B9F1000F23D132
:10B3A00098F84F60012E32D091F800E0BEF1000F06
:10B3B00046D01E78B3465FFA8CF6B24232D9267870
:10B3C0000EEA06070EEA0B0E7745C8D10CF1010C08
:10B3D000BCF1080F01F1010103F1010304F10104C3
:10B3E000CFD0B9F1000FDBD098F83B60B3465FFADD
:10B3F0008CFEF34518D991F8246091F82C70BE4268
:10B4000012D8724519D8002793F800E0DCE70CF158
:10B41000010CBCF1080FB4D00CF1010CBCF1080F09
:10B42000F5D1AEE70027CDE70CF1010CBCF1080F18
:10B43000A7D0013101330134D9E726783746E3E755
:10B440000CF1010CBCF1080F9BD001310133013428
:10B45000A8E700BF2DE9F0410F46054686B002F08F
:10B4600023FBBD421ED200264FF0010805F5006403
:10B47000FEF726FA2B4601E09C420DD01A680433F1
:10B480000132F9D002A801A9CDE90266CDE904583C
:10B49000019602F0AFFB58B905F50065AF4204F51F
:10B4A0000064E5D802F014FB012006B0BDE8F0818D
:10B4B00002F00EFB002006B0BDE8F0814FF0010C59
:10B4C00010B5114C030182B004F803C004EB001462
:10B4D000CDE90021607002F03DFA01994FF0000CB7
:10B4E000B1F82F30009A0344636091F84E30012B7D
:10B4F00038BF01232372B1F84C302273638184F882
:10B500000DC002B010BD00BF3C8D002070B590F89A
:10B5100034308446964686B02BB32A4B5C5CFCB133
:10B52000294B01EB01115A18154658585168EB6820
:10B53000926801AC0FC49CF820202B7C12F0FD0F08
:10B54000237001AE64468DF80CE02DD10122304607
:10B550008DF80420FFF784FD94F82020044622BBD8
:10B56000204606B070BD90F83330D0F8222090F815
:10B5700021108DF8063090F82630CDF807209CF881
:10B5800020208DF805108DF80B30D0F82710D0F85A
:10B590002B3012F0FD0F6446CDF80D1001AECDF842
:10B5A00011308DF80CE0D1D00024022230468DF805
:10B5B0000420FFF755FD40EA0403DCB2204606B044
:10B5C00070BD00BF9C910020E49100202DE9F04F58
:10B5D000154604221E46002387B08DF80C20384AF9
:10B5E00007463848CDF80E30CDF81230ADF8163099
:10B5F000CDF80F108DF80D5002920DF107010DF1ED
:10B60000160811F8012F53404145C35CF9D18DF85C
:10B61000173007F1100902F047FA3DB34C46B34624
:10B62000AA4606EB850300930196FEF749F9DBF87D
:10B63000005004F15A06023D01E0B4420FD0214609
:10B640000023012035F8022F02F082FA023400288C
:10B65000F3D002F03DFA002007B0BDE8F08F009B68
:10B660000BF1040B9B45E0D15546019EBA460DF106
:10B67000060451460023012034F8022F02F068FA34
:10B680000AF1020A0028E4D14445F2D102F020FA7E
:10B690001022384602A905F081FE0028DBD16DB1E9
:10B6A00006EB8505484631685A2205F077FE0436D8
:10B6B00009F15A090028CED1B542F3D10120CBE7D8
:10B6C00048475254481401082DE9F04F4FF48C625A
:10B6D000C9B000218E4805F071FE41F69C020021A0
:10B6E0008C4805F06BFE462200218B4805F066FE73
:10B6F00040F2A6420021894805F060FE4622002162
:10B70000874805F05BFE4FF475720021854805F00F
:10B7100055FE4FF475720021834805F04FFE00235B
:10B720009B46824A824D1360824A83481360834A53
:10B7300083491360834C844E844A2B70DFF8109247
:10B74000844D854F03600B6023701360337000934A
:10B750002A684A4528D12A79042A64D0032A23D1A9
:10B760005221687946281FD805F1100201FB0022FA
:10B770007948824218D828460022DFF8E0E105F136
:10B780000F0C10F8018B82EA080260451EF80220B7
:10B79000F7D1E87B904207D1D5F80720002B40F085
:10B7A000B2808B462B46009205F50065BD42CFD195
:10B7B000002B3AD05F7977B34FF0000A03F1100500
:10B7C000D046019302E094F800805D445946284633
:10B7D000FFF714FDD0B15A22614B002102FB08395A
:10B7E000484605F0EBFD5A462946484605F012FE4C
:10B7F0004846FFF73FFD48B199F8042008F10108D9
:10B8000012B132780132327084F800800AF1010AF4
:10B81000BA45D8D1019B494A13604C4B009A1A6033
:10B8200049B0BDE8F08F5A219BE79846494DDFF8B3
:10B8300030A1DFF830B1B8F1450F05F1520305F141
:10B84000A40239D95B4505F1F60509D05A4504D063
:10B850005D4505D052355D45EDD1B8F1000FDFD023
:10B8600002AD2A463E4905EB880042F8041B82429D
:10B8700001F15A01F9D15A2303FB08F23A4B02F6BF
:10B880000F02A3EBD223334ADE02B2EBC32FC7D0A1
:10B8900030463149FFF7DEFD0028C1D02B4601219B
:10B8A00030462278FFF792FE0028B9D00123234AC0
:10B8B0001660264A1360B3E752212846FFF79EFC24
:10B8C0000028C7D05A2303FB08A71A460021384690
:10B8D00005F074FD52222946384605F09BFD384696
:10B8E000FFF7C8FC08F101020028B3D03B795FFAEA
:10B8F00082F813B133780133337052355D4584F8E3
:10B90000008098D1A9E700988242FFF44DAF48E744
:10B910003C8D0020E8960020A0960020E4910020B5
:10B920009C9100205889002084850020348D0020BF
:10B930009C96002098960020388D0020909600203C
:10B94000308D0020949600202C8D00208C960020B5
:10B950004847525400E00308000004084814010856
:10B9600084AF0020B2EF03088000010008B5084B47
:10B970001B7883420AD903465A22DFF818C00846CA
:10B9800002FB03C105F046FD012008BD002008BDF3
:10B990009496002084AF0020014B1878704700BFB8
:10B9A0009496002010B500240F491048FFF752FD6F
:10B9B0000F4B104A104911481C70114B0460147051
:10B9C0000C60462221460F481C7005F0F7FC21460A
:10B9D0004FF48C620C4805F0F1FC2146BDE81040A4
:10B9E00046220A4805F0EABC0000040800E003080B
:10B9F0009C96002094960020989600209096002017
:10BA00002C8D0020A09600203C8D00209C910020D1
:10BA100038B521F00803522B01D0002038BD05466F
:10BA20000C46104600215A2205F0C8FC2246294641
:10BA300005F0F0FC012038BD30B545289BB03BD85F
:10BA4000054608460191FFF715FC044610B920464B
:10BA50001BB030BD5A22019903A805F0DBFC45F666
:10BA6000032200231649DFF85CC0ADF83D200391A6
:10BA70000DF10B0219A812F8011F4B4082421CF86D
:10BA80000330F8D18DF865305A230F481A4603A9C0
:10BA900003FB050005F0BEFC01220C4B5A5501F0DA
:10BAA00059FF0B4A0B4913780860AB42CFD82046A8
:10BAB0006B1C13701BB030BD002420461BB030BD82
:10BAC0003247525448140108E8960020A0960020FE
:10BAD0009C960020989600202DE9F043FF28C9B0DD
:10BAE00051D00446462C4AD8714B1B7823B9714D6E
:10BAF0002B78A34200F0C0806F4D562200212846CB
:10BB000005F05CFC45F6032200236C496C4EA5F859
:10BB10002D2045F8041C6A1F05F1540012F8011F7E
:10BB20004B409042F35CF9D185F85530654BD3F822
:10BB30000080F4B15F4D00222E7863486349644B66
:10BB4000644F0DF1080C0AE09E460132D2B29442D5
:10BB50004CF804EB01F15A0103F15A031BD010F821
:10BB600001EBBEF1000FEFD196428CBF8E46BE4670
:10BB7000EBE759495948FFF76DFC002850D10020E8
:10BB800049B0BDE8F0834A4B4A4D1C782B789C4263
:10BB900038BF1C46A6E75A2101FB04F3504F03F6B9
:10BBA0000F03A7EBD3274FEAC729DB0AB8F1000F31
:10BBB00016D001FB06F606F60F06474906F478464E
:10BBC00046448E4228BF0E46B14559D2454880456D
:10BBD00056D8D90201F1006101F5783188454DD27E
:10BBE0003D493E480192FFF735FC0028C7D03E4F43
:10BBF00048463968019A02AB0131FFF7E7FC00289B
:10BC0000BDD002AE314B06EB8408184656F8041B33
:10BC10005A2205F0FFFBB04500F15A03F5D103E0CD
:10BC20004FF00009234D304F2C7000243B68254A0B
:10BC300001333B601E4D2D4B2146C2F80090224837
:10BC400046221C602C7005F0B9FB4FF48C62214633
:10BC5000274805F0B3FB46222146264805F0AEFBF7
:10BC60004FF475722146244805F0A8FB4FF4757215
:10BC70002146224805F0A2FB012081E7DFF85C9015
:10BC800048460192FFF7E6FB00283FF478AF164FD5
:10BC900048463968019A02AB0131FFF797FC00284A
:10BCA0003FF46DAF31464046FFF7D4FBA9E700BF34
:10BCB0009C960020949600202C85002032475254F8
:10BCC0004814010890960020A096002084AF002020
:10BCD000E8960020288500200000040800E0030802
:10BCE00080000100FFFF03088C960020989600203A
:10BCF0003C8D00209C9100205889002084850020E4
:10BD000010B50446FFF798FE50B1064B601C1B7837
:10BD1000C0B29C4238BF1846BDE81040FFF7DCBEF9
:10BD200010BD00BF9496002030B5144D9BB02B7809
:10BD300083421FD95A230446019111491A4603FB35
:10BD4000041103A805F066FB019B2046003B18BFC9
:10BD5000012303A98DF81030FFF76EFE50B12B7848
:10BD6000601CC0B29C4238BF18461BB0BDE83040D2
:10BD7000FFF7B2BE00201BB030BD00BF949600207C
:10BD800084AF00202DE9F04FDFF8ACA287B09AF81D
:10BD90000030002B00F0B98081460025A74EA84C4A
:10BDA000A84FDFF8A4822379002B00F09F8094F83D
:10BDB0003430FBB199F808301BB194F85630D807ED
:10BDC0001AD494F83530022B03D099F800209A4207
:10BDD00010D199F8012094F836309A420AD15A23AA
:10BDE0009749D9F8032003FB0513D3F83730934262
:10BDF00000F0998094F85630990777D494F853302E
:10BE00009A0773D499F808200AB1DB076ED494F826
:10BE10004FB0BBF1010F7BD0BBF1020F7DD0637936
:10BE2000022B03D099F800209A425FD1A27999F8A9
:10BE300001309A425AD15A23814AD9F8031003FBA0
:10BE40000523D3F80720D3F80B304A401A424DD1CE
:10BE5000E37B002B40F0A7805A22794B02FB05338D
:10BE6000B3F85130002B40F09780B378002B3DD1D0
:10BE7000BBF1010F17D099F80720A2B109F108030F
:10BE800002EB030C04F10F0109F1100E11F8012F60
:10BE900013F801BF087A82EA0B02024226D16345F9
:10BEA00001D09E45F2D15A23654999F8082003FB39
:10BEB0000513B3F82F305FFA85FB23B994F84E30A1
:10BEC000012B40F2C58058462146FFF7F7FA5A2366
:10BED0005B4A03FB0523B3F851203AB133880133A1
:10BEE0009BB29A4233809CBF0123B3709AF8002022
:10BEF0000135EBB29A4204F15A0406F10E0607F13D
:10BF00000E0708F111083FF64EAF07B0BDE8F08FFD
:10BF100099F80230002B82D1E8E799F80230002B23
:10BF20003FF47DAFE2E7B4F854B0BBF1000F3FD16E
:10BF3000BB78002B7FF45EAF94F83B200192002A7F
:10BF400000F0978004F13B00029503940146CDE98F
:10BF500004B0019C09F1090209F1110508E0C0B91A
:10BF60005FFA8EF39C4202F1010228D0AA4226D049
:10BF700011F8010F03F1010E91F808C06045EFD8E8
:10BF800099F807B09B45EAD91378984201D89C45A7
:10BF9000E6D2DDE902542DE7002322464946304629
:10BFA000FFF7CCF961E799F807209A429ED153E751
:10BFB0000123224649463846FFF7C0F9B8E7D9F8C9
:10BFC0000C30D9F800C0D9F80410D9F8082048F886
:10BFD00008CC48F8041CC8F80020C8F8043099F8C8
:10BFE00010304FF0000EDDE90254DDE904B088F8AE
:10BFF000083001230294019C10F801CFDAB2017AD3
:10C000008C4588BF08F803E0944203F1010301D98D
:10C01000092BF1D1029C01220C4B5A5594F8563051
:10C02000BBF1000F3FF4E8AE3988114489B28B456B
:10C03000398098BFBA70DFE69496002058890020B6
:10C0400084AF002084850020EC9100209C9100208A
:10C0500059462046FFF75AFA20B1104A13680133B7
:10C06000136034E75846214699F80820FFF726FA6E
:10C070002DE7D9F80C30D9F80000D9F80410D9F818
:10C08000082048F8080C48F8041CC8F80020C8F834
:10C09000043099F8103088F80830BCE7388D00205B
:10C0A0002DE9F047224F3B787BB3DFF888800024EE
:10C0B00045464FF05A09204E2B795FFA84FADBB1DE
:10C0C00095F853309B0717D509FB0483B3F8572025
:10C0D00032B9B3F82F201AB995F84E30012B16D982
:10C0E000002229465046FFF7E9F909FB04827368EC
:10C0F000B2F85720134473603A780134E3B29A429D
:10C1000005F15A0506F11006D6D8BDE8F08751466C
:10C110002846FFF7FBF9094918B10B6801330B609A
:10C12000EAE7024629465046FFF7C8F9E4E700BFB0
:10C130009496002084AF00203C8D0020388D002094
:10C140002DE9F84301F006FC2B4B05461A7832B175
:10C1500043F69821294A1268821A8A4244D8284C08
:10C16000DFF8A090DFF8A080284F04F58C6613E07C
:10C17000637B132B33D9264A1368013313600022E3
:10C18000237A6273012B24D96289013B2A442372EA
:10C1900062601034B44220D02378002BF9D0636859
:10C1A000EB1AF6D45A20D9F800206178934200FBAC
:10C1B0000180227B88BFC9F80030FFF7A7F900286B
:10C1C000D6D000223B68627301333B60237A012B97
:10C1D000DAD822701034B442DED1BDE8F8830133DE
:10C1E0006A1C63736260D4E7002146220948197013
:10C1F00005F0E4F8B3E700BF9C9600209896002075
:10C200003C8D0020308D002084AF0020388D002030
:10C21000348D0020A096002010B1064B1B680360EF
:10C2200011B1054B1B680B6012B1044B1B68136006
:10C23000704700BF388D0020308D0020348D0020E5
:10C24000014B1878704700BF2C8D00202DE9F0417C
:10C25000DFF8B8802E48B8F80060002200EB061422
:10C2600044F6454523468AB004F11001CDF80A2072
:10C27000CDF80E20CDF81220ADF81620ADF80850FC
:10C280001A680433013220D18B42F9D101F00CFC41
:10C290000DF106050DF1160721460023012035F8A2
:10C2A000022F01F055FC023450BBBD42F4D101F025
:10C2B0000FFC184A01361368C6F3080601331360F1
:10C2C000A8F800600AB0BDE8F081F30900EBC325CF
:10C2D000FDF7F6FA00230122CDE90633089509920D
:10C2E000019301F0E1FB06A801A901F083FC10B95C
:10C2F00001F0EEFBCAE701F0EBFB0AB0BDE8F0810C
:10C300000AB0BDE8F04101F0E3BB00BF20C8002047
:10C3100000C0030808000020022928BF02211828B5
:10C3200038B534BF044600240D4601F013FBDFF896
:10C3300030C004EB44022A445CF822201AB1821A6D
:10C34000B2F5FA7F0BD3012838BF012004EB440378
:10C350005919BDE838404CF82100FFF777BF38BDC8
:10C3600024C800202DE9F0414FF4907284B00021E0
:10C37000254805F023F84FF0000C4FF0FF3644F647
:10C3800045476546DFF88480214C0DF10D0E08EB22
:10C390000C130FCB8DE80F00BDF80030BB4214D159
:10C3A000DDF8020088B16A46002112F8013B4B40DB
:10C3B0007245E15CF9D19DF80D308B4205D1A84260
:10C3C00028BF6646A84228BF05460CF1010CBCF503
:10C3D000007FDCD1731C14D0731C0135C3F3080338
:10C3E0000C490D4A0B801560FCF7BEFF0446FCF7B4
:10C3F000B5FF21460246012004B0BDE8F041FFF739
:10C400008BBF00230125EBE724C8002000C00308F0
:10C410004815010820C8002008000020FFF716BFBB
:10C420002DE9F04F83468A4617464FF0000E44F63A
:10C430004549234B85B0B3F800C0DFF888800CF580
:10C440000076214DB6B20DF10D04774534D9CCF309
:10C45000080308EB03130FCB8DE80F00BDF8003085
:10C460004B4523D1DDF8021001B36A46002012F8D3
:10C47000013B4340A242E85CF9D19DF80D30834274
:10C4800014D18B4512D20EEB4E034AF82310DDF87F
:10C4900006200AEB83035A60BDF80A200EF1010E54
:10C4A0001A819DF80C205FFA8EFE9A720CF1010C35
:10C4B0001FFA8CFCB445C8D1704605B0BDE8F08FBA
:10C4C00020C8002000C0030848150108174B026867
:10C4D0009A4201D000207047002300B5DFF850E0F9
:10C4E000421E00F11E0C12F8011F4B4094451EF82D
:10C4F0000330F8D1C27F9A4201D0002000BD0379F9
:10C50000092BFAD8837B0A2BF7D8437F23B9807F86
:10C51000B0FA80F0400900BD012BEED1807FA0F180
:10C520002000B0FA80F0400900BD00BF304746430C
:10C53000481601080E4B02689A4201D0002070474D
:10C540000379102BFAD8002300B5DFF828E0421E4B
:10C5500000F11E0C12F8011F4B4094451EF80330E9
:10C56000F8D1C07FC01AB0FA80F0400900BD00BF0A
:10C5700031524556481601082DE9F04387B08846E8
:10C580009146054601F090FAFDF79AF90121002342
:10C590003F48CDE90133CDE9040102A801A9039385
:10C5A00001F028FBA0BBFDF78BF93A4EAC1E761BC1
:10C5B00005F11E0731190023012034F8022F01F084
:10C5C000C7FA28BBBC42F5D1334EA8F1020408F1EA
:10C5D0000E07A6EB080631190023012034F8022FBC
:10C5E00001F0B6FAA0B9BC42F5D12C4EA9F1020473
:10C5F00009F50077A6EB090601E0BC420ED031191F
:10C600000023012034F8022F01F0A2FA0028F4D010
:10C6100001F05EFA002007B0BDE8F0832048FFF784
:10C6200089FF70B11E4E1F4C1F4F214632880023D8
:10C63000012001F08DFA023402360028E8D1BC4214
:10C64000F3D101F045FA20222946114804F0A6FE54
:10C650000028DFD110224146144804F09FFE002834
:10C66000D8D140F202224946114804F097FE002832
:10C67000D0D10B48FFF75EFF40B12022084909489E
:10C6800004F08CFEB0FA80F04009C4E70120C2E754
:10C690000080000802800008228000083280000824
:10C6A00048C9002000840008208400082080000879
:10C6B000308000082DE9F8439348FFF707FF002872
:10C6C00079D00027DFF844E2DFF83C828146B8E801
:10C6D0000F00AEE80F0098E80F008EE80F008C4CBA
:10C6E0008C4DDFF834C28D4E8D4B326883F800904C
:10C6F0008C4B9A420DD10023721E06F10E0012F8E7
:10C70000011F4B408242E35CF9D1F27B9A4200F078
:10C71000A38001220023DFF810E20EF8012C814AE9
:10C72000CEF800304EF8092C804ACEF803304EF88F
:10C73000052C0EF10500AEF10A0212F8011F4B4064
:10C740009042E35CF9D18EF80630794BDCF800209A
:10C750009A4204D19CF80430022B00F08C80DFF860
:10C76000D48140F202220021404604F027FE022339
:10C7700088F8043000236E4A08F50070C8F80020DD
:10C7800008F1FF3212F8011F4B409042E35CF9D1EF
:10C7900088F8013220220021674804F00FFE674B21
:10C7A0002A689A4220D0654B32689A423CD0002FCA
:10C7B00033D1BDE8F8836248FFF788FE07460028BA
:10C7C00070D0DFF848E1DFF878818146B8E80F00E3
:10C7D000AEE80F005B4D98E80F00DFF86CC18EE803
:10C7E0000F005A4E4A4C7FE72B79102BDBD80023E1
:10C7F0006A1E05F11E0012F8011F4B408242E35CE5
:10C80000F9D1EA7F9A42CED10FCD4B4C0FC495E8B7
:10C810000F0084E80F00002FCBD0BDE8F843454A55
:10C820004B493A48FFF7A8BE3379102BBFD80023F5
:10C83000721E06F11E0012F8011F4B409042E35C8D
:10C84000F9D1F27F9A42B2D10FCE3B4C0FC496E899
:10C850000F0084E80F00AAE7B388002B3FF459AF1C
:10C86000F388002B3FF455AF96E80F00DFF8E0E0C7
:10C870008EE80F0069E700230CF1FF320CF5007021
:10C8800012F8011F4B409042E35CF9D19CF8012261
:10C890009A427FF464AF614640F20222254804F0D8
:10C8A000B9FD77E7092342F201022A4D2A49DFF850
:10C8B000ACC005F80A3C2A4BA86028822860686052
:10C8C000C5F80B3045F80E1C0346BCE8030045F8DC
:10C8D000051C9CF800100E4CA5F80F2005F1100661
:10C8E000A5F10F0245F8090C05F8011C12F8011F0B
:10C8F0004B40B242E35CF9D16B744FF00009054D37
:10C90000DFF814C0054EEFE6008000087CCB002065
:10C9100048160108008400083080000820800008C4
:10C9200044C900203058454375CB0020F401F40180
:10C93000304D4E5468C9002048C900203152455638
:10C9400000D8030800DC030830D8030820D8030807
:10C950006CCB00208ACB0020304746436C1701087F
:10C9600083044057004870477CCB0020014B187867
:10C97000704700BF44C9002070B509298AB0BDF8CE
:10C980003850BDF83C4001D80A2B02D900200AB02B
:10C9900070BD4FF0000C1646334ACDF821C08DF81B
:10C9A0000C100292CDF80DC0CDF811C0CDF815C015
:10C9B000CDF819C0CDF81DC0CDF824C0002949D14B
:10C9C0008DF81630002B3ED1002345F2407E40F218
:10C9D000834642F201019D4208BF35469C4208BF92
:10C9E0007446DFF888C00DF107020DF12600ADF89E
:10C9F0002510ADF82150ADF8234012F8011F4B402F
:10CA000082421CF80330F8D12022194902A88DF87F
:10CA1000273004F0C3FC10B901200AB070BD154ADC
:10CA2000154902A8FFF7A8FD0028AFD00122134B3B
:10CA30000F4D02AC1A700FCC0FC594E80F0085E8BB
:10CA40000F000120E9E71A4631460DF1170004F006
:10CA5000E1FCB9E70A4601460DF10D00019304F02F
:10CA6000D9FC019BACE700BF30474643481601089C
:10CA70007CCB002068C900206CCB002044C900207A
:10CA8000104B68B99888642809D00BD8322806D092
:10CA900011D80A2803D0142801D04FF4FA70704737
:10CAA000D888F0E7B0F5FA7FF9D007D87D28F6D01E
:10CAB000FA28F2D1F3E75328EFD1F0E7B0F57A7F07
:10CAC000EBD1ECE76CCB0020012862D800B56429DB
:10CAD00086468C4685B012D009D832290FD042D86C
:10CAE0000A290CD014290AD0002005B000BDB1F5E8
:10CAF000FA7F04D03AD87D2901D0FA29F4D1264B07
:10CB00000FCB8DE80F00BEF1000F29D0ADF806C0A5
:10CB10000023DFF888C00DF1FF320DF10E0012F88E
:10CB2000011F4B4090421CF80330F8D11A4A00997B
:10CB300012688DF80F3091421CD06946184A194886
:10CB4000FFF71AFD0028CFD09DE80F00DFF848C09E
:10CB50008CE80F000122144B1A70012005B000BDB3
:10CB6000ADF804C0D4E75329BED1C8E7B1F57A7F48
:10CB7000BAD1C4E7084B019A5B689A42DDD10B4BEE
:10CB800002991A689142D8D1039A5B689A42D4D12B
:10CB9000E3E70020704700BF6CCB00204816010877
:10CBA00068C900207CCB002044C9002074CB002041
:10CBB00017288C4616D8104B00EB4000C0EBC00085
:10CBC0001844421E002302E00133152B0CD012F84A
:10CBD000011F0029F8D1DBB2BCF1000F01D08CF8A5
:10CBE00000303BB900207047BCF1000F01D08CF839
:10CBF00000307047704700BF71C90020172821D846
:10CC0000152A38B5964601D9002038BD4FF0000CE2
:10CC100000EB40000C4CC0EBC00000F109031819F8
:10CC200044F803C0C0F804C0C0F808C0C0F80CC085
:10CC3000C0F810C080F814C012B109B104F0EAFBCA
:10CC4000012038BD0020704768C900201449154BE9
:10CC50000A689A4204D008B100230370002070478C
:10CC600010B50B79102B1C4614D800234A1E01F175
:10CC70001E0E12F801CF83EA0C03DFF82CC0964594
:10CC80001CF80330F5D1CA7F9A4203D100B1047079
:10CC9000064810BD08B100230370002010BD00BF7E
:10CCA00048C9002031524556481601084DC9002098
:10CCB0000221002300B50E4ADFF838E0DFF838C063
:10CCC000CEF800200EF500700EF1FF328EF8041041
:10CCD00012F8011F4B4090421CF80330F8D18EF837
:10CCE0000132044A054906485DF804EBFFF744BCED
:10CCF000304D4E5468C90020481601086CCB002006
:10CD00007CCB0020F8B50026074C084D04F1200725
:10CD1000A18854F8080BEE60002225F8106B01F092
:10CD2000DDF8BC42F4D1F8BDE01701089CCB00202F
:10CD30002DE9F04301389C46C3B283B0032BBDF804
:10CD40002860BDF82C409DF8305001D8032903D944
:10CD5000002003B0BDE8F083CDE90013E04617469C
:10CD600000F0F8FD0022DFF81CC1019B009981460C
:10CD70000CEB031E18010CF80010CEF80C20002953
:10CD800061D0012971D002293FD0621EB2F5FA7F2D
:10CD9000A646DDD26A1E632ADAD84FF47A71B1FB57
:10CDA000F4F101FB05F2632A5CD9DFF8DCE0AEFBAD
:10CDB00002E2B1EB521F4FEA521E98BF01F1FF3E53
:10CDC00072460EEB09050CEB000E891AAEF8022034
:10CDD0004FF00002AEF806200D9AAEF80410CEF81F
:10CDE000085022B10D9909EB0102CEF80C20012266
:10CDF0002649844401EBC30E51F83300BEF80410F9
:10CE00008CF8012001F06AF828E0002FA0D0B8F1DA
:10CE1000000F9DD0002E9BD0012209EB0701CEF818
:10CE200008101A49AEF8048001EBC30C51F8330026
:10CE3000BCF80410AEF80270AEF806608EF801205F
:10CE400001F04CF80AE011488EF8011000EBC30C19
:10CE5000BCF8041050F8330001F040F8012003B092
:10CE6000BDE8F08301229646ABE708480A4600EB8E
:10CE7000C30C8EF8011050F83300BCF8041001F018
:10CE80002DF8EBE79CCB00201F85EB51E017010844
:10CE90002DE9F84F00F05EFD002704464FF0010831
:10CEA000DFF8BC90DFF8BCB0A9F1040A9BF80030B1
:10CEB000012B10D9DBF80C30A3B1E31A002B11DBE6
:10CEC000002239F827105AF82700CBF80C20ABF8CD
:10CED000002001F003F80237082F0BF1100BE5D109
:10CEE000BDE8F88FDBF80830E31A002BF3DB5AF8C3
:10CEF000276039F8275014E0002229468BF80120DA
:10CF0000304600F0EBFFDBF80810BBF804309BF86C
:10CF100000200B44022ACBF8083015D0E31A002B6E
:10CF2000D9DB9BF80130002BE6D10122294630469F
:10CF30008BF8018000F0D2FFDBF80820BBF802304C
:10CF40001344CBF80830E9E7BBF80620013A92B267
:10CF5000ABF80620002AE1D18BF80020BBE700BF28
:10CF6000E41701089CCB00200020704720280ED039
:10CF7000212801D000207047072AFBD10A4B1868EE
:10CF80009A889B7908608A8000208B717047072AF5
:10CF9000F0D1054B8888D1F800C08A799880C3F811
:10CFA00000C000209A7170471C000020F8B50E6880
:10CFB0001EB3411E0546DFF84CC0DFF84CE01348B5
:10CFC000741809E0BCF8002011F8017F92B2A14268
:10CFD0008754ACF8003010D0BCF80030BEF8002008
:10CFE0000133C3F30A0392B29A42EBD1084A1368A1
:10CFF000013B33441D446D1A1560064804F004F8E3
:10D000000020F8BDF2D30020F0D30020F4D300209C
:10D01000E0CB00200402002008B50849084803F0CE
:10D02000CDFF00230749084A05480B80138003F011
:10D03000EBFF003818BF0120404208BD34DC00205F
:10D0400004020020F2D30020F0D3002070B51F4B63
:10D050001F4C1B88228882B09B1AC3F30A03402B03
:10D060001A4628BF402273B100211A481A4D23885E
:10D070000B44C3F30A03013115F803C08BB29A4283
:10D0800000F801CBF3D8EFF3108672B6134DD5F844
:10D09000B83213B1D3F814321BB186F3108802B042
:10D0A00070BD0C492846019203F07EFF284603F02C
:10D0B0008DFF86F310880028F1D12388019A1A4445
:10D0C000C2F30A02228002B070BD00BFEECB002086
:10D0D000ECCB0020F4DB0020F0CB00200402002089
:10D0E000034A044B10881B88C01AC0F30A0070471B
:10D0F000F2D30020F0D30020094B0A4A1988138884
:10D1000089B29BB2994209D011881388064801332D
:10D1100089B2C3F30A03405C138070470020704754
:10D12000F2D30020F0D30020F4D300200A4B0B4AA6
:10D130001B88B2F800C0A3EB0C03C3F30A039842A8
:10D1400008D21288064B1044C0F30A001B5C012071
:10D150000B70704700207047F2D30020F0D30020FE
:10D16000F4D3002091422DE9F8430F463CD281468A
:10D170009046294DD5F8B842002C3AD000F0EAFB91
:10D18000064609E0FCF79CFB00F0E4FB801B6328EB
:10D1900036D8D5F8B84264B3D4F81432012BF1D0A4
:10D1A000A8EB0704A4B2402C28BF402409EB0701D8
:10D1B00022461A4804F02EF9EFF3108672B6D5F81D
:10D1C000B832A3B1D3F814328BB9224613491248AE
:10D1D00003F0EAFE104803F0F9FE86F3108840B928
:10D1E0003C44A7B2B845C5D83846BDE8F88386F3B5
:10D1F00010880B4A3846136801331360BDE8F88382
:10D200000849074A0B68384601330B60136801333D
:10D210001360BDE8F88300BF04020020F4DB0020A7
:10D22000E8CB0020E4CB00200A4600B5002183B003
:10D230000192FFF797FF019A801A18BF012003B0EF
:10D2400000BD00BF70B5002936D00C464FF0000E6F
:10D25000DFF86CC01B4D1C4E01380BE0BCF8002001
:10D2600010F8011F0EF1010E92B2A645B154ACF8B0
:10D2700000300ED0BCF800302A880133C3F30A0313
:10D2800092B29A42EAD1114BA4EB0E041A681444EC
:10D290001C60BCF800202B8892B29BB29A420AD044
:10D2A0000B4BD3F8B83233B1D3F814321BB9BDE805
:10D2B0007040FFF7CBBE70BDDFF804C0014DE8E75A
:10D2C000EECB0020ECCB0020F0CB0020E8CB002000
:10D2D00004020020084A094B12881B8892B29BB2B4
:10D2E0009A4208D0064BD3F8B83223B1D3F814329F
:10D2F0000BB9FFF7ABBE7047EECB0020ECCB0020A4
:10D3000004020020014B1868704700BFE8CB0020E2
:10D31000014B1868704700BFE4CB002038B9094BB7
:10D320001A78FF2A02D01A7801321A707047012841
:10D33000FCD1054B1A78FF2AF8D01A7801321A70FE
:10D34000F4E700BFDDCB0020DCCB0020014B1878D8
:10D35000704700BFDDCB0020014B1878704700BF3D
:10D36000DCCB0020014B1868704700BFE0CB0020E9
:10D370002DE9F041194C82B0D4F8B83253B301937F
:10D38000074600F0E7FA164E8046164D019B02E074
:10D39000D4F8B832F3B1D3F8140228B932882B8804
:10D3A00092B29BB29A4216D0FCF78AFA32882B8846
:10D3B00092B29BB29A4207D0D4F8B83223B1D3F8D4
:10D3C00014320BB9FFF742FE00F0C4FAA0EB0800DC
:10D3D000B842DDD3012002B0BDE8F0810402002094
:10D3E000EECB0020ECCB0020054A136833B9B0F532
:10D3F000806F03D8012303481360704700207047F3
:10D4000050E1002054E10020034B984200D07047C7
:10D410000022024B1A60704754E1002050E10020C6
:10D420004FF4C05030B5022100250322194C87B0BB
:10D43000A36943F00403A361A369029003F004030A
:10D4400000F18040CDE90315009302A900F570407A
:10D45000009B059200F02EFC4FF40072002302A9FD
:10D460000D48CDE90223049500F024FC63690621F0
:10D4700043F48053636163692A4603F48053019344
:10D480004320019B00F090FA432000F0BFFA07B060
:10D4900030BD00BF00100240000801400146D0F836
:10D4A000D80401F29C4102F0FBBF00BF01EBC103B5
:10D4B00000EB8303D3F86022D0F8D80403F026B839
:10D4C00001EBC10300EB83031A6AD0F8D80403F020
:10D4D0005FB800BFD0F8D80403F002B910B5044615
:10D4E0000020FFF71BFFD4F8D804012103F0E0F877
:10D4F000D4F8D804BDE8104003F0B2B8D0F8D8048E
:10D5000003F0DAB8D0F8D80403F0E0B8D0F8D804C3
:10D5100003F0F6B8D0F8D80403F0F0B8D0F8D80487
:10D5200003F0F0B810B504460120FFF7F7FED4F879
:10D53000D804BDE8104003F0E7B800BF70B504237D
:10D5400000254FF0A0420226104CC4F8D804C0F8C1
:10D55000C0422046237122606581E671A57300F008
:10D56000C1FC8021204601F00FFA294640222046C6
:10D5700001F0E4F980220121204601F0DFF9402288
:10D580003146204601F0DAF9284670BD74DC0020EF
:10D5900008B5D0F8C00200F00FFD002008BD00BFA4
:10D5A000944608B51A46D0F8C002634601F092F8D6
:10D5B000002008BD08B5D0F8C00201F0C9F800206D
:10D5C00008BD00BF08B5D0F8C00201F031F9002055
:10D5D00008BD00BF08B5D0F8C00201F073F9002003
:10D5E00008BD00BF0A06D0F8C03206D401EBC10165
:10D5F00003EB810393F85602704701F07F0101EBC2
:10D60000C10103EB8103987D704700BF08B5D0F8D6
:10D61000C00201F045F8002008BD00BF08B5D0F8F1
:10D62000C00201F0EDF8002008BD00BF08B5D0F839
:10D63000C00201F0C3F8002008BD00BFD0F8C0024E
:10D6400001F0D4B8122301480B8070474400002039
:10D65000042301480B8070474000002008B50A46AB
:10D660000248034903F018FB014808BD7817010878
:10D670006CE5002008B50A460248034903F00CFB9C
:10D68000014808BD941701086CE5002008B50A465A
:10D690000248034903F000FB014808BDAC1701082C
:10D6A0006CE5002010B582B00C46FFF75BF90279FB
:10D6B0008AB1411D01900C4803F0ACFE0020019B93
:10D6C00022461B79084C0949E054204603F0E4FA4D
:10D6D000064802B010BD22460449054803F0DCFAB2
:10D6E000024802B010BD00BF54E500206CE50020E8
:10D6F000B817010810B582B00C46FFF733F9827BEA
:10D700008ABB4FF01A0C2149D1F8E837D1F8F0075D
:10D71000A4F800C013EB000C02D11D4802B010BDEC
:10D720001B4BD1F8ECE7194603F110044FEA1C70CB
:10D73000092894BF303037308870CA7002318C426B
:10D740004FEA0C1CF2D1002012494FEA1E72092A3E
:10D7500094BF303237329A74D87402338B424FEA16
:10D760000E1EF2D1D9E700F10F0101900A4803F033
:10D7700051FE0020019B22469B7B074C0749E05449
:10D78000204603F089FA054802B010BD00F0FF1FE3
:10D79000240000202C00002060E500206CE5002023
:10D7A000704700BF70B5044616460846FBF7EEFD0D
:10D7B0000A4AD4F818E0906A094B1FFA8EF21A61EF
:10D7C00085B24FEA104C4FEA1E425A6131469D61C4
:10D7D0002046C3F81CC0FBF7FFFDFEE700ED00E0AC
:10D7E000006C00401EF0040F0CBFEFF30880EFF355
:10D7F000098001217246FFF7D5BF00BF1EF0040F5C
:10D800000CBFEFF30880EFF3098002217246FFF7A7
:10D81000C9BF00BF1EF0040F0CBFEFF30880EFF389
:10D82000098003217246FFF7BDBF00BF1EF0040F41
:10D830000CBFEFF30880EFF3098004217246FFF775
:10D84000B1BF00BF704700BF704700BF704700BF47
:10D8500000F074B8014801F061BF00BF00850020EE
:10D86000014801F05BBF00BF00850020014801F0C6
:10D8700055BF00BF00850020014801F04FBF00BF29
:10D8800000850020014801F049BF00BFD884002076
:10D89000014801F043BF00BFD8840020014801F0D7
:10D8A0003DBF00BFD8840020014801F037BF00BF52
:10D8B000D8840020014800F095BB00BF74DC002034
:10D8C000704700BF704700BF4FF47A7310B50F491F
:10D8D000044609780E4AB3FBF1F0126882B0B2FB3D
:10D8E000F0F000F0A1F808B90F2C02D9012002B025
:10D8F00010BD0246019021464FF0FF3000F054F871
:10D90000044B01981C6002B010BD00BF78000020DD
:10D91000740000207C000020074A08B5136803202B
:10D9200043F01003136000F02DF80020FFF7CCFF48
:10D93000FFF7C8FF002008BD00200240034A044B47
:10D9400011681B780B441360704700BFACE50020E2
:10D9500078000020014B1868704700BFACE500203C
:10D9600038B50446FFF7F6FF631C054602D0044BAA
:10D970001B781C44FFF7EEFF401BA042FAD338BDD2
:10D98000780000204FF6FF0C06490302CA6803F432
:10D99000E06302EA0C02134343F0BF6343F4003335
:10D9A000CB60704700ED00E0164B00B5DB68C3F3B9
:10D9B0000223A3F1030CBCF1040F19D84FF0FF3E72
:10D9C000C3F107030EFA03F3DB430EFA0CFE22EA5F
:10D9D0000E02194001FA0CF1114300284FEA01111F
:10D9E0000ADB00F1604000F5614080F8001300BDE3
:10D9F00000220F239446ECE7034B00F00F00C318FE
:10DA0000197600BD00ED00E0FCEC00E0002807DB2B
:10DA1000012300F01F01034A40098B4042F82030E7
:10DA2000704700BF00E100E00138B0F1807F01D312
:10DA3000012070474FF0E02300224FF0F00C072147
:10DA40005861034880F823C09A61104619617047F5
:10DA500000ED00E0124BDB6813F0100305D010233B
:10DA60001049CA6942F00202CA610D4AD2685007E1
:10DA700006D50C4943F00403CA6942F00102CA61A9
:10DA8000074AD169C90708D50648C16941F00401B0
:10DA9000C161D16921F00101D161014AD3607047B0
:10DAA00000200240B0E50020064B186910F080000D
:10DAB00006D00549054A59605A601869C0F3C0107C
:10DAC000704700BF0020024023016745AB89EFCDBE
:10DAD000034A0020136943F080031361704700BFBD
:10DAE0000020024038B50446FFF734FF174AD368D8
:10DAF000DD070CD5651C1CD005462CB3FFF72AFFAB
:10DB0000401BA04220D8114AD368DB07F6D40F4B44
:10DB1000DA68900644BF2022DA600C4BDA68D1063E
:10DB20000ED4DA69D2070BD4D86810F0040007D1FC
:10DB300038BDD368D907EAD5D368D907F9D4E6E761
:10DB4000FFF788FF012038BD032038BD00200240C8
:10DB50002DE9F84F254E357E012D43D01C4601237B
:10DB600005464CF250308A4617463376FFF7BAFF27
:10DB7000A0BB012D03D0022D14BF042502254FF0B8
:10DB80000009C846DFF868B00AEB4505C9F1200373
:10DB9000C6F81C8027FA09F004FA03F31843A9F128
:10DBA0002002DBF8103024FA02F240EA020C43F0C3
:10DBB0000103CBF810304CF25030AAF800C0FFF748
:10DBC00091FFDBF810300AF1020A23F0010309F19A
:10DBD0001009CBF8103008B9AA45D7D10023337605
:10DBE000BDE8F88F0220BDE8F88F00BFB0E5002047
:10DBF000002002402DE9F8432C4E337E012B52D0F9
:10DC00000123337603688046022B89464CF250305C
:10DC10002ED0FFF767FF074668BB4FF0FF33C9F808
:10DC20000030D8E9025305EBC3239D4223D2204C98
:10DC300007E005F50065D8E9023203EBC223AB42E9
:10DC40001AD9F76123694CF2503043F00203236183
:10DC50006561236943F040032361FFF743FF2369B4
:10DC600023F0020323610028E3D0C9F8005003E049
:10DC7000FFF738FF20B1012000233376BDE8F88399
:10DC80000B4CF06123694CF2503043F004032361E4
:10DC9000236943F040032361FFF724FF236923F046
:10DCA00004032361E8E70220BDE8F883B0E5002023
:10DCB000002002402DE9F04F0E6883B0002E00F0E6
:10DCC000AC800022044601254FF00F08924613460F
:10DCD000784F06E0013336FA03F002F1040200F057
:10DCE0009C8005FA03F030EA060E00EA060CF1D13A
:10DCF0004E68122E00F29980122E0DD8DFE806F041
:10DD0000A70AB3D70C0C0C0C0C0C0C0C0C0C0C0C48
:10DD10000CBBB700D1F80CA0BCF1FF0F99BFA64611
:10DD2000164604F1040EA2F12006DEF8000008FAFF
:10DD300006F920EA09000AFA06F63043CEF8000098
:10DD40004868C6006FD5BE6903F0030946F00106B6
:10DD5000BE61BE694FEA890906F001060196019E7F
:10DD600023F0030606F1804606F58036D6F808E073
:10DD700008FA09FB2EEA0B0EDFF83CB15C4513D024
:10DD80000BF5806B5C457AD0DFF830B15C4563D031
:10DD9000DFF82CB15C450CBF4FF0030B4FF0040BC8
:10DDA0000BFA09F94EEA090EC6F808E0DFF814E1AB
:10DDB00010F4801FDEF8086014BF46EA0C0626EA5D
:10DDC0000C06CEF80860DFF8FCE010F4001FDEF867
:10DDD0000C6014BF46EA0C0626EA0C06CEF80C606E
:10DDE000DFF8E0E010F4003FDEF8046014BF46EA1C
:10DDF0000C0626EA0C06CEF80460324E10F4803F82
:10DE000030680DD040EA0C0030600E68013336FAFD
:10DE100003F002F104027FF464AF03B0BDE8F08FB9
:10DE200020EA0C0030600E6854E7DFF89CE076458D
:10DE30000DD02BD8AEF5801E764508D00EF5702E8D
:10DE4000764504D0AEF5801E76457FF465AF8E68CA
:10DE500036BB4FF0040A5FE74FF0020B0BFA09F9EB
:10DE60004EEA090EA0E7C86800F1080A54E7C8683E
:10DE700000F10C0A50E7C86800F1040A4CE74FF0C3
:10DE8000010B0BFA09F94EEA090E8DE7DFF83CE0C9
:10DE90007645DCD00EF5803E76457FF43DAFD6E783
:10DEA000012E4FF0080A0CBF2061606134E74FF08B
:10DEB000000A31E700100240000801400010014054
:10DEC0000014014000040140000022100000311045
:10DED0008368194214BF01200020704702B9090469
:10DEE0000161704730B583B0D8B190F895340446DD
:10DEF00003F0FF02002B5AD00322002384F895245C
:10DF0000A371206801F044FE237C251D8DF80030AC
:10DF1000206895E80E0001F085FD30B1022384F8F9
:10DF200095340125284603B030BD0146206801F034
:10DF300037FE0028F2D194F804C0BCF1000F21D0C4
:10DF4000234622464FF0010E01461075D085013060
:10DF50006045C2E9071182F815E0117642F8241FE6
:10DF6000F3D100210A4683F8541201316145C3E917
:10DF7000972283F8552283F85822C3F8642203F1CC
:10DF80002403F0D1237C20688DF8003095E80E0042
:10DF900001F08AFE05460028C0D101236074206884
:10DFA00084F8953402F0D2F9284603B030BD80F8E9
:10DFB0009424FFF735FA9FE790F89434012B0FD0A3
:10DFC00010B501230446006884F8943401F0D8FDAC
:10DFD000206802F0ABF9002384F89434184610BD91
:10DFE000022070472DE9F04F0668044687B030469E
:10DFF00002F0EAF910B107B0BDE8F08F05462068DD
:10E0000002F0B4F90028F6D0D6F808382068C3F337
:10E010000D23C4F8D43402F0A9F98107236806F56A
:10E02000006903D55A6902F002025A61184602F0EB
:10E030009DF9C206236814D59A6922F010029A61EC
:10E04000376A07F4F012B2F5802F07F00F0800F0DE
:10E05000DB82B2F5402F00F0FD819A6942F0100298
:10E060009A61184602F082F9070300F19181206855
:10E0700002F07CF910F4802F206840F0458102F016
:10E0800075F90028C0F2A582206802F06FF9030537
:10E0900000F18480206802F069F910F4805F206844
:10E0A00040F0E48002F062F910F4005F206840F074
:10E0B000BD8002F05BF9000700F1AF80206802F03C
:10E0C00055F901061DD5B36923F08003B3612279A8
:10E0D000012A16D92746012504E00135AA4207F195
:10E0E00024070ED997F87B32012BF6D105EBC50139
:10E0F00004EB8101206801F5157102F025F8227901
:10E10000EBE7206802F032F9C20245D52279012AF4
:10E1100025D906F512632746B046012526461C463A
:10E1200006E00135AA4204F1200407F1240714D9BE
:10E1300097F83C302168012BF3D10029F1DA05F082
:10E140000F0101EBC10187F83B3006EB810130681C
:10E15000143101F0F9FF3279E3E73446464620688E
:10E16000436903F48013436102F000F9830220D471
:10E17000206802F0FBF840006FD4206802F0F6F847
:10E1800041077FF538AF23685D686A0700F15B825D
:10E190005A682A435A602EE72068E5E7D9F8083024
:10E1A000DF0700F155822068436903F4006343618F
:10E1B00071E794F804C0BCF1010F28D9234601216E
:10E1C00006F5326203E0614503F124031FD093F8A2
:10E1D0007C021568012801F1010102F12002F2D14F
:10E1E000002DF0DAD4F8D47487EA1547FF07EAD493
:10E1F00083F87B02B06940F08000B0617069050669
:10E20000E1D4D9F8043043F40073C9F8043020682D
:10E21000436903F400134361ABE72046FFF75AF963
:10E220002068436903F00803436148E702F0D0F82F
:10E23000206801F0DDFDE071256800F0EFFEE27975
:10E240000146284601F022FC2046FFF747F92068E6
:10E25000436903F4005343612BE72046FFF75EF95F
:10E260002068436903F08043436187E7D9F80430AD
:10E27000102123F00103C9F8043001F0C7FC207914
:10E28000D8B14FF67F3106F5106399601A680135F1
:10E2900022F400121A60C3F80812D3F80022854253
:10E2A00022F40012C3F80022D3F8002203F1200365
:10E2B00042F00062C3F8E021E7D1D9F81C3043F006
:10E2C0000113C9F81C30E37B002B00F0B480D9F8AF
:10E2D000843043F00B03C9F88430D9F8443043F05C
:10E2E0000B03C9F84430D6F80038206823F4FE63E5
:10E2F000C6F8003804F29C4102F07AF820684369BD
:10E3000003F480534361CDE602F03CF8002800F0AE
:10E31000B480804602950022B3462546206806F563
:10E32000106704E001324FEA58082434203718F00F
:10E33000010F07D101324FEA58082434203718F072
:10E34000010FEFD0D6B23146019202F02DF810F055
:10E35000010F0346019A40F0F980190744BF0821D4
:10E36000B960D80644BF1021B960590644BF4021A6
:10E37000B960980700F1DB80190600F188802868F1
:10E380005FEA580398467ED0013224342037D6E71E
:10E39000206801F0EFFF074600283FF468AE2146F1
:10E3A000A0460295B34600250B4606F5306403E00F
:10E3B00001357F0820342433F80705D401357F0860
:10E3C00020342433F807F3D5D8F80000E9B20193DC
:10E3D00001F0E0FF10F0010F0646019B5FFA85FA9D
:10E3E00040F0C880310700F1DA80F20644BF102205
:10E3F000A260B00710D5DBF81420110605D5D9F8B6
:10E40000042042F48062C9F8042093F85722012ABC
:10E4100000F02C810222A260B20644BF2022A2603A
:10E42000B60444BF4FF40052A2607F0827D00135E4
:10E4300020342433C6E7D9F8143043F4005343F0B2
:10E440002B03C9F81430D9F8103043F00B03C9F886
:10E45000103048E7082204F29C41304601F0D2FE19
:10E4600008EBC80204EB8202D2F86812C7F30A1361
:10E470000B44C2F868322368EFE52068FFE55E468A
:10E480004446029DF3E52C465E46029DF7E5D4E93D
:10E49000091E8E453FF673AFE069A1EB0E0C844573
:10E4A00028BF844628680CF1030C00F5106303EBC9
:10E4B00042139A469B6905909BB2B3EB9C0FC0F048
:10E4C000D18001970495374673460E460546039260
:10E4D00018E0E3693A469E4228BF1E462846B3B27A
:10E4E000216A01F07FFE236AF01C33442362A36A91
:10E4F0003344A362DAF81820666A92B2B2EB900F46
:10E50000C0F0AA80B342A6EB0306E2D3DDE90325FF
:10E51000019F28680126059B02F00F0ED3F83418DE
:10E5200006FA0EF621EA0601C3F8341828E7114668
:10E5300058460393019201F069FBE17D019A01299C
:10E54000039B00F09D800221B96015E702F00F0ED9
:10E550000122D9F834C002FA0EFE2CEA0E0C039008
:10E56000C9F834C03146BA602846FEF7A9FF039BBC
:10E57000019AF2E60122A260D8F800204649106C08
:10E5800002F5306202EB45128842D2F808C034D15D
:10E590001CF4004F2CD04FF40041916022E7082278
:10E5A000A260D8F800203D49106C02F5306202EB01
:10E5B00045128842D2F808C005D91CF4004F1CBF90
:10E5C0004FF40041916040460193FEF767FF019BC5
:10E5D0000BE7D9F80430204623F00103C9F80430D2
:10E5E000FEF790FF2068436903F0004343614CE568
:10E5F0001CF0200F1CBF2021916051464046019322
:10E60000FEF754FF019BEDE647F6F07217423FF428
:10E6100024ADC7F30A12174608EBC80304EB8303C3
:10E62000D3F860123046019301F0ECFD019BD3F862
:10E6300060223A44C3F86022D3F868223A44C3F80F
:10E640006822236809E52046FEF76CFF23689FE5F2
:10E650002046FEF753FFA6E59E463146049D019FE6
:10E66000039A286871453FF68BAE53E70022514666
:10E6700083F8572240460193FEF748FF019BC9E605
:10E6800000212846E175314603920193FEF742FFCF
:10E69000039A019B57E700BF0A31544F0A30544F89
:10E6A000034690F89404012811D04FF0010C00B5F6
:10E6B000186883B0597483F894C4019301F024FE60
:10E6C00000221046019B83F8942403B000BD022071
:10E6D000704700BF10B501F00F0E0EEBCE0C09060F
:10E6E00082B04FEA8C0C26D44FF000040CF5157163
:10E6F00084448CF8554201448A604A7881F800E0ED
:10E700000B710AB1A1F81AE0022B04BF00234B7170
:10E7100090F89434012B17D003460122006883F847
:10E720009424019301F06CFB00221046019B83F8B6
:10E73000942402B010BD4FF001040CF11401844484
:10E740008CF815400144D7E7022002B010BD00BF8D
:10E7500001F00F0202EBC20309064FEA83031DD446
:10E760004FF0000C03F515710144034483F855C2C2
:10E770000A7090F89434012B1DD00346012200B595
:10E78000006883B083F89424019301F081FB002298
:10E790001046019B83F8942403B000BD4FF0010C98
:10E7A00003F114010144034483F815C00A7090F882
:10E7B0009434012BE1D10220704700BF10B5002432
:10E7C00001F00F0101EBC10E00EB8E0C8CF854121E
:10E7D0008CF855420068CCF86022CCE999340CF5ED
:10E7E000157101F0B7FB204610BD00BF01F00F010D
:10E7F00001EBC10100EB8100D0F86802704700BF57
:10E8000038B50125002401F00F0101EBC10E00EB2A
:10E810008E0C8CF814108CF815500068CCF8202061
:10E82000CCE909340CF1140101F094FB204638BD09
:10E83000037901F00F02934234D30B0626D44FF034
:10E84000000C01EBC1018B0003F515710344014479
:10E8500083F855C24FF0010C0A7081F802C090F89D
:10E86000943463452CD0034600B5006883B083F828
:10E8700094C4CDE9003201F0EDFCDDE900329AB13B
:10E880000022104683F8942403B000BD4FF0010C21
:10E8900002EBC2039B0003F114010344014483F81B
:10E8A00015C0D7E70120704703F29C41186801F0BA
:10E8B0009FFD00221046009B83F8942403B000BD06
:10E8C00002207047037901F00F02934233D310B551
:10E8D00002EBC203090682B04FEA83031BD4002473
:10E8E00003F51571034483F85542002401440A706E
:10E8F0008C7090F89434012B1AD0034601220068E2
:10E9000083F89424019301F0D3FC2046019B83F803
:10E91000944402B010BD012403F1140103445C755A
:10E92000002401440A708C7090F89434012BE4D1D7
:10E93000022002B010BD0120704700BF00B5D0F822
:10E9400000E0DEF8243029B943EA02430020CEF883
:10E95000283000BDDEF82800013903EB104C09D047
:10E9600000230EEB8300D0F8040101338B420CEB43
:10E97000104CF6D140314CEA02420EEB810E0020E1
:10E98000CEF8042000BD00BF03461B68002059627A
:10E99000704700BF002800F0F38170B5036804469B
:10E9A000D80782B035D598494A6802F00C02042A8B
:10E9B00000F044814A6802F00C02082A00F03A8113
:10E9C000A368B3F5803F10D0002B00F06281B3F54F
:10E9D000A02F00F0D7818C4B1A6822F480321A6085
:10E9E0001A6822F480221A6004E0874A136843F40C
:10E9F00080331360FEF7AEFF054605E0FEF7AAFF81
:10EA0000401B642800F242817F4B1B689B03F5D5B5
:10EA10002368980729D57C4A516811F00C0F00F043
:10EA2000E180516801F00C01082900F0D78063698A
:10EA3000002B00F066810122744B1A60FEF78AFFFA
:10EA4000054605E0FEF786FF401B022800F21E8106
:10EA50006D4B1B689E07F5D56B49A2690B6823F0C7
:10EA6000F80343EAC2030B602368190729D45E0741
:10EA70004DD5654BDA69D50000F1DA800126DA69F7
