:04000005080081E48A
:020000040800F2
:108000000000012015EA000879B200087DB20008DE
:1080100081B2000885B2000889B2000800000000A3
:108020000000000000000000000000008DB2000809
:1080300091B200080000000095B2000899B2000853
:108040005DEA00085DEA00085DEA00085DEA0008F4
:108050005DEA00085DEA00085DEA00085DEA0008E4
:108060005DEA00085DEA00085DEA00085DEA0008D4
:108070005DEA00085DEA00085DEA00085DEA0008C4
:108080005DEA00085DEA00085DEA00089DB20008AC
:10809000A9B20008B5B20008C1B200085DEA000844
:1080A0005DEA00085DEA00085DEA00085DEA000894
:1080B0005DEA00085DEA00085DEA00085DEA000884
:1080C0005DEA00085DEA00085DEA00085DEA000874
:1080D0005DEA00085DEA00085DEA00085DEA000864
:1080E0005DEA00085DEA00085DEA000800000000A3
:1080F0000000000000000000000000000000000080
:1081000000000000000000005DEA00085DEA0008D1
:108110005DEA00085DEA00085DEA00085DEA000823
:108120005DEA00085DEA00085DEA00085DEA000813
:108130005DEA00080000000000000000CDB2000869
:10814000D9B20008E5B20008F1B20008FDB200089B
:10815000000000000000000000000000000000001F
:10816000000000000000000000000000000000000F
:1081700000000000000000000000000000000000FF
:1081800000000000000000000000000000000000EF
:1081900000000000000000000000000000000000DF
:1081A00000000000000000000000000000000000CF
:1081B00000000000000000000000000000000000BF
:1081C00000000000000000000000000000000000AF
:1081D000000000000000000000000000000000009F
:1081E0005FF8E0F153B94AB9002908BF00281CBF65
:1081F0004FF0FF314FF0FF3000F00CB8ADF1080C3C
:108200006DE904CE06F02CFCDDF804E0DDE9022384
:1082100004B07047704700BF034613F8012B002AD3
:10822000FBD1181A013870470348044B834202D02F
:10823000034B03B1184770478C0100208C010020CC
:10824000000000000548064B1B1AD90F01EBA301E3
:10825000491002D0034B03B1184770478C0100202E
:108260008C0100200000000010B5064C237843B9B3
:10827000FFF7DAFF044B13B10448AFF3008001238A
:10828000237010BD90010020000000000CEE0008DB
:1082900008B5054B1BB105490548AFF30080BDE8A3
:1082A0000840FFF7CFBF00BF00000000940100208E
:1082B0000CEE000870B5884C9EB003F051F8E369ED
:1082C000864D43F08053E361E369854803F08053B2
:1082D0000093009BE369342243F00063E361E369A8
:1082E000002103F000630193019BAB68012503703B
:1082F00011A806F051FD202200210DEB0200CDE96E
:108300000311CDE90511079106F046FD4FF48033C6
:108310004FF4E01212931A924FF48033022210A805
:10832000CDE91823109504F059F808B172B6FEE7AC
:1083300010230F9008A8089304F09AFB034608B195
:1083400072B6FEE70F220593079302231946CDE983
:1083500003234FF4806303A8069304F0E3FA08B103
:1083600072B6FEE7A3695F4A43F00103A361A36904
:10837000022603F001030893089B536810A923F019
:10838000E06343F000735360A3694FF4005243F07D
:108390000403A361A36903F004030293029BA3698E
:1083A00043F01003A361A369044603F01003039391
:1083B000039B012312904C48CDE91023139603F040
:1083C0009DF92A464FF40051474803F0ABFA4FF4A9
:1083D00000720023454810A9CDE91023129403F040
:1083E0008DF94FF48063404810A91093CDE91154E2
:1083F000139603F083F9264622464FF400644FF4A7
:108400008061394803F08EFA374810A9109403F0C0
:1084100075F921464FF480543246334803F082FA0E
:10842000314810A9109403F069F921464FF4004433
:1084300032462D4803F076FA2C4810A9109403F028
:108440005DF921463246294803F06CFA2849294A49
:1084500040F2E1430A6003220846C1E9012304F027
:108460009BFF0446002834D102F0FEF901F0D8FC4D
:10847000204602F045FB204B1860284602F040FBE6
:108480001D4B01465860186801F082F9032120460F
:1084900000F0F2FE22461949194805F0B3FC1949CB
:1084A000174805F0C5FC1849154806F061FA14484C
:1084B00005F0C8FC0E4804F09BFF4FF400710B4818
:1084C00003F02AFA01F06AF802F020F900F0DEFE6B
:1084D000F0E772B6FEE700BF00100240006C0040FB
:1084E000AC010020000001400010014000080140E4
:1084F000B0010020003000400000002054000020A7
:10850000BC0100204801002008000020014B187821
:10851000704700BFAC010020014804F069BF00BFF4
:10852000B0010020BFF34F8F0549064BCA6802F423
:10853000E0621343CB60BFF34F8F00BFFDE700BF86
:1085400000ED00E00400FA05002000B5114B83B0F7
:10855000DA69DFF844C042F08052DA61DA690F4923
:1085600002F080520092009ADA6942F00062DA6109
:10857000DB690B4A03F000630193019BDCF80030D8
:1085800043F48073CCF80030C2F8F00F4860FFF776
:10859000C9FF00BF0010024000700040006C0040A6
:1085A0000040002070B51030C2B01C468DF80400A9
:1085B0008DF805108DF8063033B12AB111460DF152
:1085C00007001A4606F014FC02F0E8FE03340646E3
:1085D00007E0FFF7A1FF02F0E1FE801BB0F5617F2D
:1085E00005D2214601A802F0CBFB0028F1D142B010
:1085F00070BD00BF2DE9F04FADF51F7D02F07EFB91
:1086000030B9B04A106000200DF51F7DBDE8F08F35
:1086100002900DF11601002002F096FB9DF8164025
:10862000029B44BB162B1F4628BF16279846A64E12
:108630005DADBFB22946A0B202F086FB32782B783E
:108640009A4215D10134A74206F10106F2D1B8F1E0
:10865000150F00F2818502F0A1FE9A4A1368002BE3
:10866000D0D0C01AB0F5FA7FCDD300231360A1E0BB
:1086700043469DF81640A02C00F0EF807BD9BE2C1D
:1086800000F29D80BA2C40F29580BC2C00F0F38063
:10869000BE2C00F0A683042B40F294830DF1170545
:1086A000B4F1BB09294606AF4FF00100029318BF91
:1086B0004FF0010902F048FB3946022002F044FB6A
:1086C000394603209DF8184002F03EFB04204FF08D
:1086D00005084FF0000B9DF81810029B44EA012A90
:1086E000039007A9029302F02FFB9DF81C20082A93
:1086F00060D8029BB9F1000F00D1904408F1010449
:108700009C4200F25F8300271CAE02953146B8B24E
:10871000013702F019FBA74206F10106F6D100224B
:108720001CA9029D1CAB01EB080013F8011B83423E
:1087300082EA0102F9D11CA911F80830934239D11B
:108740002B789DF81C208DF874318DF87C218DF8E4
:1087500075B1CDF878A18DF87691B9F1000F00F0E0
:1087600043830023CDF87D31CDF881315DA801F040
:10877000A3F9A0B248E7902C62D0922C1AD102F053
:1087800035F9932305468DF87431827B00F10F0192
:108790000DF5BB708DF8752106F02AFBFF234B4ABF
:1087A000A97B5DAC127820460C44A270E3700431C2
:1087B00002F0E6FA01200DF51F7DBDE8F08F403490
:1087C000E4B20E2CF6D8012B00F086800DF11705CF
:1087D00029460120029302F0B7FA2A78029B941CE2
:1087E000A34279D362B100261CAFB01C394680B2D7
:1087F00002F0AAFA2B780136B34207F10107F4D848
:10880000334E33680133336002F0C8FD9DF8162003
:108810000746A2F1C00328780E2B00F20485DFE89A
:1088200013F09F022801C402EB00CA005C0197000C
:108830006F02EF011002070194017E01BE016B007F
:1088400091232249234A0C7812785DA803214470B1
:108850008270037002F094FAACE7002001F01CF97A
:108860000346A1241A0A5DA8032104704270837094
:1088700002F086FA9EE74FF00009062B40F2A28232
:10888000002634460DF1170529460120029302F017
:108890005BFADDF8088006AFB01C394680B202F002
:1088A00053FA3B78F20001369340042E44EA030465
:1088B000F2D106204346A2464FF007084FF0010BC5
:1088C00003900EE780040020A4F00008910400202B
:1088D0008C0400209004002002F060FDBD4B1A685B
:1088E000002A00F07C82801AB0F5FA7FFFF48BAE8C
:1088F000002201201A6087E6022840F2B4829DF827
:108900007050013DEDB2012D00F2AD82BDF87160F5
:108910002846314601F07AF8002840F0FD8340F205
:10892000DE238DF87601ADF8743102F037FD06468E
:1089300007E0FFF7F1FD02F031FD831BB3F5617F26
:1089400032D203215DA802F01BFA0028F1D12BE0FE
:10895000002800F06D829DF87060013EF6B2012E95
:1089600000F26682002507A90D60304600F082FE05
:108970008046304600F094FEAC460246079E68F3FF
:10898000070C62F30F2C66F3174C2946350A5DAAD3
:1089900065F31F6C350C360E0623C620C2F800C0E6
:1089A00015715671FFF7FEFD02F0F8FC8A4AC31BF1
:1089B0001360A0B228E6522804D99DF87050452DC6
:1089C00040F243834FF4EA720023ADF874218DF82E
:1089D000763102F0E3FC064607E0FFF79DFD02F06A
:1089E000DDFC831BB3F5617FDED203215DA802F0BD
:1089F000C7F90028F1D1D7E7002840F06A8240F299
:108A0000D3138DF87601ADF8743102F0C7FC064639
:108A100007E0FFF781FD02F0C1FC831BB3F5617F26
:108A2000C2D203215DA802F0ABF90028F1D1BBE767
:108A3000522804D99DF87050452D40F2B3824FF46E
:108A4000ED720023ADF874218DF8763102F0A6FCAA
:108A5000064607E0FFF760FD02F0A0FC831BB3F5BC
:108A6000617FA1D203215DA802F08AF90028F1D12B
:108A70009AE7012840F213839DF870101CAE092973
:108A800000F249824B1C834200F2458200F02983A8
:108A9000F35C0A2B06D88A1C9D1805F1040C60456E
:108AA00080F07C8340F2D1120023ADF874218DF860
:108AB000763102F073FC064608E0FFF72DFD02F068
:108AC0006DFC831BB3F5617FBFF46EAF03215DA81E
:108AD00002F056F90028F0D166E7012804D99DF884
:108AE0007000452840F2878240F2D5120023ADF88D
:108AF00074218DF8763102F051FC064608E0FFF74C
:108B00000BFD02F04BFC831BB3F5617FBFF44CAF50
:108B100003215DA802F034F90028F0D144E702F007
:108B20007FF9054602F082F92B4B5DAA1B680021F4
:108B3000609333685F93294B1B686193C2E90050CF
:108B40001423CC20FFF72EFD2EE7012800F2FE8132
:108B5000002800F025829DF8700001F011FBDB2356
:108B60008DF87431B0FA80F300225B095B008DF858
:108B700076218DF8753102F011FC064608E0FFF70A
:108B8000CBFC02F00BFC831BB3F5617FBFF40CAF91
:108B900003215DA802F0F4F80028F0D104E70228D0
:108BA00040F22B819DF870000138C0B2012800F21C
:108BB00024819DF872209DF8711000F0B1FDDD2236
:108BC0000023ADF874218DF8763102F0E7FB0646FC
:108BD0000FE000BF800400208804002084040020EF
:108BE000FFF79AFC02F0DAFB831BB3F5617FBFF459
:108BF000DBAE03215DA802F0C3F80028F0D1D3E674
:108C0000002607A906A80660079601F0BFFDDDE96A
:108C10000623CDE95D2301F0C7FD8DF87C0101F04D
:108C2000E9FE8DF87D0101F037FA46238DF87E01CB
:108C30008DF87F3131460C23C8205DAAFFF7B2FCC6
:108C4000B2E601F0D3FE002106463E220DF5BB70D0
:108C500006F0A2F80222C34B8DF875211B780A2278
:108C60008DF8743101238DF87731737F8DF8783169
:108C7000B37F8DF87A218DF8793101F0BBFE4FF486
:108C80008071B94A8DF87B01ADF87611B74B126847
:108C90009A4200F0D481B64ADFF8D8C261AB07AE81
:108CA00007CAB04683E80700BCE80F000FC69CE87F
:108CB000030046F8040B31700646B8E80F000DF5C6
:108CC000C87EAEE80F00AC4BCEF8006093E803001E
:108CD000CDE96901FFF71AFC8DF8AC0102F0C4F888
:108CE0008DF8AD0102F0C6F88DF8AE0102F0C8F8BB
:108CF00040236C900021C9205DAAFFF753FC53E686
:108D0000002800F0CB809DF870000138C0B2012827
:108D100000F2C48007A900F007FCDDE908325F9289
:108D20000A9A60920B9A61920C9A6292079ACDE924
:108D30005D2300F0BBFE9DF870308DF88C01013B87
:108D4000D8B200F0A9FE02461B23160A8DF88D2129
:108D50000021C7205DAA8DF88E61FFF723FC23E672
:108D600001F044FE05460279411D0DF275108DF8A3
:108D7000742106F03DF82B795DAEAA7B981C334434
:108D80005A7005F10F010290301806F031F8AB7BF4
:108D9000029A00211344D5F81920C020F250043360
:108DA0003246DBB2FFF7FEFBFEE501F07BF9002364
:108DB000C2201A461946FFF7F5FBC82002F066F8F4
:108DC000FFF7C2FB02F0EAFA6C4B1A683AB1801A5C
:108DD000B0F5FA7FFFF417AC00221A60EAE41860DD
:108DE00011E44FF0010948E503991CAB0131194426
:108DF0000DF27D1005F0FCFFB8E440F2DD12002317
:108E0000ADF874218DF8763102F0C8FA064608E014
:108E1000FFF782FB02F0C2FA831BB3F5617FBFF458
:108E2000C3AD03215DA801F0ABFF0028F0D1BBE585
:108E30004FF4EB720023ADF874218DF8763102F017
:108E4000ADFA064608E0FFF767FB02F0A7FA831BBE
:108E5000B3F5617FBFF4A8AD03215DA801F090FFD9
:108E60000028F0D1A0E54FF4EF720023ADF8742193
:108E70008DF8763102F092FA064608E0FFF74CFBD7
:108E800002F08CFA831BB3F5617FBFF48DAD032133
:108E90005DA801F075FF0028F0D185E540F2D712FA
:108EA0000023ADF874218DF8763102F077FA06468A
:108EB00008E0FFF731FB02F071FA831BB3F5617F25
:108EC000BFF472AD03215DA801F05AFF0028F0D174
:108ED0006AE59DF8700007A901F0C8F8002840F085
:108EE000F98040F2D3138DF87601ADF8743102F0B9
:108EF00055FA064608E0FFF70FFB02F04FFA831B16
:108F0000B3F5617FBFF450AD03215DA801F038FFD8
:108F10000028F0D148E540F2D1120023ADF87421C9
:108F20008DF8763102F03AFA064608E0FFF7F4FAD7
:108F300002F034FA831BB3F5617FBFF435AD032132
:108F40005DA801F01DFF0028F0D12DE540F2DB12F5
:108F50000023ADF874218DF8763102F01FFA064631
:108F600017E000BF9004002000D0030831505041AA
:108F7000E8F7FF1F30F0000824F00008800400200C
:108F8000FFF7CAFA02F00AFA831BB3F5617FBFF458
:108F90000BAD03215DA801F0F3FE0028F0D103E53D
:108FA000FF20DAE552220DF1710107A805F020FF3C
:108FB00007A9284601F09EF8DA238DF87431B0FA3B
:108FC00080F300225B098DF876218DF8753102F06F
:108FD000E5F9064608E0FFF79FFA02F0DFF9831B88
:108FE000B3F5617FBFF4E0AC03215DA801F0C8FEDA
:108FF0000028F0D1D8E49DF8711001F033FAD523A0
:109000008DF87431B0FA80F300225B095B008DF8B3
:1090100076218DF8753102F0C1F9064608E0FFF7B8
:109020007BFA02F0BBF9831BB3F5617FBFF4BCACE4
:1090300003215DA801F0A4FE0028F0D1B4E4884A21
:1090400092E80300CDE95F0125E652220DF171019E
:1090500007A805F0CDFE07A9284601F0EFF9D423B3
:109060008DF87431B0FA80F300225B095B008DF853
:1090700076218DF8753102F091F9064608E0FFF788
:109080004BFA02F08BF9831BB3F5617FBFF48CAC14
:1090900003215DA801F074FE0028F0D184E440F2C1
:1090A000D1120023ADF874218DF8763102F076F9F3
:1090B000064608E0FFF730FA02F070F9831BB3F5BB
:1090C000617FBFF471AC03215DA801F059FE002857
:1090D000F0D169E452230021C32007AAFFF762FA06
:1090E00062E440F2D1120023ADF874218DF876319C
:1090F00002F054F9064608E0FFF70EFA02F04EF9C6
:10910000831BB3F5617FBFF44FAC03215DA801F071
:1091100037FE0028F0D147E43146284601F010FD23
:10912000002873D140F2DE338DF87601ADF874314A
:1091300002F034F9064608E0FFF7EEF902F02EF9E6
:10914000831BB3F5617FBFF42FAC03215DA801F051
:1091500017FE0028F0D127E44BF6EF64414B42495B
:10916000DA69424842F08052DA61DA6902F08052EC
:109170001C921C9ADA6942F00062DA61DB693C4AAF
:1091800003F000632B602B680B6843F480730B6063
:10919000384B4460C2F8F03FFFF7C4F90DF173009B
:1091A00010F805C00DF17200405D324440EA0C2019
:1091B00001900DF17100765D455D46EA052500954B
:1091C00001F01EFC00238DF87631B0FA80F3D12235
:1091D0005B095B0006468DF874218DF8753102F04D
:1091E000DDF8804608E0FFF797F902F0D7F8A0EB2A
:1091F0000803B3F5617F05D203215DA801F0C0FD2E
:109200000028F0D1002E3FF4CFABD6E5284600F081
:1092100043FC05465DAA02230021CE201580FFF7FE
:10922000C1F9FFF7C1BB0321002310328DF874216F
:109230008DF875118DF8763102F0B0F806460321ED
:109240005DA801F09DFD00283FF4AEABFFF764F987
:1092500002F0A4F8831BB3F5617FF0D3FFF7A4BB42
:1092600008D003080010024000700040006C00406D
:1092700000400020EFBEADDE024A034B10701970B3
:10928000704700BF91040020900400202DE9F043B6
:1092900020264FF00008564A564F13688BB0013312
:1092A0001360FFF7A7F9054658B10024C7F80080FE
:1092B000013401F02FFDAC42FAD1013EB6B2002ECE
:1092C000EFD14FF0000840266F4601F017FD00284F
:1092D0003BD1404605A900F0F3F880B305A801F0A2
:1092E000E9F89DF816209DF815308AB3002B53D16C
:1092F000AC2205250621B9469DF81430BDF818406A
:109300009DF81C0001338DF80130ADF802408DF856
:1093100004008DF8002000224846134610F8014B47
:1093200001339D4282EA0402F8D8013E48466D446A
:1093300089B2B6B22A7001F023FD002EC5D108F122
:109340000103022B4FF00108BDD10BB0BDE8F08343
:10935000002B40D1AA22052506219DF81430BDF826
:1093600018009DF81C4001338DF80130ADF8020063
:109370008DF804408DF80020E946002CCBD00DF18B
:109380001D017819224605F033FD611EC9B229443A
:10939000B94602312544BEE7069BAD2418469DF828
:1093A00014101D0A01318DF801108DF800409DF850
:1093B0001C40190C1B0E8DF804108DF80350082169
:1093C00007258DF805308DF802008DF80640002A3B
:1093D000D2D0B9469FE7AB249DF81410069B01310B
:1093E00018461D0A8DF801108DF80040DFE700BF18
:1093F0008404002080040020642908B52AD01BD8EA
:1094000014292BD0322923D00A2914BF0422C822C0
:1094100000234FF4602C4FF4801142604FF0012282
:10942000C0E90233C0E904C18261838303F0F6FB23
:10943000B0FA80F0400908BDFA290DD0B1F57A7F65
:1094400004D07D2914BF04221022E1E70222DFE7C5
:109450002822DDE71422DBE70822D9E76422D7E7D8
:1094600000234FF00E0C10B58AB00122CDE9013374
:10947000CDE9033300930693994218BF63466946CA
:109480000446CDE90722CDF824C0059303F048FC3B
:1094900018B9204603F0DEFC10B100200AB010BD60
:1094A0000221204603F000FE0028F6D14FF40741C8
:1094B000204603F0F9FDB0FA80F040090AB010BD73
:1094C0000128F0B52AD845F2100245F2020402FB49
:1094D00000F0144B1D1805F5A042B2F800C02A5B3D
:1094E0001FFA8CFC92B2944518D08E4601272A5B55
:1094F00092B202EB820200EB820003EB000C2B5BCA
:109500000133C3F30906BCE80F00AEE80F00DCF836
:1095100000303846CEF800302E53F0BD00273846D4
:10952000F0BD00BFD804002021B3012823D800B526
:1095300045F2100E45F2080C45F20C02124B0EFBE0
:10954000003353F80CC0C1F800C0DFF840C05CF82D
:1095500020C09B580E4AC1F804C08B6052F820C04E
:109560000C4B0D4A52F8202053F82030C1E903C2B9
:109570004B6100BD704700230B604B608B60CB607C
:109580000B614B61704700BFD8040020D00400205D
:10959000B8040020A8040020B00400202D4B1B7844
:1095A000002B4FD030B583B0002268462A492B4BA0
:1095B000DFF8ACC0CDE90013DFF8A8E050F8043BB9
:1095C00019688B691CF8024014B113F0040427D009
:1095D00013F070031DD04FF001055EF82240402BC0
:1095E00004F101044EF822401F4CA5540AD020D8A3
:1095F000202B2CD0302B26D0A3F11003B3FA83F309
:109600005B09DB00194C44F822308B6923F07003AE
:109610008B61531C022B4FF00102CFD103B030BD40
:10962000134D0CF8024055F82240013445F8224011
:10963000CEE7502B09D0A3F16003B3FA83F35B09A3
:109640001B02DFE770472023DCE78023DAE71023E3
:10965000D8E700BFA004002020A50020F8A4002027
:10966000A4040020B8040020CC040020C004002082
:10967000A8040020012803460CD84FF0000C064A2D
:10968000105C02F803C0C0B229B1044A52F823307A
:109690000B60704700207047CC040020C0040020FD
:1096A0000128034605D80021034A105CD154C0B2FA
:1096B00070470020704700BFC804002003681149AC
:1096C00010B55B1A18BF01230124416A0E4ADFF866
:1096D0003CE0DFF83CC04EF82310D4545CF8232063
:1096E00022444CF823204A0709D50A4A0A49D4548F
:1096F00051F82320224441F82320084AD45400235F
:10970000436210BD00640040CC040020C00400206F
:10971000B8040020C8040020B0040020A4040020E5
:109720002DE9F04190460C4684B048BB80210826C4
:10973000154F1548019102F0EFF80546221E18BF9B
:1097400001221148019902F0EDF8B8F1000218BFAA
:1097500001223146384602F0E5F8012D0DD164B9F9
:109760000394039BB3F5B47F07D200BF039B01337F
:109770000393039BB3F5B47FF7D304B0BDE8F08146
:1097800010210426014FD4E7000C014000140140D1
:109790002DE9F04700248CB081464AF220028A4627
:1097A0008848002105F0F8FA874D884B88481C80CE
:1097B0002C8001258749884A0460884B4460884E84
:1097C0000C604C6014605460864A874F1C6007949C
:1097D0005C6034701480BB69844A43F00103BB6150
:1097E000BB6983482B400093009B536804A923F472
:1097F000C04343F0E06343F48043536053684FF049
:10980000030843F0E8635360BB694FF4807243F090
:109810000803BB61BB6903F008030193019BBB69AB
:1098200043F02003BB61BB6903F020030293029B5A
:109830000023CDE90423069501F060FF4FF4007288
:1098400002236B4804A9CDE90423CDF81C8001F064
:1098500055FF20220023664804A9CDE9042306957C
:1098600001F04CFF40220223614804A9CDE9042302
:10987000CDF81C8001F042FF4FF0020C8022012342
:109880004FF01008B9695A4841F01001B961B9693F
:10989000CDF82CC001F01001039108A9CDE90823EF
:1098A0000A94039B01F02AFF22468021504802F0CF
:1098B00039F84F4808A9CDF8208001F01FFF414634
:1098C0004FF0080822464A4802F02CF8484808A9F8
:1098D000CDF8208001F012FF41464FF004082246E7
:1098E000434802F01FF8434808A9CDF8208001F052
:1098F00005FF224641463F4802F014F8FB693E4905
:1099000043F00073FB61FB693C4803F00073049370
:10991000049BFB693A4A43F08063FB61FB69016089
:10992000384903F080630A6008934946089BFFF7B3
:1099300063FD20B9002738460CB0BDE8F0875146DA
:109940003048FFF759FD0028F4D02F4B21462B4813
:10995000C3E9009AFFF784FD0028EBD02946294887
:10996000FFF77EFD07460028E4D02246052114209B
:1099700001F03EFD142001F06DFD22460621162067
:1099800001F036FD162001F065FD2246052140203C
:1099900001F02EFD402001F05DFD2246062142200F
:1099A00001F026FD422001F055FD224621462046C9
:1099B000FFF7B6FE224621462846FFF7B1FE357076
:1099C000B9E700BFD8040020C8040020CC04002060
:1099D000C0040020B8040020B0040020A804002027
:1099E000A0040020A4040020001002400000014058
:1099F000000C0140001401400064004020A500203C
:109A000000680040F8A40020980400201E4B1B783A
:109A100073B301282CD87D2907D021D8322904D04E
:109A20002DD80A2901D0142922D1184B53F820200F
:109A30008A4227D030B583B0F8B9154A054610469A
:109A40000C460192FFF7D8FCA0B129460198FFF718
:109A500007FD78B101200D4B43F8254003B030BD20
:109A6000B1F5FA7FE1D0B1F57A7FDED0FA29DCD00A
:109A700000207047002003B030BD064ADEE76429AD
:109A8000F6D1D2E701207047A004002098040020FE
:109A900020A50020F8A4002001289ABF024B53F80B
:109AA00020000020704700BF98040020014B187868
:109AB000704700BFA0040020284B1B78002B4AD021
:109AC000002848D0F0B5037889B0013BDBB2012B08
:109AD0001E4633D8002B34D04378214D4268002BEA
:109AE00034D1C2F30A011A46CDE9021383780492F5
:109AF000003B18BF01230022017A5B0007464FF4A8
:109B0000FA7406918DF81C20059301E0013C15D0F4
:109B1000284603F025FA0028F8D0284601AB07F1C3
:109B2000090202A903F0C4F940B901200D4A52F814
:109B30002630034442F8263009B0F0BD002009B0B9
:109B4000F0BD4378084D4268002BCAD022F0604334
:109B500000210422C8E70020704700BFA0040020B5
:109B6000F8A40020D004002020A5002010B58CB05F
:109B700000210DF1090305AA044603F005FA0028A7
:109B80005CD122683249089B521AA3F1020318BF24
:109B90000122B3FA83F307995B0904298DF80020A9
:109BA0004ED005998DF801008DF8023045F2100075
:109BB00045F20204274B019100FB0231DDF824C07D
:109BC00001F5A0408DF808C0B0F800C0085B0CF1AA
:109BD000010CCCF3090C80B2844510D1085B45F22E
:109BE0000C0E0130C0F30900085345F204004FF099
:109BF00001040C5451F80E00013041F80E0045F2FA
:109C0000100145F20804EE4601FB02F299180859CA
:109C10000130085101F5A0400188A0F800C089B2C8
:109C200001EB810102EB810203EB020CBEE80F00A5
:109C3000ACE80F00DEF80030CCF800300CB010BDFE
:109C4000012006998DF802308DF80100AEE700BFC3
:109C500000640040D8040020002853D04379022B30
:109C60004ED890F82030022B4AD88379012B47D860
:109C700090F82120012A43D8C17B082940D890F8C8
:109C8000261008293CD890F83310012938D890F8CC
:109C90004F10022934D890F83410012930D890F8A8
:109CA000351002292CD890F83610012928D890F8C0
:109CB0003BC0BCF1080F23D840F2FF7C002B0CBF47
:109CC00063466FF0604300B5002AD0F807E00CBF90
:109CD00062466FF06042002918BF6FF0604C9E45ED
:109CE00011D8D0F80B1099420DD8D0F822309342F9
:109CF00009D8D0F8370060458CBF0020012000BD96
:109D0000002070477047002000BD00BFF0B587B04D
:109D100001F0EEFB0026134C134D144FFEF7FCFB35
:109D20002B4601E09C420ED01A6804330132F9D070
:109D3000012302A801A9CDE90266049501960593C5
:109D400001F07CFC50B905F50065BD4204F50064E6
:109D5000E4D101F0E1FB012007B0F0BD01F0DCFB34
:109D60000020F9E700E8030800E003080000040809
:109D700030B590F83430844687B013B3264B5C5C22
:109D8000E4B1264B01EB810101AC03EB810EBEE88F
:109D90000F000FC49CF82020DEF8003012F0FD0FF9
:109DA000236001AD64462AD1012228468DF80420A3
:109DB000FFF782FE94F8202004460ABB204607B035
:109DC00030BD90F8212090F83330D0F822008DF883
:109DD0000520DCF827209CF82610CDF80D209CF8F3
:109DE00020208DF80630DCF82B3012F0FD0F644691
:109DF00002908DF80C10CDF8113001ADD4D00024B4
:109E0000022228468DF80420FFF756FE40EA04039C
:109E1000DCB2204607B030BDECA8002034A90020F9
:109E20002DE9F04F4FF4527283B000217C4804F0CA
:109E3000B3FF41F26C6200217A4804F0ADFF462284
:109E40000021794804F0A8FF4FF4AF620021774861
:109E500004F0A2FF46220021754804F09DFF002275
:109E6000744C9346226014467348DFF8D0917449CD
:109E7000744FDFF8D481754B754E764D02600A70D1
:109E800089F800203A6088F800201A68B24224D18C
:109E90001A79032A21D1597946291ED8522003F173
:109EA000100200FB01226B498A4216D81946002293
:109EB000DFF8A4E103F10F0C11F8010B42406145FA
:109EC0001EF80220F8D1D97B914206D1D3F80720A1
:109ED000002C40F0A08093461C4603F50063AB4283
:109EE000D3D1002C44D06679002E3CD0522360346C
:109EF00003FB0646584D54F8503C584AA4F1500A0A
:109F000093422DD10023A4F1510111F8012F5340A8
:109F1000A142EB5CF9D19AF851209A4220D19AF8EB
:109F20003130002B6CD19AF83230CBB95046FFF764
:109F300093FEA8B1522299F800304948514602FBDD
:109F40000300019304F054FF019B9AF804200133AD
:109F500089F8003022B198F80030013388F80030D9
:109F60005234A642C7D1C7F800B003B0BDE8F08FA5
:109F70003C4C3A4F384D3C4E54F8503CA4F1500AFA
:109F8000BB421BD10023A4F1510212F8011F4B4028
:109F90009442EB5CF9D19AF851209A420ED19AF88A
:109FA000313033BB9AF8323043B95046FFF754FE94
:109FB00020B199F800B0BBF1450F05D95234B44235
:109FC000DAD103B0BDE8F08F52222548514602FB9A
:109FD0000B0004F00DFF9AF804300BF1010B89F827
:109FE00000B0002BEAD098F80030013388F8003038
:109FF000E4E7022BE2D19AF83230522BDED1D4E7DB
:10A00000022BADD19AF83230522B8FD05234A64267
:10A010007FF471AFA7E793453FF65FAF5BE700BF03
:10A02000A4A5002000AF0020B8AE002034A9002075
:10A03000ECA80020A0A500209CA50020B0AE002028
:10A04000B1AE0020ACAE00209AA5002000E00308CD
:10A05000484752540000040824EE00083247525486
:10A060006CC5002050E0030802F0030808B5084B57
:10A070001B7883420AD903465222DFF818C00846EB
:10A0800002FB03C104F0B4FE012008BD002008BD9E
:10A09000B0AE00206CC50020014B1878704700BF9F
:10A0A000B0AE002010B50024FFF730FE0B490C4A7B
:10A0B0000C4B0C701470214646220B481C7004F0A7
:10A0C0006BFE21464FF45272084804F065FE2146AB
:10A0D000BDE810404622064804F05EBEB0AE002047
:10A0E000B1AE00209AA50020B8AE0020A4A50020A3
:10A0F000ECA8002030B5452899B033D8044608466E
:10A100000191FFF7A9FD054648B35222019903A822
:10A1100004F06EFE45F20222002314491448ADF803
:10A120003D2003910DF10B020DF15C0C12F8011FA3
:10A130004B406245C35CF9D18DF85D3052230D4828
:10A140001A4603FB040003A904F052FE01200A4B47
:10A150000A491A780855A24201D804441C702846BE
:10A1600019B030BD0025284619B030BD32475254D1
:10A1700024EE000800AF0020B1AE0020B8AE0020F1
:10A180002DE9F04FFF28CFB053D00446462C4CD8D1
:10A190009C4B1B7823B99C4B1B78A34200F0DC80BE
:10A1A0009A4D4E220021284604F0F6FD45F2022287
:10A1B00000239749974E45F8041CA5F82D20691FE8
:10A1C00005F14C0011F8012F53408142F35CF9D1A5
:10A1D00085F84D30002C00F09F808B4B8E4D08AFE2
:10A1E000BE46284600229A4693F80090DFF82CC21B
:10A1F0008B49DFF830820AE00B460132D2B2A2422C
:10A200004EF8043B00F1520001F1520108D01CF855
:10A21000013B002BF0D191458CBF03464346ECE750
:10A22000CDF800A0FFF772FD58B900204FB0BDE88F
:10A23000F08F744A744B14781B789C4238BF1C46CC
:10A24000A4E752214FF0000C4FF0030804FB01F18A
:10A25000DFF8D491DFF8D4E1754AD9F8000001F6AF
:10A260000F010130CDF810E0009BA2EBD12ECDF80C
:10A2700016C0CDF81AC061464FEACE2AADF81EC00E
:10A280008DF815408DF81480CDF817000DF10F0CE6
:10A290000DF11E0E1CF8012F5140F445715CF9D1EF
:10A2A000564600938DF81F100DF10E0801F020F9AD
:10A2B0000AF1100BCDF80490A1460AF110043146C2
:10A2C0000023012038F8022F01F066F9023600BBA6
:10A2D000B442F4D14C46DDE9003907EB8402CDE904
:10A2E0000025CDE902393D46A146FEF715F92A6859
:10A2F00006F15204A2F1020801E0A6422ED0314636
:10A300000023012038F8022F01F046F90236002818
:10A31000F3D001F001F988E7FFF7F8FC002884D0BA
:10A32000394BDFF804910025D9F800101C70013179
:10A33000344B4622C9F80010384829461D7004F0F5
:10A340002BFD4FF4527229463A4804F025FD46226F
:10A350002946394804F020FD012067E7009B0435B9
:10A360009D42C2D1029B019D4C460193DDF80C90A9
:10A37000009001F0D1F8DDE90013049EDAF8000046
:10A38000B0427FF452AF059EDAF804200AF10400CF
:10A39000B2427FF44AAF069E50F8042FB2427FF4D7
:10A3A00044AF4268079882427FF43FAFCDF80090F7
:10A3B0000E46A946B84625461C4652225846D8F8AD
:10A3C000001004F0D9FC0136F2B208F104080BF1D8
:10A3D000520B00287FF429AF9542EED80646A046DE
:10A3E0002C464D46DDF800902846522257F8041BB3
:10A3F000013604F0FDFCF3B29C4205F15205F3D89E
:10A40000434690E7B1AE0020B0AE00204CA500203E
:10A410003247525424EE00086CC50020B8AE00202C
:10A4200000AF002048A50020ACAE002048475254A1
:10A4300080000100A4A50020ECA8002010B504466F
:10A44000FFF758FE50B1064B601C1B78C0B29C420F
:10A4500038BF1846BDE81040FFF792BE10BD00BFE0
:10A46000B0AE002030B5114B99B01C78844219D998
:10A47000034652220D460E4903A802FB0311019325
:10A4800004F0B6FC2A1E18BF0122019803A98DF81A
:10A490001020FFF72FFE28B1204619B0BDE830404C
:10A4A000FFF76EBE002019B030BD00BFB0AE002077
:10A4B0006CC500208F4B1B78002B00F01A812DE912
:10A4C000F04FDFF834828146C2464FF0000B8B4CD0
:10A4D0008B4F89B09AF80430002B79D09AF8343039
:10A4E000BBB19AF83530022B03D099F800209A427C
:10A4F0000FD19AF8362099F801309A4209D15223A7
:10A5000003FB0B83D9F80420D3F83730934200F0D3
:10A5100082809AF84F30012B6CD0022B6FD09AF8C2
:10A520000520022A03D099F80010914250D19AF8E0
:10A53000061099F8012091424AD1522202FB0B8267
:10A54000D9F80400D2F80710D2F80B20414011428C
:10A550003ED19AF80F20002A56D1012B15D099F838
:10A56000080090B109F1080318440AF10F0109F13C
:10A57000100C11F8012F13F8016F0D7A72402A4266
:10A5800026D1834201D09C45F3D1522303FB0B8398
:10A59000B3F82F305FFA8BF123B99AF84E30012BC4
:10A5A00040F29C804FF001036170237000F0F6FED2
:10A5B00052229AF84E3002FB0B82012B38BF012346
:10A5C000B2F82F202372BAF84C30024462606381E3
:10A5D000484B0BF1010B1A785FFA8BF39A420AF1A0
:10A5E000520A04F10C0407F114073FF673AF09B0E7
:10A5F000BDE8F08F99F80220002A90D1E8E799F899
:10A600000220002A8BD0E3E799F808009042DFD1BE
:10A61000012BA7D1B9E79AF83B300193002B51D019
:10A62000002399F8082009F10900CDE904BA029243
:10A630000694CDF80C900AF13B041E461A469E463D
:10A640001D469A469946079700904FEA052C14F844
:10A65000015F029F4FEA09204FEA0A214CEA1E6C73
:10A6600045EA0E2E257A40EA166041EA136102F1AE
:10A67000010B974245EA0626814665468A464FEA1F
:10A6800003235FFA8BF204D9009F97F800B04BEADE
:10A690000303019F9742009F07F10107009701D034
:10A6A000082AD2D1DDE904BADDE90647734571EB2A
:10A6B0000C02DDF80C90FFF42CAF9E4270EB010110
:10A6C000FFF427AF3D464E460FCE0FC54FF00102B7
:10A6D00033682B600B4B03F80B201AE75046FFF74B
:10A6E00047FB00283FF474AF074A13680133136037
:10A6F0006EE77047B0AE00206CC50020A4A5002016
:10A7000034A90020ECA80020A0A500202DE9F843E2
:10A7100000F044FE194C0546DFF86490194F1A4EBC
:10A7200004F5527806E0628923722A4462600C3490
:10A73000444520D02378002BF9D06368EB1AF6D477
:10A740005220D9F800206178934200FB017088BF45
:10A75000C9F80030FFF70CFB10B1336801333360E8
:10A76000237A012B03F1FF33DDD800230C3404F8E6
:10A770000C3C4445DED1BDE8F88300BFA4A5002011
:10A780009CA500206CC50020A0A5002010B1044BA2
:10A790001B68036011B1034B1B680B60704700BF5F
:10A7A000A0A500209CA50020014B1878704700BF91
:10A7B0009AA500202DE9F04186B08846074600F0B2
:10A7C00097FEFDF7A9FE012100232348CDE90133BF
:10A7D000CDE9040101A902A8039300F02FFFA0BB5B
:10A7E000FDF79AFE1D4DBC1E07F11E06ED1B291933
:10A7F0000023012034F8022F00F0CEFE28BBB44223
:10A80000F5D1174DA8F1020408F10E06A5EB0805D5
:10A8100029190023012034F8022F00F0BDFEA0B951
:10A82000B442F5D100F078FE202239460A4804F0FF
:10A83000A3FA60B9102241460A4804F09DFAB0FA22
:10A8400080F0400906B0BDE8F08100F065FE002010
:10A8500006B0BDE8F08100BF00D8030802D80308A5
:10A8600022D8030820D80308514A5249136830B54A
:10A870008B424FF000033BD1DFF83CC14F4812F848
:10A88000011B4B4082421CF80330F8D1484AD17F6B
:10A8900099426BD0464A4A4B126A9A420ED1002323
:10A8A000484A494812F8011B4B4082421CF80330C9
:10A8B000F8D13F4A92F82F1099424BD00023012142
:10A8C000424C3F4A236044F8092C414A601D44F839
:10A8D000052C04F8011CA4F10A02C4F8033012F894
:10A8E000011F4B4090421CF80330F8D1A37130BDDA
:10A8F0000920DFF8E0E0384D4EF80E1C374942F2EF
:10A9000001020EF80A0CCEF80830CEF80B1003CD79
:10A910004EF8090C18464EF8051C2978DFF898C047
:10A92000AEF81030CEF80030AEF80F20CEF804307C
:10A93000AEF10F020EF110040EF8011C12F8011F07
:10A940004B4094421CF80330F8D1254A8EF8113060
:10A9500010709FE7938C002BB0D0D38C002BADD020
:10A96000204C184B0FCB84E80F0030BD1379092B16
:10A9700090D8937B0A2B8DD8537F83B9937F002B7C
:10A9800088D14FF0010E184C094D0FCD0FC495E83A
:10A990000F0084E80F00124B83F800E07AE7012BE8
:10A9A0007FF478AF937F202B7FF474AFE9E700BF8B
:10A9B00000D803083047464324EF00081FD8030897
:10A9C0003058454320D803082FD80308E5DB002082
:10A9D000F401F401FADB002048F00008830440573A
:10A9E000D8DB0020DCDB0020ECDB002000487047D7
:10A9F000ECDB0020014B1878704700BFD8DB00204B
:10AA000070B509298AB0BDF83850BDF83C4001D86E
:10AA10000A2B02D900200AB070BD4FF0000C164678
:10AA2000324ACDF821C08DF80C100292CDF80DC03D
:10AA3000CDF811C0CDF815C0CDF819C0CDF81DC0A6
:10AA4000CDF824C0002948D18DF81630002B3DD117
:10AA5000002345F2407E40F2834642F201019D42CE
:10AA600008BF35469C4208BF7446DFF884C00DF12C
:10AA700007020DF12600ADF82510ADF82150ADF814
:10AA8000234012F8011F4B4082421CF80330F8D1DA
:10AA90002022184902A88DF8273004F06DF910B96A
:10AAA00001200AB070BD144902A8FFF783FE0028F8
:10AAB000B0D00122114B0F4D02AC1A700FCC0FC554
:10AAC00094E80F0085E80F000120EAE71A463146B6
:10AAD0000DF1170004F08CF9BAE70A4601460DF1B2
:10AAE0000D00019304F084F9019BADE73047464324
:10AAF00024EF0008ECDB0020DCDB0020D8DB0020AA
:10AB00000E4B58B998887D2807D009D8322804D030
:10AB100011D80A2801D014280AD17047D888F2E742
:10AB2000B0F5FA7FF9D0B0F57A7FF6D0FA28F4D0F4
:10AB30004FF4FA7070476428FAD1EEE7DCDB0020AE
:10AB400001285CD800B57D2986468C4685B007D0A3
:10AB500035D8322904D040D80A2901D0142936D159
:10AB6000284B0FCB8DE80F00BEF1000F32D0ADF8AF
:10AB700006C00023DFF890C00DF1FF320DF10E008A
:10AB800012F8011F4B4090421CF80330F8D11D4AC7
:10AB9000009912688DF80F30914221D069461B4808
:10ABA000FFF708FE98B19DE80F00DFF858C08CE869
:10ABB0000F000122164B1A70012005B000BDB1F53F
:10ABC000FA7FCDD0B1F57A7FCAD0FA29C8D000205B
:10ABD00005B000BDADF804C0CBE76429F7D1BFE7ED
:10ABE000084B019A5B689A42D8D10A4B02991A68BD
:10ABF0009142D3D1039A5B689A42CFD1DCE700201F
:10AC0000704700BFDCDB002024EF0008ECDB0020F5
:10AC1000D8DB0020E4DB00200020704720280ED085
:10AC2000212801D000207047072AFBD10A4B186861
:10AC30009A889B7908608A8000208B717047072A68
:10AC4000F0D1054B8888D1F800C08A799880C3F884
:10AC500000C000209A71704718000020F8B50E68F7
:10AC60001EB3411E0546DFF84CC0DFF84CE0134828
:10AC7000741809E0BCF8002011F8017F92B2A142DB
:10AC80008754ACF8003010D0BCF80030BEF800207B
:10AC90000133C3F30A0392B29A42EBD1084A136814
:10ACA000013B33441D446D1A1560064803F09AFEBB
:10ACB0000020F8BD1EDC00201CDC002020DC002071
:10ACC00010DC0020BC01002008B50849084803F04A
:10ACD00063FE00230749084A05480B80138003F0F0
:10ACE00081FE003818BF0120404208BD60E400200A
:10ACF000BC0100201EDC00201CDC0020034A044BA9
:10AD000010881B88C01AC0F30A0070471EDC0020A0
:10AD10001CDC0020094B0A4A1988138889B29BB2AF
:10AD2000994209D0118813880648013389B2C3F3C8
:10AD30000A03405C13807047002070471EDC00202F
:10AD40001CDC002020DC00200A4B0B4A1B88B2F8D8
:10AD500000C0A3EB0C03C3F30A03984208D2128885
:10AD6000064B1044C0F30A001B5C01200B707047B7
:10AD7000002070471EDC00201CDC002020DC0020AE
:10AD8000002942D02DE9F84381460F460026DFF81E
:10AD90008080D8F8B842D4B9BD1BADB2402D28BFD1
:10ADA000402509EB06012A461A4804F021F82A46F4
:10ADB0004046184903F0E6FD404603F0F5FDF8B9BA
:10ADC0003544AEB2B742E6D80020BDE8F88300F0C3
:10ADD000E5FA0546D4F81432012BDDD1FDF79CFBD2
:10ADE00000F0DCFA401B6328F4D90B490B4A0B68CE
:10ADF00001330B601368013313600120BDE8F88351
:10AE0000064A136801331360F7E70020704700BF5C
:10AE1000BC01002020E4002014DC002018DC00200D
:10AE2000014B1868704700BF18DC0020014B186800
:10AE3000704700BF14DC002038B9094B1A78FF2A8C
:10AE400002D01A7801321A7070470128FCD1054BE4
:10AE50001A78FF2AF8D01A7801321A70F4E700BF86
:10AE60000DDC00200CDC0020014B1878704700BF7F
:10AE70000DDC0020014B1878704700BF0CDC00206F
:10AE8000014B1868704700BF10DC00200B4B70B5F9
:10AE9000D3F8B85285B1044600F080FA064606E0C1
:10AEA000FDF73AFB00F07AFA801BA04204D2D5F8F5
:10AEB00014020028F4D170BD012070BDBC01002037
:10AEC000054A136833B9B0F5806F03D801230348EE
:10AED00013607047002070477CE9002080E9002063
:10AEE000034B984200D070470022024B1A60704713
:10AEF00080E900207CE900204FF4C05030B50221E9
:10AF000000250322194C87B0A36943F00403A36111
:10AF1000A369029003F0040300F18040CDE903151A
:10AF2000009302A900F57040009B059200F0E6FB3B
:10AF30004FF40072002302A90D48CDE902230495C5
:10AF400000F0DCFB6369062143F4805363616369AD
:10AF50002A4603F4805301934320019B00F048FAF2
:10AF6000432000F077FA07B030BD00BF0010024068
:10AF7000000801400146D0F8D80401F29C4102F0DB
:10AF80007DBF00BF01EBC10300EB8303D3F8602258
:10AF9000D0F8D80402F0A8BF01EBC10300EB830393
:10AFA0001A6AD0F8D80402F0E1BF00BFD0F8D80484
:10AFB00003F084B810B504460020FFF73DFFD4F835
:10AFC000D804012103F062F8D4F8D804BDE8104099
:10AFD00003F034B8D0F8D80403F05CB8D0F8D80443
:10AFE00003F062B8D0F8D80403F078B8D0F8D804E9
:10AFF00003F072B8D0F8D80403F072B810B5044664
:10B000000120FFF719FFD4F8D804BDE8104003F081
:10B0100069B800BF70B5042300254FF0A042022696
:10B02000104CC4F8D804C0F8C042204623712260F6
:10B030006581E671A57300F079FC8021204601F05E
:10B04000C7F929464022204601F09CF980220121BF
:10B05000204601F097F940223146204601F092F94E
:10B06000284670BDA0E4002008B5D0F8C00200F06A
:10B07000C7FC002008BD00BF944608B51A46D0F8AA
:10B08000C002634601F04AF8002008BD08B5D0F8B8
:10B09000C00201F081F8002008BD00BF08B5D0F85B
:10B0A000C00201F0E9F8002008BD00BF08B5D0F8E3
:10B0B000C00201F02BF9002008BD00BF0A06D0F83D
:10B0C000C03206D401EBC10103EB810393F85602B1
:10B0D000704701F07F0101EBC10103EB8103987D13
:10B0E000704700BF08B5D0F8C00200F0FDFF002097
:10B0F00008BD00BF08B5D0F8C00201F0A5F80020D7
:10B1000008BD00BF08B5D0F8C00201F07BF80020F0
:10B1100008BD00BFD0F8C00201F08CB8122301486E
:10B120000B80704740000020042301480B807047CB
:10B130003C00002008B50A460248034903F09AFA89
:10B14000014808BD54F0000898ED002008B50A46F3
:10B150000248034903F08EFA014808BD70F0000868
:10B1600098ED002008B50A460248034903F082FA28
:10B17000014808BD88F0000898ED002010B582B0A5
:10B180000C46FFF733FC02798AB1411D01900C484F
:10B1900003F02EFE0020019B22461B79084C094932
:10B1A000E054204603F066FA064802B010BD22467D
:10B1B0000449054803F05EFA024802B010BD00BF22
:10B1C00080ED002098ED002094F0000810B582B0CA
:10B1D0000C46FFF70BFC827B8ABB4FF01A0C21490F
:10B1E000D1F8E837D1F8F007A4F800C013EB000C51
:10B1F00002D11D4802B010BD1B4BD1F8ECE7194637
:10B2000003F110044FEA1C70092894BF3030373026
:10B210008870CA7002318C424FEA0C1CF2D10020B7
:10B2200012494FEA1E72092A94BF303237329A749B
:10B23000D87402338B424FEA0E1EF2D1D9E700F1E7
:10B240000F0101900A4803F0D3FD0020019B224624
:10B250009B7B074C0749E054204603F00BFA054856
:10B2600002B010BD00F0FF1F2000002028000020C9
:10B270008CED002098ED0020704700BFFEE700BF76
:10B28000FEE700BFFEE700BFFEE700BF704700BF5C
:10B29000704700BF704700BF00F074B8014801F06C
:10B2A0002BBF00BF20A50020014801F025BF00BF33
:10B2B00020A50020014801F01FBF00BF20A50020ED
:10B2C000014801F019BF00BF20A50020014801F08E
:10B2D00013BF00BFF8A40020014801F00DBF00BF5C
:10B2E000F8A40020014801F007BF00BFF8A4002027
:10B2F000014801F001BF00BFF8A40020014800F0A0
:10B3000095BB00BFA0E40020704700BF704700BF9E
:10B310004FF47A7310B50F49044609780E4AB3FB0F
:10B32000F1F0126882B0B2FBF0F000F0A1F808B9B9
:10B330000F2C02D9012002B010BD02460190214617
:10B340004FF0FF3000F054F8044B01981C6002B03D
:10B3500010BD00BF740000207000002078000020A5
:10B36000074A08B51368032043F01003136000F088
:10B370002DF80020FFF7CCFFFFF7C8FF002008BD25
:10B3800000200240034A044B11681B780B441360F1
:10B39000704700BFD8ED002074000020014B1868F2
:10B3A000704700BFD8ED002038B50446FFF7F6FF20
:10B3B000631C054602D0044B1B781C44FFF7EEFFCC
:10B3C000401BA042FAD338BD740000204FF6FF0C9A
:10B3D00006490302CA6803F4E06302EA0C0213435D
:10B3E00043F0BF6343F40033CB60704700ED00E0EF
:10B3F000164B00B5DB68C3F30223A3F1030CBCF1C9
:10B40000040F19D84FF0FF3EC3F107030EFA03F300
:10B41000DB430EFA0CFE22EA0E02194001FA0CF18F
:10B42000114300284FEA01110ADB00F1604000F5EA
:10B43000614080F8001300BD00220F239446ECE722
:10B44000034B00F00F00C318197600BD00ED00E0BB
:10B45000FCEC00E0002807DB012300F01F01034A99
:10B4600040098B4042F82030704700BF00E100E007
:10B470000138B0F1807F01D3012070474FF0E02305
:10B4800000224FF0F00C07215861034880F823C0D8
:10B490009A6110461961704700ED00E0124BDB68BD
:10B4A00013F0100305D010231049CA6942F00202BC
:10B4B000CA610D4AD268500706D50C4943F004030F
:10B4C000CA6942F00102CA61074AD169C90708D5B1
:10B4D0000648C16941F00401C161D16921F001014F
:10B4E000D161014AD360704700200240E0ED0020A6
:10B4F000064B186910F0800006D00549054A5960CE
:10B500005A601869C0F3C010704700BF00200240A5
:10B5100023016745AB89EFCD034A0020136943F04F
:10B5200080031361704700BF0020024038B5044615
:10B53000FFF734FF174AD368DD070CD5651C1CD014
:10B5400005462CB3FFF72AFF401BA04220D8114A22
:10B55000D368DB07F6D40F4BDA68900644BF20228D
:10B56000DA600C4BDA68D1060ED4DA69D2070BD454
:10B57000D86810F0040007D138BDD368D907EAD5E0
:10B58000D368D907F9D4E6E7FFF788FF012038BD73
:10B59000032038BD002002402DE9F84F254E357EAE
:10B5A000012D43D01C46012305464CF250308A46FB
:10B5B00017463376FFF7BAFFA0BB012D03D0022D4B
:10B5C00014BF042502254FF00009C846DFF868B013
:10B5D0000AEB4505C9F12003C6F81C8027FA09F0DB
:10B5E00004FA03F31843A9F12002DBF8103024FA1F
:10B5F00002F240EA020C43F00103CBF810304CF2A7
:10B600005030AAF800C0FFF791FFDBF810300AF1C4
:10B61000020A23F0010309F11009CBF8103008B930
:10B62000AA45D7D100233376BDE8F88F0220BDE8C4
:10B63000F88F00BFE0ED0020002002402DE9F84324
:10B640002C4E337E012B52D0012333760368804683
:10B65000022B89464CF250302ED0FFF767FF074689
:10B6600068BB4FF0FF33C9F80030D8E9025305EB4F
:10B67000C3239D4223D2204C07E005F50065D8E99D
:10B68000023203EBC223AB421AD9F76123694CF2B1
:10B69000503043F0020323616561236943F04003A6
:10B6A0002361FFF743FF236923F00203236100288E
:10B6B000E3D0C9F8005003E0FFF738FF20B10120C4
:10B6C00000233376BDE8F8830B4CF06123694CF21C
:10B6D000503043F004032361236943F040032361A6
:10B6E000FFF724FF236923F004032361E8E7022026
:10B6F000BDE8F883E0ED0020002002402DE9F04F86
:10B700000E6883B0002E00F0AC80002204460125B4
:10B710004FF00F0892461346784F06E0013336FA91
:10B7200003F002F1040200F09C8005FA03F030EA15
:10B73000060E00EA060CF1D14E68122E00F2998036
:10B74000122E0DD8DFE806F0A70AB3D70C0C0C0CAC
:10B750000C0C0C0C0C0C0C0C0CBBB700D1F80CA096
:10B76000BCF1FF0F99BFA646164604F1040EA2F1E4
:10B770002006DEF8000008FA06F920EA09000AFAB5
:10B7800006F63043CEF800004868C6006FD5BE69A3
:10B7900003F0030946F00106BE61BE694FEA89095C
:10B7A00006F001060196019E23F0030606F180468D
:10B7B00006F58036D6F808E008FA09FB2EEA0B0EEB
:10B7C000DFF83CB15C4513D00BF5806B5C457AD05B
:10B7D000DFF830B15C4563D0DFF82CB15C450CBFBD
:10B7E0004FF0030B4FF0040B0BFA09F94EEA090E68
:10B7F000C6F808E0DFF814E110F4801FDEF80860F6
:10B8000014BF46EA0C0626EA0C06CEF80860DFF8FC
:10B81000FCE010F4001FDEF80C6014BF46EA0C06D2
:10B8200026EA0C06CEF80C60DFF8E0E010F4003FEA
:10B83000DEF8046014BF46EA0C0626EA0C06CEF8D1
:10B840000460324E10F4803F30680DD040EA0C00A6
:10B8500030600E68013336FA03F002F104027FF41F
:10B8600064AF03B0BDE8F08F20EA0C0030600E68D2
:10B8700054E7DFF89CE076450DD02BD8AEF5801E5E
:10B88000764508D00EF5702E764504D0AEF5801EB4
:10B8900076457FF465AF8E6836BB4FF0040A5FE7EC
:10B8A0004FF0020B0BFA09F94EEA090EA0E7C8683F
:10B8B00000F1080A54E7C86800F10C0A50E7C868AC
:10B8C00000F1040A4CE74FF0010B0BFA09F94EEABC
:10B8D000090E8DE7DFF83CE07645DCD00EF5803EC2
:10B8E00076457FF43DAFD6E7012E4FF0080A0CBF36
:10B8F0002061606134E74FF0000A31E70010024038
:10B900000008014000100140001401400004014003
:10B9100000002210000031108368194214BF01207A
:10B920000020704702B909040161704730B583B047
:10B93000D8B190F89534044603F0FF02002B5AD09A
:10B940000322002384F89524A371206801F00EFEE1
:10B95000237C251D8DF80030206895E80E0001F04D
:10B960004FFD30B1022384F895340125284603B0F9
:10B9700030BD0146206801F001FE0028F2D194F8A4
:10B9800004C0BCF1000F21D0234622464FF0010E27
:10B9900001461075D08501306045C2E9071182F873
:10B9A00015E0117642F8241FF3D100210A4683F8EE
:10B9B000541201316145C3E9972283F8552283F877
:10B9C0005822C3F8642203F12403F0D1237C2068B9
:10B9D0008DF8003095E80E0001F054FE0546002871
:10B9E000C0D101236074206884F8953402F09CF97A
:10B9F000284603B030BD80F89424FFF77DFA9FE716
:10BA000090F89434012B0FD010B501230446006840
:10BA100084F8943401F0A2FD206802F075F9002347
:10BA200084F89434184610BD022070472DE9F04F79
:10BA30000668044687B0304602F0B4F910B107B08A
:10BA4000BDE8F08F0546206802F07EF90028F6D0A8
:10BA5000D6F808382068C3F30D23C4F8D43402F0B4
:10BA600073F98107236806F5006903D55A6902F066
:10BA700002025A61184602F067F9C206236814D51B
:10BA80009A6922F010029A61376A07F4F012B2F54F
:10BA9000802F07F00F0800F0DB82B2F5402F00F096
:10BAA000FD819A6942F010029A61184602F04CF941
:10BAB000070300F19181206802F046F910F4802F0D
:10BAC000206840F0458102F03FF90028C0F2A582CD
:10BAD000206802F039F9030500F18480206802F043
:10BAE00033F910F4805F206840F0E48002F02CF914
:10BAF00010F4005F206840F0BD8002F025F90007D7
:10BB000000F1AF80206802F01FF901061DD5B3696E
:10BB100023F08003B3612279012A16D92746012533
:10BB200004E00135AA4207F124070ED997F87B32C9
:10BB3000012BF6D105EBC50104EB8101206801F56D
:10BB4000157101F0EFFF2279EBE7206802F0FCF8B5
:10BB5000C20245D52279012A25D906F51263274666
:10BB6000B046012526461C4606E00135AA4204F1EE
:10BB7000200407F1240714D997F83C302168012BE1
:10BB8000F3D10029F1DA05F00F0101EBC10187F8CB
:10BB90003B3006EB81013068143101F0C3FF32798C
:10BBA000E3E7344646462068436903F48013436163
:10BBB00002F0CAF8830220D4206802F0C5F84000E1
:10BBC0006FD4206802F0C0F841077FF538AF2368D2
:10BBD0005D686A0700F15B825A682A435A602EE763
:10BBE0002068E5E7D9F80830DF0700F155822068C2
:10BBF000436903F40063436171E794F804C0BCF146
:10BC0000010F28D92346012106F5326203E0614580
:10BC100003F124031FD093F87C021568012801F179
:10BC2000010102F12002F2D1002DF0DAD4F8D4742F
:10BC300087EA1547FF07EAD483F87B02B06940F032
:10BC40008000B06170690506E1D4D9F8043043F48E
:10BC50000073C9F804302068436903F4001343619A
:10BC6000ABE72046FFF7A2F92068436903F0080319
:10BC7000436148E702F09AF8206801F0A7FDE071FF
:10BC8000256800F0EFFEE2790146284601F0ECFB62
:10BC90002046FFF78FF92068436903F4005343619E
:10BCA0002BE72046FFF7A6F92068436903F080439D
:10BCB000436187E7D9F80430102123F00103C9F864
:10BCC000043001F091FC2079D8B14FF67F3106F5B0
:10BCD000106399601A68013522F400121A60C3F8E3
:10BCE0000812D3F80022854222F40012C3F8002281
:10BCF000D3F8002203F1200342F00062C3F8E021F0
:10BD0000E7D1D9F81C3043F00113C9F81C30E37BAC
:10BD1000002B00F0B480D9F8843043F00B03C9F84D
:10BD20008430D9F8443043F00B03C9F84430D6F8D6
:10BD30000038206823F4FE63C6F8003804F29C4102
:10BD400002F044F82068436903F480534361CDE670
:10BD500002F006F8002800F0B48080460295002228
:10BD6000B3462546206806F5106704E001324FEA25
:10BD700058082434203718F0010F07D101324FEA58
:10BD800058082434203718F0010FEFD0D6B23146CE
:10BD9000019201F0F7FF10F0010F0346019A40F005
:10BDA000F980190744BF0821B960D80644BF1021A3
:10BDB000B960590644BF4021B960980700F1DB80A3
:10BDC000190600F1888028685FEA580398467ED0FB
:10BDD000013224342037D6E7206801F0B9FF074646
:10BDE00000283FF468AE2146A0460295B3460025E0
:10BDF0000B4606F5306403E001357F082034243318
:10BE0000F80705D401357F0820342433F807F3D52B
:10BE1000D8F80000E9B2019301F0AAFF10F0010F79
:10BE20000646019B5FFA85FA40F0C880310700F1B1
:10BE3000DA80F20644BF1022A260B00710D5DBF80A
:10BE40001420110605D5D9F8042042F48062C9F8FF
:10BE5000042093F85722012A00F02C810222A260CC
:10BE6000B20644BF2022A260B60444BF4FF4005281
:10BE7000A2607F0827D0013520342433C6E7D9F8E3
:10BE8000143043F4005343F02B03C9F81430D9F8AD
:10BE9000103043F00B03C9F8103048E7082204F2D1
:10BEA0009C41304601F09CFE08EBC80204EB820284
:10BEB000D2F86812C7F30A130B44C2F86832236839
:10BEC000EFE52068FFE55E464446029DF3E52C461B
:10BED0005E46029DF7E5D4E9091E8E453FF673AF35
:10BEE000E069A1EB0E0C844528BF844628680CF15C
:10BEF000030C00F5106303EB42139A469B6905900F
:10BF00009BB2B3EB9C0FC0F0D180019704953746EC
:10BF100073460E460546039218E0E3693A469E4290
:10BF200028BF1E462846B3B2216A01F049FE236AA3
:10BF3000F01C33442362A36A3344A362DAF8182066
:10BF4000666A92B2B2EB900FC0F0AA80B342A6EB41
:10BF50000306E2D3DDE90325019F28680126059B3E
:10BF600002F00F0ED3F8341806FA0EF621EA060195
:10BF7000C3F8341828E7114658460393019201F09C
:10BF800033FBE17D019A0129039B00F09D80022192
:10BF9000B96015E702F00F0E0122D9F834C002FA99
:10BFA0000EFE2CEA0E0C0390C9F834C03146BA607C
:10BFB0002846FEF7F1FF039B019AF2E60122A260F8
:10BFC000D8F800204649106C02F5306202EB4512A9
:10BFD0008842D2F808C034D11CF4004F2CD04FF462
:10BFE0000041916022E70822A260D8F800203D4974
:10BFF000106C02F5306202EB45128842D2F808C09C
:10C0000005D91CF4004F1CBF4FF40041916040461D
:10C010000193FEF7AFFF019B0BE7D9F804302046F0
:10C0200023F00103C9F80430FEF7D8FF2068436904
:10C0300003F0004343614CE51CF0200F1CBF20219E
:10C040009160514640460193FEF79CFF019BEDE64F
:10C0500047F6F07217423FF424ADC7F30A121746B1
:10C0600008EBC80304EB8303D3F860123046019356
:10C0700001F0B6FD019BD3F860223A44C3F8602278
:10C08000D3F868223A44C3F86822236809E52046B9
:10C09000FEF7B4FF23689FE52046FEF79BFFA6E569
:10C0A0009E463146049D019F039A286871453FF6DC
:10C0B0008BAE53E70022514683F857224046019346
:10C0C000FEF790FF019BC9E600212846E175314645
:10C0D00003920193FEF78AFF039A019B57E700BF83
:10C0E0000A31544F0A30544F034690F89404012803
:10C0F00011D04FF0010C00B5186883B0597483F863
:10C1000094C4019301F0EEFD00221046019B83F8D8
:10C11000942403B000BD0220704700BF10B501F0A9
:10C120000F0E0EEBCE0C090682B04FEA8C0C26D413
:10C130004FF000040CF5157184448CF8554201440D
:10C140008A604A7881F800E00B710AB1A1F81AE020
:10C15000022B04BF00234B7190F89434012B17D0AD
:10C1600003460122006883F89424019301F036FB12
:10C1700000221046019B83F8942402B010BD4FF0BA
:10C1800001040CF1140184448CF815400144D7E7F4
:10C19000022002B010BD00BF01F00F0202EBC2038B
:10C1A00009064FEA83031DD44FF0000C03F5157107
:10C1B0000144034483F855C20A7090F89434012B6B
:10C1C0001DD00346012200B5006883B083F8942493
:10C1D000019301F04BFB00221046019B83F894244D
:10C1E00003B000BD4FF0010C03F1140101440344FE
:10C1F00083F815C00A7090F89434012BE1D1022025
:10C20000704700BF10B5002401F00F0101EBC10E13
:10C2100000EB8E0C8CF854128CF855420068CCF868
:10C220006022CCE999340CF5157101F081FB2046B0
:10C2300010BD00BF01F00F0101EBC10100EB810057
:10C24000D0F86802704700BF38B50125002401F01E
:10C250000F0101EBC10E00EB8E0C8CF814108CF862
:10C2600015500068CCF82020CCE909340CF11401F9
:10C2700001F05EFB204638BD037901F00F029342C6
:10C2800034D30B0626D44FF0000C01EBC1018B0018
:10C2900003F515710344014483F855C24FF0010CB6
:10C2A0000A7081F802C090F8943463452CD003469C
:10C2B00000B5006883B083F894C4CDE9003201F082
:10C2C000B7FCDDE900329AB10022104683F89424CD
:10C2D00003B000BD4FF0010C02EBC2039B0003F161
:10C2E00014010344014483F815C0D7E701207047C7
:10C2F00003F29C41186801F069FD00221046009B82
:10C3000083F8942403B000BD02207047037901F044
:10C310000F02934233D310B502EBC203090682B079
:10C320004FEA83031BD4002403F51571034483F8FB
:10C330005542002401440A708C7090F89434012B0B
:10C340001AD003460122006883F89424019301F077
:10C350009DFC2046019B83F8944402B010BD01244B
:10C3600003F1140103445C75002401440A708C70CD
:10C3700090F89434012BE4D1022002B010BD0120CA
:10C38000704700BF00B5D0F800E0DEF8243029B9CE
:10C3900043EA02430020CEF8283000BDDEF8280032
:10C3A000013903EB104C09D000230EEB8300D0F8C9
:10C3B000040101338B420CEB104CF6D140314CEAB6
:10C3C00002420EEB810E0020CEF8042000BD00BF1B
:10C3D00003461B6800205962704700BF002800F028
:10C3E000F38170B503680446D80782B035D5984903
:10C3F0004A6802F00C02042A00F044814A6802F004
:10C400000C02082A00F03A81A368B3F5803F10D0EF
:10C41000002B00F06281B3F5A02F00F0D7818C4B88
:10C420001A6822F480321A601A6822F480221A6094
:10C4300004E0874A136843F480331360FEF7AEFFCD
:10C44000054605E0FEF7AAFF401B642800F2428182
:10C450007F4B1B689B03F5D52368980729D57C4A39
:10C46000516811F00C0F00F0E180516801F00C01EF
:10C47000082900F0D7806369002B00F06681012253
:10C48000744B1A60FEF78AFF054605E0FEF786FF4B
:10C49000401B022800F21E816D4B1B689E07F5D5DC
:10C4A0006B49A2690B6823F0F80343EAC2030B60EF
:10C4B0002368190729D45E074DD5654BDA69D50085
:10C4C00000F1DA800126DA6942F08052DA61DB6934
:10C4D00003F080530093009B5F4B1B68D80540F12D
:10C4E000E7802369012B00F05781002B00F00C81BD
:10C4F000052B574B1A6A00F0AD8122F001021A6237
:10C500001A6A22F004021A624BE1E369002B00F080
:10C51000978001224F4BC3F88024FEF73FFF05466A
:10C5200005E0FEF73BFF401B022800F2D380484B9A
:10C530005B6A9A07F5D5494B494A1B68A2FB03235E
:10C540005B0A019300BF019B5A1E0192002BF9D197
:10C5500023685E07B1D4E36A002B44D03C4A51689B
:10C56000C80305D5516801F00C01082900F08C8141
:10C57000022B40F0FB80364B1A68D20005D5DB6AEF
:10C58000626B03F0F003934257D10022314B9A665D
:10C59000FEF704FF054605E0FEF700FF401B642898
:10C5A00000F298802A4B1B681B01F5D40121284812
:10C5B000626BC36A23F0F0031343C362C36A226B46
:10C5C00023F470631343234AC3629166FEF7E6FEC9
:10C5D000054604E0FEF7E2FE401B64287AD81C4BB7
:10C5E0001B681E01F6D5236ACBB1194A526802F0C6
:10C5F0000C02082A00F036810022022B154B1A6625
:10C6000000F0F180FEF7CAFE044604E0FEF7C6FE25
:10C61000001B02285ED80E4B1B689B01F6D400203D
:10C6200002B070BD5268D1033FF525AF084A1268C9
:10C63000920731D56269012A2ED0012002B070BD67
:10C64000044AC2F88034FEF7A9FE05460FE000BF99
:10C6500000100240000042420070004070000020C4
:10C66000D34D6210FEF79AFE401B022832D8894B48
:10C670005B6A9B07F6D46BE700262DE74A68D10377
:10C680007FF5C2AE834A126892037FF5E6AEA268D8
:10C69000002A7FF4E2AED0E77E49A0690A6822F062
:10C6A000F80242EAC0020A6019077FF504AF2CE7DE
:10C6B000794A136843F480731360FEF76FFE0546F2
:10C6C000754B1B68D9053FF50CAFFEF767FE401BA5
:10C6D0006428F5D9032002B070BD6E4A136823F4B4
:10C6E00080331360136823F480231360FEF756FE33
:10C6F000054604E0FEF752FE401B6428EAD8654B6D
:10C700001B689E03F6D4A7E6624A136A23F001036E
:10C710001362136A23F004031362FEF73FFE05461B
:10C7200006E0FEF73BFE41F28833401B9842D1D829
:10C73000584B1B6A9B07F4D4002E3FF40CAF554AAC
:10C74000D36923F08053D36105E7544A1360FEF7A1
:10C7500025FE054604E0FEF721FE401B0228B9D85D
:10C760004C4B1B689807F6D42368A2E60021494881
:10C770004A4AC36A23F48033C3629166FEF70EFE11
:10C78000054604E0FEF70AFE401B6428A2D8414B90
:10C790001B681801F6D426E73E4A136A43F00103EA
:10C7A0001362FEF7FBFD054606E0FEF7F7FD41F2DA
:10C7B0008833401B98428DD8364B1B6A9A07F4D5B4
:10C7C000002E3FF4C8AEBAE70120704703F1804362
:10C7D000A3F53C331A6842F480221A601A6842F4C6
:10C7E00080321A602AE6FEF7D9FD054605E0FEF71D
:10C7F000D5FD401B02283FF66DAF264B1B68990103
:10C80000F5D4636AB3F5803F0AD122486168C26AF1
:10C810000A43C262C26AE16822F00F020A43C2629E
:10C820000120A16A1B4C0B4362681C4922F474125C
:10C83000134363600866FEF7B1FD044605E0FEF7AA
:10C84000ADFD001B02283FF645AF124B1B689A0155
:10C85000F5D5E4E642F004021A621A6A42F00102D7
:10C860001A629EE7012B3FF4E8AE0A4B626A5B68EE
:10C8700003F4803191427FF4E0AEA06A03F47013B8
:10C88000181A18BF0120CBE6D26AD1033FF5D5AE06
:10C890006EE600BF001002400070004000004242FF
:10C8A0001B494B6803F00C02082A01D01948704755
:10C8B0001948C3F3834210F802C0DA0310B5644686
:10C8C00010D5CB6A154AC86A03F00F03D25CC303C4
:10C8D0000CD4104804FB00F0B0FBF2F00D2C00D19A
:10C8E000400810BD0E4800FB0CF010BDCB6AC96AB1
:10C8F000C3F30313C1F303210231A1FB0C1005485C
:10C900000133A3FB0223A1FB0001FBF76BFCE5E76E
:10C910000010024000127A00DCF00008CCF00008A1
:10C9200000093D0078B14A4A136803F007038B42BF
:10C930000BD2136823F007030B431360136803F053
:10C9400007038B4201D00120704703682DE9F041B5
:10C950009A0714D55F0704D53E4C626842F4E06242
:10C9600062601E0704D53B4C626842F4605262600C
:10C97000384C8568626822F0F0022A436260DD0765
:10C980008846074620D54268324B012A1B6859D099
:10C99000022A54D0990728D52E4C41F28835636875
:10C9A00023F0030313436360FEF7F8FC064604E03C
:10C9B000FEF7F4FC801BA84247D863687A6803F04E
:10C9C0000C03B3EB820FF3D1214A136803F0070382
:10C9D00043450DD9136823F0070343EA08031360A6
:10C9E000136803F00703434502D00120BDE8F0813E
:10C9F0003B685A0706D51749F8684A6822F4E0628E
:10CA000002434A601B0707D5124A3969536823F469
:10CA1000605343EAC1035360FFF742FF03460D4AE8
:10CA20000D4952680D48C2F30312895C0C4ACB4091
:10CA300000681360FEF76CFC0020BDE8F0819801EF
:10CA4000AAD4D2E79C03A7D4CFE70320CEE700BF48
:10CA50000020024000100240BCF0000878000020D6
:10CA600070000020014B1868704700BF7000002064
:10CA70002DE9F04103680446DE0782B02FD5634BF1
:10CA8000DA69D50040F18E80614D00272B68D8050A
:10CA900040F197805D4D61682B6A13F4407312D0AA
:10CAA00001F440729A420ED0012600202B6A594AA6
:10CAB00023F44071C2F84064C2F84004DA072962E6
:10CAC00000F193806168514A136A23F440730B4369
:10CAD00013621FB1D36923F08053D36123689E078B
:10CAE00006D54A49A0684A6822F4404202434A6097
:10CAF0005D0706D54549E068CA6A22F40032024360
:10CB0000CA62180706D541492069CA6A22F4802200
:10CB10000243CA623D4AD16A89030FD4D26A5703DD
:10CB20000CD4DB0606D5394AE169536823F4800347
:10CB30000B435360002002B0BDE8F081334A116816
:10CB4000CE0025D4136801205D01A16904D5D36A04
:10CB500003F0F0038B42EED12C4DEB6A23F0F0038F
:10CB60000B43EB62EB6A626923F470431343294A77
:10CB7000EB621067FEF712FC064604E0FEF70EFCBF
:10CB8000801B64282DD82B689A00F7D52368C8E746
:10CB9000D26A616902F470428A42C2D0012002B0B6
:10CBA000BDE8F081DA691A4D42F08052DA61DB6942
:10CBB000012703F080530193019B2B68D8053FF5B3
:10CBC00069AF2B6843F480732B60FEF7E7FB0646E2
:10CBD0002B68D9053FF55EAFFEF7E0FB801B6428AC
:10CBE000F6D9032002B0BDE8F081FEF7D7FB41F291
:10CBF000883680462B6A9B073FF564AFFEF7CEFB75
:10CC0000A0EB0800B042F5D9EBE700BF00100240EE
:10CC10000070004000004242704700BF00287DD0F5
:10CC200038B590F820300446002B74D02268136881
:10CC300043F001031360FEF7B1FB054604E0FEF785
:10CC4000ADFB401B0A285DD823685A68D107F6D58A
:10CC50001A6822F002021A60FEF7A0FB054604E003
:10CC6000FEF79CFB401B0A284CD823685A689207A1
:10CC7000F6D4227E0025012A1A684FF0010C0CBF61
:10CC800042F0800222F080021A60627E2846012A69
:10CC90001A680CBF42F0400222F040021A60A27EE5
:10CCA000012A1A680CBF42F0200222F020021A600A
:10CCB000E27E012A1A680CBF22F0100242F0100234
:10CCC0001A60227F012A1A680CBF42F0080222F083
:10CCD00008021A60627F012A1A680CBF42F004023F
:10CCE00022F004021A60D4E902210A4321690A43AE
:10CCF00061690A43616801390A43DA61656284F84F
:10CD000020C038BD0522636A012043F4003363620A
:10CD100084F8202038BDFFF77FFF87E701207047A8
:10CD200090F820200346013A012A4FF0010004D96F
:10CD30005A6A42F480225A627047454BD3F8002267
:10CD40000243C3F80022D3F8002222F47C52C3F835
:10CD50000022D3F80022D1F824C042EA0C22C3F802
:10CD600000224A6902F01F0C00FA0CF0D3F81CC232
:10CD70002CEA000CC3F81CC2D1F81CC0BCF1000F97
:10CD800048D1D3F80CC2D2002CEA000CC3F80CC274
:10CD9000D1F80CC08B8802F1804243EA0C4302F5C3
:10CDA000C842D1F808C0C2F840320B8843EA0C43AD
:10CDB000C2F844328B69264A33BBD2F8043223EAE4
:10CDC0000003C2F804320B69214ABBB9D2F814320D
:10CDD00023EA0003C2F814320B6A012B05D11C4A66
:10CDE000D2F81C320343C2F81C32194A0020D2F890
:10CDF000003223F00103C2F800327047D2F8143237
:10CE00000343C2F81432E7E7D2F804320343C2F80E
:10CE10000432D8E7BCF1010FCCD1D3F80CC2D20058
:10CE20004CEA000CC3F80CC2D1F800C08B8802F1A8
:10CE3000804243EA0C4302F5C842D1F808C0C2F868
:10CE400040328B8943EA0C43C2F84432B2E700BF58
:10CE50000064004038B590F820300446012B05D01E
:10CE6000436A43F400234362012038BD0223026871
:10CE700080F82030136823F001031360FEF78EFA68
:10CE8000054604E0FEF78AFA431B0A2B07D82368FD
:10CE90005B6813F00103F5D11846636238BD0522C3
:10CEA000636A43F40033636284F82020DCE700BF48
:10CEB00010B590F820E0D0F800C00EF1FF3EBEF1B2
:10CEC000010F1C46DCF8083033D813F0E05F42D085
:10CED0004FF0010EC3F301600EFA00F32360D1E9B5
:10CEE000023E63BB0B684EEA435300F1180E4FEA53
:10CEF0000E1E4CF80E300C690CEB0013C3F8844185
:10CF0000097D012905D1D3F8841141F48071C3F85A
:10CF1000841151680CEB001CCCF88C1112680020B5
:10CF2000CCF88821D3F8802142F00102C3F8802197
:10CF300010BD436A43F480234362012010BD4C6856
:10CF400043EA0E0300F1180E43EAC4034FEA0E1E33
:10CF50004CF80E30CFE7436A43F400134362ECE72A
:10CF600090F82030013B012B01D900207047036865
:10CF700098689A689B681201C0F3806048BF0130CE
:10CF8000DB00F3D50130704790F820C00CF1FF3C76
:10CF9000BCF1010F78D830B5D0F800C051B9DCF839
:10CFA0000CE01EF0030F0AD1436A43F400134362FE
:10CFB000012030BDDCF810E01EF0030FF4D00CEBC4
:10CFC000011EDEF8B04104F004049460002C61D02E
:10CFD000DEF8B041E4085460DEF8B0410CEB011C0F
:10CFE00004F00204D460DEF8B44124074EBF0824E4
:10CFF000DEF8B44104F00F041461DEF8B441DEF849
:10D00000B4E1DCF8B8514FEA1E4EC4F3072CC2F865
:10D0100018C0C2F814E01D70026802EB0112D2F8C9
:10D02000B821120A5A70026802EB0112D2F8B82134
:10D03000120C9A70026802EB0112D2F8B821120E9B
:10D04000DA70026802EB0112D2F8BC211A71026890
:10D0500002EB0112D2F8BC21120A5A71026802EBEB
:10D060000112D2F8BC21120C9A71026802EB011273
:10D07000D2F8BC21120EDA71036881B9DA6842F085
:10D080002002DA60002030BD436A43F4802343620B
:10D0900001207047DEF8B041640D14609CE71A6906
:10D0A00042F020021A61EDE790F820200346013A91
:10D0B000012A05D95A6A012042F480225A62704737
:10D0C0000268002053690B4353617047704700BFEB
:10D0D000704700BF704700BF704700BF704700BF78
:10D0E000704700BF704700BF704700BF704700BF68
:10D0F000704700BF704700BF03682DE9F0435C69CB
:10D100005F689A68D9681E690546B0469E6983B013
:10D11000B14614F001061FD0D60700F18280002628
:10D12000D0050BD54FF480702B689860930500F103
:10D13000BA80500540F1D88046F40056D0030BD594
:10D140004FF480302B689860930300F19F80500368
:10D1500040F1CF8046F40046230701D5C8065AD4D3
:10D16000620701D50B0771D4A00703D52B68DB68D4
:10D17000990772D1620602D518F0100F5CD1A30690
:10D1800002D518F0080F73D1E00603D52B681B6990
:10D19000990757D1A20301D5FB0662D4E00301D55C
:10D1A00039076CD4220431D57B072A682CD509F0C5
:10D1B000010314F4807F43EA060318BF1E46A70547
:10D1C00017D519F0020F14D0600546F0020604F4DA
:10D1D000006372D519F0040F6DD193B90423536025
:10D1E0006B6A284633436B62FCF768FA03B0BDE80C
:10D1F000F083610504F4006302D519F0040F5AD1DD
:10D2000013B119F070035DD104235360002EE7D1F0
:10D2100003B0BDE8F08310222B6846F40076DA6094
:10D220009EE701269E60960736D4530766D41607FC
:10D2300074D54FF4805673E710222B6846F480664D
:10D240001A619CE72846FFF74FFFA3E708222B68E7
:10D250002846DA60FFF746FF86E72846FCF786FC9B
:10D2600088E710222B6828465A60FFF741FF95E7B0
:10D2700008222B6828461A61FFF738FF84E7082246
:10D280002B6828465A60FFF735FF8BE72846009148
:10D29000FFF720FF00995FE7CDE90021FFF716FFB8
:10D2A000DDE900213BE72846CDE90021FFF710FF2B
:10D2B000DDE9002142E746F00406002B8ED019F08C
:10D2C00070038BD0402B43D01BD8202B5BD0302B4E
:10D2D00050D0102B37D10421936946F0080623F073
:10D2E0007003936151607BE7130524D546F48046B3
:10D2F00024E7120319D546F480362DE74FF4006673
:10D300000EE7502B2DD0602B1DD10421936946F4DC
:10D31000807623F070039361516061E7CDE90021CD
:10D32000FFF7DAFEDDE90021F9E628460091FFF774
:10D33000D7FE009910E72846CDE90021FFF7CEFE81
:10D34000DDE90021FAE6936923F0700393615BE75E
:10D350000421936946F0400623F070039361516005
:10D360003EE70421936946F0800623F07003936141
:10D37000516035E70421936946F0200623F07003DD
:10D38000936151602CE70421936946F0100623F065
:10D3900070039361516023E730B370B504464CF6D7
:10D3A000CC45D4E9003145F25550A2681D601860A3
:10D3B00059609A60FDF7F2FF23680546DA68900726
:10D3C0000DD041F23C36FDF7E9FF401BB042236827
:10D3D00002D9DA68910709D1DA689207F3D14AF6DF
:10D3E000AA2200201A6070BD01207047032070BD82
:10D3F00003464AF6AA221B6800201A60704700BF45
:10D4000084B082B00DF10C0C8CE80E000021C368D2
:10D41000024643F04003C360019102E01369002B10
:10D420000EDB019B01330193019BB3F1706FF5D9C2
:10D430000320936B43F48033936302B004B07047CE
:10D4400000230193136943F00103136103E01069A2
:10D4500010F00100EDD0019B01330193019BB3F16A
:10D46000706FF4D9E4E700BF022A03460AD04FF4F4
:10D470001051DA68002022F47052DA60DA680A4348
:10D48000DA607047264A27488A18824232D9264AEB
:10D4900026488A18824230D92548A1F57402A2F59F
:10D4A000105282422CD92348A1F18372A2F5E7429F
:10D4B000824228D3204A21488A18824226D9204A0B
:10D4C00020488A18824224D31F4A20488A18824260
:10D4D000CDD31F48A1F1B772A2F5585282421BD397
:10D4E0001C4A1D488A1882422CBF4FF4C0514FF489
:10D4F000E051BEE74FF47051BBE74FF46051B8E71D
:10D500004FF45051B5E74FF44051B2E74FF430516A
:10D51000AFE74FF42051ACE74FF40051A9E700BF4B
:10D52000405327FFFF340C00401E1BFF3F420F00FB
:10D530007F4F120020D6130060B6E5FE5FE31600B1
:10D5400000D3CEFE40771B00C05BB3FEC09121002C
:10D5500020753800E05459FEE09C410003469A686B
:10D56000002042F001029A60704700BF03469A68AB
:10D57000002022F001029A60704700BF38B5C368EE
:10D58000012923F0C0430546C36017D0A1B9C36881
:10D590000C4643F08043C36001E0C82C0CD00A2045
:10D5A000FDF702FF6B690A34DB07F6D4A4F1C8006B
:10D5B000B0FA80F0400938BD012038BDC3680024AE
:10D5C00043F00053C36001E0C82CF5D00A20FDF7FA
:10D5D000EBFE6B690A34DA07F6D5A4F1C800B0FA9D
:10D5E00080F04009E7E700BF002382B0019302E02A
:10D5F0000369002B09DB019B01330193019BB3F10C
:10D60000706FF5D9032002B070470023890141F003
:10D6100020010193016103E0036913F0200307D0A7
:10D62000019B01330193019BB3F1706FF4D9E9E7DA
:10D63000184602B0704700BF002382B0019302E099
:10D640000369002B09DB019B01330193019BB3F1BB
:10D65000706FF5D9032002B07047002210230192A9
:10D66000036103E0036913F0100307D0019B01334A
:10D670000193019BB3F1706FF4D9EBE7184602B048
:10D68000704700BF84B0F8B507AD85E80E000023F1
:10D6900004461D469DF81C6004EB830201330F2BEA
:10D6A000C2F80451F8D1A36B102143F40023A36303
:10D6B000C4F8005ED4F80038204643F00303C4F8F1
:10D6C0000038FFF791FF01462046FFF7B5FF41EA1A
:10D6D000000C5FFA8CFCBCF1000C04F500673D61A6
:10D6E00018BF4FF0010C7D61FD61002E39D0D4F8D8
:10D6F000002904F51063002A5ADB0022002119607A
:10D7000000254FF67F310132B2421D6199600BD086
:10D7100053F8200F0028F1DA4FF090400132B24266
:10D7200018601D619960F3D1D4F8002B04F53063C3
:10D73000002A43DB00220021196000204FF67F35CC
:10D740000132B24218619D600BD053F8201F0029AE
:10D75000F1DA4FF090410132B242196018619D60D8
:10D76000F3D16FF0804200203B699DF8221023F432
:10D7700080733B61A0616261A269134B42F01002A9
:10D78000A261A2691343A36119B1A36943F008031D
:10D79000A3619DF82630012B05D1A36943F0804396
:10D7A00043F00403A3616046BDE8F84004B070474D
:10D7B0004FF000610022C4F80019A1E74FF00061AA
:10D7C0000022C4F8001BB8E700383C80D0F80838C5
:10D7D00013F0020F14BF02200F207047012310B571
:10D7E0000A7891F801E002F00F04BEF1010F00F594
:10D7F000006C03FA04F300EB42101AD0DCF81C2092
:10D8000042EA0343CCF81C30D0F8003B1B040ED492
:10D810008B68D0F8004B0A79C3F30A03234343EA29
:10D82000824343F0805343F40043C0F8003B0020A0
:10D8300010BDDCF81C402343CCF81C30D0F8003974
:10D840001C04F4D48B68D0F800490979C3F30A03A7
:10D85000234343EA814343EA825343F0805343F432
:10D860000043C0F80039002010BD00BF00B50A78A1
:10D87000497800EB421301292CD0D3F8001B002972
:10D880001BDB4FF48031D0F83CE802F00F0201FAC4
:10D8900002F22EEA0201C0F83C18D0F81C18DFF89A
:10D8A00088C021EA0202C0F81C28D3F8002B00200F
:10D8B00002EA0C0CC3F800CB00BDD3F8001B41F00A
:10D8C0000061C3F8001BD3F8001B41F08041C3F88E
:10D8D000001BD6E7D3F8001900290BDAD3F800199A
:10D8E00041F00061C3F80019D3F8001941F08041FC
:10D8F000C3F800190121D0F83CE802F00F0201FA48
:10D9000002F22EEA0201C0F83C18D0F81C1821EAF5
:10D910000202C0F81C28D3F8002904481040C3F8BC
:10D920000009002000BD00BF0078F3EF007833EC61
:10D9300070B591F801C00D78BCF1010F0A690C793E
:10D9400000EB451355D0D3F810CB03F5306E6FF3D1
:10D95000120CC3F810CBD3F810CB6FF3DC4CC3F828
:10D9600010CBD1F808C04DBB0AB1C1F810C0C1F846
:10D9700020C0DEF81020CCF3120C4CEA0202CEF8E4
:10D980001020DEF8102042F40022CEF81020012CE6
:10D990000CD1D0F8082812F4807FD3F8002B0CBFEC
:10D9A00042F0005242F08052C3F8002BD3F8002B13
:10D9B00042F00442C3F8002B002070BD002AD8D0EA
:10D9C0006244013AB2FBFCF295B20CFB05F2DFF8BF
:10D9D00050C1DEF810600CEAC54535430A62CEF846
:10D9E0001050DEF81010C2F312020A43CEF81020D5
:10D9F000CDE703F5106CDCF810E0AAB36FF3120E5C
:10DA0000CCF810E0DCF810E06FF3DC4ECCF810E05E
:10DA1000D1F808E0002D60D196453CBFC1F810E078
:10DA20007246DCF810E04EF4002ECCF810E0DCF882
:10DA30001060C2F3120E4EEA060E012CCCF810E074
:10DA40005AD0D3F8001941F00441C3F80019002A54
:10DA5000B2D00123D0F8342805F00F05AB401343B2
:10DA6000C0F83438002070BD6FF3DC4ECCF810E005
:10DA7000DCF810E0012C4EF4002ECCF810E0DCF8BD
:10DA800010E06FF3120ECCF810E0D3F800C94CF0A0
:10DA9000044CC3F800C98FD1D0F8084892B214F4EE
:10DAA000807FD3F8004902F103020CBF44F0005418
:10DAB00044F080549208C3F800493FF47DAFCB682E
:10DAC00000EB053505F5805503EB820153F8042B77
